{
  "_format": "hh-sol-artifact-1",
  "contractName": "RolesAndRights",
  "sourceName": "contracts/accessrights.sol",
  "abi": [
    {
      "inputs": [],
      "stateMutability": "nonpayable",
      "type": "constructor"
    },
    {
      "anonymous": false,
      "inputs": [
        {
          "indexed": true,
          "internalType": "uint256",
          "name": "docterId",
          "type": "uint256"
        },
        {
          "indexed": true,
          "internalType": "string",
          "name": "email",
          "type": "string"
        }
      ],
      "name": "DocterCreated",
      "type": "event"
    },
    {
      "anonymous": false,
      "inputs": [
        {
          "indexed": true,
          "internalType": "uint256",
          "name": "patientId",
          "type": "uint256"
        },
        {
          "indexed": true,
          "internalType": "string",
          "name": "email",
          "type": "string"
        }
      ],
      "name": "PatientCreated",
      "type": "event"
    },
    {
      "anonymous": false,
      "inputs": [
        {
          "indexed": true,
          "internalType": "string",
          "name": "email",
          "type": "string"
        },
        {
          "indexed": false,
          "internalType": "uint256",
          "name": "money",
          "type": "uint256"
        }
      ],
      "name": "moneyReceived",
      "type": "event"
    },
    {
      "anonymous": false,
      "inputs": [
        {
          "indexed": true,
          "internalType": "uint256",
          "name": "tokenId",
          "type": "uint256"
        }
      ],
      "name": "tokenIdCreated",
      "type": "event"
    },
    {
      "inputs": [
        {
          "internalType": "string",
          "name": "email",
          "type": "string"
        },
        {
          "internalType": "uint256",
          "name": "tokenId",
          "type": "uint256"
        }
      ],
      "name": "addDocuments",
      "outputs": [],
      "stateMutability": "nonpayable",
      "type": "function"
    },
    {
      "inputs": [
        {
          "internalType": "string",
          "name": "emailD",
          "type": "string"
        },
        {
          "internalType": "string",
          "name": "emailP",
          "type": "string"
        }
      ],
      "name": "approve",
      "outputs": [],
      "stateMutability": "nonpayable",
      "type": "function"
    },
    {
      "inputs": [
        {
          "internalType": "string",
          "name": "email",
          "type": "string"
        }
      ],
      "name": "createDocter",
      "outputs": [],
      "stateMutability": "nonpayable",
      "type": "function"
    },
    {
      "inputs": [
        {
          "internalType": "string",
          "name": "email",
          "type": "string"
        }
      ],
      "name": "createPatient",
      "outputs": [],
      "stateMutability": "nonpayable",
      "type": "function"
    },
    {
      "inputs": [
        {
          "internalType": "string",
          "name": "tokenURI",
          "type": "string"
        }
      ],
      "name": "createToken",
      "outputs": [
        {
          "internalType": "uint256",
          "name": "",
          "type": "uint256"
        }
      ],
      "stateMutability": "nonpayable",
      "type": "function"
    },
    {
      "inputs": [
        {
          "internalType": "string",
          "name": "email",
          "type": "string"
        },
        {
          "internalType": "bool",
          "name": "anon",
          "type": "bool"
        }
      ],
      "name": "donateMoney",
      "outputs": [
        {
          "internalType": "bool",
          "name": "",
          "type": "bool"
        }
      ],
      "stateMutability": "payable",
      "type": "function"
    },
    {
      "inputs": [
        {
          "internalType": "string",
          "name": "email",
          "type": "string"
        }
      ],
      "name": "getDocters",
      "outputs": [
        {
          "internalType": "string[]",
          "name": "",
          "type": "string[]"
        }
      ],
      "stateMutability": "view",
      "type": "function"
    },
    {
      "inputs": [
        {
          "internalType": "string",
          "name": "emailP",
          "type": "string"
        },
        {
          "internalType": "string",
          "name": "emailD",
          "type": "string"
        }
      ],
      "name": "getPatientDetails",
      "outputs": [
        {
          "internalType": "uint256[]",
          "name": "",
          "type": "uint256[]"
        }
      ],
      "stateMutability": "view",
      "type": "function"
    },
    {
      "inputs": [
        {
          "internalType": "string",
          "name": "email",
          "type": "string"
        }
      ],
      "name": "getPatients",
      "outputs": [
        {
          "internalType": "string[]",
          "name": "",
          "type": "string[]"
        }
      ],
      "stateMutability": "view",
      "type": "function"
    },
    {
      "inputs": [
        {
          "internalType": "string",
          "name": "emailD",
          "type": "string"
        },
        {
          "internalType": "string",
          "name": "emailP",
          "type": "string"
        }
      ],
      "name": "revoke",
      "outputs": [],
      "stateMutability": "nonpayable",
      "type": "function"
    }
  ],
  "bytecode": "0x608060405234801561001057600080fd5b50600160008190555033600460006101000a81548173ffffffffffffffffffffffffffffffffffffffff021916908373ffffffffffffffffffffffffffffffffffffffff160217905550600060018190555060006002819055506000600381905550612312806100816000396000f3fe6080604052600436106100915760003560e01c80633fd9d184116100595780633fd9d1841461018b57806345576f94146101bb578063778f3de0146101f8578063ac96b8aa14610221578063e1c83bdc1461024a57610091565b806309d1fc331461009657806310b40f85146100d35780632383c44e146100fc57806324a8fd341461012557806326bf0a3814610162575b600080fd5b3480156100a257600080fd5b506100bd60048036038101906100b89190611758565b610287565b6040516100ca9190611898565b60405180910390f35b3480156100df57600080fd5b506100fa60048036038101906100f59190611758565b61038f565b005b34801561010857600080fd5b50610123600480360381019061011e91906118ba565b610943565b005b34801561013157600080fd5b5061014c600480360381019061014791906118ba565b610a56565b6040516101599190611a44565b60405180910390f35b34801561016e57600080fd5b50610189600480360381019061018491906118ba565b610b50565b005b6101a560048036038101906101a09190611a9e565b610c3e565b6040516101b29190611b09565b60405180910390f35b3480156101c757600080fd5b506101e260048036038101906101dd91906118ba565b610cf0565b6040516101ef9190611b33565b60405180910390f35b34801561020457600080fd5b5061021f600480360381019061021a9190611758565b610d66565b005b34801561022d57600080fd5b5061024860048036038101906102439190611b7a565b61121a565b005b34801561025657600080fd5b50610271600480360381019061026c91906118ba565b611384565b60405161027e9190611a44565b60405180910390f35b60606001151560078360405161029d9190611c12565b9081526020016040518091039020846040516102b99190611c12565b908152602001604051809103902060009054906101000a900460ff16151514610317576040517f08c379a000000000000000000000000000000000000000000000000000000000815260040161030e90611c86565b60405180910390fd5b6006836040516103279190611c12565b908152602001604051809103902060030180548060200260200160405190810160405280929190818152602001828054801561038257602002820191906000526020600020905b81548152602001906001019080831161036e575b5050505050905092915050565b61039761147e565b600115156007836040516103ab9190611c12565b9081526020016040518091039020826040516103c79190611c12565b908152602001604051809103902060009054906101000a900460ff16151514610425576040517f08c379a000000000000000000000000000000000000000000000000000000000815260040161041c90611cf2565b60405180910390fd5b60006007836040516104379190611c12565b9081526020016040518091039020826040516104539190611c12565b908152602001604051809103902060006101000a81548160ff021916908315150217905550600060068260405161048a9190611c12565b908152602001604051809103902060020180549050905060006001826104b09190611d41565b67ffffffffffffffff8111156104c9576104c861162d565b5b6040519080825280602002602001820160405280156104fc57816020015b60608152602001906001900390816104e75790505b5090506000805b8381101561069e578560405160200161051c9190611c12565b604051602081830303815290604052805190602001206006866040516105429190611c12565b9081526020016040518091039020600201828154811061056557610564611d75565b5b9060005260206000200160405160200161057f9190611e9c565b604051602081830303815290604052805190602001201461068b576006856040516105aa9190611c12565b908152602001604051809103902060020181815481106105cd576105cc611d75565b5b9060005260206000200180546105e290611dd3565b80601f016020809104026020016040519081016040528092919081815260200182805461060e90611dd3565b801561065b5780601f106106305761010080835404028352916020019161065b565b820191906000526020600020905b81548152906001019060200180831161063e57829003601f168201915b505050505083838061066c90611eb3565b94508151811061067f5761067e611d75565b5b60200260200101819052505b808061069690611eb3565b915050610503565b50816006856040516106b09190611c12565b908152602001604051809103902060020190805190602001906106d49291906114d7565b506008856040516106e59190611c12565b9081526020016040518091039020600201805490509250600060018461070b9190611d41565b67ffffffffffffffff8111156107245761072361162d565b5b60405190808252806020026020018201604052801561075757816020015b60608152602001906001900390816107425790505b5090506000915060005b848110156108fc578560405160200161077a9190611c12565b604051602081830303815290604052805190602001206008886040516107a09190611c12565b908152602001604051809103902060020182815481106107c3576107c2611d75565b5b906000526020600020016040516020016107dd9190611e9c565b60405160208183030381529060405280519060200120146108e9576008876040516108089190611c12565b9081526020016040518091039020600201818154811061082b5761082a611d75565b5b90600052602060002001805461084090611dd3565b80601f016020809104026020016040519081016040528092919081815260200182805461086c90611dd3565b80156108b95780601f1061088e576101008083540402835291602001916108b9565b820191906000526020600020905b81548152906001019060200180831161089c57829003601f168201915b50505050508284806108ca90611eb3565b9550815181106108dd576108dc611d75565b5b60200260200101819052505b80806108f490611eb3565b915050610761565b508060088760405161090e9190611c12565b908152602001604051809103902060020190805190602001906109329291906114d7565b505050505061093f6114cd565b5050565b61094b61147e565b6002600081548092919061095e90611eb3565b919050555060608060405180608001604052806002548152602001848152602001838152602001828152506006846040516109999190611c12565b90815260200160405180910390206000820151816000015560208201518160010190816109c69190612092565b5060408201518160020190805190602001906109e39291906114d7565b506060820151816003019080519060200190610a00929190611530565b5090505082604051610a129190611c12565b60405180910390206002547f134fda0ae4fafca781b872311cca14ccbfaf969fd15c52f58e9a93de5d23180760405160405180910390a35050610a536114cd565b50565b6060600882604051610a689190611c12565b9081526020016040518091039020600201805480602002602001604051908101604052809291908181526020016000905b82821015610b45578382906000526020600020018054610ab890611dd3565b80601f0160208091040260200160405190810160405280929190818152602001828054610ae490611dd3565b8015610b315780601f10610b0657610100808354040283529160200191610b31565b820191906000526020600020905b815481529060010190602001808311610b1457829003601f168201915b505050505081526020019060010190610a99565b505050509050919050565b610b5861147e565b60016000815480929190610b6b90611eb3565b919050555060606040518060600160405280600154815260200183815260200182815250600883604051610b9f9190611c12565b9081526020016040518091039020600082015181600001556020820151816001019081610bcc9190612092565b506040820151816002019080519060200190610be99291906114d7565b5090505081604051610bfb9190611c12565b60405180910390206001547fea156934655ce49eb3a326e33cd7089b144169217ba22211032479b6b429372560405160405180910390a350610c3b6114cd565b50565b6000610c4861147e565b60003411610c8b576040517f08c379a0000000000000000000000000000000000000000000000000000000008152600401610c82906121b0565b60405180910390fd5b81610cde5782604051610c9e9190611c12565b60405180910390207fd76f471a6cfd25ffcda8864cd32f43f578933212dad6affaa5ac113086c5c54634604051610cd59190611b33565b60405180910390a25b60019050610cea6114cd565b92915050565b600060036000815480929190610d0590611eb3565b9190505550816005600060035481526020019081526020016000209081610d2c9190612092565b506003547f0c01e484cc8325eff46e7cfc59a0995a96e6c979aaa3b2000bd9e1ab6e813a4560405160405180910390a26003549050919050565b610d6e61147e565b60001515600783604051610d829190611c12565b908152602001604051809103902082604051610d9e9190611c12565b908152602001604051809103902060009054906101000a900460ff16151514610dfc576040517f08c379a0000000000000000000000000000000000000000000000000000000008152600401610df39061221c565b60405180910390fd5b6001600783604051610e0e9190611c12565b908152602001604051809103902082604051610e2a9190611c12565b908152602001604051809103902060006101000a81548160ff0219169083151502179055506000600682604051610e619190611c12565b90815260200160405180910390206002018054905090506000600182610e87919061223c565b67ffffffffffffffff811115610ea057610e9f61162d565b5b604051908082528060200260200182016040528015610ed357816020015b6060815260200190600190039081610ebe5790505b50905083818381518110610eea57610ee9611d75565b5b602002602001018190525060005b82811015610ff757600684604051610f109190611c12565b90815260200160405180910390206002018181548110610f3357610f32611d75565b5b906000526020600020018054610f4890611dd3565b80601f0160208091040260200160405190810160405280929190818152602001828054610f7490611dd3565b8015610fc15780601f10610f9657610100808354040283529160200191610fc1565b820191906000526020600020905b815481529060010190602001808311610fa457829003601f168201915b5050505050828281518110610fd957610fd8611d75565b5b60200260200101819052508080610fef90611eb3565b915050610ef8565b50806006846040516110099190611c12565b9081526020016040518091039020600201908051906020019061102d9291906114d7565b5060088460405161103e9190611c12565b90815260200160405180910390206002018054905091506000600183611064919061223c565b67ffffffffffffffff81111561107d5761107c61162d565b5b6040519080825280602002602001820160405280156110b057816020015b606081526020019060019003908161109b5790505b509050838184815181106110c7576110c6611d75565b5b602002602001018190525060005b838110156111d4576008866040516110ed9190611c12565b908152602001604051809103902060020181815481106111105761110f611d75565b5b90600052602060002001805461112590611dd3565b80601f016020809104026020016040519081016040528092919081815260200182805461115190611dd3565b801561119e5780601f106111735761010080835404028352916020019161119e565b820191906000526020600020905b81548152906001019060200180831161118157829003601f168201915b50505050508282815181106111b6576111b5611d75565b5b602002602001018190525080806111cc90611eb3565b9150506110d5565b50806008866040516111e69190611c12565b9081526020016040518091039020600201908051906020019061120a9291906114d7565b505050506112166114cd565b5050565b61122261147e565b60006006836040516112349190611c12565b9081526020016040518091039020600301805490509050600060018261125a919061223c565b67ffffffffffffffff8111156112735761127261162d565b5b6040519080825280602002602001820160405280156112a15781602001602082028036833780820191505090505b509050828183815181106112b8576112b7611d75565b5b60200260200101818152505060005b8281101561133f576006856040516112df9190611c12565b9081526020016040518091039020600301818154811061130257611301611d75565b5b90600052602060002001548282815181106113205761131f611d75565b5b602002602001018181525050808061133790611eb3565b9150506112c7565b50806006856040516113519190611c12565b90815260200160405180910390206003019080519060200190611375929190611530565b5050506113806114cd565b5050565b60606006826040516113969190611c12565b9081526020016040518091039020600201805480602002602001604051908101604052809291908181526020016000905b828210156114735783829060005260206000200180546113e690611dd3565b80601f016020809104026020016040519081016040528092919081815260200182805461141290611dd3565b801561145f5780601f106114345761010080835404028352916020019161145f565b820191906000526020600020905b81548152906001019060200180831161144257829003601f168201915b5050505050815260200190600101906113c7565b505050509050919050565b6002600054036114c3576040517f08c379a00000000000000000000000000000000000000000000000000000000081526004016114ba906122bc565b60405180910390fd5b6002600081905550565b6001600081905550565b82805482825590600052602060002090810192821561151f579160200282015b8281111561151e57825182908161150e9190612092565b50916020019190600101906114f7565b5b50905061152c919061157d565b5090565b82805482825590600052602060002090810192821561156c579160200282015b8281111561156b578251825591602001919060010190611550565b5b50905061157991906115a1565b5090565b5b8082111561159d576000818161159491906115be565b5060010161157e565b5090565b5b808211156115ba5760008160009055506001016115a2565b5090565b5080546115ca90611dd3565b6000825580601f106115dc57506115fb565b601f0160209004906000526020600020908101906115fa91906115a1565b5b50565b6000604051905090565b600080fd5b600080fd5b600080fd5b600080fd5b6000601f19601f8301169050919050565b7f4e487b7100000000000000000000000000000000000000000000000000000000600052604160045260246000fd5b6116658261161c565b810181811067ffffffffffffffff821117156116845761168361162d565b5b80604052505050565b60006116976115fe565b90506116a3828261165c565b919050565b600067ffffffffffffffff8211156116c3576116c261162d565b5b6116cc8261161c565b9050602081019050919050565b82818337600083830152505050565b60006116fb6116f6846116a8565b61168d565b90508281526020810184848401111561171757611716611617565b5b6117228482856116d9565b509392505050565b600082601f83011261173f5761173e611612565b5b813561174f8482602086016116e8565b91505092915050565b6000806040838503121561176f5761176e611608565b5b600083013567ffffffffffffffff81111561178d5761178c61160d565b5b6117998582860161172a565b925050602083013567ffffffffffffffff8111156117ba576117b961160d565b5b6117c68582860161172a565b9150509250929050565b600081519050919050565b600082825260208201905092915050565b6000819050602082019050919050565b6000819050919050565b61180f816117fc565b82525050565b60006118218383611806565b60208301905092915050565b6000602082019050919050565b6000611845826117d0565b61184f81856117db565b935061185a836117ec565b8060005b8381101561188b5781516118728882611815565b975061187d8361182d565b92505060018101905061185e565b5085935050505092915050565b600060208201905081810360008301526118b2818461183a565b905092915050565b6000602082840312156118d0576118cf611608565b5b600082013567ffffffffffffffff8111156118ee576118ed61160d565b5b6118fa8482850161172a565b91505092915050565b600081519050919050565b600082825260208201905092915050565b6000819050602082019050919050565b600081519050919050565b600082825260208201905092915050565b60005b8381101561196957808201518184015260208101905061194e565b60008484015250505050565b60006119808261192f565b61198a818561193a565b935061199a81856020860161194b565b6119a38161161c565b840191505092915050565b60006119ba8383611975565b905092915050565b6000602082019050919050565b60006119da82611903565b6119e4818561190e565b9350836020820285016119f68561191f565b8060005b85811015611a325784840389528151611a1385826119ae565b9450611a1e836119c2565b925060208a019950506001810190506119fa565b50829750879550505050505092915050565b60006020820190508181036000830152611a5e81846119cf565b905092915050565b60008115159050919050565b611a7b81611a66565b8114611a8657600080fd5b50565b600081359050611a9881611a72565b92915050565b60008060408385031215611ab557611ab4611608565b5b600083013567ffffffffffffffff811115611ad357611ad261160d565b5b611adf8582860161172a565b9250506020611af085828601611a89565b9150509250929050565b611b0381611a66565b82525050565b6000602082019050611b1e6000830184611afa565b92915050565b611b2d816117fc565b82525050565b6000602082019050611b486000830184611b24565b92915050565b611b57816117fc565b8114611b6257600080fd5b50565b600081359050611b7481611b4e565b92915050565b60008060408385031215611b9157611b90611608565b5b600083013567ffffffffffffffff811115611baf57611bae61160d565b5b611bbb8582860161172a565b9250506020611bcc85828601611b65565b9150509250929050565b600081905092915050565b6000611bec8261192f565b611bf68185611bd6565b9350611c0681856020860161194b565b80840191505092915050565b6000611c1e8284611be1565b915081905092915050565b600082825260208201905092915050565b7f4163636573732044656e69656400000000000000000000000000000000000000600082015250565b6000611c70600d83611c29565b9150611c7b82611c3a565b602082019050919050565b60006020820190508181036000830152611c9f81611c63565b9050919050565b7f416c72656164792044656e696564000000000000000000000000000000000000600082015250565b6000611cdc600e83611c29565b9150611ce782611ca6565b602082019050919050565b60006020820190508181036000830152611d0b81611ccf565b9050919050565b7f4e487b7100000000000000000000000000000000000000000000000000000000600052601160045260246000fd5b6000611d4c826117fc565b9150611d57836117fc565b9250828203905081811115611d6f57611d6e611d12565b5b92915050565b7f4e487b7100000000000000000000000000000000000000000000000000000000600052603260045260246000fd5b7f4e487b7100000000000000000000000000000000000000000000000000000000600052602260045260246000fd5b60006002820490506001821680611deb57607f821691505b602082108103611dfe57611dfd611da4565b5b50919050565b60008190508160005260206000209050919050565b60008154611e2681611dd3565b611e308186611bd6565b94506001821660008114611e4b5760018114611e6057611e93565b60ff1983168652811515820286019350611e93565b611e6985611e04565b60005b83811015611e8b57815481890152600182019150602081019050611e6c565b838801955050505b50505092915050565b6000611ea88284611e19565b915081905092915050565b6000611ebe826117fc565b91507fffffffffffffffffffffffffffffffffffffffffffffffffffffffffffffffff8203611ef057611eef611d12565b5b600182019050919050565b60006020601f8301049050919050565b600082821b905092915050565b600060088302611f487fffffffffffffffffffffffffffffffffffffffffffffffffffffffffffffffff82611f0b565b611f528683611f0b565b95508019841693508086168417925050509392505050565b6000819050919050565b6000611f8f611f8a611f85846117fc565b611f6a565b6117fc565b9050919050565b6000819050919050565b611fa983611f74565b611fbd611fb582611f96565b848454611f18565b825550505050565b600090565b611fd2611fc5565b611fdd818484611fa0565b505050565b5b8181101561200157611ff6600082611fca565b600181019050611fe3565b5050565b601f8211156120465761201781611e04565b61202084611efb565b8101602085101561202f578190505b61204361203b85611efb565b830182611fe2565b50505b505050565b600082821c905092915050565b60006120696000198460080261204b565b1980831691505092915050565b60006120828383612058565b9150826002028217905092915050565b61209b8261192f565b67ffffffffffffffff8111156120b4576120b361162d565b5b6120be8254611dd3565b6120c9828285612005565b600060209050601f8311600181146120fc57600084156120ea578287015190505b6120f48582612076565b86555061215c565b601f19841661210a86611e04565b60005b828110156121325784890151825560018201915060208501945060208101905061210d565b8683101561214f578489015161214b601f891682612058565b8355505b6001600288020188555050505b505050505050565b7f4769766520612076616c696420616d6f756e7400000000000000000000000000600082015250565b600061219a601383611c29565b91506121a582612164565b602082019050919050565b600060208201905081810360008301526121c98161218d565b9050919050565b7f416c726561647920417070726f76656400000000000000000000000000000000600082015250565b6000612206601083611c29565b9150612211826121d0565b602082019050919050565b60006020820190508181036000830152612235816121f9565b9050919050565b6000612247826117fc565b9150612252836117fc565b925082820190508082111561226a57612269611d12565b5b92915050565b7f5265656e7472616e637947756172643a207265656e7472616e742063616c6c00600082015250565b60006122a6601f83611c29565b91506122b182612270565b602082019050919050565b600060208201905081810360008301526122d581612299565b905091905056fea264697066735822122089e38e292a29d2c93e88d06a14c72112cb66d1b904165aa02b0d1860fe35301964736f6c63430008140033",
  "linkReferences": {},
  "deployedLinkReferences": {}
}