{
  "_format": "hh-sol-artifact-1",
  "contractName": "RolesAndRights",
  "sourceName": "contracts/accessrights.sol",
  "abi": [
    {
      "inputs": [],
      "stateMutability": "nonpayable",
      "type": "constructor"
    },
    {
      "anonymous": false,
      "inputs": [
        {
          "indexed": true,
          "internalType": "uint256",
          "name": "docterId",
          "type": "uint256"
        },
        {
          "indexed": true,
          "internalType": "string",
          "name": "email",
          "type": "string"
        }
      ],
      "name": "DocterCreated",
      "type": "event"
    },
    {
      "anonymous": false,
      "inputs": [
        {
          "indexed": true,
          "internalType": "uint256",
          "name": "patientId",
          "type": "uint256"
        },
        {
          "indexed": true,
          "internalType": "string",
          "name": "email",
          "type": "string"
        }
      ],
      "name": "PatientCreated",
      "type": "event"
    },
    {
      "anonymous": false,
      "inputs": [
        {
          "indexed": true,
          "internalType": "string",
          "name": "email",
          "type": "string"
        },
        {
          "indexed": false,
          "internalType": "uint256",
          "name": "money",
          "type": "uint256"
        }
      ],
      "name": "moneyReceived",
      "type": "event"
    },
    {
      "anonymous": false,
      "inputs": [
        {
          "indexed": true,
          "internalType": "uint256",
          "name": "tokenId",
          "type": "uint256"
        }
      ],
      "name": "tokenIdCreated",
      "type": "event"
    },
    {
      "inputs": [
        {
          "internalType": "string",
          "name": "email",
          "type": "string"
        },
        {
          "internalType": "uint256",
          "name": "tokenId",
          "type": "uint256"
        }
      ],
      "name": "addDocuments",
      "outputs": [],
      "stateMutability": "nonpayable",
      "type": "function"
    },
    {
      "inputs": [
        {
          "internalType": "string",
          "name": "emailD",
          "type": "string"
        },
        {
          "internalType": "string",
          "name": "emailP",
          "type": "string"
        }
      ],
      "name": "approve",
      "outputs": [],
      "stateMutability": "nonpayable",
      "type": "function"
    },
    {
      "inputs": [
        {
          "internalType": "string",
          "name": "email",
          "type": "string"
        }
      ],
      "name": "createDocter",
      "outputs": [],
      "stateMutability": "nonpayable",
      "type": "function"
    },
    {
      "inputs": [
        {
          "internalType": "string",
          "name": "email",
          "type": "string"
        }
      ],
      "name": "createPatient",
      "outputs": [],
      "stateMutability": "nonpayable",
      "type": "function"
    },
    {
      "inputs": [
        {
          "internalType": "string",
          "name": "tokenURI",
          "type": "string"
        }
      ],
      "name": "createToken",
      "outputs": [],
      "stateMutability": "nonpayable",
      "type": "function"
    },
    {
      "inputs": [
        {
          "internalType": "string",
          "name": "email",
          "type": "string"
        },
        {
          "internalType": "bool",
          "name": "anon",
          "type": "bool"
        }
      ],
      "name": "donateMoney",
      "outputs": [
        {
          "internalType": "bool",
          "name": "",
          "type": "bool"
        }
      ],
      "stateMutability": "payable",
      "type": "function"
    },
    {
      "inputs": [
        {
          "internalType": "string",
          "name": "email",
          "type": "string"
        }
      ],
      "name": "getDocters",
      "outputs": [
        {
          "internalType": "string[]",
          "name": "",
          "type": "string[]"
        }
      ],
      "stateMutability": "view",
      "type": "function"
    },
    {
      "inputs": [
        {
          "internalType": "string",
          "name": "emailP",
          "type": "string"
        },
        {
          "internalType": "string",
          "name": "emailD",
          "type": "string"
        }
      ],
      "name": "getPatientDetails",
      "outputs": [
        {
          "internalType": "uint256[]",
          "name": "",
          "type": "uint256[]"
        }
      ],
      "stateMutability": "view",
      "type": "function"
    },
    {
      "inputs": [
        {
          "internalType": "string",
          "name": "email",
          "type": "string"
        }
      ],
      "name": "getPatients",
      "outputs": [
        {
          "internalType": "string[]",
          "name": "",
          "type": "string[]"
        }
      ],
      "stateMutability": "view",
      "type": "function"
    },
    {
      "inputs": [],
      "name": "getTokenIds",
      "outputs": [
        {
          "internalType": "uint256",
          "name": "",
          "type": "uint256"
        }
      ],
      "stateMutability": "view",
      "type": "function"
    },
    {
      "inputs": [
        {
          "internalType": "uint256",
          "name": "tokenId",
          "type": "uint256"
        }
      ],
      "name": "getTokenURI",
      "outputs": [
        {
          "internalType": "string",
          "name": "",
          "type": "string"
        }
      ],
      "stateMutability": "view",
      "type": "function"
    },
    {
      "inputs": [
        {
          "internalType": "string",
          "name": "emailD",
          "type": "string"
        },
        {
          "internalType": "string",
          "name": "emailP",
          "type": "string"
        }
      ],
      "name": "revoke",
      "outputs": [],
      "stateMutability": "nonpayable",
      "type": "function"
    }
  ],
  "bytecode": "0x608060405234801561001057600080fd5b50600160008190555033600460006101000a81548173ffffffffffffffffffffffffffffffffffffffff021916908373ffffffffffffffffffffffffffffffffffffffff1602179055506000600181905550600060028190555060006003819055506124ba806100816000396000f3fe6080604052600436106100a75760003560e01c80633fd9d184116100645780633fd9d184146101de57806345576f941461020e57806367f718a914610237578063778f3de014610262578063ac96b8aa1461028b578063e1c83bdc146102b4576100a7565b806309d1fc33146100ac57806310b40f85146100e95780632383c44e1461011257806324a8fd341461013b57806326bf0a38146101785780633bb3a24d146101a1575b600080fd5b3480156100b857600080fd5b506100d360048036038101906100ce9190611878565b6102f1565b6040516100e091906119b8565b60405180910390f35b3480156100f557600080fd5b50610110600480360381019061010b9190611878565b6103f9565b005b34801561011e57600080fd5b50610139600480360381019061013491906119da565b6109ad565b005b34801561014757600080fd5b50610162600480360381019061015d91906119da565b610ac0565b60405161016f9190611b64565b60405180910390f35b34801561018457600080fd5b5061019f600480360381019061019a91906119da565b610bba565b005b3480156101ad57600080fd5b506101c860048036038101906101c39190611bb2565b610ca8565b6040516101d59190611c29565b60405180910390f35b6101f860048036038101906101f39190611c83565b610d4d565b6040516102059190611cee565b60405180910390f35b34801561021a57600080fd5b50610235600480360381019061023091906119da565b610dff565b005b34801561024357600080fd5b5061024c610e7c565b6040516102599190611d18565b60405180910390f35b34801561026e57600080fd5b5061028960048036038101906102849190611878565b610e86565b005b34801561029757600080fd5b506102b260048036038101906102ad9190611d33565b61133a565b005b3480156102c057600080fd5b506102db60048036038101906102d691906119da565b6114a4565b6040516102e89190611b64565b60405180910390f35b6060600115156007836040516103079190611dcb565b9081526020016040518091039020846040516103239190611dcb565b908152602001604051809103902060009054906101000a900460ff16151514610381576040517f08c379a000000000000000000000000000000000000000000000000000000000815260040161037890611e2e565b60405180910390fd5b6006836040516103919190611dcb565b90815260200160405180910390206003018054806020026020016040519081016040528092919081815260200182805480156103ec57602002820191906000526020600020905b8154815260200190600101908083116103d8575b5050505050905092915050565b61040161159e565b600115156007836040516104159190611dcb565b9081526020016040518091039020826040516104319190611dcb565b908152602001604051809103902060009054906101000a900460ff1615151461048f576040517f08c379a000000000000000000000000000000000000000000000000000000000815260040161048690611e9a565b60405180910390fd5b60006007836040516104a19190611dcb565b9081526020016040518091039020826040516104bd9190611dcb565b908152602001604051809103902060006101000a81548160ff02191690831515021790555060006006826040516104f49190611dcb565b9081526020016040518091039020600201805490509050600060018261051a9190611ee9565b67ffffffffffffffff8111156105335761053261174d565b5b60405190808252806020026020018201604052801561056657816020015b60608152602001906001900390816105515790505b5090506000805b8381101561070857856040516020016105869190611dcb565b604051602081830303815290604052805190602001206006866040516105ac9190611dcb565b908152602001604051809103902060020182815481106105cf576105ce611f1d565b5b906000526020600020016040516020016105e99190612044565b60405160208183030381529060405280519060200120146106f5576006856040516106149190611dcb565b9081526020016040518091039020600201818154811061063757610636611f1d565b5b90600052602060002001805461064c90611f7b565b80601f016020809104026020016040519081016040528092919081815260200182805461067890611f7b565b80156106c55780601f1061069a576101008083540402835291602001916106c5565b820191906000526020600020905b8154815290600101906020018083116106a857829003601f168201915b50505050508383806106d69061205b565b9450815181106106e9576106e8611f1d565b5b60200260200101819052505b80806107009061205b565b91505061056d565b508160068560405161071a9190611dcb565b9081526020016040518091039020600201908051906020019061073e9291906115f7565b5060088560405161074f9190611dcb565b908152602001604051809103902060020180549050925060006001846107759190611ee9565b67ffffffffffffffff81111561078e5761078d61174d565b5b6040519080825280602002602001820160405280156107c157816020015b60608152602001906001900390816107ac5790505b5090506000915060005b8481101561096657856040516020016107e49190611dcb565b6040516020818303038152906040528051906020012060088860405161080a9190611dcb565b9081526020016040518091039020600201828154811061082d5761082c611f1d565b5b906000526020600020016040516020016108479190612044565b6040516020818303038152906040528051906020012014610953576008876040516108729190611dcb565b9081526020016040518091039020600201818154811061089557610894611f1d565b5b9060005260206000200180546108aa90611f7b565b80601f01602080910402602001604051908101604052809291908181526020018280546108d690611f7b565b80156109235780601f106108f857610100808354040283529160200191610923565b820191906000526020600020905b81548152906001019060200180831161090657829003601f168201915b50505050508284806109349061205b565b95508151811061094757610946611f1d565b5b60200260200101819052505b808061095e9061205b565b9150506107cb565b50806008876040516109789190611dcb565b9081526020016040518091039020600201908051906020019061099c9291906115f7565b50505050506109a96115ed565b5050565b6109b561159e565b600260008154809291906109c89061205b565b91905055506060806040518060800160405280600254815260200184815260200183815260200182815250600684604051610a039190611dcb565b9081526020016040518091039020600082015181600001556020820151816001019081610a30919061223a565b506040820151816002019080519060200190610a4d9291906115f7565b506060820151816003019080519060200190610a6a929190611650565b5090505082604051610a7c9190611dcb565b60405180910390206002547f134fda0ae4fafca781b872311cca14ccbfaf969fd15c52f58e9a93de5d23180760405160405180910390a35050610abd6115ed565b50565b6060600882604051610ad29190611dcb565b9081526020016040518091039020600201805480602002602001604051908101604052809291908181526020016000905b82821015610baf578382906000526020600020018054610b2290611f7b565b80601f0160208091040260200160405190810160405280929190818152602001828054610b4e90611f7b565b8015610b9b5780601f10610b7057610100808354040283529160200191610b9b565b820191906000526020600020905b815481529060010190602001808311610b7e57829003601f168201915b505050505081526020019060010190610b03565b505050509050919050565b610bc261159e565b60016000815480929190610bd59061205b565b919050555060606040518060600160405280600154815260200183815260200182815250600883604051610c099190611dcb565b9081526020016040518091039020600082015181600001556020820151816001019081610c36919061223a565b506040820151816002019080519060200190610c539291906115f7565b5090505081604051610c659190611dcb565b60405180910390206001547fea156934655ce49eb3a326e33cd7089b144169217ba22211032479b6b429372560405160405180910390a350610ca56115ed565b50565b6060600560008381526020019081526020016000208054610cc890611f7b565b80601f0160208091040260200160405190810160405280929190818152602001828054610cf490611f7b565b8015610d415780601f10610d1657610100808354040283529160200191610d41565b820191906000526020600020905b815481529060010190602001808311610d2457829003601f168201915b50505050509050919050565b6000610d5761159e565b60003411610d9a576040517f08c379a0000000000000000000000000000000000000000000000000000000008152600401610d9190612358565b60405180910390fd5b81610ded5782604051610dad9190611dcb565b60405180910390207fd76f471a6cfd25ffcda8864cd32f43f578933212dad6affaa5ac113086c5c54634604051610de49190611d18565b60405180910390a25b60019050610df96115ed565b92915050565b610e0761159e565b60036000815480929190610e1a9061205b565b9190505550806005600060035481526020019081526020016000209081610e41919061223a565b506003547f0c01e484cc8325eff46e7cfc59a0995a96e6c979aaa3b2000bd9e1ab6e813a4560405160405180910390a2610e796115ed565b50565b6000600354905090565b610e8e61159e565b60001515600783604051610ea29190611dcb565b908152602001604051809103902082604051610ebe9190611dcb565b908152602001604051809103902060009054906101000a900460ff16151514610f1c576040517f08c379a0000000000000000000000000000000000000000000000000000000008152600401610f13906123c4565b60405180910390fd5b6001600783604051610f2e9190611dcb565b908152602001604051809103902082604051610f4a9190611dcb565b908152602001604051809103902060006101000a81548160ff0219169083151502179055506000600682604051610f819190611dcb565b90815260200160405180910390206002018054905090506000600182610fa791906123e4565b67ffffffffffffffff811115610fc057610fbf61174d565b5b604051908082528060200260200182016040528015610ff357816020015b6060815260200190600190039081610fde5790505b5090508381838151811061100a57611009611f1d565b5b602002602001018190525060005b82811015611117576006846040516110309190611dcb565b9081526020016040518091039020600201818154811061105357611052611f1d565b5b90600052602060002001805461106890611f7b565b80601f016020809104026020016040519081016040528092919081815260200182805461109490611f7b565b80156110e15780601f106110b6576101008083540402835291602001916110e1565b820191906000526020600020905b8154815290600101906020018083116110c457829003601f168201915b50505050508282815181106110f9576110f8611f1d565b5b6020026020010181905250808061110f9061205b565b915050611018565b50806006846040516111299190611dcb565b9081526020016040518091039020600201908051906020019061114d9291906115f7565b5060088460405161115e9190611dcb565b9081526020016040518091039020600201805490509150600060018361118491906123e4565b67ffffffffffffffff81111561119d5761119c61174d565b5b6040519080825280602002602001820160405280156111d057816020015b60608152602001906001900390816111bb5790505b509050838184815181106111e7576111e6611f1d565b5b602002602001018190525060005b838110156112f45760088660405161120d9190611dcb565b908152602001604051809103902060020181815481106112305761122f611f1d565b5b90600052602060002001805461124590611f7b565b80601f016020809104026020016040519081016040528092919081815260200182805461127190611f7b565b80156112be5780601f10611293576101008083540402835291602001916112be565b820191906000526020600020905b8154815290600101906020018083116112a157829003601f168201915b50505050508282815181106112d6576112d5611f1d565b5b602002602001018190525080806112ec9061205b565b9150506111f5565b50806008866040516113069190611dcb565b9081526020016040518091039020600201908051906020019061132a9291906115f7565b505050506113366115ed565b5050565b61134261159e565b60006006836040516113549190611dcb565b9081526020016040518091039020600301805490509050600060018261137a91906123e4565b67ffffffffffffffff8111156113935761139261174d565b5b6040519080825280602002602001820160405280156113c15781602001602082028036833780820191505090505b509050828183815181106113d8576113d7611f1d565b5b60200260200101818152505060005b8281101561145f576006856040516113ff9190611dcb565b9081526020016040518091039020600301818154811061142257611421611f1d565b5b90600052602060002001548282815181106114405761143f611f1d565b5b60200260200101818152505080806114579061205b565b9150506113e7565b50806006856040516114719190611dcb565b90815260200160405180910390206003019080519060200190611495929190611650565b5050506114a06115ed565b5050565b60606006826040516114b69190611dcb565b9081526020016040518091039020600201805480602002602001604051908101604052809291908181526020016000905b8282101561159357838290600052602060002001805461150690611f7b565b80601f016020809104026020016040519081016040528092919081815260200182805461153290611f7b565b801561157f5780601f106115545761010080835404028352916020019161157f565b820191906000526020600020905b81548152906001019060200180831161156257829003601f168201915b5050505050815260200190600101906114e7565b505050509050919050565b6002600054036115e3576040517f08c379a00000000000000000000000000000000000000000000000000000000081526004016115da90612464565b60405180910390fd5b6002600081905550565b6001600081905550565b82805482825590600052602060002090810192821561163f579160200282015b8281111561163e57825182908161162e919061223a565b5091602001919060010190611617565b5b50905061164c919061169d565b5090565b82805482825590600052602060002090810192821561168c579160200282015b8281111561168b578251825591602001919060010190611670565b5b50905061169991906116c1565b5090565b5b808211156116bd57600081816116b491906116de565b5060010161169e565b5090565b5b808211156116da5760008160009055506001016116c2565b5090565b5080546116ea90611f7b565b6000825580601f106116fc575061171b565b601f01602090049060005260206000209081019061171a91906116c1565b5b50565b6000604051905090565b600080fd5b600080fd5b600080fd5b600080fd5b6000601f19601f8301169050919050565b7f4e487b7100000000000000000000000000000000000000000000000000000000600052604160045260246000fd5b6117858261173c565b810181811067ffffffffffffffff821117156117a4576117a361174d565b5b80604052505050565b60006117b761171e565b90506117c3828261177c565b919050565b600067ffffffffffffffff8211156117e3576117e261174d565b5b6117ec8261173c565b9050602081019050919050565b82818337600083830152505050565b600061181b611816846117c8565b6117ad565b90508281526020810184848401111561183757611836611737565b5b6118428482856117f9565b509392505050565b600082601f83011261185f5761185e611732565b5b813561186f848260208601611808565b91505092915050565b6000806040838503121561188f5761188e611728565b5b600083013567ffffffffffffffff8111156118ad576118ac61172d565b5b6118b98582860161184a565b925050602083013567ffffffffffffffff8111156118da576118d961172d565b5b6118e68582860161184a565b9150509250929050565b600081519050919050565b600082825260208201905092915050565b6000819050602082019050919050565b6000819050919050565b61192f8161191c565b82525050565b60006119418383611926565b60208301905092915050565b6000602082019050919050565b6000611965826118f0565b61196f81856118fb565b935061197a8361190c565b8060005b838110156119ab5781516119928882611935565b975061199d8361194d565b92505060018101905061197e565b5085935050505092915050565b600060208201905081810360008301526119d2818461195a565b905092915050565b6000602082840312156119f0576119ef611728565b5b600082013567ffffffffffffffff811115611a0e57611a0d61172d565b5b611a1a8482850161184a565b91505092915050565b600081519050919050565b600082825260208201905092915050565b6000819050602082019050919050565b600081519050919050565b600082825260208201905092915050565b60005b83811015611a89578082015181840152602081019050611a6e565b60008484015250505050565b6000611aa082611a4f565b611aaa8185611a5a565b9350611aba818560208601611a6b565b611ac38161173c565b840191505092915050565b6000611ada8383611a95565b905092915050565b6000602082019050919050565b6000611afa82611a23565b611b048185611a2e565b935083602082028501611b1685611a3f565b8060005b85811015611b525784840389528151611b338582611ace565b9450611b3e83611ae2565b925060208a01995050600181019050611b1a565b50829750879550505050505092915050565b60006020820190508181036000830152611b7e8184611aef565b905092915050565b611b8f8161191c565b8114611b9a57600080fd5b50565b600081359050611bac81611b86565b92915050565b600060208284031215611bc857611bc7611728565b5b6000611bd684828501611b9d565b91505092915050565b600082825260208201905092915050565b6000611bfb82611a4f565b611c058185611bdf565b9350611c15818560208601611a6b565b611c1e8161173c565b840191505092915050565b60006020820190508181036000830152611c438184611bf0565b905092915050565b60008115159050919050565b611c6081611c4b565b8114611c6b57600080fd5b50565b600081359050611c7d81611c57565b92915050565b60008060408385031215611c9a57611c99611728565b5b600083013567ffffffffffffffff811115611cb857611cb761172d565b5b611cc48582860161184a565b9250506020611cd585828601611c6e565b9150509250929050565b611ce881611c4b565b82525050565b6000602082019050611d036000830184611cdf565b92915050565b611d128161191c565b82525050565b6000602082019050611d2d6000830184611d09565b92915050565b60008060408385031215611d4a57611d49611728565b5b600083013567ffffffffffffffff811115611d6857611d6761172d565b5b611d748582860161184a565b9250506020611d8585828601611b9d565b9150509250929050565b600081905092915050565b6000611da582611a4f565b611daf8185611d8f565b9350611dbf818560208601611a6b565b80840191505092915050565b6000611dd78284611d9a565b915081905092915050565b7f4163636573732044656e69656400000000000000000000000000000000000000600082015250565b6000611e18600d83611bdf565b9150611e2382611de2565b602082019050919050565b60006020820190508181036000830152611e4781611e0b565b9050919050565b7f416c72656164792044656e696564000000000000000000000000000000000000600082015250565b6000611e84600e83611bdf565b9150611e8f82611e4e565b602082019050919050565b60006020820190508181036000830152611eb381611e77565b9050919050565b7f4e487b7100000000000000000000000000000000000000000000000000000000600052601160045260246000fd5b6000611ef48261191c565b9150611eff8361191c565b9250828203905081811115611f1757611f16611eba565b5b92915050565b7f4e487b7100000000000000000000000000000000000000000000000000000000600052603260045260246000fd5b7f4e487b7100000000000000000000000000000000000000000000000000000000600052602260045260246000fd5b60006002820490506001821680611f9357607f821691505b602082108103611fa657611fa5611f4c565b5b50919050565b60008190508160005260206000209050919050565b60008154611fce81611f7b565b611fd88186611d8f565b94506001821660008114611ff357600181146120085761203b565b60ff198316865281151582028601935061203b565b61201185611fac565b60005b8381101561203357815481890152600182019150602081019050612014565b838801955050505b50505092915050565b60006120508284611fc1565b915081905092915050565b60006120668261191c565b91507fffffffffffffffffffffffffffffffffffffffffffffffffffffffffffffffff820361209857612097611eba565b5b600182019050919050565b60006020601f8301049050919050565b600082821b905092915050565b6000600883026120f07fffffffffffffffffffffffffffffffffffffffffffffffffffffffffffffffff826120b3565b6120fa86836120b3565b95508019841693508086168417925050509392505050565b6000819050919050565b600061213761213261212d8461191c565b612112565b61191c565b9050919050565b6000819050919050565b6121518361211c565b61216561215d8261213e565b8484546120c0565b825550505050565b600090565b61217a61216d565b612185818484612148565b505050565b5b818110156121a95761219e600082612172565b60018101905061218b565b5050565b601f8211156121ee576121bf81611fac565b6121c8846120a3565b810160208510156121d7578190505b6121eb6121e3856120a3565b83018261218a565b50505b505050565b600082821c905092915050565b6000612211600019846008026121f3565b1980831691505092915050565b600061222a8383612200565b9150826002028217905092915050565b61224382611a4f565b67ffffffffffffffff81111561225c5761225b61174d565b5b6122668254611f7b565b6122718282856121ad565b600060209050601f8311600181146122a45760008415612292578287015190505b61229c858261221e565b865550612304565b601f1984166122b286611fac565b60005b828110156122da578489015182556001820191506020850194506020810190506122b5565b868310156122f757848901516122f3601f891682612200565b8355505b6001600288020188555050505b505050505050565b7f4769766520612076616c696420616d6f756e7400000000000000000000000000600082015250565b6000612342601383611bdf565b915061234d8261230c565b602082019050919050565b6000602082019050818103600083015261237181612335565b9050919050565b7f416c726561647920417070726f76656400000000000000000000000000000000600082015250565b60006123ae601083611bdf565b91506123b982612378565b602082019050919050565b600060208201905081810360008301526123dd816123a1565b9050919050565b60006123ef8261191c565b91506123fa8361191c565b925082820190508082111561241257612411611eba565b5b92915050565b7f5265656e7472616e637947756172643a207265656e7472616e742063616c6c00600082015250565b600061244e601f83611bdf565b915061245982612418565b602082019050919050565b6000602082019050818103600083015261247d81612441565b905091905056fea264697066735822122020050cffdad216bf45dbbfe1c2a45e03895e19bd2e7d39dffc9adb406b61e68664736f6c63430008140033",
  "linkReferences": {},
  "deployedLinkReferences": {}
}