{
  "_format": "hh-sol-artifact-1",
  "contractName": "RolesAndRights",
  "sourceName": "contracts/accessrights.sol",
  "abi": [
    {
      "inputs": [],
      "stateMutability": "nonpayable",
      "type": "constructor"
    },
    {
      "anonymous": false,
      "inputs": [
        {
          "indexed": true,
          "internalType": "uint256",
          "name": "docterId",
          "type": "uint256"
        },
        {
          "indexed": true,
          "internalType": "string",
          "name": "email",
          "type": "string"
        }
      ],
      "name": "DocterCreated",
      "type": "event"
    },
    {
      "anonymous": false,
      "inputs": [
        {
          "indexed": true,
          "internalType": "uint256",
          "name": "patientId",
          "type": "uint256"
        },
        {
          "indexed": true,
          "internalType": "string",
          "name": "email",
          "type": "string"
        }
      ],
      "name": "PatientCreated",
      "type": "event"
    },
    {
      "anonymous": false,
      "inputs": [
        {
          "indexed": true,
          "internalType": "string",
          "name": "email",
          "type": "string"
        },
        {
          "indexed": false,
          "internalType": "uint256",
          "name": "money",
          "type": "uint256"
        }
      ],
      "name": "moneyReceived",
      "type": "event"
    },
    {
      "anonymous": false,
      "inputs": [
        {
          "indexed": true,
          "internalType": "uint256",
          "name": "tokenId",
          "type": "uint256"
        }
      ],
      "name": "tokenIdCreated",
      "type": "event"
    },
    {
      "inputs": [
        {
          "internalType": "string",
          "name": "email",
          "type": "string"
        },
        {
          "internalType": "uint256",
          "name": "tokenId",
          "type": "uint256"
        }
      ],
      "name": "addDocuments",
      "outputs": [],
      "stateMutability": "nonpayable",
      "type": "function"
    },
    {
      "inputs": [
        {
          "internalType": "string",
          "name": "emailD",
          "type": "string"
        },
        {
          "internalType": "string",
          "name": "emailP",
          "type": "string"
        }
      ],
      "name": "approve",
      "outputs": [],
      "stateMutability": "nonpayable",
      "type": "function"
    },
    {
      "inputs": [
        {
          "internalType": "string",
          "name": "email",
          "type": "string"
        }
      ],
      "name": "createDocter",
      "outputs": [],
      "stateMutability": "nonpayable",
      "type": "function"
    },
    {
      "inputs": [
        {
          "internalType": "string",
          "name": "email",
          "type": "string"
        }
      ],
      "name": "createPatient",
      "outputs": [],
      "stateMutability": "nonpayable",
      "type": "function"
    },
    {
      "inputs": [
        {
          "internalType": "string",
          "name": "tokenURI",
          "type": "string"
        }
      ],
      "name": "createToken",
      "outputs": [],
      "stateMutability": "nonpayable",
      "type": "function"
    },
    {
      "inputs": [
        {
          "internalType": "string",
          "name": "email",
          "type": "string"
        },
        {
          "internalType": "bool",
          "name": "anon",
          "type": "bool"
        }
      ],
      "name": "donateMoney",
      "outputs": [
        {
          "internalType": "bool",
          "name": "",
          "type": "bool"
        }
      ],
      "stateMutability": "payable",
      "type": "function"
    },
    {
      "inputs": [
        {
          "internalType": "string",
          "name": "email",
          "type": "string"
        }
      ],
      "name": "getDocters",
      "outputs": [
        {
          "internalType": "string[]",
          "name": "",
          "type": "string[]"
        }
      ],
      "stateMutability": "view",
      "type": "function"
    },
    {
      "inputs": [
        {
          "internalType": "string",
          "name": "emailP",
          "type": "string"
        },
        {
          "internalType": "string",
          "name": "emailD",
          "type": "string"
        }
      ],
      "name": "getPatientDetails",
      "outputs": [
        {
          "internalType": "uint256[]",
          "name": "",
          "type": "uint256[]"
        }
      ],
      "stateMutability": "view",
      "type": "function"
    },
    {
      "inputs": [
        {
          "internalType": "string",
          "name": "email",
          "type": "string"
        }
      ],
      "name": "getPatients",
      "outputs": [
        {
          "internalType": "string[]",
          "name": "",
          "type": "string[]"
        }
      ],
      "stateMutability": "view",
      "type": "function"
    },
    {
      "inputs": [],
      "name": "getTokenIds",
      "outputs": [
        {
          "internalType": "uint256",
          "name": "",
          "type": "uint256"
        }
      ],
      "stateMutability": "view",
      "type": "function"
    },
    {
      "inputs": [
        {
          "internalType": "uint256",
          "name": "tokenId",
          "type": "uint256"
        }
      ],
      "name": "getTokenURI",
      "outputs": [
        {
          "internalType": "string",
          "name": "",
          "type": "string"
        }
      ],
      "stateMutability": "view",
      "type": "function"
    },
    {
      "inputs": [
        {
          "internalType": "string",
          "name": "emailD",
          "type": "string"
        },
        {
          "internalType": "string",
          "name": "emailP",
          "type": "string"
        }
      ],
      "name": "revoke",
      "outputs": [],
      "stateMutability": "nonpayable",
      "type": "function"
    }
  ],
  "bytecode": "0x608060405234801561001057600080fd5b50600160008190555033600460006101000a81548173ffffffffffffffffffffffffffffffffffffffff021916908373ffffffffffffffffffffffffffffffffffffffff16021790555060006001819055506000600281905550600060038190555061250d806100816000396000f3fe6080604052600436106100a75760003560e01c80633fd9d184116100645780633fd9d184146101de57806345576f941461020e57806367f718a914610237578063778f3de014610262578063ac96b8aa1461028b578063e1c83bdc146102b4576100a7565b806309d1fc33146100ac57806310b40f85146100e95780632383c44e1461011257806324a8fd341461013b57806326bf0a38146101785780633bb3a24d146101a1575b600080fd5b3480156100b857600080fd5b506100d360048036038101906100ce91906118cb565b6102f1565b6040516100e09190611a0b565b60405180910390f35b3480156100f557600080fd5b50610110600480360381019061010b91906118cb565b6103f9565b005b34801561011e57600080fd5b5061013960048036038101906101349190611a2d565b6109ad565b005b34801561014757600080fd5b50610162600480360381019061015d9190611a2d565b610b13565b60405161016f9190611bb7565b60405180910390f35b34801561018457600080fd5b5061019f600480360381019061019a9190611a2d565b610c0d565b005b3480156101ad57600080fd5b506101c860048036038101906101c39190611c05565b610cfb565b6040516101d59190611c7c565b60405180910390f35b6101f860048036038101906101f39190611cd6565b610da0565b6040516102059190611d41565b60405180910390f35b34801561021a57600080fd5b5061023560048036038101906102309190611a2d565b610e52565b005b34801561024357600080fd5b5061024c610ecf565b6040516102599190611d6b565b60405180910390f35b34801561026e57600080fd5b50610289600480360381019061028491906118cb565b610ed9565b005b34801561029757600080fd5b506102b260048036038101906102ad9190611d86565b61138d565b005b3480156102c057600080fd5b506102db60048036038101906102d69190611a2d565b6114f7565b6040516102e89190611bb7565b60405180910390f35b6060600115156007836040516103079190611e1e565b9081526020016040518091039020846040516103239190611e1e565b908152602001604051809103902060009054906101000a900460ff16151514610381576040517f08c379a000000000000000000000000000000000000000000000000000000000815260040161037890611e81565b60405180910390fd5b6006836040516103919190611e1e565b90815260200160405180910390206003018054806020026020016040519081016040528092919081815260200182805480156103ec57602002820191906000526020600020905b8154815260200190600101908083116103d8575b5050505050905092915050565b6104016115f1565b600115156007836040516104159190611e1e565b9081526020016040518091039020826040516104319190611e1e565b908152602001604051809103902060009054906101000a900460ff1615151461048f576040517f08c379a000000000000000000000000000000000000000000000000000000000815260040161048690611eed565b60405180910390fd5b60006007836040516104a19190611e1e565b9081526020016040518091039020826040516104bd9190611e1e565b908152602001604051809103902060006101000a81548160ff02191690831515021790555060006006826040516104f49190611e1e565b9081526020016040518091039020600201805490509050600060018261051a9190611f3c565b67ffffffffffffffff811115610533576105326117a0565b5b60405190808252806020026020018201604052801561056657816020015b60608152602001906001900390816105515790505b5090506000805b8381101561070857856040516020016105869190611e1e565b604051602081830303815290604052805190602001206006866040516105ac9190611e1e565b908152602001604051809103902060020182815481106105cf576105ce611f70565b5b906000526020600020016040516020016105e99190612097565b60405160208183030381529060405280519060200120146106f5576006856040516106149190611e1e565b9081526020016040518091039020600201818154811061063757610636611f70565b5b90600052602060002001805461064c90611fce565b80601f016020809104026020016040519081016040528092919081815260200182805461067890611fce565b80156106c55780601f1061069a576101008083540402835291602001916106c5565b820191906000526020600020905b8154815290600101906020018083116106a857829003601f168201915b50505050508383806106d6906120ae565b9450815181106106e9576106e8611f70565b5b60200260200101819052505b8080610700906120ae565b91505061056d565b508160068560405161071a9190611e1e565b9081526020016040518091039020600201908051906020019061073e92919061164a565b5060088560405161074f9190611e1e565b908152602001604051809103902060020180549050925060006001846107759190611f3c565b67ffffffffffffffff81111561078e5761078d6117a0565b5b6040519080825280602002602001820160405280156107c157816020015b60608152602001906001900390816107ac5790505b5090506000915060005b8481101561096657856040516020016107e49190611e1e565b6040516020818303038152906040528051906020012060088860405161080a9190611e1e565b9081526020016040518091039020600201828154811061082d5761082c611f70565b5b906000526020600020016040516020016108479190612097565b6040516020818303038152906040528051906020012014610953576008876040516108729190611e1e565b9081526020016040518091039020600201818154811061089557610894611f70565b5b9060005260206000200180546108aa90611fce565b80601f01602080910402602001604051908101604052809291908181526020018280546108d690611fce565b80156109235780601f106108f857610100808354040283529160200191610923565b820191906000526020600020905b81548152906001019060200180831161090657829003601f168201915b5050505050828480610934906120ae565b95508151811061094757610946611f70565b5b60200260200101819052505b808061095e906120ae565b9150506107cb565b50806008876040516109789190611e1e565b9081526020016040518091039020600201908051906020019061099c92919061164a565b50505050506109a9611640565b5050565b6109b56115f1565b600260008154809291906109c8906120ae565b91905055506060806040518060800160405280600254815260200184815260200183815260200182815250600684604051610a039190611e1e565b9081526020016040518091039020600082015181600001556020820151816001019081610a30919061228d565b506040820151816002019080519060200190610a4d92919061164a565b506060820151816003019080519060200190610a6a9291906116a3565b509050506001600784604051610a809190611e1e565b908152602001604051809103902084604051610a9c9190611e1e565b908152602001604051809103902060006101000a81548160ff02191690831515021790555082604051610acf9190611e1e565b60405180910390206002547f134fda0ae4fafca781b872311cca14ccbfaf969fd15c52f58e9a93de5d23180760405160405180910390a35050610b10611640565b50565b6060600882604051610b259190611e1e565b9081526020016040518091039020600201805480602002602001604051908101604052809291908181526020016000905b82821015610c02578382906000526020600020018054610b7590611fce565b80601f0160208091040260200160405190810160405280929190818152602001828054610ba190611fce565b8015610bee5780601f10610bc357610100808354040283529160200191610bee565b820191906000526020600020905b815481529060010190602001808311610bd157829003601f168201915b505050505081526020019060010190610b56565b505050509050919050565b610c156115f1565b60016000815480929190610c28906120ae565b919050555060606040518060600160405280600154815260200183815260200182815250600883604051610c5c9190611e1e565b9081526020016040518091039020600082015181600001556020820151816001019081610c89919061228d565b506040820151816002019080519060200190610ca692919061164a565b5090505081604051610cb89190611e1e565b60405180910390206001547fea156934655ce49eb3a326e33cd7089b144169217ba22211032479b6b429372560405160405180910390a350610cf8611640565b50565b6060600560008381526020019081526020016000208054610d1b90611fce565b80601f0160208091040260200160405190810160405280929190818152602001828054610d4790611fce565b8015610d945780601f10610d6957610100808354040283529160200191610d94565b820191906000526020600020905b815481529060010190602001808311610d7757829003601f168201915b50505050509050919050565b6000610daa6115f1565b60003411610ded576040517f08c379a0000000000000000000000000000000000000000000000000000000008152600401610de4906123ab565b60405180910390fd5b81610e405782604051610e009190611e1e565b60405180910390207fd76f471a6cfd25ffcda8864cd32f43f578933212dad6affaa5ac113086c5c54634604051610e379190611d6b565b60405180910390a25b60019050610e4c611640565b92915050565b610e5a6115f1565b60036000815480929190610e6d906120ae565b9190505550806005600060035481526020019081526020016000209081610e94919061228d565b506003547f0c01e484cc8325eff46e7cfc59a0995a96e6c979aaa3b2000bd9e1ab6e813a4560405160405180910390a2610ecc611640565b50565b6000600354905090565b610ee16115f1565b60001515600783604051610ef59190611e1e565b908152602001604051809103902082604051610f119190611e1e565b908152602001604051809103902060009054906101000a900460ff16151514610f6f576040517f08c379a0000000000000000000000000000000000000000000000000000000008152600401610f6690612417565b60405180910390fd5b6001600783604051610f819190611e1e565b908152602001604051809103902082604051610f9d9190611e1e565b908152602001604051809103902060006101000a81548160ff0219169083151502179055506000600682604051610fd49190611e1e565b90815260200160405180910390206002018054905090506000600182610ffa9190612437565b67ffffffffffffffff811115611013576110126117a0565b5b60405190808252806020026020018201604052801561104657816020015b60608152602001906001900390816110315790505b5090508381838151811061105d5761105c611f70565b5b602002602001018190525060005b8281101561116a576006846040516110839190611e1e565b908152602001604051809103902060020181815481106110a6576110a5611f70565b5b9060005260206000200180546110bb90611fce565b80601f01602080910402602001604051908101604052809291908181526020018280546110e790611fce565b80156111345780601f1061110957610100808354040283529160200191611134565b820191906000526020600020905b81548152906001019060200180831161111757829003601f168201915b505050505082828151811061114c5761114b611f70565b5b60200260200101819052508080611162906120ae565b91505061106b565b508060068460405161117c9190611e1e565b908152602001604051809103902060020190805190602001906111a092919061164a565b506008846040516111b19190611e1e565b908152602001604051809103902060020180549050915060006001836111d79190612437565b67ffffffffffffffff8111156111f0576111ef6117a0565b5b60405190808252806020026020018201604052801561122357816020015b606081526020019060019003908161120e5790505b5090508381848151811061123a57611239611f70565b5b602002602001018190525060005b83811015611347576008866040516112609190611e1e565b9081526020016040518091039020600201818154811061128357611282611f70565b5b90600052602060002001805461129890611fce565b80601f01602080910402602001604051908101604052809291908181526020018280546112c490611fce565b80156113115780601f106112e657610100808354040283529160200191611311565b820191906000526020600020905b8154815290600101906020018083116112f457829003601f168201915b505050505082828151811061132957611328611f70565b5b6020026020010181905250808061133f906120ae565b915050611248565b50806008866040516113599190611e1e565b9081526020016040518091039020600201908051906020019061137d92919061164a565b50505050611389611640565b5050565b6113956115f1565b60006006836040516113a79190611e1e565b908152602001604051809103902060030180549050905060006001826113cd9190612437565b67ffffffffffffffff8111156113e6576113e56117a0565b5b6040519080825280602002602001820160405280156114145781602001602082028036833780820191505090505b5090508281838151811061142b5761142a611f70565b5b60200260200101818152505060005b828110156114b2576006856040516114529190611e1e565b9081526020016040518091039020600301818154811061147557611474611f70565b5b906000526020600020015482828151811061149357611492611f70565b5b60200260200101818152505080806114aa906120ae565b91505061143a565b50806006856040516114c49190611e1e565b908152602001604051809103902060030190805190602001906114e89291906116a3565b5050506114f3611640565b5050565b60606006826040516115099190611e1e565b9081526020016040518091039020600201805480602002602001604051908101604052809291908181526020016000905b828210156115e657838290600052602060002001805461155990611fce565b80601f016020809104026020016040519081016040528092919081815260200182805461158590611fce565b80156115d25780601f106115a7576101008083540402835291602001916115d2565b820191906000526020600020905b8154815290600101906020018083116115b557829003601f168201915b50505050508152602001906001019061153a565b505050509050919050565b600260005403611636576040517f08c379a000000000000000000000000000000000000000000000000000000000815260040161162d906124b7565b60405180910390fd5b6002600081905550565b6001600081905550565b828054828255906000526020600020908101928215611692579160200282015b82811115611691578251829081611681919061228d565b509160200191906001019061166a565b5b50905061169f91906116f0565b5090565b8280548282559060005260206000209081019282156116df579160200282015b828111156116de5782518255916020019190600101906116c3565b5b5090506116ec9190611714565b5090565b5b8082111561171057600081816117079190611731565b506001016116f1565b5090565b5b8082111561172d576000816000905550600101611715565b5090565b50805461173d90611fce565b6000825580601f1061174f575061176e565b601f01602090049060005260206000209081019061176d9190611714565b5b50565b6000604051905090565b600080fd5b600080fd5b600080fd5b600080fd5b6000601f19601f8301169050919050565b7f4e487b7100000000000000000000000000000000000000000000000000000000600052604160045260246000fd5b6117d88261178f565b810181811067ffffffffffffffff821117156117f7576117f66117a0565b5b80604052505050565b600061180a611771565b905061181682826117cf565b919050565b600067ffffffffffffffff821115611836576118356117a0565b5b61183f8261178f565b9050602081019050919050565b82818337600083830152505050565b600061186e6118698461181b565b611800565b90508281526020810184848401111561188a5761188961178a565b5b61189584828561184c565b509392505050565b600082601f8301126118b2576118b1611785565b5b81356118c284826020860161185b565b91505092915050565b600080604083850312156118e2576118e161177b565b5b600083013567ffffffffffffffff811115611900576118ff611780565b5b61190c8582860161189d565b925050602083013567ffffffffffffffff81111561192d5761192c611780565b5b6119398582860161189d565b9150509250929050565b600081519050919050565b600082825260208201905092915050565b6000819050602082019050919050565b6000819050919050565b6119828161196f565b82525050565b60006119948383611979565b60208301905092915050565b6000602082019050919050565b60006119b882611943565b6119c2818561194e565b93506119cd8361195f565b8060005b838110156119fe5781516119e58882611988565b97506119f0836119a0565b9250506001810190506119d1565b5085935050505092915050565b60006020820190508181036000830152611a2581846119ad565b905092915050565b600060208284031215611a4357611a4261177b565b5b600082013567ffffffffffffffff811115611a6157611a60611780565b5b611a6d8482850161189d565b91505092915050565b600081519050919050565b600082825260208201905092915050565b6000819050602082019050919050565b600081519050919050565b600082825260208201905092915050565b60005b83811015611adc578082015181840152602081019050611ac1565b60008484015250505050565b6000611af382611aa2565b611afd8185611aad565b9350611b0d818560208601611abe565b611b168161178f565b840191505092915050565b6000611b2d8383611ae8565b905092915050565b6000602082019050919050565b6000611b4d82611a76565b611b578185611a81565b935083602082028501611b6985611a92565b8060005b85811015611ba55784840389528151611b868582611b21565b9450611b9183611b35565b925060208a01995050600181019050611b6d565b50829750879550505050505092915050565b60006020820190508181036000830152611bd18184611b42565b905092915050565b611be28161196f565b8114611bed57600080fd5b50565b600081359050611bff81611bd9565b92915050565b600060208284031215611c1b57611c1a61177b565b5b6000611c2984828501611bf0565b91505092915050565b600082825260208201905092915050565b6000611c4e82611aa2565b611c588185611c32565b9350611c68818560208601611abe565b611c718161178f565b840191505092915050565b60006020820190508181036000830152611c968184611c43565b905092915050565b60008115159050919050565b611cb381611c9e565b8114611cbe57600080fd5b50565b600081359050611cd081611caa565b92915050565b60008060408385031215611ced57611cec61177b565b5b600083013567ffffffffffffffff811115611d0b57611d0a611780565b5b611d178582860161189d565b9250506020611d2885828601611cc1565b9150509250929050565b611d3b81611c9e565b82525050565b6000602082019050611d566000830184611d32565b92915050565b611d658161196f565b82525050565b6000602082019050611d806000830184611d5c565b92915050565b60008060408385031215611d9d57611d9c61177b565b5b600083013567ffffffffffffffff811115611dbb57611dba611780565b5b611dc78582860161189d565b9250506020611dd885828601611bf0565b9150509250929050565b600081905092915050565b6000611df882611aa2565b611e028185611de2565b9350611e12818560208601611abe565b80840191505092915050565b6000611e2a8284611ded565b915081905092915050565b7f4163636573732044656e69656400000000000000000000000000000000000000600082015250565b6000611e6b600d83611c32565b9150611e7682611e35565b602082019050919050565b60006020820190508181036000830152611e9a81611e5e565b9050919050565b7f416c72656164792044656e696564000000000000000000000000000000000000600082015250565b6000611ed7600e83611c32565b9150611ee282611ea1565b602082019050919050565b60006020820190508181036000830152611f0681611eca565b9050919050565b7f4e487b7100000000000000000000000000000000000000000000000000000000600052601160045260246000fd5b6000611f478261196f565b9150611f528361196f565b9250828203905081811115611f6a57611f69611f0d565b5b92915050565b7f4e487b7100000000000000000000000000000000000000000000000000000000600052603260045260246000fd5b7f4e487b7100000000000000000000000000000000000000000000000000000000600052602260045260246000fd5b60006002820490506001821680611fe657607f821691505b602082108103611ff957611ff8611f9f565b5b50919050565b60008190508160005260206000209050919050565b6000815461202181611fce565b61202b8186611de2565b94506001821660008114612046576001811461205b5761208e565b60ff198316865281151582028601935061208e565b61206485611fff565b60005b8381101561208657815481890152600182019150602081019050612067565b838801955050505b50505092915050565b60006120a38284612014565b915081905092915050565b60006120b98261196f565b91507fffffffffffffffffffffffffffffffffffffffffffffffffffffffffffffffff82036120eb576120ea611f0d565b5b600182019050919050565b60006020601f8301049050919050565b600082821b905092915050565b6000600883026121437fffffffffffffffffffffffffffffffffffffffffffffffffffffffffffffffff82612106565b61214d8683612106565b95508019841693508086168417925050509392505050565b6000819050919050565b600061218a6121856121808461196f565b612165565b61196f565b9050919050565b6000819050919050565b6121a48361216f565b6121b86121b082612191565b848454612113565b825550505050565b600090565b6121cd6121c0565b6121d881848461219b565b505050565b5b818110156121fc576121f16000826121c5565b6001810190506121de565b5050565b601f8211156122415761221281611fff565b61221b846120f6565b8101602085101561222a578190505b61223e612236856120f6565b8301826121dd565b50505b505050565b600082821c905092915050565b600061226460001984600802612246565b1980831691505092915050565b600061227d8383612253565b9150826002028217905092915050565b61229682611aa2565b67ffffffffffffffff8111156122af576122ae6117a0565b5b6122b98254611fce565b6122c4828285612200565b600060209050601f8311600181146122f757600084156122e5578287015190505b6122ef8582612271565b865550612357565b601f19841661230586611fff565b60005b8281101561232d57848901518255600182019150602085019450602081019050612308565b8683101561234a5784890151612346601f891682612253565b8355505b6001600288020188555050505b505050505050565b7f4769766520612076616c696420616d6f756e7400000000000000000000000000600082015250565b6000612395601383611c32565b91506123a08261235f565b602082019050919050565b600060208201905081810360008301526123c481612388565b9050919050565b7f416c726561647920417070726f76656400000000000000000000000000000000600082015250565b6000612401601083611c32565b915061240c826123cb565b602082019050919050565b60006020820190508181036000830152612430816123f4565b9050919050565b60006124428261196f565b915061244d8361196f565b925082820190508082111561246557612464611f0d565b5b92915050565b7f5265656e7472616e637947756172643a207265656e7472616e742063616c6c00600082015250565b60006124a1601f83611c32565b91506124ac8261246b565b602082019050919050565b600060208201905081810360008301526124d081612494565b905091905056fea2646970667358221220aa0a7bb5528e8038367d2f2ec5de8f459f27d5aded767d2c6f2527df72f9f46b64736f6c63430008140033",
  "linkReferences": {},
  "deployedLinkReferences": {}
}