{
  "_format": "hh-sol-artifact-1",
  "contractName": "RolesAndRights",
  "sourceName": "contracts/accessrights.sol",
  "abi": [
    {
      "inputs": [],
      "stateMutability": "nonpayable",
      "type": "constructor"
    },
    {
      "anonymous": false,
      "inputs": [
        {
          "indexed": true,
          "internalType": "uint256",
          "name": "docterId",
          "type": "uint256"
        },
        {
          "indexed": true,
          "internalType": "string",
          "name": "email",
          "type": "string"
        }
      ],
      "name": "DocterCreated",
      "type": "event"
    },
    {
      "anonymous": false,
      "inputs": [
        {
          "indexed": true,
          "internalType": "uint256",
          "name": "patientId",
          "type": "uint256"
        },
        {
          "indexed": true,
          "internalType": "string",
          "name": "email",
          "type": "string"
        }
      ],
      "name": "PatientCreated",
      "type": "event"
    },
    {
      "anonymous": false,
      "inputs": [
        {
          "indexed": true,
          "internalType": "string",
          "name": "email",
          "type": "string"
        },
        {
          "indexed": false,
          "internalType": "uint256",
          "name": "money",
          "type": "uint256"
        }
      ],
      "name": "moneyReceived",
      "type": "event"
    },
    {
      "inputs": [
        {
          "internalType": "string",
          "name": "email",
          "type": "string"
        },
        {
          "internalType": "uint256",
          "name": "tokenId",
          "type": "uint256"
        }
      ],
      "name": "addDocuments",
      "outputs": [],
      "stateMutability": "nonpayable",
      "type": "function"
    },
    {
      "inputs": [
        {
          "internalType": "string",
          "name": "emailD",
          "type": "string"
        },
        {
          "internalType": "string",
          "name": "emailP",
          "type": "string"
        }
      ],
      "name": "approve",
      "outputs": [],
      "stateMutability": "nonpayable",
      "type": "function"
    },
    {
      "inputs": [
        {
          "internalType": "string",
          "name": "email",
          "type": "string"
        }
      ],
      "name": "createDocter",
      "outputs": [],
      "stateMutability": "nonpayable",
      "type": "function"
    },
    {
      "inputs": [
        {
          "internalType": "string",
          "name": "email",
          "type": "string"
        }
      ],
      "name": "createPatient",
      "outputs": [],
      "stateMutability": "nonpayable",
      "type": "function"
    },
    {
      "inputs": [
        {
          "internalType": "string",
          "name": "email",
          "type": "string"
        },
        {
          "internalType": "bool",
          "name": "anon",
          "type": "bool"
        }
      ],
      "name": "donateMoney",
      "outputs": [
        {
          "internalType": "bool",
          "name": "",
          "type": "bool"
        }
      ],
      "stateMutability": "payable",
      "type": "function"
    },
    {
      "inputs": [
        {
          "internalType": "string",
          "name": "email",
          "type": "string"
        }
      ],
      "name": "getDocters",
      "outputs": [
        {
          "internalType": "string[]",
          "name": "",
          "type": "string[]"
        }
      ],
      "stateMutability": "view",
      "type": "function"
    },
    {
      "inputs": [
        {
          "internalType": "string",
          "name": "emailP",
          "type": "string"
        },
        {
          "internalType": "string",
          "name": "emailD",
          "type": "string"
        }
      ],
      "name": "getPatientDetails",
      "outputs": [
        {
          "internalType": "uint256[]",
          "name": "",
          "type": "uint256[]"
        }
      ],
      "stateMutability": "view",
      "type": "function"
    },
    {
      "inputs": [
        {
          "internalType": "string",
          "name": "email",
          "type": "string"
        }
      ],
      "name": "getPatients",
      "outputs": [
        {
          "internalType": "string[]",
          "name": "",
          "type": "string[]"
        }
      ],
      "stateMutability": "view",
      "type": "function"
    },
    {
      "inputs": [
        {
          "internalType": "string",
          "name": "emailD",
          "type": "string"
        },
        {
          "internalType": "string",
          "name": "emailP",
          "type": "string"
        }
      ],
      "name": "revoke",
      "outputs": [],
      "stateMutability": "nonpayable",
      "type": "function"
    }
  ],
  "bytecode": "0x608060405234801561001057600080fd5b50600160008190555033600360006101000a81548173ffffffffffffffffffffffffffffffffffffffff021916908373ffffffffffffffffffffffffffffffffffffffff16021790555060006001819055506000600281905550612254806100796000396000f3fe6080604052600436106100865760003560e01c806326bf0a381161005957806326bf0a38146101575780633fd9d18414610180578063778f3de0146101b0578063ac96b8aa146101d9578063e1c83bdc1461020257610086565b806309d1fc331461008b57806310b40f85146100c85780632383c44e146100f157806324a8fd341461011a575b600080fd5b34801561009757600080fd5b506100b260048036038101906100ad919061169a565b61023f565b6040516100bf91906117da565b60405180910390f35b3480156100d457600080fd5b506100ef60048036038101906100ea919061169a565b610347565b005b3480156100fd57600080fd5b50610118600480360381019061011391906117fc565b6108fb565b005b34801561012657600080fd5b50610141600480360381019061013c91906117fc565b610a0e565b60405161014e9190611986565b60405180910390f35b34801561016357600080fd5b5061017e600480360381019061017991906117fc565b610b08565b005b61019a600480360381019061019591906119e0565b610bf6565b6040516101a79190611a4b565b60405180910390f35b3480156101bc57600080fd5b506101d760048036038101906101d2919061169a565b610ca8565b005b3480156101e557600080fd5b5061020060048036038101906101fb9190611a92565b61115c565b005b34801561020e57600080fd5b50610229600480360381019061022491906117fc565b6112c6565b6040516102369190611986565b60405180910390f35b6060600115156005836040516102559190611b2a565b9081526020016040518091039020846040516102719190611b2a565b908152602001604051809103902060009054906101000a900460ff161515146102cf576040517f08c379a00000000000000000000000000000000000000000000000000000000081526004016102c690611b9e565b60405180910390fd5b6004836040516102df9190611b2a565b908152602001604051809103902060030180548060200260200160405190810160405280929190818152602001828054801561033a57602002820191906000526020600020905b815481526020019060010190808311610326575b5050505050905092915050565b61034f6113c0565b600115156005836040516103639190611b2a565b90815260200160405180910390208260405161037f9190611b2a565b908152602001604051809103902060009054906101000a900460ff161515146103dd576040517f08c379a00000000000000000000000000000000000000000000000000000000081526004016103d490611c0a565b60405180910390fd5b60006005836040516103ef9190611b2a565b90815260200160405180910390208260405161040b9190611b2a565b908152602001604051809103902060006101000a81548160ff02191690831515021790555060006004826040516104429190611b2a565b908152602001604051809103902060020180549050905060006001826104689190611c59565b67ffffffffffffffff8111156104815761048061156f565b5b6040519080825280602002602001820160405280156104b457816020015b606081526020019060019003908161049f5790505b5090506000805b8381101561065657856040516020016104d49190611b2a565b604051602081830303815290604052805190602001206004866040516104fa9190611b2a565b9081526020016040518091039020600201828154811061051d5761051c611c8d565b5b906000526020600020016040516020016105379190611db4565b6040516020818303038152906040528051906020012014610643576004856040516105629190611b2a565b9081526020016040518091039020600201818154811061058557610584611c8d565b5b90600052602060002001805461059a90611ceb565b80601f01602080910402602001604051908101604052809291908181526020018280546105c690611ceb565b80156106135780601f106105e857610100808354040283529160200191610613565b820191906000526020600020905b8154815290600101906020018083116105f657829003601f168201915b505050505083838061062490611dcb565b94508151811061063757610636611c8d565b5b60200260200101819052505b808061064e90611dcb565b9150506104bb565b50816004856040516106689190611b2a565b9081526020016040518091039020600201908051906020019061068c929190611419565b5060068560405161069d9190611b2a565b908152602001604051809103902060020180549050925060006001846106c39190611c59565b67ffffffffffffffff8111156106dc576106db61156f565b5b60405190808252806020026020018201604052801561070f57816020015b60608152602001906001900390816106fa5790505b5090506000915060005b848110156108b457856040516020016107329190611b2a565b604051602081830303815290604052805190602001206006886040516107589190611b2a565b9081526020016040518091039020600201828154811061077b5761077a611c8d565b5b906000526020600020016040516020016107959190611db4565b60405160208183030381529060405280519060200120146108a1576006876040516107c09190611b2a565b908152602001604051809103902060020181815481106107e3576107e2611c8d565b5b9060005260206000200180546107f890611ceb565b80601f016020809104026020016040519081016040528092919081815260200182805461082490611ceb565b80156108715780601f1061084657610100808354040283529160200191610871565b820191906000526020600020905b81548152906001019060200180831161085457829003601f168201915b505050505082848061088290611dcb565b95508151811061089557610894611c8d565b5b60200260200101819052505b80806108ac90611dcb565b915050610719565b50806006876040516108c69190611b2a565b908152602001604051809103902060020190805190602001906108ea929190611419565b50505050506108f761140f565b5050565b6109036113c0565b6002600081548092919061091690611dcb565b919050555060608060405180608001604052806002548152602001848152602001838152602001828152506004846040516109519190611b2a565b908152602001604051809103902060008201518160000155602082015181600101908161097e9190611faa565b50604082015181600201908051906020019061099b929190611419565b5060608201518160030190805190602001906109b8929190611472565b50905050826040516109ca9190611b2a565b60405180910390206002547f134fda0ae4fafca781b872311cca14ccbfaf969fd15c52f58e9a93de5d23180760405160405180910390a35050610a0b61140f565b50565b6060600682604051610a209190611b2a565b9081526020016040518091039020600201805480602002602001604051908101604052809291908181526020016000905b82821015610afd578382906000526020600020018054610a7090611ceb565b80601f0160208091040260200160405190810160405280929190818152602001828054610a9c90611ceb565b8015610ae95780601f10610abe57610100808354040283529160200191610ae9565b820191906000526020600020905b815481529060010190602001808311610acc57829003601f168201915b505050505081526020019060010190610a51565b505050509050919050565b610b106113c0565b60016000815480929190610b2390611dcb565b919050555060606040518060600160405280600154815260200183815260200182815250600683604051610b579190611b2a565b9081526020016040518091039020600082015181600001556020820151816001019081610b849190611faa565b506040820151816002019080519060200190610ba1929190611419565b5090505081604051610bb39190611b2a565b60405180910390206001547fea156934655ce49eb3a326e33cd7089b144169217ba22211032479b6b429372560405160405180910390a350610bf361140f565b50565b6000610c006113c0565b60003411610c43576040517f08c379a0000000000000000000000000000000000000000000000000000000008152600401610c3a906120c8565b60405180910390fd5b81610c965782604051610c569190611b2a565b60405180910390207fd76f471a6cfd25ffcda8864cd32f43f578933212dad6affaa5ac113086c5c54634604051610c8d91906120f7565b60405180910390a25b60019050610ca261140f565b92915050565b610cb06113c0565b60001515600583604051610cc49190611b2a565b908152602001604051809103902082604051610ce09190611b2a565b908152602001604051809103902060009054906101000a900460ff16151514610d3e576040517f08c379a0000000000000000000000000000000000000000000000000000000008152600401610d359061215e565b60405180910390fd5b6001600583604051610d509190611b2a565b908152602001604051809103902082604051610d6c9190611b2a565b908152602001604051809103902060006101000a81548160ff0219169083151502179055506000600482604051610da39190611b2a565b90815260200160405180910390206002018054905090506000600182610dc9919061217e565b67ffffffffffffffff811115610de257610de161156f565b5b604051908082528060200260200182016040528015610e1557816020015b6060815260200190600190039081610e005790505b50905083818381518110610e2c57610e2b611c8d565b5b602002602001018190525060005b82811015610f3957600484604051610e529190611b2a565b90815260200160405180910390206002018181548110610e7557610e74611c8d565b5b906000526020600020018054610e8a90611ceb565b80601f0160208091040260200160405190810160405280929190818152602001828054610eb690611ceb565b8015610f035780601f10610ed857610100808354040283529160200191610f03565b820191906000526020600020905b815481529060010190602001808311610ee657829003601f168201915b5050505050828281518110610f1b57610f1a611c8d565b5b60200260200101819052508080610f3190611dcb565b915050610e3a565b5080600484604051610f4b9190611b2a565b90815260200160405180910390206002019080519060200190610f6f929190611419565b50600684604051610f809190611b2a565b90815260200160405180910390206002018054905091506000600183610fa6919061217e565b67ffffffffffffffff811115610fbf57610fbe61156f565b5b604051908082528060200260200182016040528015610ff257816020015b6060815260200190600190039081610fdd5790505b5090508381848151811061100957611008611c8d565b5b602002602001018190525060005b838110156111165760068660405161102f9190611b2a565b9081526020016040518091039020600201818154811061105257611051611c8d565b5b90600052602060002001805461106790611ceb565b80601f016020809104026020016040519081016040528092919081815260200182805461109390611ceb565b80156110e05780601f106110b5576101008083540402835291602001916110e0565b820191906000526020600020905b8154815290600101906020018083116110c357829003601f168201915b50505050508282815181106110f8576110f7611c8d565b5b6020026020010181905250808061110e90611dcb565b915050611017565b50806006866040516111289190611b2a565b9081526020016040518091039020600201908051906020019061114c929190611419565b5050505061115861140f565b5050565b6111646113c0565b60006004836040516111769190611b2a565b9081526020016040518091039020600301805490509050600060018261119c919061217e565b67ffffffffffffffff8111156111b5576111b461156f565b5b6040519080825280602002602001820160405280156111e35781602001602082028036833780820191505090505b509050828183815181106111fa576111f9611c8d565b5b60200260200101818152505060005b82811015611281576004856040516112219190611b2a565b9081526020016040518091039020600301818154811061124457611243611c8d565b5b906000526020600020015482828151811061126257611261611c8d565b5b602002602001018181525050808061127990611dcb565b915050611209565b50806004856040516112939190611b2a565b908152602001604051809103902060030190805190602001906112b7929190611472565b5050506112c261140f565b5050565b60606004826040516112d89190611b2a565b9081526020016040518091039020600201805480602002602001604051908101604052809291908181526020016000905b828210156113b557838290600052602060002001805461132890611ceb565b80601f016020809104026020016040519081016040528092919081815260200182805461135490611ceb565b80156113a15780601f10611376576101008083540402835291602001916113a1565b820191906000526020600020905b81548152906001019060200180831161138457829003601f168201915b505050505081526020019060010190611309565b505050509050919050565b600260005403611405576040517f08c379a00000000000000000000000000000000000000000000000000000000081526004016113fc906121fe565b60405180910390fd5b6002600081905550565b6001600081905550565b828054828255906000526020600020908101928215611461579160200282015b828111156114605782518290816114509190611faa565b5091602001919060010190611439565b5b50905061146e91906114bf565b5090565b8280548282559060005260206000209081019282156114ae579160200282015b828111156114ad578251825591602001919060010190611492565b5b5090506114bb91906114e3565b5090565b5b808211156114df57600081816114d69190611500565b506001016114c0565b5090565b5b808211156114fc5760008160009055506001016114e4565b5090565b50805461150c90611ceb565b6000825580601f1061151e575061153d565b601f01602090049060005260206000209081019061153c91906114e3565b5b50565b6000604051905090565b600080fd5b600080fd5b600080fd5b600080fd5b6000601f19601f8301169050919050565b7f4e487b7100000000000000000000000000000000000000000000000000000000600052604160045260246000fd5b6115a78261155e565b810181811067ffffffffffffffff821117156115c6576115c561156f565b5b80604052505050565b60006115d9611540565b90506115e5828261159e565b919050565b600067ffffffffffffffff8211156116055761160461156f565b5b61160e8261155e565b9050602081019050919050565b82818337600083830152505050565b600061163d611638846115ea565b6115cf565b90508281526020810184848401111561165957611658611559565b5b61166484828561161b565b509392505050565b600082601f83011261168157611680611554565b5b813561169184826020860161162a565b91505092915050565b600080604083850312156116b1576116b061154a565b5b600083013567ffffffffffffffff8111156116cf576116ce61154f565b5b6116db8582860161166c565b925050602083013567ffffffffffffffff8111156116fc576116fb61154f565b5b6117088582860161166c565b9150509250929050565b600081519050919050565b600082825260208201905092915050565b6000819050602082019050919050565b6000819050919050565b6117518161173e565b82525050565b60006117638383611748565b60208301905092915050565b6000602082019050919050565b600061178782611712565b611791818561171d565b935061179c8361172e565b8060005b838110156117cd5781516117b48882611757565b97506117bf8361176f565b9250506001810190506117a0565b5085935050505092915050565b600060208201905081810360008301526117f4818461177c565b905092915050565b6000602082840312156118125761181161154a565b5b600082013567ffffffffffffffff8111156118305761182f61154f565b5b61183c8482850161166c565b91505092915050565b600081519050919050565b600082825260208201905092915050565b6000819050602082019050919050565b600081519050919050565b600082825260208201905092915050565b60005b838110156118ab578082015181840152602081019050611890565b60008484015250505050565b60006118c282611871565b6118cc818561187c565b93506118dc81856020860161188d565b6118e58161155e565b840191505092915050565b60006118fc83836118b7565b905092915050565b6000602082019050919050565b600061191c82611845565b6119268185611850565b93508360208202850161193885611861565b8060005b85811015611974578484038952815161195585826118f0565b945061196083611904565b925060208a0199505060018101905061193c565b50829750879550505050505092915050565b600060208201905081810360008301526119a08184611911565b905092915050565b60008115159050919050565b6119bd816119a8565b81146119c857600080fd5b50565b6000813590506119da816119b4565b92915050565b600080604083850312156119f7576119f661154a565b5b600083013567ffffffffffffffff811115611a1557611a1461154f565b5b611a218582860161166c565b9250506020611a32858286016119cb565b9150509250929050565b611a45816119a8565b82525050565b6000602082019050611a606000830184611a3c565b92915050565b611a6f8161173e565b8114611a7a57600080fd5b50565b600081359050611a8c81611a66565b92915050565b60008060408385031215611aa957611aa861154a565b5b600083013567ffffffffffffffff811115611ac757611ac661154f565b5b611ad38582860161166c565b9250506020611ae485828601611a7d565b9150509250929050565b600081905092915050565b6000611b0482611871565b611b0e8185611aee565b9350611b1e81856020860161188d565b80840191505092915050565b6000611b368284611af9565b915081905092915050565b600082825260208201905092915050565b7f4163636573732044656e69656400000000000000000000000000000000000000600082015250565b6000611b88600d83611b41565b9150611b9382611b52565b602082019050919050565b60006020820190508181036000830152611bb781611b7b565b9050919050565b7f416c72656164792044656e696564000000000000000000000000000000000000600082015250565b6000611bf4600e83611b41565b9150611bff82611bbe565b602082019050919050565b60006020820190508181036000830152611c2381611be7565b9050919050565b7f4e487b7100000000000000000000000000000000000000000000000000000000600052601160045260246000fd5b6000611c648261173e565b9150611c6f8361173e565b9250828203905081811115611c8757611c86611c2a565b5b92915050565b7f4e487b7100000000000000000000000000000000000000000000000000000000600052603260045260246000fd5b7f4e487b7100000000000000000000000000000000000000000000000000000000600052602260045260246000fd5b60006002820490506001821680611d0357607f821691505b602082108103611d1657611d15611cbc565b5b50919050565b60008190508160005260206000209050919050565b60008154611d3e81611ceb565b611d488186611aee565b94506001821660008114611d635760018114611d7857611dab565b60ff1983168652811515820286019350611dab565b611d8185611d1c565b60005b83811015611da357815481890152600182019150602081019050611d84565b838801955050505b50505092915050565b6000611dc08284611d31565b915081905092915050565b6000611dd68261173e565b91507fffffffffffffffffffffffffffffffffffffffffffffffffffffffffffffffff8203611e0857611e07611c2a565b5b600182019050919050565b60006020601f8301049050919050565b600082821b905092915050565b600060088302611e607fffffffffffffffffffffffffffffffffffffffffffffffffffffffffffffffff82611e23565b611e6a8683611e23565b95508019841693508086168417925050509392505050565b6000819050919050565b6000611ea7611ea2611e9d8461173e565b611e82565b61173e565b9050919050565b6000819050919050565b611ec183611e8c565b611ed5611ecd82611eae565b848454611e30565b825550505050565b600090565b611eea611edd565b611ef5818484611eb8565b505050565b5b81811015611f1957611f0e600082611ee2565b600181019050611efb565b5050565b601f821115611f5e57611f2f81611d1c565b611f3884611e13565b81016020851015611f47578190505b611f5b611f5385611e13565b830182611efa565b50505b505050565b600082821c905092915050565b6000611f8160001984600802611f63565b1980831691505092915050565b6000611f9a8383611f70565b9150826002028217905092915050565b611fb382611871565b67ffffffffffffffff811115611fcc57611fcb61156f565b5b611fd68254611ceb565b611fe1828285611f1d565b600060209050601f8311600181146120145760008415612002578287015190505b61200c8582611f8e565b865550612074565b601f19841661202286611d1c565b60005b8281101561204a57848901518255600182019150602085019450602081019050612025565b868310156120675784890151612063601f891682611f70565b8355505b6001600288020188555050505b505050505050565b7f4769766520612076616c696420616d6f756e7400000000000000000000000000600082015250565b60006120b2601383611b41565b91506120bd8261207c565b602082019050919050565b600060208201905081810360008301526120e1816120a5565b9050919050565b6120f18161173e565b82525050565b600060208201905061210c60008301846120e8565b92915050565b7f416c726561647920417070726f76656400000000000000000000000000000000600082015250565b6000612148601083611b41565b915061215382612112565b602082019050919050565b600060208201905081810360008301526121778161213b565b9050919050565b60006121898261173e565b91506121948361173e565b92508282019050808211156121ac576121ab611c2a565b5b92915050565b7f5265656e7472616e637947756172643a207265656e7472616e742063616c6c00600082015250565b60006121e8601f83611b41565b91506121f3826121b2565b602082019050919050565b60006020820190508181036000830152612217816121db565b905091905056fea264697066735822122046e085c5fd05466c451eadab43fdfaa2eb38f8876a2e54bd0f3b5b6da62d819464736f6c63430008140033",
  "linkReferences": {},
  "deployedLinkReferences": {}
}