{
  "_format": "hh-sol-artifact-1",
  "contractName": "RolesAndRights",
  "sourceName": "contracts/accessrights.sol",
  "abi": [
    {
      "inputs": [],
      "stateMutability": "nonpayable",
      "type": "constructor"
    },
    {
      "anonymous": false,
      "inputs": [
        {
          "indexed": true,
          "internalType": "uint256",
          "name": "docterId",
          "type": "uint256"
        },
        {
          "indexed": true,
          "internalType": "string",
          "name": "email",
          "type": "string"
        }
      ],
      "name": "DocterCreated",
      "type": "event"
    },
    {
      "anonymous": false,
      "inputs": [
        {
          "indexed": true,
          "internalType": "uint256",
          "name": "patientId",
          "type": "uint256"
        },
        {
          "indexed": true,
          "internalType": "string",
          "name": "email",
          "type": "string"
        }
      ],
      "name": "PatientCreated",
      "type": "event"
    },
    {
      "inputs": [
        {
          "internalType": "string",
          "name": "email",
          "type": "string"
        },
        {
          "internalType": "uint256",
          "name": "tokenId",
          "type": "uint256"
        }
      ],
      "name": "addDocuments",
      "outputs": [],
      "stateMutability": "nonpayable",
      "type": "function"
    },
    {
      "inputs": [
        {
          "internalType": "string",
          "name": "emailD",
          "type": "string"
        },
        {
          "internalType": "string",
          "name": "emailP",
          "type": "string"
        }
      ],
      "name": "approve",
      "outputs": [],
      "stateMutability": "nonpayable",
      "type": "function"
    },
    {
      "inputs": [
        {
          "internalType": "string",
          "name": "email",
          "type": "string"
        }
      ],
      "name": "createDocter",
      "outputs": [],
      "stateMutability": "nonpayable",
      "type": "function"
    },
    {
      "inputs": [
        {
          "internalType": "string",
          "name": "email",
          "type": "string"
        }
      ],
      "name": "createPatient",
      "outputs": [],
      "stateMutability": "nonpayable",
      "type": "function"
    },
    {
      "inputs": [
        {
          "internalType": "string",
          "name": "email",
          "type": "string"
        }
      ],
      "name": "getDocters",
      "outputs": [
        {
          "internalType": "string[]",
          "name": "",
          "type": "string[]"
        }
      ],
      "stateMutability": "view",
      "type": "function"
    },
    {
      "inputs": [
        {
          "internalType": "string",
          "name": "emailP",
          "type": "string"
        },
        {
          "internalType": "string",
          "name": "emailD",
          "type": "string"
        }
      ],
      "name": "getPatientDetails",
      "outputs": [
        {
          "internalType": "uint256[]",
          "name": "",
          "type": "uint256[]"
        }
      ],
      "stateMutability": "view",
      "type": "function"
    },
    {
      "inputs": [
        {
          "internalType": "string",
          "name": "email",
          "type": "string"
        }
      ],
      "name": "getPatients",
      "outputs": [
        {
          "internalType": "string[]",
          "name": "",
          "type": "string[]"
        }
      ],
      "stateMutability": "view",
      "type": "function"
    },
    {
      "inputs": [
        {
          "internalType": "string",
          "name": "emailD",
          "type": "string"
        },
        {
          "internalType": "string",
          "name": "emailP",
          "type": "string"
        }
      ],
      "name": "revoke",
      "outputs": [],
      "stateMutability": "nonpayable",
      "type": "function"
    }
  ],
  "bytecode": "0x608060405234801561001057600080fd5b50600160008190555033600360006101000a81548173ffffffffffffffffffffffffffffffffffffffff021916908373ffffffffffffffffffffffffffffffffffffffff16021790555060006001819055506000600281905550611fb8806100796000396000f3fe608060405234801561001057600080fd5b50600436106100885760003560e01c806326bf0a381161005b57806326bf0a3814610125578063778f3de014610141578063ac96b8aa1461015d578063e1c83bdc1461017957610088565b806309d1fc331461008d57806310b40f85146100bd5780632383c44e146100d957806324a8fd34146100f5575b600080fd5b6100a760048036038101906100a29190611552565b6101a9565b6040516100b49190611692565b60405180910390f35b6100d760048036038101906100d29190611552565b6102b1565b005b6100f360048036038101906100ee91906116b4565b610865565b005b61010f600480360381019061010a91906116b4565b610978565b60405161011c919061183e565b60405180910390f35b61013f600480360381019061013a91906116b4565b610a72565b005b61015b60048036038101906101569190611552565b610b60565b005b6101776004803603810190610172919061188c565b611014565b005b610193600480360381019061018e91906116b4565b61117e565b6040516101a0919061183e565b60405180910390f35b6060600115156005836040516101bf9190611924565b9081526020016040518091039020846040516101db9190611924565b908152602001604051809103902060009054906101000a900460ff16151514610239576040517f08c379a000000000000000000000000000000000000000000000000000000000815260040161023090611998565b60405180910390fd5b6004836040516102499190611924565b90815260200160405180910390206003018054806020026020016040519081016040528092919081815260200182805480156102a457602002820191906000526020600020905b815481526020019060010190808311610290575b5050505050905092915050565b6102b9611278565b600115156005836040516102cd9190611924565b9081526020016040518091039020826040516102e99190611924565b908152602001604051809103902060009054906101000a900460ff16151514610347576040517f08c379a000000000000000000000000000000000000000000000000000000000815260040161033e90611a04565b60405180910390fd5b60006005836040516103599190611924565b9081526020016040518091039020826040516103759190611924565b908152602001604051809103902060006101000a81548160ff02191690831515021790555060006004826040516103ac9190611924565b908152602001604051809103902060020180549050905060006001826103d29190611a53565b67ffffffffffffffff8111156103eb576103ea611427565b5b60405190808252806020026020018201604052801561041e57816020015b60608152602001906001900390816104095790505b5090506000805b838110156105c0578560405160200161043e9190611924565b604051602081830303815290604052805190602001206004866040516104649190611924565b9081526020016040518091039020600201828154811061048757610486611a87565b5b906000526020600020016040516020016104a19190611bae565b60405160208183030381529060405280519060200120146105ad576004856040516104cc9190611924565b908152602001604051809103902060020181815481106104ef576104ee611a87565b5b90600052602060002001805461050490611ae5565b80601f016020809104026020016040519081016040528092919081815260200182805461053090611ae5565b801561057d5780601f106105525761010080835404028352916020019161057d565b820191906000526020600020905b81548152906001019060200180831161056057829003601f168201915b505050505083838061058e90611bc5565b9450815181106105a1576105a0611a87565b5b60200260200101819052505b80806105b890611bc5565b915050610425565b50816004856040516105d29190611924565b908152602001604051809103902060020190805190602001906105f69291906112d1565b506006856040516106079190611924565b9081526020016040518091039020600201805490509250600060018461062d9190611a53565b67ffffffffffffffff81111561064657610645611427565b5b60405190808252806020026020018201604052801561067957816020015b60608152602001906001900390816106645790505b5090506000915060005b8481101561081e578560405160200161069c9190611924565b604051602081830303815290604052805190602001206006886040516106c29190611924565b908152602001604051809103902060020182815481106106e5576106e4611a87565b5b906000526020600020016040516020016106ff9190611bae565b604051602081830303815290604052805190602001201461080b5760068760405161072a9190611924565b9081526020016040518091039020600201818154811061074d5761074c611a87565b5b90600052602060002001805461076290611ae5565b80601f016020809104026020016040519081016040528092919081815260200182805461078e90611ae5565b80156107db5780601f106107b0576101008083540402835291602001916107db565b820191906000526020600020905b8154815290600101906020018083116107be57829003601f168201915b50505050508284806107ec90611bc5565b9550815181106107ff576107fe611a87565b5b60200260200101819052505b808061081690611bc5565b915050610683565b50806006876040516108309190611924565b908152602001604051809103902060020190805190602001906108549291906112d1565b50505050506108616112c7565b5050565b61086d611278565b6002600081548092919061088090611bc5565b919050555060608060405180608001604052806002548152602001848152602001838152602001828152506004846040516108bb9190611924565b90815260200160405180910390206000820151816000015560208201518160010190816108e89190611da4565b5060408201518160020190805190602001906109059291906112d1565b50606082015181600301908051906020019061092292919061132a565b50905050826040516109349190611924565b60405180910390206002547f134fda0ae4fafca781b872311cca14ccbfaf969fd15c52f58e9a93de5d23180760405160405180910390a350506109756112c7565b50565b606060068260405161098a9190611924565b9081526020016040518091039020600201805480602002602001604051908101604052809291908181526020016000905b82821015610a675783829060005260206000200180546109da90611ae5565b80601f0160208091040260200160405190810160405280929190818152602001828054610a0690611ae5565b8015610a535780601f10610a2857610100808354040283529160200191610a53565b820191906000526020600020905b815481529060010190602001808311610a3657829003601f168201915b5050505050815260200190600101906109bb565b505050509050919050565b610a7a611278565b60016000815480929190610a8d90611bc5565b919050555060606040518060600160405280600154815260200183815260200182815250600683604051610ac19190611924565b9081526020016040518091039020600082015181600001556020820151816001019081610aee9190611da4565b506040820151816002019080519060200190610b0b9291906112d1565b5090505081604051610b1d9190611924565b60405180910390206001547fea156934655ce49eb3a326e33cd7089b144169217ba22211032479b6b429372560405160405180910390a350610b5d6112c7565b50565b610b68611278565b60001515600583604051610b7c9190611924565b908152602001604051809103902082604051610b989190611924565b908152602001604051809103902060009054906101000a900460ff16151514610bf6576040517f08c379a0000000000000000000000000000000000000000000000000000000008152600401610bed90611ec2565b60405180910390fd5b6001600583604051610c089190611924565b908152602001604051809103902082604051610c249190611924565b908152602001604051809103902060006101000a81548160ff0219169083151502179055506000600482604051610c5b9190611924565b90815260200160405180910390206002018054905090506000600182610c819190611ee2565b67ffffffffffffffff811115610c9a57610c99611427565b5b604051908082528060200260200182016040528015610ccd57816020015b6060815260200190600190039081610cb85790505b50905083818381518110610ce457610ce3611a87565b5b602002602001018190525060005b82811015610df157600484604051610d0a9190611924565b90815260200160405180910390206002018181548110610d2d57610d2c611a87565b5b906000526020600020018054610d4290611ae5565b80601f0160208091040260200160405190810160405280929190818152602001828054610d6e90611ae5565b8015610dbb5780601f10610d9057610100808354040283529160200191610dbb565b820191906000526020600020905b815481529060010190602001808311610d9e57829003601f168201915b5050505050828281518110610dd357610dd2611a87565b5b60200260200101819052508080610de990611bc5565b915050610cf2565b5080600484604051610e039190611924565b90815260200160405180910390206002019080519060200190610e279291906112d1565b50600684604051610e389190611924565b90815260200160405180910390206002018054905091506000600183610e5e9190611ee2565b67ffffffffffffffff811115610e7757610e76611427565b5b604051908082528060200260200182016040528015610eaa57816020015b6060815260200190600190039081610e955790505b50905083818481518110610ec157610ec0611a87565b5b602002602001018190525060005b83811015610fce57600686604051610ee79190611924565b90815260200160405180910390206002018181548110610f0a57610f09611a87565b5b906000526020600020018054610f1f90611ae5565b80601f0160208091040260200160405190810160405280929190818152602001828054610f4b90611ae5565b8015610f985780601f10610f6d57610100808354040283529160200191610f98565b820191906000526020600020905b815481529060010190602001808311610f7b57829003601f168201915b5050505050828281518110610fb057610faf611a87565b5b60200260200101819052508080610fc690611bc5565b915050610ecf565b5080600686604051610fe09190611924565b908152602001604051809103902060020190805190602001906110049291906112d1565b505050506110106112c7565b5050565b61101c611278565b600060048360405161102e9190611924565b908152602001604051809103902060030180549050905060006001826110549190611ee2565b67ffffffffffffffff81111561106d5761106c611427565b5b60405190808252806020026020018201604052801561109b5781602001602082028036833780820191505090505b509050828183815181106110b2576110b1611a87565b5b60200260200101818152505060005b82811015611139576004856040516110d99190611924565b908152602001604051809103902060030181815481106110fc576110fb611a87565b5b906000526020600020015482828151811061111a57611119611a87565b5b602002602001018181525050808061113190611bc5565b9150506110c1565b508060048560405161114b9190611924565b9081526020016040518091039020600301908051906020019061116f92919061132a565b50505061117a6112c7565b5050565b60606004826040516111909190611924565b9081526020016040518091039020600201805480602002602001604051908101604052809291908181526020016000905b8282101561126d5783829060005260206000200180546111e090611ae5565b80601f016020809104026020016040519081016040528092919081815260200182805461120c90611ae5565b80156112595780601f1061122e57610100808354040283529160200191611259565b820191906000526020600020905b81548152906001019060200180831161123c57829003601f168201915b5050505050815260200190600101906111c1565b505050509050919050565b6002600054036112bd576040517f08c379a00000000000000000000000000000000000000000000000000000000081526004016112b490611f62565b60405180910390fd5b6002600081905550565b6001600081905550565b828054828255906000526020600020908101928215611319579160200282015b828111156113185782518290816113089190611da4565b50916020019190600101906112f1565b5b5090506113269190611377565b5090565b828054828255906000526020600020908101928215611366579160200282015b8281111561136557825182559160200191906001019061134a565b5b509050611373919061139b565b5090565b5b80821115611397576000818161138e91906113b8565b50600101611378565b5090565b5b808211156113b457600081600090555060010161139c565b5090565b5080546113c490611ae5565b6000825580601f106113d657506113f5565b601f0160209004906000526020600020908101906113f4919061139b565b5b50565b6000604051905090565b600080fd5b600080fd5b600080fd5b600080fd5b6000601f19601f8301169050919050565b7f4e487b7100000000000000000000000000000000000000000000000000000000600052604160045260246000fd5b61145f82611416565b810181811067ffffffffffffffff8211171561147e5761147d611427565b5b80604052505050565b60006114916113f8565b905061149d8282611456565b919050565b600067ffffffffffffffff8211156114bd576114bc611427565b5b6114c682611416565b9050602081019050919050565b82818337600083830152505050565b60006114f56114f0846114a2565b611487565b90508281526020810184848401111561151157611510611411565b5b61151c8482856114d3565b509392505050565b600082601f8301126115395761153861140c565b5b81356115498482602086016114e2565b91505092915050565b6000806040838503121561156957611568611402565b5b600083013567ffffffffffffffff81111561158757611586611407565b5b61159385828601611524565b925050602083013567ffffffffffffffff8111156115b4576115b3611407565b5b6115c085828601611524565b9150509250929050565b600081519050919050565b600082825260208201905092915050565b6000819050602082019050919050565b6000819050919050565b611609816115f6565b82525050565b600061161b8383611600565b60208301905092915050565b6000602082019050919050565b600061163f826115ca565b61164981856115d5565b9350611654836115e6565b8060005b8381101561168557815161166c888261160f565b975061167783611627565b925050600181019050611658565b5085935050505092915050565b600060208201905081810360008301526116ac8184611634565b905092915050565b6000602082840312156116ca576116c9611402565b5b600082013567ffffffffffffffff8111156116e8576116e7611407565b5b6116f484828501611524565b91505092915050565b600081519050919050565b600082825260208201905092915050565b6000819050602082019050919050565b600081519050919050565b600082825260208201905092915050565b60005b83811015611763578082015181840152602081019050611748565b60008484015250505050565b600061177a82611729565b6117848185611734565b9350611794818560208601611745565b61179d81611416565b840191505092915050565b60006117b4838361176f565b905092915050565b6000602082019050919050565b60006117d4826116fd565b6117de8185611708565b9350836020820285016117f085611719565b8060005b8581101561182c578484038952815161180d85826117a8565b9450611818836117bc565b925060208a019950506001810190506117f4565b50829750879550505050505092915050565b6000602082019050818103600083015261185881846117c9565b905092915050565b611869816115f6565b811461187457600080fd5b50565b60008135905061188681611860565b92915050565b600080604083850312156118a3576118a2611402565b5b600083013567ffffffffffffffff8111156118c1576118c0611407565b5b6118cd85828601611524565b92505060206118de85828601611877565b9150509250929050565b600081905092915050565b60006118fe82611729565b61190881856118e8565b9350611918818560208601611745565b80840191505092915050565b600061193082846118f3565b915081905092915050565b600082825260208201905092915050565b7f4163636573732044656e69656400000000000000000000000000000000000000600082015250565b6000611982600d8361193b565b915061198d8261194c565b602082019050919050565b600060208201905081810360008301526119b181611975565b9050919050565b7f416c72656164792044656e696564000000000000000000000000000000000000600082015250565b60006119ee600e8361193b565b91506119f9826119b8565b602082019050919050565b60006020820190508181036000830152611a1d816119e1565b9050919050565b7f4e487b7100000000000000000000000000000000000000000000000000000000600052601160045260246000fd5b6000611a5e826115f6565b9150611a69836115f6565b9250828203905081811115611a8157611a80611a24565b5b92915050565b7f4e487b7100000000000000000000000000000000000000000000000000000000600052603260045260246000fd5b7f4e487b7100000000000000000000000000000000000000000000000000000000600052602260045260246000fd5b60006002820490506001821680611afd57607f821691505b602082108103611b1057611b0f611ab6565b5b50919050565b60008190508160005260206000209050919050565b60008154611b3881611ae5565b611b4281866118e8565b94506001821660008114611b5d5760018114611b7257611ba5565b60ff1983168652811515820286019350611ba5565b611b7b85611b16565b60005b83811015611b9d57815481890152600182019150602081019050611b7e565b838801955050505b50505092915050565b6000611bba8284611b2b565b915081905092915050565b6000611bd0826115f6565b91507fffffffffffffffffffffffffffffffffffffffffffffffffffffffffffffffff8203611c0257611c01611a24565b5b600182019050919050565b60006020601f8301049050919050565b600082821b905092915050565b600060088302611c5a7fffffffffffffffffffffffffffffffffffffffffffffffffffffffffffffffff82611c1d565b611c648683611c1d565b95508019841693508086168417925050509392505050565b6000819050919050565b6000611ca1611c9c611c97846115f6565b611c7c565b6115f6565b9050919050565b6000819050919050565b611cbb83611c86565b611ccf611cc782611ca8565b848454611c2a565b825550505050565b600090565b611ce4611cd7565b611cef818484611cb2565b505050565b5b81811015611d1357611d08600082611cdc565b600181019050611cf5565b5050565b601f821115611d5857611d2981611b16565b611d3284611c0d565b81016020851015611d41578190505b611d55611d4d85611c0d565b830182611cf4565b50505b505050565b600082821c905092915050565b6000611d7b60001984600802611d5d565b1980831691505092915050565b6000611d948383611d6a565b9150826002028217905092915050565b611dad82611729565b67ffffffffffffffff811115611dc657611dc5611427565b5b611dd08254611ae5565b611ddb828285611d17565b600060209050601f831160018114611e0e5760008415611dfc578287015190505b611e068582611d88565b865550611e6e565b601f198416611e1c86611b16565b60005b82811015611e4457848901518255600182019150602085019450602081019050611e1f565b86831015611e615784890151611e5d601f891682611d6a565b8355505b6001600288020188555050505b505050505050565b7f416c726561647920417070726f76656400000000000000000000000000000000600082015250565b6000611eac60108361193b565b9150611eb782611e76565b602082019050919050565b60006020820190508181036000830152611edb81611e9f565b9050919050565b6000611eed826115f6565b9150611ef8836115f6565b9250828201905080821115611f1057611f0f611a24565b5b92915050565b7f5265656e7472616e637947756172643a207265656e7472616e742063616c6c00600082015250565b6000611f4c601f8361193b565b9150611f5782611f16565b602082019050919050565b60006020820190508181036000830152611f7b81611f3f565b905091905056fea2646970667358221220c6a0996c145b0855612b0cf17c623de8ab76960b7a01388544a5328451b5f58464736f6c63430008140033",
  "linkReferences": {},
  "deployedLinkReferences": {}
}