{
  "_format": "hh-sol-artifact-1",
  "contractName": "RolesAndRights",
  "sourceName": "contracts/accessrights.sol",
  "abi": [
    {
      "inputs": [],
      "stateMutability": "nonpayable",
      "type": "constructor"
    },
    {
      "anonymous": false,
      "inputs": [
        {
          "indexed": true,
          "internalType": "uint256",
          "name": "docterId",
          "type": "uint256"
        },
        {
          "indexed": true,
          "internalType": "string",
          "name": "email",
          "type": "string"
        }
      ],
      "name": "DocterCreated",
      "type": "event"
    },
    {
      "anonymous": false,
      "inputs": [
        {
          "indexed": true,
          "internalType": "uint256",
          "name": "patientId",
          "type": "uint256"
        },
        {
          "indexed": true,
          "internalType": "string",
          "name": "email",
          "type": "string"
        }
      ],
      "name": "PatientCreated",
      "type": "event"
    },
    {
      "anonymous": false,
      "inputs": [
        {
          "indexed": true,
          "internalType": "string",
          "name": "email",
          "type": "string"
        },
        {
          "indexed": false,
          "internalType": "uint256",
          "name": "money",
          "type": "uint256"
        }
      ],
      "name": "moneyReceived",
      "type": "event"
    },
    {
      "inputs": [
        {
          "internalType": "string",
          "name": "email",
          "type": "string"
        },
        {
          "internalType": "string",
          "name": "url",
          "type": "string"
        }
      ],
      "name": "addDocuments",
      "outputs": [],
      "stateMutability": "nonpayable",
      "type": "function"
    },
    {
      "inputs": [
        {
          "internalType": "string",
          "name": "emailD",
          "type": "string"
        },
        {
          "internalType": "string",
          "name": "emailP",
          "type": "string"
        }
      ],
      "name": "approve",
      "outputs": [],
      "stateMutability": "nonpayable",
      "type": "function"
    },
    {
      "inputs": [
        {
          "internalType": "string",
          "name": "email",
          "type": "string"
        }
      ],
      "name": "createDocter",
      "outputs": [],
      "stateMutability": "nonpayable",
      "type": "function"
    },
    {
      "inputs": [
        {
          "internalType": "string",
          "name": "email",
          "type": "string"
        }
      ],
      "name": "createPatient",
      "outputs": [],
      "stateMutability": "nonpayable",
      "type": "function"
    },
    {
      "inputs": [
        {
          "internalType": "string",
          "name": "email",
          "type": "string"
        },
        {
          "internalType": "bool",
          "name": "anon",
          "type": "bool"
        }
      ],
      "name": "donateMoney",
      "outputs": [
        {
          "internalType": "bool",
          "name": "",
          "type": "bool"
        }
      ],
      "stateMutability": "payable",
      "type": "function"
    },
    {
      "inputs": [
        {
          "internalType": "string",
          "name": "email",
          "type": "string"
        }
      ],
      "name": "getDocters",
      "outputs": [
        {
          "internalType": "string[]",
          "name": "",
          "type": "string[]"
        }
      ],
      "stateMutability": "view",
      "type": "function"
    },
    {
      "inputs": [
        {
          "internalType": "string",
          "name": "emailP",
          "type": "string"
        },
        {
          "internalType": "string",
          "name": "emailD",
          "type": "string"
        }
      ],
      "name": "getPatientDetails",
      "outputs": [
        {
          "internalType": "string[]",
          "name": "",
          "type": "string[]"
        }
      ],
      "stateMutability": "view",
      "type": "function"
    },
    {
      "inputs": [
        {
          "internalType": "string",
          "name": "email",
          "type": "string"
        }
      ],
      "name": "getPatients",
      "outputs": [
        {
          "internalType": "string[]",
          "name": "",
          "type": "string[]"
        }
      ],
      "stateMutability": "view",
      "type": "function"
    },
    {
      "inputs": [
        {
          "internalType": "string",
          "name": "emailD",
          "type": "string"
        },
        {
          "internalType": "string",
          "name": "emailP",
          "type": "string"
        }
      ],
      "name": "revoke",
      "outputs": [],
      "stateMutability": "nonpayable",
      "type": "function"
    },
    {
      "inputs": [],
      "name": "withdraw",
      "outputs": [],
      "stateMutability": "payable",
      "type": "function"
    }
  ],
  "bytecode": "0x608060405234801561001057600080fd5b50600160008190555033600360006101000a81548173ffffffffffffffffffffffffffffffffffffffff021916908373ffffffffffffffffffffffffffffffffffffffff1602179055506000600181905550600060028190555061238a806100796000396000f3fe6080604052600436106100915760003560e01c80633ccfd60b116100595780633ccfd60b1461018b5780633fd9d18414610195578063778f3de0146101c5578063a0fb19a1146101ee578063e1c83bdc1461021757610091565b806309d1fc331461009657806310b40f85146100d35780632383c44e146100fc57806324a8fd341461012557806326bf0a3814610162575b600080fd5b3480156100a257600080fd5b506100bd60048036038101906100b891906118cc565b610254565b6040516100ca9190611a85565b60405180910390f35b3480156100df57600080fd5b506100fa60048036038101906100f591906118cc565b6103dd565b005b34801561010857600080fd5b50610123600480360381019061011e9190611aa7565b610991565b005b34801561013157600080fd5b5061014c60048036038101906101479190611aa7565b610af7565b6040516101599190611a85565b60405180910390f35b34801561016e57600080fd5b5061018960048036038101906101849190611aa7565b610bf1565b005b610193610cdf565b005b6101af60048036038101906101aa9190611b28565b610dea565b6040516101bc9190611b93565b60405180910390f35b3480156101d157600080fd5b506101ec60048036038101906101e791906118cc565b610e9c565b005b3480156101fa57600080fd5b50610215600480360381019061021091906118cc565b611350565b005b34801561022357600080fd5b5061023e60048036038101906102399190611aa7565b611545565b60405161024b9190611a85565b60405180910390f35b60606001151560068360405161026a9190611bea565b9081526020016040518091039020846040516102869190611bea565b908152602001604051809103902060009054906101000a900460ff161515146102e4576040517f08c379a00000000000000000000000000000000000000000000000000000000081526004016102db90611c5e565b60405180910390fd5b6005836040516102f49190611bea565b9081526020016040518091039020600301805480602002602001604051908101604052809291908181526020016000905b828210156103d157838290600052602060002001805461034490611cad565b80601f016020809104026020016040519081016040528092919081815260200182805461037090611cad565b80156103bd5780601f10610392576101008083540402835291602001916103bd565b820191906000526020600020905b8154815290600101906020018083116103a057829003601f168201915b505050505081526020019060010190610325565b50505050905092915050565b6103e561163f565b600115156006836040516103f99190611bea565b9081526020016040518091039020826040516104159190611bea565b908152602001604051809103902060009054906101000a900460ff16151514610473576040517f08c379a000000000000000000000000000000000000000000000000000000000815260040161046a90611d2a565b60405180910390fd5b60006006836040516104859190611bea565b9081526020016040518091039020826040516104a19190611bea565b908152602001604051809103902060006101000a81548160ff02191690831515021790555060006005826040516104d89190611bea565b908152602001604051809103902060020180549050905060006001826104fe9190611d83565b67ffffffffffffffff811115610517576105166117a1565b5b60405190808252806020026020018201604052801561054a57816020015b60608152602001906001900390816105355790505b5090506000805b838110156106ec578560405160200161056a9190611bea565b604051602081830303815290604052805190602001206005866040516105909190611bea565b908152602001604051809103902060020182815481106105b3576105b2611db7565b5b906000526020600020016040516020016105cd9190611e7e565b60405160208183030381529060405280519060200120146106d9576005856040516105f89190611bea565b9081526020016040518091039020600201818154811061061b5761061a611db7565b5b90600052602060002001805461063090611cad565b80601f016020809104026020016040519081016040528092919081815260200182805461065c90611cad565b80156106a95780601f1061067e576101008083540402835291602001916106a9565b820191906000526020600020905b81548152906001019060200180831161068c57829003601f168201915b50505050508383806106ba90611e95565b9450815181106106cd576106cc611db7565b5b60200260200101819052505b80806106e490611e95565b915050610551565b50816005856040516106fe9190611bea565b90815260200160405180910390206002019080519060200190610722929190611698565b506007856040516107339190611bea565b908152602001604051809103902060020180549050925060006001846107599190611d83565b67ffffffffffffffff811115610772576107716117a1565b5b6040519080825280602002602001820160405280156107a557816020015b60608152602001906001900390816107905790505b5090506000915060005b8481101561094a57856040516020016107c89190611bea565b604051602081830303815290604052805190602001206007886040516107ee9190611bea565b9081526020016040518091039020600201828154811061081157610810611db7565b5b9060005260206000200160405160200161082b9190611e7e565b6040516020818303038152906040528051906020012014610937576007876040516108569190611bea565b9081526020016040518091039020600201818154811061087957610878611db7565b5b90600052602060002001805461088e90611cad565b80601f01602080910402602001604051908101604052809291908181526020018280546108ba90611cad565b80156109075780601f106108dc57610100808354040283529160200191610907565b820191906000526020600020905b8154815290600101906020018083116108ea57829003601f168201915b505050505082848061091890611e95565b95508151811061092b5761092a611db7565b5b60200260200101819052505b808061094290611e95565b9150506107af565b508060078760405161095c9190611bea565b90815260200160405180910390206002019080519060200190610980929190611698565b505050505061098d61168e565b5050565b61099961163f565b600260008154809291906109ac90611e95565b919050555060608060405180608001604052806002548152602001848152602001838152602001828152506005846040516109e79190611bea565b9081526020016040518091039020600082015181600001556020820151816001019081610a149190612074565b506040820151816002019080519060200190610a31929190611698565b506060820151816003019080519060200190610a4e929190611698565b509050506001600684604051610a649190611bea565b908152602001604051809103902084604051610a809190611bea565b908152602001604051809103902060006101000a81548160ff02191690831515021790555082604051610ab39190611bea565b60405180910390206002547f134fda0ae4fafca781b872311cca14ccbfaf969fd15c52f58e9a93de5d23180760405160405180910390a35050610af461168e565b50565b6060600782604051610b099190611bea565b9081526020016040518091039020600201805480602002602001604051908101604052809291908181526020016000905b82821015610be6578382906000526020600020018054610b5990611cad565b80601f0160208091040260200160405190810160405280929190818152602001828054610b8590611cad565b8015610bd25780601f10610ba757610100808354040283529160200191610bd2565b820191906000526020600020905b815481529060010190602001808311610bb557829003601f168201915b505050505081526020019060010190610b3a565b505050509050919050565b610bf961163f565b60016000815480929190610c0c90611e95565b919050555060606040518060600160405280600154815260200183815260200182815250600783604051610c409190611bea565b9081526020016040518091039020600082015181600001556020820151816001019081610c6d9190612074565b506040820151816002019080519060200190610c8a929190611698565b5090505081604051610c9c9190611bea565b60405180910390206001547fea156934655ce49eb3a326e33cd7089b144169217ba22211032479b6b429372560405160405180910390a350610cdc61168e565b50565b610ce761163f565b600360009054906101000a900473ffffffffffffffffffffffffffffffffffffffff1673ffffffffffffffffffffffffffffffffffffffff163373ffffffffffffffffffffffffffffffffffffffff1614610d77576040517f08c379a0000000000000000000000000000000000000000000000000000000008152600401610d6e90612192565b60405180910390fd5b600360009054906101000a900473ffffffffffffffffffffffffffffffffffffffff1673ffffffffffffffffffffffffffffffffffffffff166108fc479081150290604051600060405180830381858888f19350505050158015610ddf573d6000803e3d6000fd5b50610de861168e565b565b6000610df461163f565b60003411610e37576040517f08c379a0000000000000000000000000000000000000000000000000000000008152600401610e2e906121fe565b60405180910390fd5b81610e8a5782604051610e4a9190611bea565b60405180910390207fd76f471a6cfd25ffcda8864cd32f43f578933212dad6affaa5ac113086c5c54634604051610e81919061222d565b60405180910390a25b60019050610e9661168e565b92915050565b610ea461163f565b60001515600683604051610eb89190611bea565b908152602001604051809103902082604051610ed49190611bea565b908152602001604051809103902060009054906101000a900460ff16151514610f32576040517f08c379a0000000000000000000000000000000000000000000000000000000008152600401610f2990612294565b60405180910390fd5b6001600683604051610f449190611bea565b908152602001604051809103902082604051610f609190611bea565b908152602001604051809103902060006101000a81548160ff0219169083151502179055506000600582604051610f979190611bea565b90815260200160405180910390206002018054905090506000600182610fbd91906122b4565b67ffffffffffffffff811115610fd657610fd56117a1565b5b60405190808252806020026020018201604052801561100957816020015b6060815260200190600190039081610ff45790505b509050838183815181106110205761101f611db7565b5b602002602001018190525060005b8281101561112d576005846040516110469190611bea565b9081526020016040518091039020600201818154811061106957611068611db7565b5b90600052602060002001805461107e90611cad565b80601f01602080910402602001604051908101604052809291908181526020018280546110aa90611cad565b80156110f75780601f106110cc576101008083540402835291602001916110f7565b820191906000526020600020905b8154815290600101906020018083116110da57829003601f168201915b505050505082828151811061110f5761110e611db7565b5b6020026020010181905250808061112590611e95565b91505061102e565b508060058460405161113f9190611bea565b90815260200160405180910390206002019080519060200190611163929190611698565b506007846040516111749190611bea565b9081526020016040518091039020600201805490509150600060018361119a91906122b4565b67ffffffffffffffff8111156111b3576111b26117a1565b5b6040519080825280602002602001820160405280156111e657816020015b60608152602001906001900390816111d15790505b509050838184815181106111fd576111fc611db7565b5b602002602001018190525060005b8381101561130a576007866040516112239190611bea565b9081526020016040518091039020600201818154811061124657611245611db7565b5b90600052602060002001805461125b90611cad565b80601f016020809104026020016040519081016040528092919081815260200182805461128790611cad565b80156112d45780601f106112a9576101008083540402835291602001916112d4565b820191906000526020600020905b8154815290600101906020018083116112b757829003601f168201915b50505050508282815181106112ec576112eb611db7565b5b6020026020010181905250808061130290611e95565b91505061120b565b508060078660405161131c9190611bea565b90815260200160405180910390206002019080519060200190611340929190611698565b5050505061134c61168e565b5050565b61135861163f565b600060058360405161136a9190611bea565b9081526020016040518091039020600301805490509050600060018261139091906122b4565b67ffffffffffffffff8111156113a9576113a86117a1565b5b6040519080825280602002602001820160405280156113dc57816020015b60608152602001906001900390816113c75790505b509050828183815181106113f3576113f2611db7565b5b602002602001018190525060005b82811015611500576005856040516114199190611bea565b9081526020016040518091039020600301818154811061143c5761143b611db7565b5b90600052602060002001805461145190611cad565b80601f016020809104026020016040519081016040528092919081815260200182805461147d90611cad565b80156114ca5780601f1061149f576101008083540402835291602001916114ca565b820191906000526020600020905b8154815290600101906020018083116114ad57829003601f168201915b50505050508282815181106114e2576114e1611db7565b5b602002602001018190525080806114f890611e95565b915050611401565b50806005856040516115129190611bea565b90815260200160405180910390206003019080519060200190611536929190611698565b50505061154161168e565b5050565b60606005826040516115579190611bea565b9081526020016040518091039020600201805480602002602001604051908101604052809291908181526020016000905b828210156116345783829060005260206000200180546115a790611cad565b80601f01602080910402602001604051908101604052809291908181526020018280546115d390611cad565b80156116205780601f106115f557610100808354040283529160200191611620565b820191906000526020600020905b81548152906001019060200180831161160357829003601f168201915b505050505081526020019060010190611588565b505050509050919050565b600260005403611684576040517f08c379a000000000000000000000000000000000000000000000000000000000815260040161167b90612334565b60405180910390fd5b6002600081905550565b6001600081905550565b8280548282559060005260206000209081019282156116e0579160200282015b828111156116df5782518290816116cf9190612074565b50916020019190600101906116b8565b5b5090506116ed91906116f1565b5090565b5b8082111561171157600081816117089190611715565b506001016116f2565b5090565b50805461172190611cad565b6000825580601f106117335750611752565b601f0160209004906000526020600020908101906117519190611755565b5b50565b5b8082111561176e576000816000905550600101611756565b5090565b6000604051905090565b600080fd5b600080fd5b600080fd5b600080fd5b6000601f19601f8301169050919050565b7f4e487b7100000000000000000000000000000000000000000000000000000000600052604160045260246000fd5b6117d982611790565b810181811067ffffffffffffffff821117156117f8576117f76117a1565b5b80604052505050565b600061180b611772565b905061181782826117d0565b919050565b600067ffffffffffffffff821115611837576118366117a1565b5b61184082611790565b9050602081019050919050565b82818337600083830152505050565b600061186f61186a8461181c565b611801565b90508281526020810184848401111561188b5761188a61178b565b5b61189684828561184d565b509392505050565b600082601f8301126118b3576118b2611786565b5b81356118c384826020860161185c565b91505092915050565b600080604083850312156118e3576118e261177c565b5b600083013567ffffffffffffffff81111561190157611900611781565b5b61190d8582860161189e565b925050602083013567ffffffffffffffff81111561192e5761192d611781565b5b61193a8582860161189e565b9150509250929050565b600081519050919050565b600082825260208201905092915050565b6000819050602082019050919050565b600081519050919050565b600082825260208201905092915050565b60005b838110156119aa57808201518184015260208101905061198f565b60008484015250505050565b60006119c182611970565b6119cb818561197b565b93506119db81856020860161198c565b6119e481611790565b840191505092915050565b60006119fb83836119b6565b905092915050565b6000602082019050919050565b6000611a1b82611944565b611a25818561194f565b935083602082028501611a3785611960565b8060005b85811015611a735784840389528151611a5485826119ef565b9450611a5f83611a03565b925060208a01995050600181019050611a3b565b50829750879550505050505092915050565b60006020820190508181036000830152611a9f8184611a10565b905092915050565b600060208284031215611abd57611abc61177c565b5b600082013567ffffffffffffffff811115611adb57611ada611781565b5b611ae78482850161189e565b91505092915050565b60008115159050919050565b611b0581611af0565b8114611b1057600080fd5b50565b600081359050611b2281611afc565b92915050565b60008060408385031215611b3f57611b3e61177c565b5b600083013567ffffffffffffffff811115611b5d57611b5c611781565b5b611b698582860161189e565b9250506020611b7a85828601611b13565b9150509250929050565b611b8d81611af0565b82525050565b6000602082019050611ba86000830184611b84565b92915050565b600081905092915050565b6000611bc482611970565b611bce8185611bae565b9350611bde81856020860161198c565b80840191505092915050565b6000611bf68284611bb9565b915081905092915050565b600082825260208201905092915050565b7f4163636573732044656e69656400000000000000000000000000000000000000600082015250565b6000611c48600d83611c01565b9150611c5382611c12565b602082019050919050565b60006020820190508181036000830152611c7781611c3b565b9050919050565b7f4e487b7100000000000000000000000000000000000000000000000000000000600052602260045260246000fd5b60006002820490506001821680611cc557607f821691505b602082108103611cd857611cd7611c7e565b5b50919050565b7f416c72656164792044656e696564000000000000000000000000000000000000600082015250565b6000611d14600e83611c01565b9150611d1f82611cde565b602082019050919050565b60006020820190508181036000830152611d4381611d07565b9050919050565b6000819050919050565b7f4e487b7100000000000000000000000000000000000000000000000000000000600052601160045260246000fd5b6000611d8e82611d4a565b9150611d9983611d4a565b9250828203905081811115611db157611db0611d54565b5b92915050565b7f4e487b7100000000000000000000000000000000000000000000000000000000600052603260045260246000fd5b60008190508160005260206000209050919050565b60008154611e0881611cad565b611e128186611bae565b94506001821660008114611e2d5760018114611e4257611e75565b60ff1983168652811515820286019350611e75565b611e4b85611de6565b60005b83811015611e6d57815481890152600182019150602081019050611e4e565b838801955050505b50505092915050565b6000611e8a8284611dfb565b915081905092915050565b6000611ea082611d4a565b91507fffffffffffffffffffffffffffffffffffffffffffffffffffffffffffffffff8203611ed257611ed1611d54565b5b600182019050919050565b60006020601f8301049050919050565b600082821b905092915050565b600060088302611f2a7fffffffffffffffffffffffffffffffffffffffffffffffffffffffffffffffff82611eed565b611f348683611eed565b95508019841693508086168417925050509392505050565b6000819050919050565b6000611f71611f6c611f6784611d4a565b611f4c565b611d4a565b9050919050565b6000819050919050565b611f8b83611f56565b611f9f611f9782611f78565b848454611efa565b825550505050565b600090565b611fb4611fa7565b611fbf818484611f82565b505050565b5b81811015611fe357611fd8600082611fac565b600181019050611fc5565b5050565b601f82111561202857611ff981611de6565b61200284611edd565b81016020851015612011578190505b61202561201d85611edd565b830182611fc4565b50505b505050565b600082821c905092915050565b600061204b6000198460080261202d565b1980831691505092915050565b6000612064838361203a565b9150826002028217905092915050565b61207d82611970565b67ffffffffffffffff811115612096576120956117a1565b5b6120a08254611cad565b6120ab828285611fe7565b600060209050601f8311600181146120de57600084156120cc578287015190505b6120d68582612058565b86555061213e565b601f1984166120ec86611de6565b60005b82811015612114578489015182556001820191506020850194506020810190506120ef565b86831015612131578489015161212d601f89168261203a565b8355505b6001600288020188555050505b505050505050565b7f596f7520617265206e6f7420746865206f776e65720000000000000000000000600082015250565b600061217c601583611c01565b915061218782612146565b602082019050919050565b600060208201905081810360008301526121ab8161216f565b9050919050565b7f4769766520612076616c696420616d6f756e7400000000000000000000000000600082015250565b60006121e8601383611c01565b91506121f3826121b2565b602082019050919050565b60006020820190508181036000830152612217816121db565b9050919050565b61222781611d4a565b82525050565b6000602082019050612242600083018461221e565b92915050565b7f416c726561647920417070726f76656400000000000000000000000000000000600082015250565b600061227e601083611c01565b915061228982612248565b602082019050919050565b600060208201905081810360008301526122ad81612271565b9050919050565b60006122bf82611d4a565b91506122ca83611d4a565b92508282019050808211156122e2576122e1611d54565b5b92915050565b7f5265656e7472616e637947756172643a207265656e7472616e742063616c6c00600082015250565b600061231e601f83611c01565b9150612329826122e8565b602082019050919050565b6000602082019050818103600083015261234d81612311565b905091905056fea264697066735822122023e563ede2cf2c13fd3b6df6d76ce46c8b3a4bbd2e2341094a5e45b2f7a0dd3f64736f6c63430008140033",
  "linkReferences": {},
  "deployedLinkReferences": {}
}