{
  "_format": "hh-sol-artifact-1",
  "contractName": "NFT",
  "sourceName": "contracts/NFT.sol",
  "abi": [
    {
      "inputs": [
        {
          "internalType": "address",
          "name": "marketPlaceAddress",
          "type": "address"
        }
      ],
      "stateMutability": "nonpayable",
      "type": "constructor"
    },
    {
      "inputs": [
        {
          "internalType": "address",
          "name": "sender",
          "type": "address"
        },
        {
          "internalType": "uint256",
          "name": "tokenId",
          "type": "uint256"
        },
        {
          "internalType": "address",
          "name": "owner",
          "type": "address"
        }
      ],
      "name": "ERC721IncorrectOwner",
      "type": "error"
    },
    {
      "inputs": [
        {
          "internalType": "address",
          "name": "operator",
          "type": "address"
        },
        {
          "internalType": "uint256",
          "name": "tokenId",
          "type": "uint256"
        }
      ],
      "name": "ERC721InsufficientApproval",
      "type": "error"
    },
    {
      "inputs": [
        {
          "internalType": "address",
          "name": "approver",
          "type": "address"
        }
      ],
      "name": "ERC721InvalidApprover",
      "type": "error"
    },
    {
      "inputs": [
        {
          "internalType": "address",
          "name": "operator",
          "type": "address"
        }
      ],
      "name": "ERC721InvalidOperator",
      "type": "error"
    },
    {
      "inputs": [
        {
          "internalType": "address",
          "name": "owner",
          "type": "address"
        }
      ],
      "name": "ERC721InvalidOwner",
      "type": "error"
    },
    {
      "inputs": [
        {
          "internalType": "address",
          "name": "receiver",
          "type": "address"
        }
      ],
      "name": "ERC721InvalidReceiver",
      "type": "error"
    },
    {
      "inputs": [
        {
          "internalType": "address",
          "name": "sender",
          "type": "address"
        }
      ],
      "name": "ERC721InvalidSender",
      "type": "error"
    },
    {
      "inputs": [
        {
          "internalType": "uint256",
          "name": "tokenId",
          "type": "uint256"
        }
      ],
      "name": "ERC721NonexistentToken",
      "type": "error"
    },
    {
      "anonymous": false,
      "inputs": [
        {
          "indexed": true,
          "internalType": "address",
          "name": "owner",
          "type": "address"
        },
        {
          "indexed": true,
          "internalType": "address",
          "name": "approved",
          "type": "address"
        },
        {
          "indexed": true,
          "internalType": "uint256",
          "name": "tokenId",
          "type": "uint256"
        }
      ],
      "name": "Approval",
      "type": "event"
    },
    {
      "anonymous": false,
      "inputs": [
        {
          "indexed": true,
          "internalType": "address",
          "name": "owner",
          "type": "address"
        },
        {
          "indexed": true,
          "internalType": "address",
          "name": "operator",
          "type": "address"
        },
        {
          "indexed": false,
          "internalType": "bool",
          "name": "approved",
          "type": "bool"
        }
      ],
      "name": "ApprovalForAll",
      "type": "event"
    },
    {
      "anonymous": false,
      "inputs": [
        {
          "indexed": false,
          "internalType": "uint256",
          "name": "_fromTokenId",
          "type": "uint256"
        },
        {
          "indexed": false,
          "internalType": "uint256",
          "name": "_toTokenId",
          "type": "uint256"
        }
      ],
      "name": "BatchMetadataUpdate",
      "type": "event"
    },
    {
      "anonymous": false,
      "inputs": [
        {
          "indexed": false,
          "internalType": "uint256",
          "name": "_tokenId",
          "type": "uint256"
        }
      ],
      "name": "MetadataUpdate",
      "type": "event"
    },
    {
      "anonymous": false,
      "inputs": [
        {
          "indexed": true,
          "internalType": "address",
          "name": "from",
          "type": "address"
        },
        {
          "indexed": true,
          "internalType": "address",
          "name": "to",
          "type": "address"
        },
        {
          "indexed": true,
          "internalType": "uint256",
          "name": "tokenId",
          "type": "uint256"
        }
      ],
      "name": "Transfer",
      "type": "event"
    },
    {
      "inputs": [
        {
          "internalType": "address",
          "name": "to",
          "type": "address"
        },
        {
          "internalType": "uint256",
          "name": "tokenId",
          "type": "uint256"
        }
      ],
      "name": "approve",
      "outputs": [],
      "stateMutability": "nonpayable",
      "type": "function"
    },
    {
      "inputs": [
        {
          "internalType": "address",
          "name": "owner",
          "type": "address"
        }
      ],
      "name": "balanceOf",
      "outputs": [
        {
          "internalType": "uint256",
          "name": "",
          "type": "uint256"
        }
      ],
      "stateMutability": "view",
      "type": "function"
    },
    {
      "inputs": [
        {
          "internalType": "string",
          "name": "tokenURI",
          "type": "string"
        }
      ],
      "name": "createToken",
      "outputs": [
        {
          "internalType": "uint256",
          "name": "",
          "type": "uint256"
        }
      ],
      "stateMutability": "nonpayable",
      "type": "function"
    },
    {
      "inputs": [
        {
          "internalType": "uint256",
          "name": "tokenId",
          "type": "uint256"
        }
      ],
      "name": "getApproved",
      "outputs": [
        {
          "internalType": "address",
          "name": "",
          "type": "address"
        }
      ],
      "stateMutability": "view",
      "type": "function"
    },
    {
      "inputs": [
        {
          "internalType": "address",
          "name": "owner",
          "type": "address"
        },
        {
          "internalType": "address",
          "name": "operator",
          "type": "address"
        }
      ],
      "name": "isApprovedForAll",
      "outputs": [
        {
          "internalType": "bool",
          "name": "",
          "type": "bool"
        }
      ],
      "stateMutability": "view",
      "type": "function"
    },
    {
      "inputs": [],
      "name": "name",
      "outputs": [
        {
          "internalType": "string",
          "name": "",
          "type": "string"
        }
      ],
      "stateMutability": "view",
      "type": "function"
    },
    {
      "inputs": [
        {
          "internalType": "uint256",
          "name": "tokenId",
          "type": "uint256"
        }
      ],
      "name": "ownerOf",
      "outputs": [
        {
          "internalType": "address",
          "name": "",
          "type": "address"
        }
      ],
      "stateMutability": "view",
      "type": "function"
    },
    {
      "inputs": [
        {
          "internalType": "address",
          "name": "from",
          "type": "address"
        },
        {
          "internalType": "address",
          "name": "to",
          "type": "address"
        },
        {
          "internalType": "uint256",
          "name": "tokenId",
          "type": "uint256"
        }
      ],
      "name": "safeTransferFrom",
      "outputs": [],
      "stateMutability": "nonpayable",
      "type": "function"
    },
    {
      "inputs": [
        {
          "internalType": "address",
          "name": "from",
          "type": "address"
        },
        {
          "internalType": "address",
          "name": "to",
          "type": "address"
        },
        {
          "internalType": "uint256",
          "name": "tokenId",
          "type": "uint256"
        },
        {
          "internalType": "bytes",
          "name": "data",
          "type": "bytes"
        }
      ],
      "name": "safeTransferFrom",
      "outputs": [],
      "stateMutability": "nonpayable",
      "type": "function"
    },
    {
      "inputs": [
        {
          "internalType": "address",
          "name": "operator",
          "type": "address"
        },
        {
          "internalType": "bool",
          "name": "approved",
          "type": "bool"
        }
      ],
      "name": "setApprovalForAll",
      "outputs": [],
      "stateMutability": "nonpayable",
      "type": "function"
    },
    {
      "inputs": [
        {
          "internalType": "bytes4",
          "name": "interfaceId",
          "type": "bytes4"
        }
      ],
      "name": "supportsInterface",
      "outputs": [
        {
          "internalType": "bool",
          "name": "",
          "type": "bool"
        }
      ],
      "stateMutability": "view",
      "type": "function"
    },
    {
      "inputs": [],
      "name": "symbol",
      "outputs": [
        {
          "internalType": "string",
          "name": "",
          "type": "string"
        }
      ],
      "stateMutability": "view",
      "type": "function"
    },
    {
      "inputs": [
        {
          "internalType": "uint256",
          "name": "tokenId",
          "type": "uint256"
        }
      ],
      "name": "tokenURI",
      "outputs": [
        {
          "internalType": "string",
          "name": "",
          "type": "string"
        }
      ],
      "stateMutability": "view",
      "type": "function"
    },
    {
      "inputs": [
        {
          "internalType": "address",
          "name": "from",
          "type": "address"
        },
        {
          "internalType": "address",
          "name": "to",
          "type": "address"
        },
        {
          "internalType": "uint256",
          "name": "tokenId",
          "type": "uint256"
        }
      ],
      "name": "transferFrom",
      "outputs": [],
      "stateMutability": "nonpayable",
      "type": "function"
    }
  ],
  "bytecode": "0x60806040523480156200001157600080fd5b50604051620028fe380380620028fe833981810160405281019062000037919062000183565b6040518060400160405280601881526020017f446563656e7472616c697a6564204865616c74686361726500000000000000008152506040518060400160405280600381526020017f44484d00000000000000000000000000000000000000000000000000000000008152508160009081620000b491906200042f565b508060019081620000c691906200042f565b50505080600860006101000a81548173ffffffffffffffffffffffffffffffffffffffff021916908373ffffffffffffffffffffffffffffffffffffffff16021790555060006007819055505062000516565b600080fd5b600073ffffffffffffffffffffffffffffffffffffffff82169050919050565b60006200014b826200011e565b9050919050565b6200015d816200013e565b81146200016957600080fd5b50565b6000815190506200017d8162000152565b92915050565b6000602082840312156200019c576200019b62000119565b5b6000620001ac848285016200016c565b91505092915050565b600081519050919050565b7f4e487b7100000000000000000000000000000000000000000000000000000000600052604160045260246000fd5b7f4e487b7100000000000000000000000000000000000000000000000000000000600052602260045260246000fd5b600060028204905060018216806200023757607f821691505b6020821081036200024d576200024c620001ef565b5b50919050565b60008190508160005260206000209050919050565b60006020601f8301049050919050565b600082821b905092915050565b600060088302620002b77fffffffffffffffffffffffffffffffffffffffffffffffffffffffffffffffff8262000278565b620002c3868362000278565b95508019841693508086168417925050509392505050565b6000819050919050565b6000819050919050565b6000620003106200030a6200030484620002db565b620002e5565b620002db565b9050919050565b6000819050919050565b6200032c83620002ef565b620003446200033b8262000317565b84845462000285565b825550505050565b600090565b6200035b6200034c565b6200036881848462000321565b505050565b5b8181101562000390576200038460008262000351565b6001810190506200036e565b5050565b601f821115620003df57620003a98162000253565b620003b48462000268565b81016020851015620003c4578190505b620003dc620003d38562000268565b8301826200036d565b50505b505050565b600082821c905092915050565b60006200040460001984600802620003e4565b1980831691505092915050565b60006200041f8383620003f1565b9150826002028217905092915050565b6200043a82620001b5565b67ffffffffffffffff811115620004565762000455620001c0565b5b6200046282546200021e565b6200046f82828562000394565b600060209050601f831160018114620004a7576000841562000492578287015190505b6200049e858262000411565b8655506200050e565b601f198416620004b78662000253565b60005b82811015620004e157848901518255600182019150602085019450602081019050620004ba565b86831015620005015784890151620004fd601f891682620003f1565b8355505b6001600288020188555050505b505050505050565b6123d880620005266000396000f3fe608060405234801561001057600080fd5b50600436106100ea5760003560e01c80636352211e1161008c578063a22cb46511610066578063a22cb4651461026f578063b88d4fde1461028b578063c87b56dd146102a7578063e985e9c5146102d7576100ea565b80636352211e146101f157806370a082311461022157806395d89b4114610251576100ea565b8063095ea7b3116100c8578063095ea7b31461016d57806323b872dd1461018957806342842e0e146101a557806345576f94146101c1576100ea565b806301ffc9a7146100ef57806306fdde031461011f578063081812fc1461013d575b600080fd5b61010960048036038101906101049190611843565b610307565b604051610116919061188b565b60405180910390f35b610127610368565b6040516101349190611936565b60405180910390f35b6101576004803603810190610152919061198e565b6103fa565b60405161016491906119fc565b60405180910390f35b61018760048036038101906101829190611a43565b610416565b005b6101a3600480360381019061019e9190611a83565b61042c565b005b6101bf60048036038101906101ba9190611a83565b61052e565b005b6101db60048036038101906101d69190611c0b565b61054e565b6040516101e89190611c63565b60405180910390f35b61020b6004803603810190610206919061198e565b6105b7565b60405161021891906119fc565b60405180910390f35b61023b60048036038101906102369190611c7e565b6105c9565b6040516102489190611c63565b60405180910390f35b610259610683565b6040516102669190611936565b60405180910390f35b61028960048036038101906102849190611cd7565b610715565b005b6102a560048036038101906102a09190611db8565b61072b565b005b6102c160048036038101906102bc919061198e565b610748565b6040516102ce9190611936565b60405180910390f35b6102f160048036038101906102ec9190611e3b565b61085b565b6040516102fe919061188b565b60405180910390f35b6000634906490660e01b7bffffffffffffffffffffffffffffffffffffffffffffffffffffffff1916827bffffffffffffffffffffffffffffffffffffffffffffffffffffffff191614806103615750610360826108ef565b5b9050919050565b60606000805461037790611eaa565b80601f01602080910402602001604051908101604052809291908181526020018280546103a390611eaa565b80156103f05780601f106103c5576101008083540402835291602001916103f0565b820191906000526020600020905b8154815290600101906020018083116103d357829003601f168201915b5050505050905090565b6000610405826109d1565b5061040f82610a59565b9050919050565b6104288282610423610a96565b610a9e565b5050565b600073ffffffffffffffffffffffffffffffffffffffff168273ffffffffffffffffffffffffffffffffffffffff160361049e5760006040517f64a0ae9200000000000000000000000000000000000000000000000000000000815260040161049591906119fc565b60405180910390fd5b60006104b283836104ad610a96565b610ab0565b90508373ffffffffffffffffffffffffffffffffffffffff168173ffffffffffffffffffffffffffffffffffffffff1614610528578382826040517f64283d7b00000000000000000000000000000000000000000000000000000000815260040161051f93929190611edb565b60405180910390fd5b50505050565b6105498383836040518060200160405280600081525061072b565b505050565b60006007600081548092919061056390611f41565b919050555061057433600754610cca565b61058060075483610dc3565b6105ad600860009054906101000a900473ffffffffffffffffffffffffffffffffffffffff166001610715565b6007549050919050565b60006105c2826109d1565b9050919050565b60008073ffffffffffffffffffffffffffffffffffffffff168273ffffffffffffffffffffffffffffffffffffffff160361063c5760006040517f89c62b6400000000000000000000000000000000000000000000000000000000815260040161063391906119fc565b60405180910390fd5b600360008373ffffffffffffffffffffffffffffffffffffffff1673ffffffffffffffffffffffffffffffffffffffff168152602001908152602001600020549050919050565b60606001805461069290611eaa565b80601f01602080910402602001604051908101604052809291908181526020018280546106be90611eaa565b801561070b5780601f106106e05761010080835404028352916020019161070b565b820191906000526020600020905b8154815290600101906020018083116106ee57829003601f168201915b5050505050905090565b610727610720610a96565b8383610e1f565b5050565b61073684848461042c565b61074284848484610f8e565b50505050565b6060610753826109d1565b50600060066000848152602001908152602001600020805461077490611eaa565b80601f01602080910402602001604051908101604052809291908181526020018280546107a090611eaa565b80156107ed5780601f106107c2576101008083540402835291602001916107ed565b820191906000526020600020905b8154815290600101906020018083116107d057829003601f168201915b5050505050905060006107fe611145565b90506000815103610813578192505050610856565b600082511115610848578082604051602001610830929190611fc5565b60405160208183030381529060405292505050610856565b6108518461115c565b925050505b919050565b6000600560008473ffffffffffffffffffffffffffffffffffffffff1673ffffffffffffffffffffffffffffffffffffffff16815260200190815260200160002060008373ffffffffffffffffffffffffffffffffffffffff1673ffffffffffffffffffffffffffffffffffffffff16815260200190815260200160002060009054906101000a900460ff16905092915050565b60007f80ac58cd000000000000000000000000000000000000000000000000000000007bffffffffffffffffffffffffffffffffffffffffffffffffffffffff1916827bffffffffffffffffffffffffffffffffffffffffffffffffffffffff191614806109ba57507f5b5e139f000000000000000000000000000000000000000000000000000000007bffffffffffffffffffffffffffffffffffffffffffffffffffffffff1916827bffffffffffffffffffffffffffffffffffffffffffffffffffffffff1916145b806109ca57506109c9826111c5565b5b9050919050565b6000806109dd8361122f565b9050600073ffffffffffffffffffffffffffffffffffffffff168173ffffffffffffffffffffffffffffffffffffffff1603610a5057826040517f7e273289000000000000000000000000000000000000000000000000000000008152600401610a479190611c63565b60405180910390fd5b80915050919050565b60006004600083815260200190815260200160002060009054906101000a900473ffffffffffffffffffffffffffffffffffffffff169050919050565b600033905090565b610aab838383600161126c565b505050565b600080610abc8461122f565b9050600073ffffffffffffffffffffffffffffffffffffffff168373ffffffffffffffffffffffffffffffffffffffff1614610afe57610afd818486611431565b5b600073ffffffffffffffffffffffffffffffffffffffff168173ffffffffffffffffffffffffffffffffffffffff1614610b8f57610b4060008560008061126c565b6001600360008373ffffffffffffffffffffffffffffffffffffffff1673ffffffffffffffffffffffffffffffffffffffff168152602001908152602001600020600082825403925050819055505b600073ffffffffffffffffffffffffffffffffffffffff168573ffffffffffffffffffffffffffffffffffffffff1614610c12576001600360008773ffffffffffffffffffffffffffffffffffffffff1673ffffffffffffffffffffffffffffffffffffffff168152602001908152602001600020600082825401925050819055505b846002600086815260200190815260200160002060006101000a81548173ffffffffffffffffffffffffffffffffffffffff021916908373ffffffffffffffffffffffffffffffffffffffff160217905550838573ffffffffffffffffffffffffffffffffffffffff168273ffffffffffffffffffffffffffffffffffffffff167fddf252ad1be2c89b69c2b068fc378daa952ba7f163c4a11628f55a4df523b3ef60405160405180910390a4809150509392505050565b600073ffffffffffffffffffffffffffffffffffffffff168273ffffffffffffffffffffffffffffffffffffffff1603610d3c5760006040517f64a0ae92000000000000000000000000000000000000000000000000000000008152600401610d3391906119fc565b60405180910390fd5b6000610d4a83836000610ab0565b9050600073ffffffffffffffffffffffffffffffffffffffff168173ffffffffffffffffffffffffffffffffffffffff1614610dbe5760006040517f73c6ac6e000000000000000000000000000000000000000000000000000000008152600401610db591906119fc565b60405180910390fd5b505050565b80600660008481526020019081526020016000209081610de39190612195565b507ff8e1a15aba9398e019f0b49df1a4fde98ee17ae345cb5f6b5e2c27f5033e8ce782604051610e139190611c63565b60405180910390a15050565b600073ffffffffffffffffffffffffffffffffffffffff168273ffffffffffffffffffffffffffffffffffffffff1603610e9057816040517f5b08ba18000000000000000000000000000000000000000000000000000000008152600401610e8791906119fc565b60405180910390fd5b80600560008573ffffffffffffffffffffffffffffffffffffffff1673ffffffffffffffffffffffffffffffffffffffff16815260200190815260200160002060008473ffffffffffffffffffffffffffffffffffffffff1673ffffffffffffffffffffffffffffffffffffffff16815260200190815260200160002060006101000a81548160ff0219169083151502179055508173ffffffffffffffffffffffffffffffffffffffff168373ffffffffffffffffffffffffffffffffffffffff167f17307eab39ab6107e8899845ad3d59bd9653f200f220920489ca2b5937696c3183604051610f81919061188b565b60405180910390a3505050565b60008373ffffffffffffffffffffffffffffffffffffffff163b111561113f578273ffffffffffffffffffffffffffffffffffffffff1663150b7a02610fd2610a96565b8685856040518563ffffffff1660e01b8152600401610ff494939291906122bc565b6020604051808303816000875af192505050801561103057506040513d601f19601f8201168201806040525081019061102d919061231d565b60015b6110b4573d8060008114611060576040519150601f19603f3d011682016040523d82523d6000602084013e611065565b606091505b5060008151036110ac57836040517f64a0ae920000000000000000000000000000000000000000000000000000000081526004016110a391906119fc565b60405180910390fd5b805181602001fd5b63150b7a0260e01b7bffffffffffffffffffffffffffffffffffffffffffffffffffffffff1916817bffffffffffffffffffffffffffffffffffffffffffffffffffffffff19161461113d57836040517f64a0ae9200000000000000000000000000000000000000000000000000000000815260040161113491906119fc565b60405180910390fd5b505b50505050565b606060405180602001604052806000815250905090565b6060611167826109d1565b506000611172611145565b9050600081511161119257604051806020016040528060008152506111bd565b8061119c846114f5565b6040516020016111ad929190611fc5565b6040516020818303038152906040525b915050919050565b60007f01ffc9a7000000000000000000000000000000000000000000000000000000007bffffffffffffffffffffffffffffffffffffffffffffffffffffffff1916827bffffffffffffffffffffffffffffffffffffffffffffffffffffffff1916149050919050565b60006002600083815260200190815260200160002060009054906101000a900473ffffffffffffffffffffffffffffffffffffffff169050919050565b80806112a55750600073ffffffffffffffffffffffffffffffffffffffff168273ffffffffffffffffffffffffffffffffffffffff1614155b156113d95760006112b5846109d1565b9050600073ffffffffffffffffffffffffffffffffffffffff168373ffffffffffffffffffffffffffffffffffffffff161415801561132057508273ffffffffffffffffffffffffffffffffffffffff168173ffffffffffffffffffffffffffffffffffffffff1614155b80156113335750611331818461085b565b155b1561137557826040517fa9fbf51f00000000000000000000000000000000000000000000000000000000815260040161136c91906119fc565b60405180910390fd5b81156113d757838573ffffffffffffffffffffffffffffffffffffffff168273ffffffffffffffffffffffffffffffffffffffff167f8c5be1e5ebec7d5bd14f71427d1e84f3dd0314c0f7b2291e5b200ac8c7c3b92560405160405180910390a45b505b836004600085815260200190815260200160002060006101000a81548173ffffffffffffffffffffffffffffffffffffffff021916908373ffffffffffffffffffffffffffffffffffffffff16021790555050505050565b61143c8383836115c3565b6114f057600073ffffffffffffffffffffffffffffffffffffffff168373ffffffffffffffffffffffffffffffffffffffff16036114b157806040517f7e2732890000000000000000000000000000000000000000000000000000000081526004016114a89190611c63565b60405180910390fd5b81816040517f177e802f0000000000000000000000000000000000000000000000000000000081526004016114e792919061234a565b60405180910390fd5b505050565b60606000600161150484611684565b01905060008167ffffffffffffffff81111561152357611522611ae0565b5b6040519080825280601f01601f1916602001820160405280156115555781602001600182028036833780820191505090505b509050600082602001820190505b6001156115b8578080600190039150507f3031323334353637383961626364656600000000000000000000000000000000600a86061a8153600a85816115ac576115ab612373565b5b04945060008503611563575b819350505050919050565b60008073ffffffffffffffffffffffffffffffffffffffff168373ffffffffffffffffffffffffffffffffffffffff161415801561167b57508273ffffffffffffffffffffffffffffffffffffffff168473ffffffffffffffffffffffffffffffffffffffff16148061163c575061163b848461085b565b5b8061167a57508273ffffffffffffffffffffffffffffffffffffffff1661166283610a59565b73ffffffffffffffffffffffffffffffffffffffff16145b5b90509392505050565b600080600090507a184f03e93ff9f4daa797ed6e38ed64bf6a1f01000000000000000083106116e2577a184f03e93ff9f4daa797ed6e38ed64bf6a1f01000000000000000083816116d8576116d7612373565b5b0492506040810190505b6d04ee2d6d415b85acef8100000000831061171f576d04ee2d6d415b85acef8100000000838161171557611714612373565b5b0492506020810190505b662386f26fc10000831061174e57662386f26fc10000838161174457611743612373565b5b0492506010810190505b6305f5e1008310611777576305f5e100838161176d5761176c612373565b5b0492506008810190505b612710831061179c57612710838161179257611791612373565b5b0492506004810190505b606483106117bf57606483816117b5576117b4612373565b5b0492506002810190505b600a83106117ce576001810190505b80915050919050565b6000604051905090565b600080fd5b600080fd5b60007fffffffff0000000000000000000000000000000000000000000000000000000082169050919050565b611820816117eb565b811461182b57600080fd5b50565b60008135905061183d81611817565b92915050565b600060208284031215611859576118586117e1565b5b60006118678482850161182e565b91505092915050565b60008115159050919050565b61188581611870565b82525050565b60006020820190506118a0600083018461187c565b92915050565b600081519050919050565b600082825260208201905092915050565b60005b838110156118e05780820151818401526020810190506118c5565b60008484015250505050565b6000601f19601f8301169050919050565b6000611908826118a6565b61191281856118b1565b93506119228185602086016118c2565b61192b816118ec565b840191505092915050565b6000602082019050818103600083015261195081846118fd565b905092915050565b6000819050919050565b61196b81611958565b811461197657600080fd5b50565b60008135905061198881611962565b92915050565b6000602082840312156119a4576119a36117e1565b5b60006119b284828501611979565b91505092915050565b600073ffffffffffffffffffffffffffffffffffffffff82169050919050565b60006119e6826119bb565b9050919050565b6119f6816119db565b82525050565b6000602082019050611a1160008301846119ed565b92915050565b611a20816119db565b8114611a2b57600080fd5b50565b600081359050611a3d81611a17565b92915050565b60008060408385031215611a5a57611a596117e1565b5b6000611a6885828601611a2e565b9250506020611a7985828601611979565b9150509250929050565b600080600060608486031215611a9c57611a9b6117e1565b5b6000611aaa86828701611a2e565b9350506020611abb86828701611a2e565b9250506040611acc86828701611979565b9150509250925092565b600080fd5b600080fd5b7f4e487b7100000000000000000000000000000000000000000000000000000000600052604160045260246000fd5b611b18826118ec565b810181811067ffffffffffffffff82111715611b3757611b36611ae0565b5b80604052505050565b6000611b4a6117d7565b9050611b568282611b0f565b919050565b600067ffffffffffffffff821115611b7657611b75611ae0565b5b611b7f826118ec565b9050602081019050919050565b82818337600083830152505050565b6000611bae611ba984611b5b565b611b40565b905082815260208101848484011115611bca57611bc9611adb565b5b611bd5848285611b8c565b509392505050565b600082601f830112611bf257611bf1611ad6565b5b8135611c02848260208601611b9b565b91505092915050565b600060208284031215611c2157611c206117e1565b5b600082013567ffffffffffffffff811115611c3f57611c3e6117e6565b5b611c4b84828501611bdd565b91505092915050565b611c5d81611958565b82525050565b6000602082019050611c786000830184611c54565b92915050565b600060208284031215611c9457611c936117e1565b5b6000611ca284828501611a2e565b91505092915050565b611cb481611870565b8114611cbf57600080fd5b50565b600081359050611cd181611cab565b92915050565b60008060408385031215611cee57611ced6117e1565b5b6000611cfc85828601611a2e565b9250506020611d0d85828601611cc2565b9150509250929050565b600067ffffffffffffffff821115611d3257611d31611ae0565b5b611d3b826118ec565b9050602081019050919050565b6000611d5b611d5684611d17565b611b40565b905082815260208101848484011115611d7757611d76611adb565b5b611d82848285611b8c565b509392505050565b600082601f830112611d9f57611d9e611ad6565b5b8135611daf848260208601611d48565b91505092915050565b60008060008060808587031215611dd257611dd16117e1565b5b6000611de087828801611a2e565b9450506020611df187828801611a2e565b9350506040611e0287828801611979565b925050606085013567ffffffffffffffff811115611e2357611e226117e6565b5b611e2f87828801611d8a565b91505092959194509250565b60008060408385031215611e5257611e516117e1565b5b6000611e6085828601611a2e565b9250506020611e7185828601611a2e565b9150509250929050565b7f4e487b7100000000000000000000000000000000000000000000000000000000600052602260045260246000fd5b60006002820490506001821680611ec257607f821691505b602082108103611ed557611ed4611e7b565b5b50919050565b6000606082019050611ef060008301866119ed565b611efd6020830185611c54565b611f0a60408301846119ed565b949350505050565b7f4e487b7100000000000000000000000000000000000000000000000000000000600052601160045260246000fd5b6000611f4c82611958565b91507fffffffffffffffffffffffffffffffffffffffffffffffffffffffffffffffff8203611f7e57611f7d611f12565b5b600182019050919050565b600081905092915050565b6000611f9f826118a6565b611fa98185611f89565b9350611fb98185602086016118c2565b80840191505092915050565b6000611fd18285611f94565b9150611fdd8284611f94565b91508190509392505050565b60008190508160005260206000209050919050565b60006020601f8301049050919050565b600082821b905092915050565b60006008830261204b7fffffffffffffffffffffffffffffffffffffffffffffffffffffffffffffffff8261200e565b612055868361200e565b95508019841693508086168417925050509392505050565b6000819050919050565b600061209261208d61208884611958565b61206d565b611958565b9050919050565b6000819050919050565b6120ac83612077565b6120c06120b882612099565b84845461201b565b825550505050565b600090565b6120d56120c8565b6120e08184846120a3565b505050565b5b81811015612104576120f96000826120cd565b6001810190506120e6565b5050565b601f8211156121495761211a81611fe9565b61212384611ffe565b81016020851015612132578190505b61214661213e85611ffe565b8301826120e5565b50505b505050565b600082821c905092915050565b600061216c6000198460080261214e565b1980831691505092915050565b6000612185838361215b565b9150826002028217905092915050565b61219e826118a6565b67ffffffffffffffff8111156121b7576121b6611ae0565b5b6121c18254611eaa565b6121cc828285612108565b600060209050601f8311600181146121ff57600084156121ed578287015190505b6121f78582612179565b86555061225f565b601f19841661220d86611fe9565b60005b8281101561223557848901518255600182019150602085019450602081019050612210565b86831015612252578489015161224e601f89168261215b565b8355505b6001600288020188555050505b505050505050565b600081519050919050565b600082825260208201905092915050565b600061228e82612267565b6122988185612272565b93506122a88185602086016118c2565b6122b1816118ec565b840191505092915050565b60006080820190506122d160008301876119ed565b6122de60208301866119ed565b6122eb6040830185611c54565b81810360608301526122fd8184612283565b905095945050505050565b60008151905061231781611817565b92915050565b600060208284031215612333576123326117e1565b5b600061234184828501612308565b91505092915050565b600060408201905061235f60008301856119ed565b61236c6020830184611c54565b9392505050565b7f4e487b7100000000000000000000000000000000000000000000000000000000600052601260045260246000fdfea2646970667358221220ad0fa522b94349d9e72b1285f490847547283acc26c2511d987d5b1ad930ae6a64736f6c63430008140033",
  "linkReferences": {},
  "deployedLinkReferences": {}
}