{"contracts/accessrights.sol":{"RolesAndRights":{"abi":[{"inputs":[],"stateMutability":"nonpayable","type":"constructor"},{"anonymous":false,"inputs":[{"indexed":true,"internalType":"uint256","name":"docterId","type":"uint256"},{"indexed":true,"internalType":"string","name":"email","type":"string"}],"name":"DocterCreated","type":"event"},{"anonymous":false,"inputs":[{"indexed":true,"internalType":"uint256","name":"patientId","type":"uint256"},{"indexed":true,"internalType":"string","name":"email","type":"string"}],"name":"PatientCreated","type":"event"},{"anonymous":false,"inputs":[{"indexed":true,"internalType":"string","name":"email","type":"string"},{"indexed":false,"internalType":"uint256","name":"money","type":"uint256"}],"name":"moneyReceived","type":"event"},{"anonymous":false,"inputs":[{"indexed":true,"internalType":"uint256","name":"tokenId","type":"uint256"}],"name":"tokenIdCreated","type":"event"},{"inputs":[{"internalType":"string","name":"email","type":"string"},{"internalType":"uint256","name":"tokenId","type":"uint256"}],"name":"addDocuments","outputs":[],"stateMutability":"nonpayable","type":"function"},{"inputs":[{"internalType":"string","name":"emailD","type":"string"},{"internalType":"string","name":"emailP","type":"string"}],"name":"approve","outputs":[],"stateMutability":"nonpayable","type":"function"},{"inputs":[{"internalType":"string","name":"email","type":"string"}],"name":"createDocter","outputs":[],"stateMutability":"nonpayable","type":"function"},{"inputs":[{"internalType":"string","name":"email","type":"string"}],"name":"createPatient","outputs":[],"stateMutability":"nonpayable","type":"function"},{"inputs":[{"internalType":"string","name":"tokenURI","type":"string"}],"name":"createToken","outputs":[],"stateMutability":"nonpayable","type":"function"},{"inputs":[{"internalType":"string","name":"email","type":"string"},{"internalType":"bool","name":"anon","type":"bool"}],"name":"donateMoney","outputs":[{"internalType":"bool","name":"","type":"bool"}],"stateMutability":"payable","type":"function"},{"inputs":[{"internalType":"string","name":"email","type":"string"}],"name":"getDocters","outputs":[{"internalType":"string[]","name":"","type":"string[]"}],"stateMutability":"view","type":"function"},{"inputs":[{"internalType":"string","name":"emailP","type":"string"},{"internalType":"string","name":"emailD","type":"string"}],"name":"getPatientDetails","outputs":[{"internalType":"uint256[]","name":"","type":"uint256[]"}],"stateMutability":"view","type":"function"},{"inputs":[{"internalType":"string","name":"email","type":"string"}],"name":"getPatients","outputs":[{"internalType":"string[]","name":"","type":"string[]"}],"stateMutability":"view","type":"function"},{"inputs":[],"name":"getTokenIds","outputs":[{"internalType":"uint256","name":"","type":"uint256"}],"stateMutability":"view","type":"function"},{"inputs":[{"internalType":"uint256","name":"tokenId","type":"uint256"}],"name":"getTokenURI","outputs":[{"internalType":"string","name":"","type":"string"}],"stateMutability":"view","type":"function"},{"inputs":[{"internalType":"string","name":"emailD","type":"string"},{"internalType":"string","name":"emailP","type":"string"}],"name":"revoke","outputs":[],"stateMutability":"nonpayable","type":"function"}],"evm":{"bytecode":{"linkReferences":{},"object":"608060405234801561001057600080fd5b50600160008190555033600460006101000a81548173ffffffffffffffffffffffffffffffffffffffff021916908373ffffffffffffffffffffffffffffffffffffffff1602179055506000600181905550600060028190555060006003819055506124ba806100816000396000f3fe6080604052600436106100a75760003560e01c80633fd9d184116100645780633fd9d184146101de57806345576f941461020e57806367f718a914610237578063778f3de014610262578063ac96b8aa1461028b578063e1c83bdc146102b4576100a7565b806309d1fc33146100ac57806310b40f85146100e95780632383c44e1461011257806324a8fd341461013b57806326bf0a38146101785780633bb3a24d146101a1575b600080fd5b3480156100b857600080fd5b506100d360048036038101906100ce9190611878565b6102f1565b6040516100e091906119b8565b60405180910390f35b3480156100f557600080fd5b50610110600480360381019061010b9190611878565b6103f9565b005b34801561011e57600080fd5b50610139600480360381019061013491906119da565b6109ad565b005b34801561014757600080fd5b50610162600480360381019061015d91906119da565b610ac0565b60405161016f9190611b64565b60405180910390f35b34801561018457600080fd5b5061019f600480360381019061019a91906119da565b610bba565b005b3480156101ad57600080fd5b506101c860048036038101906101c39190611bb2565b610ca8565b6040516101d59190611c29565b60405180910390f35b6101f860048036038101906101f39190611c83565b610d4d565b6040516102059190611cee565b60405180910390f35b34801561021a57600080fd5b50610235600480360381019061023091906119da565b610dff565b005b34801561024357600080fd5b5061024c610e7c565b6040516102599190611d18565b60405180910390f35b34801561026e57600080fd5b5061028960048036038101906102849190611878565b610e86565b005b34801561029757600080fd5b506102b260048036038101906102ad9190611d33565b61133a565b005b3480156102c057600080fd5b506102db60048036038101906102d691906119da565b6114a4565b6040516102e89190611b64565b60405180910390f35b6060600115156007836040516103079190611dcb565b9081526020016040518091039020846040516103239190611dcb565b908152602001604051809103902060009054906101000a900460ff16151514610381576040517f08c379a000000000000000000000000000000000000000000000000000000000815260040161037890611e2e565b60405180910390fd5b6006836040516103919190611dcb565b90815260200160405180910390206003018054806020026020016040519081016040528092919081815260200182805480156103ec57602002820191906000526020600020905b8154815260200190600101908083116103d8575b5050505050905092915050565b61040161159e565b600115156007836040516104159190611dcb565b9081526020016040518091039020826040516104319190611dcb565b908152602001604051809103902060009054906101000a900460ff1615151461048f576040517f08c379a000000000000000000000000000000000000000000000000000000000815260040161048690611e9a565b60405180910390fd5b60006007836040516104a19190611dcb565b9081526020016040518091039020826040516104bd9190611dcb565b908152602001604051809103902060006101000a81548160ff02191690831515021790555060006006826040516104f49190611dcb565b9081526020016040518091039020600201805490509050600060018261051a9190611ee9565b67ffffffffffffffff8111156105335761053261174d565b5b60405190808252806020026020018201604052801561056657816020015b60608152602001906001900390816105515790505b5090506000805b8381101561070857856040516020016105869190611dcb565b604051602081830303815290604052805190602001206006866040516105ac9190611dcb565b908152602001604051809103902060020182815481106105cf576105ce611f1d565b5b906000526020600020016040516020016105e99190612044565b60405160208183030381529060405280519060200120146106f5576006856040516106149190611dcb565b9081526020016040518091039020600201818154811061063757610636611f1d565b5b90600052602060002001805461064c90611f7b565b80601f016020809104026020016040519081016040528092919081815260200182805461067890611f7b565b80156106c55780601f1061069a576101008083540402835291602001916106c5565b820191906000526020600020905b8154815290600101906020018083116106a857829003601f168201915b50505050508383806106d69061205b565b9450815181106106e9576106e8611f1d565b5b60200260200101819052505b80806107009061205b565b91505061056d565b508160068560405161071a9190611dcb565b9081526020016040518091039020600201908051906020019061073e9291906115f7565b5060088560405161074f9190611dcb565b908152602001604051809103902060020180549050925060006001846107759190611ee9565b67ffffffffffffffff81111561078e5761078d61174d565b5b6040519080825280602002602001820160405280156107c157816020015b60608152602001906001900390816107ac5790505b5090506000915060005b8481101561096657856040516020016107e49190611dcb565b6040516020818303038152906040528051906020012060088860405161080a9190611dcb565b9081526020016040518091039020600201828154811061082d5761082c611f1d565b5b906000526020600020016040516020016108479190612044565b6040516020818303038152906040528051906020012014610953576008876040516108729190611dcb565b9081526020016040518091039020600201818154811061089557610894611f1d565b5b9060005260206000200180546108aa90611f7b565b80601f01602080910402602001604051908101604052809291908181526020018280546108d690611f7b565b80156109235780601f106108f857610100808354040283529160200191610923565b820191906000526020600020905b81548152906001019060200180831161090657829003601f168201915b50505050508284806109349061205b565b95508151811061094757610946611f1d565b5b60200260200101819052505b808061095e9061205b565b9150506107cb565b50806008876040516109789190611dcb565b9081526020016040518091039020600201908051906020019061099c9291906115f7565b50505050506109a96115ed565b5050565b6109b561159e565b600260008154809291906109c89061205b565b91905055506060806040518060800160405280600254815260200184815260200183815260200182815250600684604051610a039190611dcb565b9081526020016040518091039020600082015181600001556020820151816001019081610a30919061223a565b506040820151816002019080519060200190610a4d9291906115f7565b506060820151816003019080519060200190610a6a929190611650565b5090505082604051610a7c9190611dcb565b60405180910390206002547f134fda0ae4fafca781b872311cca14ccbfaf969fd15c52f58e9a93de5d23180760405160405180910390a35050610abd6115ed565b50565b6060600882604051610ad29190611dcb565b9081526020016040518091039020600201805480602002602001604051908101604052809291908181526020016000905b82821015610baf578382906000526020600020018054610b2290611f7b565b80601f0160208091040260200160405190810160405280929190818152602001828054610b4e90611f7b565b8015610b9b5780601f10610b7057610100808354040283529160200191610b9b565b820191906000526020600020905b815481529060010190602001808311610b7e57829003601f168201915b505050505081526020019060010190610b03565b505050509050919050565b610bc261159e565b60016000815480929190610bd59061205b565b919050555060606040518060600160405280600154815260200183815260200182815250600883604051610c099190611dcb565b9081526020016040518091039020600082015181600001556020820151816001019081610c36919061223a565b506040820151816002019080519060200190610c539291906115f7565b5090505081604051610c659190611dcb565b60405180910390206001547fea156934655ce49eb3a326e33cd7089b144169217ba22211032479b6b429372560405160405180910390a350610ca56115ed565b50565b6060600560008381526020019081526020016000208054610cc890611f7b565b80601f0160208091040260200160405190810160405280929190818152602001828054610cf490611f7b565b8015610d415780601f10610d1657610100808354040283529160200191610d41565b820191906000526020600020905b815481529060010190602001808311610d2457829003601f168201915b50505050509050919050565b6000610d5761159e565b60003411610d9a576040517f08c379a0000000000000000000000000000000000000000000000000000000008152600401610d9190612358565b60405180910390fd5b81610ded5782604051610dad9190611dcb565b60405180910390207fd76f471a6cfd25ffcda8864cd32f43f578933212dad6affaa5ac113086c5c54634604051610de49190611d18565b60405180910390a25b60019050610df96115ed565b92915050565b610e0761159e565b60036000815480929190610e1a9061205b565b9190505550806005600060035481526020019081526020016000209081610e41919061223a565b506003547f0c01e484cc8325eff46e7cfc59a0995a96e6c979aaa3b2000bd9e1ab6e813a4560405160405180910390a2610e796115ed565b50565b6000600354905090565b610e8e61159e565b60001515600783604051610ea29190611dcb565b908152602001604051809103902082604051610ebe9190611dcb565b908152602001604051809103902060009054906101000a900460ff16151514610f1c576040517f08c379a0000000000000000000000000000000000000000000000000000000008152600401610f13906123c4565b60405180910390fd5b6001600783604051610f2e9190611dcb565b908152602001604051809103902082604051610f4a9190611dcb565b908152602001604051809103902060006101000a81548160ff0219169083151502179055506000600682604051610f819190611dcb565b90815260200160405180910390206002018054905090506000600182610fa791906123e4565b67ffffffffffffffff811115610fc057610fbf61174d565b5b604051908082528060200260200182016040528015610ff357816020015b6060815260200190600190039081610fde5790505b5090508381838151811061100a57611009611f1d565b5b602002602001018190525060005b82811015611117576006846040516110309190611dcb565b9081526020016040518091039020600201818154811061105357611052611f1d565b5b90600052602060002001805461106890611f7b565b80601f016020809104026020016040519081016040528092919081815260200182805461109490611f7b565b80156110e15780601f106110b6576101008083540402835291602001916110e1565b820191906000526020600020905b8154815290600101906020018083116110c457829003601f168201915b50505050508282815181106110f9576110f8611f1d565b5b6020026020010181905250808061110f9061205b565b915050611018565b50806006846040516111299190611dcb565b9081526020016040518091039020600201908051906020019061114d9291906115f7565b5060088460405161115e9190611dcb565b9081526020016040518091039020600201805490509150600060018361118491906123e4565b67ffffffffffffffff81111561119d5761119c61174d565b5b6040519080825280602002602001820160405280156111d057816020015b60608152602001906001900390816111bb5790505b509050838184815181106111e7576111e6611f1d565b5b602002602001018190525060005b838110156112f45760088660405161120d9190611dcb565b908152602001604051809103902060020181815481106112305761122f611f1d565b5b90600052602060002001805461124590611f7b565b80601f016020809104026020016040519081016040528092919081815260200182805461127190611f7b565b80156112be5780601f10611293576101008083540402835291602001916112be565b820191906000526020600020905b8154815290600101906020018083116112a157829003601f168201915b50505050508282815181106112d6576112d5611f1d565b5b602002602001018190525080806112ec9061205b565b9150506111f5565b50806008866040516113069190611dcb565b9081526020016040518091039020600201908051906020019061132a9291906115f7565b505050506113366115ed565b5050565b61134261159e565b60006006836040516113549190611dcb565b9081526020016040518091039020600301805490509050600060018261137a91906123e4565b67ffffffffffffffff8111156113935761139261174d565b5b6040519080825280602002602001820160405280156113c15781602001602082028036833780820191505090505b509050828183815181106113d8576113d7611f1d565b5b60200260200101818152505060005b8281101561145f576006856040516113ff9190611dcb565b9081526020016040518091039020600301818154811061142257611421611f1d565b5b90600052602060002001548282815181106114405761143f611f1d565b5b60200260200101818152505080806114579061205b565b9150506113e7565b50806006856040516114719190611dcb565b90815260200160405180910390206003019080519060200190611495929190611650565b5050506114a06115ed565b5050565b60606006826040516114b69190611dcb565b9081526020016040518091039020600201805480602002602001604051908101604052809291908181526020016000905b8282101561159357838290600052602060002001805461150690611f7b565b80601f016020809104026020016040519081016040528092919081815260200182805461153290611f7b565b801561157f5780601f106115545761010080835404028352916020019161157f565b820191906000526020600020905b81548152906001019060200180831161156257829003601f168201915b5050505050815260200190600101906114e7565b505050509050919050565b6002600054036115e3576040517f08c379a00000000000000000000000000000000000000000000000000000000081526004016115da90612464565b60405180910390fd5b6002600081905550565b6001600081905550565b82805482825590600052602060002090810192821561163f579160200282015b8281111561163e57825182908161162e919061223a565b5091602001919060010190611617565b5b50905061164c919061169d565b5090565b82805482825590600052602060002090810192821561168c579160200282015b8281111561168b578251825591602001919060010190611670565b5b50905061169991906116c1565b5090565b5b808211156116bd57600081816116b491906116de565b5060010161169e565b5090565b5b808211156116da5760008160009055506001016116c2565b5090565b5080546116ea90611f7b565b6000825580601f106116fc575061171b565b601f01602090049060005260206000209081019061171a91906116c1565b5b50565b6000604051905090565b600080fd5b600080fd5b600080fd5b600080fd5b6000601f19601f8301169050919050565b7f4e487b7100000000000000000000000000000000000000000000000000000000600052604160045260246000fd5b6117858261173c565b810181811067ffffffffffffffff821117156117a4576117a361174d565b5b80604052505050565b60006117b761171e565b90506117c3828261177c565b919050565b600067ffffffffffffffff8211156117e3576117e261174d565b5b6117ec8261173c565b9050602081019050919050565b82818337600083830152505050565b600061181b611816846117c8565b6117ad565b90508281526020810184848401111561183757611836611737565b5b6118428482856117f9565b509392505050565b600082601f83011261185f5761185e611732565b5b813561186f848260208601611808565b91505092915050565b6000806040838503121561188f5761188e611728565b5b600083013567ffffffffffffffff8111156118ad576118ac61172d565b5b6118b98582860161184a565b925050602083013567ffffffffffffffff8111156118da576118d961172d565b5b6118e68582860161184a565b9150509250929050565b600081519050919050565b600082825260208201905092915050565b6000819050602082019050919050565b6000819050919050565b61192f8161191c565b82525050565b60006119418383611926565b60208301905092915050565b6000602082019050919050565b6000611965826118f0565b61196f81856118fb565b935061197a8361190c565b8060005b838110156119ab5781516119928882611935565b975061199d8361194d565b92505060018101905061197e565b5085935050505092915050565b600060208201905081810360008301526119d2818461195a565b905092915050565b6000602082840312156119f0576119ef611728565b5b600082013567ffffffffffffffff811115611a0e57611a0d61172d565b5b611a1a8482850161184a565b91505092915050565b600081519050919050565b600082825260208201905092915050565b6000819050602082019050919050565b600081519050919050565b600082825260208201905092915050565b60005b83811015611a89578082015181840152602081019050611a6e565b60008484015250505050565b6000611aa082611a4f565b611aaa8185611a5a565b9350611aba818560208601611a6b565b611ac38161173c565b840191505092915050565b6000611ada8383611a95565b905092915050565b6000602082019050919050565b6000611afa82611a23565b611b048185611a2e565b935083602082028501611b1685611a3f565b8060005b85811015611b525784840389528151611b338582611ace565b9450611b3e83611ae2565b925060208a01995050600181019050611b1a565b50829750879550505050505092915050565b60006020820190508181036000830152611b7e8184611aef565b905092915050565b611b8f8161191c565b8114611b9a57600080fd5b50565b600081359050611bac81611b86565b92915050565b600060208284031215611bc857611bc7611728565b5b6000611bd684828501611b9d565b91505092915050565b600082825260208201905092915050565b6000611bfb82611a4f565b611c058185611bdf565b9350611c15818560208601611a6b565b611c1e8161173c565b840191505092915050565b60006020820190508181036000830152611c438184611bf0565b905092915050565b60008115159050919050565b611c6081611c4b565b8114611c6b57600080fd5b50565b600081359050611c7d81611c57565b92915050565b60008060408385031215611c9a57611c99611728565b5b600083013567ffffffffffffffff811115611cb857611cb761172d565b5b611cc48582860161184a565b9250506020611cd585828601611c6e565b9150509250929050565b611ce881611c4b565b82525050565b6000602082019050611d036000830184611cdf565b92915050565b611d128161191c565b82525050565b6000602082019050611d2d6000830184611d09565b92915050565b60008060408385031215611d4a57611d49611728565b5b600083013567ffffffffffffffff811115611d6857611d6761172d565b5b611d748582860161184a565b9250506020611d8585828601611b9d565b9150509250929050565b600081905092915050565b6000611da582611a4f565b611daf8185611d8f565b9350611dbf818560208601611a6b565b80840191505092915050565b6000611dd78284611d9a565b915081905092915050565b7f4163636573732044656e69656400000000000000000000000000000000000000600082015250565b6000611e18600d83611bdf565b9150611e2382611de2565b602082019050919050565b60006020820190508181036000830152611e4781611e0b565b9050919050565b7f416c72656164792044656e696564000000000000000000000000000000000000600082015250565b6000611e84600e83611bdf565b9150611e8f82611e4e565b602082019050919050565b60006020820190508181036000830152611eb381611e77565b9050919050565b7f4e487b7100000000000000000000000000000000000000000000000000000000600052601160045260246000fd5b6000611ef48261191c565b9150611eff8361191c565b9250828203905081811115611f1757611f16611eba565b5b92915050565b7f4e487b7100000000000000000000000000000000000000000000000000000000600052603260045260246000fd5b7f4e487b7100000000000000000000000000000000000000000000000000000000600052602260045260246000fd5b60006002820490506001821680611f9357607f821691505b602082108103611fa657611fa5611f4c565b5b50919050565b60008190508160005260206000209050919050565b60008154611fce81611f7b565b611fd88186611d8f565b94506001821660008114611ff357600181146120085761203b565b60ff198316865281151582028601935061203b565b61201185611fac565b60005b8381101561203357815481890152600182019150602081019050612014565b838801955050505b50505092915050565b60006120508284611fc1565b915081905092915050565b60006120668261191c565b91507fffffffffffffffffffffffffffffffffffffffffffffffffffffffffffffffff820361209857612097611eba565b5b600182019050919050565b60006020601f8301049050919050565b600082821b905092915050565b6000600883026120f07fffffffffffffffffffffffffffffffffffffffffffffffffffffffffffffffff826120b3565b6120fa86836120b3565b95508019841693508086168417925050509392505050565b6000819050919050565b600061213761213261212d8461191c565b612112565b61191c565b9050919050565b6000819050919050565b6121518361211c565b61216561215d8261213e565b8484546120c0565b825550505050565b600090565b61217a61216d565b612185818484612148565b505050565b5b818110156121a95761219e600082612172565b60018101905061218b565b5050565b601f8211156121ee576121bf81611fac565b6121c8846120a3565b810160208510156121d7578190505b6121eb6121e3856120a3565b83018261218a565b50505b505050565b600082821c905092915050565b6000612211600019846008026121f3565b1980831691505092915050565b600061222a8383612200565b9150826002028217905092915050565b61224382611a4f565b67ffffffffffffffff81111561225c5761225b61174d565b5b6122668254611f7b565b6122718282856121ad565b600060209050601f8311600181146122a45760008415612292578287015190505b61229c858261221e565b865550612304565b601f1984166122b286611fac565b60005b828110156122da578489015182556001820191506020850194506020810190506122b5565b868310156122f757848901516122f3601f891682612200565b8355505b6001600288020188555050505b505050505050565b7f4769766520612076616c696420616d6f756e7400000000000000000000000000600082015250565b6000612342601383611bdf565b915061234d8261230c565b602082019050919050565b6000602082019050818103600083015261237181612335565b9050919050565b7f416c726561647920417070726f76656400000000000000000000000000000000600082015250565b60006123ae601083611bdf565b91506123b982612378565b602082019050919050565b600060208201905081810360008301526123dd816123a1565b9050919050565b60006123ef8261191c565b91506123fa8361191c565b925082820190508082111561241257612411611eba565b5b92915050565b7f5265656e7472616e637947756172643a207265656e7472616e742063616c6c00600082015250565b600061244e601f83611bdf565b915061245982612418565b602082019050919050565b6000602082019050818103600083015261247d81612441565b905091905056fea264697066735822122020050cffdad216bf45dbbfe1c2a45e03895e19bd2e7d39dffc9adb406b61e68664736f6c63430008140033","opcodes":"PUSH1 0x80 PUSH1 0x40 MSTORE CALLVALUE DUP1 ISZERO PUSH2 0x10 JUMPI PUSH1 0x0 DUP1 REVERT JUMPDEST POP PUSH1 0x1 PUSH1 0x0 DUP2 SWAP1 SSTORE POP CALLER PUSH1 0x4 PUSH1 0x0 PUSH2 0x100 EXP DUP2 SLOAD DUP2 PUSH20 0xFFFFFFFFFFFFFFFFFFFFFFFFFFFFFFFFFFFFFFFF MUL NOT AND SWAP1 DUP4 PUSH20 0xFFFFFFFFFFFFFFFFFFFFFFFFFFFFFFFFFFFFFFFF AND MUL OR SWAP1 SSTORE POP PUSH1 0x0 PUSH1 0x1 DUP2 SWAP1 SSTORE POP PUSH1 0x0 PUSH1 0x2 DUP2 SWAP1 SSTORE POP PUSH1 0x0 PUSH1 0x3 DUP2 SWAP1 SSTORE POP PUSH2 0x24BA DUP1 PUSH2 0x81 PUSH1 0x0 CODECOPY PUSH1 0x0 RETURN INVALID PUSH1 0x80 PUSH1 0x40 MSTORE PUSH1 0x4 CALLDATASIZE LT PUSH2 0xA7 JUMPI PUSH1 0x0 CALLDATALOAD PUSH1 0xE0 SHR DUP1 PUSH4 0x3FD9D184 GT PUSH2 0x64 JUMPI DUP1 PUSH4 0x3FD9D184 EQ PUSH2 0x1DE JUMPI DUP1 PUSH4 0x45576F94 EQ PUSH2 0x20E JUMPI DUP1 PUSH4 0x67F718A9 EQ PUSH2 0x237 JUMPI DUP1 PUSH4 0x778F3DE0 EQ PUSH2 0x262 JUMPI DUP1 PUSH4 0xAC96B8AA EQ PUSH2 0x28B JUMPI DUP1 PUSH4 0xE1C83BDC EQ PUSH2 0x2B4 JUMPI PUSH2 0xA7 JUMP JUMPDEST DUP1 PUSH4 0x9D1FC33 EQ PUSH2 0xAC JUMPI DUP1 PUSH4 0x10B40F85 EQ PUSH2 0xE9 JUMPI DUP1 PUSH4 0x2383C44E EQ PUSH2 0x112 JUMPI DUP1 PUSH4 0x24A8FD34 EQ PUSH2 0x13B JUMPI DUP1 PUSH4 0x26BF0A38 EQ PUSH2 0x178 JUMPI DUP1 PUSH4 0x3BB3A24D EQ PUSH2 0x1A1 JUMPI JUMPDEST PUSH1 0x0 DUP1 REVERT JUMPDEST CALLVALUE DUP1 ISZERO PUSH2 0xB8 JUMPI PUSH1 0x0 DUP1 REVERT JUMPDEST POP PUSH2 0xD3 PUSH1 0x4 DUP1 CALLDATASIZE SUB DUP2 ADD SWAP1 PUSH2 0xCE SWAP2 SWAP1 PUSH2 0x1878 JUMP JUMPDEST PUSH2 0x2F1 JUMP JUMPDEST PUSH1 0x40 MLOAD PUSH2 0xE0 SWAP2 SWAP1 PUSH2 0x19B8 JUMP JUMPDEST PUSH1 0x40 MLOAD DUP1 SWAP2 SUB SWAP1 RETURN JUMPDEST CALLVALUE DUP1 ISZERO PUSH2 0xF5 JUMPI PUSH1 0x0 DUP1 REVERT JUMPDEST POP PUSH2 0x110 PUSH1 0x4 DUP1 CALLDATASIZE SUB DUP2 ADD SWAP1 PUSH2 0x10B SWAP2 SWAP1 PUSH2 0x1878 JUMP JUMPDEST PUSH2 0x3F9 JUMP JUMPDEST STOP JUMPDEST CALLVALUE DUP1 ISZERO PUSH2 0x11E JUMPI PUSH1 0x0 DUP1 REVERT JUMPDEST POP PUSH2 0x139 PUSH1 0x4 DUP1 CALLDATASIZE SUB DUP2 ADD SWAP1 PUSH2 0x134 SWAP2 SWAP1 PUSH2 0x19DA JUMP JUMPDEST PUSH2 0x9AD JUMP JUMPDEST STOP JUMPDEST CALLVALUE DUP1 ISZERO PUSH2 0x147 JUMPI PUSH1 0x0 DUP1 REVERT JUMPDEST POP PUSH2 0x162 PUSH1 0x4 DUP1 CALLDATASIZE SUB DUP2 ADD SWAP1 PUSH2 0x15D SWAP2 SWAP1 PUSH2 0x19DA JUMP JUMPDEST PUSH2 0xAC0 JUMP JUMPDEST PUSH1 0x40 MLOAD PUSH2 0x16F SWAP2 SWAP1 PUSH2 0x1B64 JUMP JUMPDEST PUSH1 0x40 MLOAD DUP1 SWAP2 SUB SWAP1 RETURN JUMPDEST CALLVALUE DUP1 ISZERO PUSH2 0x184 JUMPI PUSH1 0x0 DUP1 REVERT JUMPDEST POP PUSH2 0x19F PUSH1 0x4 DUP1 CALLDATASIZE SUB DUP2 ADD SWAP1 PUSH2 0x19A SWAP2 SWAP1 PUSH2 0x19DA JUMP JUMPDEST PUSH2 0xBBA JUMP JUMPDEST STOP JUMPDEST CALLVALUE DUP1 ISZERO PUSH2 0x1AD JUMPI PUSH1 0x0 DUP1 REVERT JUMPDEST POP PUSH2 0x1C8 PUSH1 0x4 DUP1 CALLDATASIZE SUB DUP2 ADD SWAP1 PUSH2 0x1C3 SWAP2 SWAP1 PUSH2 0x1BB2 JUMP JUMPDEST PUSH2 0xCA8 JUMP JUMPDEST PUSH1 0x40 MLOAD PUSH2 0x1D5 SWAP2 SWAP1 PUSH2 0x1C29 JUMP JUMPDEST PUSH1 0x40 MLOAD DUP1 SWAP2 SUB SWAP1 RETURN JUMPDEST PUSH2 0x1F8 PUSH1 0x4 DUP1 CALLDATASIZE SUB DUP2 ADD SWAP1 PUSH2 0x1F3 SWAP2 SWAP1 PUSH2 0x1C83 JUMP JUMPDEST PUSH2 0xD4D JUMP JUMPDEST PUSH1 0x40 MLOAD PUSH2 0x205 SWAP2 SWAP1 PUSH2 0x1CEE JUMP JUMPDEST PUSH1 0x40 MLOAD DUP1 SWAP2 SUB SWAP1 RETURN JUMPDEST CALLVALUE DUP1 ISZERO PUSH2 0x21A JUMPI PUSH1 0x0 DUP1 REVERT JUMPDEST POP PUSH2 0x235 PUSH1 0x4 DUP1 CALLDATASIZE SUB DUP2 ADD SWAP1 PUSH2 0x230 SWAP2 SWAP1 PUSH2 0x19DA JUMP JUMPDEST PUSH2 0xDFF JUMP JUMPDEST STOP JUMPDEST CALLVALUE DUP1 ISZERO PUSH2 0x243 JUMPI PUSH1 0x0 DUP1 REVERT JUMPDEST POP PUSH2 0x24C PUSH2 0xE7C JUMP JUMPDEST PUSH1 0x40 MLOAD PUSH2 0x259 SWAP2 SWAP1 PUSH2 0x1D18 JUMP JUMPDEST PUSH1 0x40 MLOAD DUP1 SWAP2 SUB SWAP1 RETURN JUMPDEST CALLVALUE DUP1 ISZERO PUSH2 0x26E JUMPI PUSH1 0x0 DUP1 REVERT JUMPDEST POP PUSH2 0x289 PUSH1 0x4 DUP1 CALLDATASIZE SUB DUP2 ADD SWAP1 PUSH2 0x284 SWAP2 SWAP1 PUSH2 0x1878 JUMP JUMPDEST PUSH2 0xE86 JUMP JUMPDEST STOP JUMPDEST CALLVALUE DUP1 ISZERO PUSH2 0x297 JUMPI PUSH1 0x0 DUP1 REVERT JUMPDEST POP PUSH2 0x2B2 PUSH1 0x4 DUP1 CALLDATASIZE SUB DUP2 ADD SWAP1 PUSH2 0x2AD SWAP2 SWAP1 PUSH2 0x1D33 JUMP JUMPDEST PUSH2 0x133A JUMP JUMPDEST STOP JUMPDEST CALLVALUE DUP1 ISZERO PUSH2 0x2C0 JUMPI PUSH1 0x0 DUP1 REVERT JUMPDEST POP PUSH2 0x2DB PUSH1 0x4 DUP1 CALLDATASIZE SUB DUP2 ADD SWAP1 PUSH2 0x2D6 SWAP2 SWAP1 PUSH2 0x19DA JUMP JUMPDEST PUSH2 0x14A4 JUMP JUMPDEST PUSH1 0x40 MLOAD PUSH2 0x2E8 SWAP2 SWAP1 PUSH2 0x1B64 JUMP JUMPDEST PUSH1 0x40 MLOAD DUP1 SWAP2 SUB SWAP1 RETURN JUMPDEST PUSH1 0x60 PUSH1 0x1 ISZERO ISZERO PUSH1 0x7 DUP4 PUSH1 0x40 MLOAD PUSH2 0x307 SWAP2 SWAP1 PUSH2 0x1DCB JUMP JUMPDEST SWAP1 DUP2 MSTORE PUSH1 0x20 ADD PUSH1 0x40 MLOAD DUP1 SWAP2 SUB SWAP1 KECCAK256 DUP5 PUSH1 0x40 MLOAD PUSH2 0x323 SWAP2 SWAP1 PUSH2 0x1DCB JUMP JUMPDEST SWAP1 DUP2 MSTORE PUSH1 0x20 ADD PUSH1 0x40 MLOAD DUP1 SWAP2 SUB SWAP1 KECCAK256 PUSH1 0x0 SWAP1 SLOAD SWAP1 PUSH2 0x100 EXP SWAP1 DIV PUSH1 0xFF AND ISZERO ISZERO EQ PUSH2 0x381 JUMPI PUSH1 0x40 MLOAD PUSH32 0x8C379A000000000000000000000000000000000000000000000000000000000 DUP2 MSTORE PUSH1 0x4 ADD PUSH2 0x378 SWAP1 PUSH2 0x1E2E JUMP JUMPDEST PUSH1 0x40 MLOAD DUP1 SWAP2 SUB SWAP1 REVERT JUMPDEST PUSH1 0x6 DUP4 PUSH1 0x40 MLOAD PUSH2 0x391 SWAP2 SWAP1 PUSH2 0x1DCB JUMP JUMPDEST SWAP1 DUP2 MSTORE PUSH1 0x20 ADD PUSH1 0x40 MLOAD DUP1 SWAP2 SUB SWAP1 KECCAK256 PUSH1 0x3 ADD DUP1 SLOAD DUP1 PUSH1 0x20 MUL PUSH1 0x20 ADD PUSH1 0x40 MLOAD SWAP1 DUP2 ADD PUSH1 0x40 MSTORE DUP1 SWAP3 SWAP2 SWAP1 DUP2 DUP2 MSTORE PUSH1 0x20 ADD DUP3 DUP1 SLOAD DUP1 ISZERO PUSH2 0x3EC JUMPI PUSH1 0x20 MUL DUP3 ADD SWAP2 SWAP1 PUSH1 0x0 MSTORE PUSH1 0x20 PUSH1 0x0 KECCAK256 SWAP1 JUMPDEST DUP2 SLOAD DUP2 MSTORE PUSH1 0x20 ADD SWAP1 PUSH1 0x1 ADD SWAP1 DUP1 DUP4 GT PUSH2 0x3D8 JUMPI JUMPDEST POP POP POP POP POP SWAP1 POP SWAP3 SWAP2 POP POP JUMP JUMPDEST PUSH2 0x401 PUSH2 0x159E JUMP JUMPDEST PUSH1 0x1 ISZERO ISZERO PUSH1 0x7 DUP4 PUSH1 0x40 MLOAD PUSH2 0x415 SWAP2 SWAP1 PUSH2 0x1DCB JUMP JUMPDEST SWAP1 DUP2 MSTORE PUSH1 0x20 ADD PUSH1 0x40 MLOAD DUP1 SWAP2 SUB SWAP1 KECCAK256 DUP3 PUSH1 0x40 MLOAD PUSH2 0x431 SWAP2 SWAP1 PUSH2 0x1DCB JUMP JUMPDEST SWAP1 DUP2 MSTORE PUSH1 0x20 ADD PUSH1 0x40 MLOAD DUP1 SWAP2 SUB SWAP1 KECCAK256 PUSH1 0x0 SWAP1 SLOAD SWAP1 PUSH2 0x100 EXP SWAP1 DIV PUSH1 0xFF AND ISZERO ISZERO EQ PUSH2 0x48F JUMPI PUSH1 0x40 MLOAD PUSH32 0x8C379A000000000000000000000000000000000000000000000000000000000 DUP2 MSTORE PUSH1 0x4 ADD PUSH2 0x486 SWAP1 PUSH2 0x1E9A JUMP JUMPDEST PUSH1 0x40 MLOAD DUP1 SWAP2 SUB SWAP1 REVERT JUMPDEST PUSH1 0x0 PUSH1 0x7 DUP4 PUSH1 0x40 MLOAD PUSH2 0x4A1 SWAP2 SWAP1 PUSH2 0x1DCB JUMP JUMPDEST SWAP1 DUP2 MSTORE PUSH1 0x20 ADD PUSH1 0x40 MLOAD DUP1 SWAP2 SUB SWAP1 KECCAK256 DUP3 PUSH1 0x40 MLOAD PUSH2 0x4BD SWAP2 SWAP1 PUSH2 0x1DCB JUMP JUMPDEST SWAP1 DUP2 MSTORE PUSH1 0x20 ADD PUSH1 0x40 MLOAD DUP1 SWAP2 SUB SWAP1 KECCAK256 PUSH1 0x0 PUSH2 0x100 EXP DUP2 SLOAD DUP2 PUSH1 0xFF MUL NOT AND SWAP1 DUP4 ISZERO ISZERO MUL OR SWAP1 SSTORE POP PUSH1 0x0 PUSH1 0x6 DUP3 PUSH1 0x40 MLOAD PUSH2 0x4F4 SWAP2 SWAP1 PUSH2 0x1DCB JUMP JUMPDEST SWAP1 DUP2 MSTORE PUSH1 0x20 ADD PUSH1 0x40 MLOAD DUP1 SWAP2 SUB SWAP1 KECCAK256 PUSH1 0x2 ADD DUP1 SLOAD SWAP1 POP SWAP1 POP PUSH1 0x0 PUSH1 0x1 DUP3 PUSH2 0x51A SWAP2 SWAP1 PUSH2 0x1EE9 JUMP JUMPDEST PUSH8 0xFFFFFFFFFFFFFFFF DUP2 GT ISZERO PUSH2 0x533 JUMPI PUSH2 0x532 PUSH2 0x174D JUMP JUMPDEST JUMPDEST PUSH1 0x40 MLOAD SWAP1 DUP1 DUP3 MSTORE DUP1 PUSH1 0x20 MUL PUSH1 0x20 ADD DUP3 ADD PUSH1 0x40 MSTORE DUP1 ISZERO PUSH2 0x566 JUMPI DUP2 PUSH1 0x20 ADD JUMPDEST PUSH1 0x60 DUP2 MSTORE PUSH1 0x20 ADD SWAP1 PUSH1 0x1 SWAP1 SUB SWAP1 DUP2 PUSH2 0x551 JUMPI SWAP1 POP JUMPDEST POP SWAP1 POP PUSH1 0x0 DUP1 JUMPDEST DUP4 DUP2 LT ISZERO PUSH2 0x708 JUMPI DUP6 PUSH1 0x40 MLOAD PUSH1 0x20 ADD PUSH2 0x586 SWAP2 SWAP1 PUSH2 0x1DCB JUMP JUMPDEST PUSH1 0x40 MLOAD PUSH1 0x20 DUP2 DUP4 SUB SUB DUP2 MSTORE SWAP1 PUSH1 0x40 MSTORE DUP1 MLOAD SWAP1 PUSH1 0x20 ADD KECCAK256 PUSH1 0x6 DUP7 PUSH1 0x40 MLOAD PUSH2 0x5AC SWAP2 SWAP1 PUSH2 0x1DCB JUMP JUMPDEST SWAP1 DUP2 MSTORE PUSH1 0x20 ADD PUSH1 0x40 MLOAD DUP1 SWAP2 SUB SWAP1 KECCAK256 PUSH1 0x2 ADD DUP3 DUP2 SLOAD DUP2 LT PUSH2 0x5CF JUMPI PUSH2 0x5CE PUSH2 0x1F1D JUMP JUMPDEST JUMPDEST SWAP1 PUSH1 0x0 MSTORE PUSH1 0x20 PUSH1 0x0 KECCAK256 ADD PUSH1 0x40 MLOAD PUSH1 0x20 ADD PUSH2 0x5E9 SWAP2 SWAP1 PUSH2 0x2044 JUMP JUMPDEST PUSH1 0x40 MLOAD PUSH1 0x20 DUP2 DUP4 SUB SUB DUP2 MSTORE SWAP1 PUSH1 0x40 MSTORE DUP1 MLOAD SWAP1 PUSH1 0x20 ADD KECCAK256 EQ PUSH2 0x6F5 JUMPI PUSH1 0x6 DUP6 PUSH1 0x40 MLOAD PUSH2 0x614 SWAP2 SWAP1 PUSH2 0x1DCB JUMP JUMPDEST SWAP1 DUP2 MSTORE PUSH1 0x20 ADD PUSH1 0x40 MLOAD DUP1 SWAP2 SUB SWAP1 KECCAK256 PUSH1 0x2 ADD DUP2 DUP2 SLOAD DUP2 LT PUSH2 0x637 JUMPI PUSH2 0x636 PUSH2 0x1F1D JUMP JUMPDEST JUMPDEST SWAP1 PUSH1 0x0 MSTORE PUSH1 0x20 PUSH1 0x0 KECCAK256 ADD DUP1 SLOAD PUSH2 0x64C SWAP1 PUSH2 0x1F7B JUMP JUMPDEST DUP1 PUSH1 0x1F ADD PUSH1 0x20 DUP1 SWAP2 DIV MUL PUSH1 0x20 ADD PUSH1 0x40 MLOAD SWAP1 DUP2 ADD PUSH1 0x40 MSTORE DUP1 SWAP3 SWAP2 SWAP1 DUP2 DUP2 MSTORE PUSH1 0x20 ADD DUP3 DUP1 SLOAD PUSH2 0x678 SWAP1 PUSH2 0x1F7B JUMP JUMPDEST DUP1 ISZERO PUSH2 0x6C5 JUMPI DUP1 PUSH1 0x1F LT PUSH2 0x69A JUMPI PUSH2 0x100 DUP1 DUP4 SLOAD DIV MUL DUP4 MSTORE SWAP2 PUSH1 0x20 ADD SWAP2 PUSH2 0x6C5 JUMP JUMPDEST DUP3 ADD SWAP2 SWAP1 PUSH1 0x0 MSTORE PUSH1 0x20 PUSH1 0x0 KECCAK256 SWAP1 JUMPDEST DUP2 SLOAD DUP2 MSTORE SWAP1 PUSH1 0x1 ADD SWAP1 PUSH1 0x20 ADD DUP1 DUP4 GT PUSH2 0x6A8 JUMPI DUP3 SWAP1 SUB PUSH1 0x1F AND DUP3 ADD SWAP2 JUMPDEST POP POP POP POP POP DUP4 DUP4 DUP1 PUSH2 0x6D6 SWAP1 PUSH2 0x205B JUMP JUMPDEST SWAP5 POP DUP2 MLOAD DUP2 LT PUSH2 0x6E9 JUMPI PUSH2 0x6E8 PUSH2 0x1F1D JUMP JUMPDEST JUMPDEST PUSH1 0x20 MUL PUSH1 0x20 ADD ADD DUP2 SWAP1 MSTORE POP JUMPDEST DUP1 DUP1 PUSH2 0x700 SWAP1 PUSH2 0x205B JUMP JUMPDEST SWAP2 POP POP PUSH2 0x56D JUMP JUMPDEST POP DUP2 PUSH1 0x6 DUP6 PUSH1 0x40 MLOAD PUSH2 0x71A SWAP2 SWAP1 PUSH2 0x1DCB JUMP JUMPDEST SWAP1 DUP2 MSTORE PUSH1 0x20 ADD PUSH1 0x40 MLOAD DUP1 SWAP2 SUB SWAP1 KECCAK256 PUSH1 0x2 ADD SWAP1 DUP1 MLOAD SWAP1 PUSH1 0x20 ADD SWAP1 PUSH2 0x73E SWAP3 SWAP2 SWAP1 PUSH2 0x15F7 JUMP JUMPDEST POP PUSH1 0x8 DUP6 PUSH1 0x40 MLOAD PUSH2 0x74F SWAP2 SWAP1 PUSH2 0x1DCB JUMP JUMPDEST SWAP1 DUP2 MSTORE PUSH1 0x20 ADD PUSH1 0x40 MLOAD DUP1 SWAP2 SUB SWAP1 KECCAK256 PUSH1 0x2 ADD DUP1 SLOAD SWAP1 POP SWAP3 POP PUSH1 0x0 PUSH1 0x1 DUP5 PUSH2 0x775 SWAP2 SWAP1 PUSH2 0x1EE9 JUMP JUMPDEST PUSH8 0xFFFFFFFFFFFFFFFF DUP2 GT ISZERO PUSH2 0x78E JUMPI PUSH2 0x78D PUSH2 0x174D JUMP JUMPDEST JUMPDEST PUSH1 0x40 MLOAD SWAP1 DUP1 DUP3 MSTORE DUP1 PUSH1 0x20 MUL PUSH1 0x20 ADD DUP3 ADD PUSH1 0x40 MSTORE DUP1 ISZERO PUSH2 0x7C1 JUMPI DUP2 PUSH1 0x20 ADD JUMPDEST PUSH1 0x60 DUP2 MSTORE PUSH1 0x20 ADD SWAP1 PUSH1 0x1 SWAP1 SUB SWAP1 DUP2 PUSH2 0x7AC JUMPI SWAP1 POP JUMPDEST POP SWAP1 POP PUSH1 0x0 SWAP2 POP PUSH1 0x0 JUMPDEST DUP5 DUP2 LT ISZERO PUSH2 0x966 JUMPI DUP6 PUSH1 0x40 MLOAD PUSH1 0x20 ADD PUSH2 0x7E4 SWAP2 SWAP1 PUSH2 0x1DCB JUMP JUMPDEST PUSH1 0x40 MLOAD PUSH1 0x20 DUP2 DUP4 SUB SUB DUP2 MSTORE SWAP1 PUSH1 0x40 MSTORE DUP1 MLOAD SWAP1 PUSH1 0x20 ADD KECCAK256 PUSH1 0x8 DUP9 PUSH1 0x40 MLOAD PUSH2 0x80A SWAP2 SWAP1 PUSH2 0x1DCB JUMP JUMPDEST SWAP1 DUP2 MSTORE PUSH1 0x20 ADD PUSH1 0x40 MLOAD DUP1 SWAP2 SUB SWAP1 KECCAK256 PUSH1 0x2 ADD DUP3 DUP2 SLOAD DUP2 LT PUSH2 0x82D JUMPI PUSH2 0x82C PUSH2 0x1F1D JUMP JUMPDEST JUMPDEST SWAP1 PUSH1 0x0 MSTORE PUSH1 0x20 PUSH1 0x0 KECCAK256 ADD PUSH1 0x40 MLOAD PUSH1 0x20 ADD PUSH2 0x847 SWAP2 SWAP1 PUSH2 0x2044 JUMP JUMPDEST PUSH1 0x40 MLOAD PUSH1 0x20 DUP2 DUP4 SUB SUB DUP2 MSTORE SWAP1 PUSH1 0x40 MSTORE DUP1 MLOAD SWAP1 PUSH1 0x20 ADD KECCAK256 EQ PUSH2 0x953 JUMPI PUSH1 0x8 DUP8 PUSH1 0x40 MLOAD PUSH2 0x872 SWAP2 SWAP1 PUSH2 0x1DCB JUMP JUMPDEST SWAP1 DUP2 MSTORE PUSH1 0x20 ADD PUSH1 0x40 MLOAD DUP1 SWAP2 SUB SWAP1 KECCAK256 PUSH1 0x2 ADD DUP2 DUP2 SLOAD DUP2 LT PUSH2 0x895 JUMPI PUSH2 0x894 PUSH2 0x1F1D JUMP JUMPDEST JUMPDEST SWAP1 PUSH1 0x0 MSTORE PUSH1 0x20 PUSH1 0x0 KECCAK256 ADD DUP1 SLOAD PUSH2 0x8AA SWAP1 PUSH2 0x1F7B JUMP JUMPDEST DUP1 PUSH1 0x1F ADD PUSH1 0x20 DUP1 SWAP2 DIV MUL PUSH1 0x20 ADD PUSH1 0x40 MLOAD SWAP1 DUP2 ADD PUSH1 0x40 MSTORE DUP1 SWAP3 SWAP2 SWAP1 DUP2 DUP2 MSTORE PUSH1 0x20 ADD DUP3 DUP1 SLOAD PUSH2 0x8D6 SWAP1 PUSH2 0x1F7B JUMP JUMPDEST DUP1 ISZERO PUSH2 0x923 JUMPI DUP1 PUSH1 0x1F LT PUSH2 0x8F8 JUMPI PUSH2 0x100 DUP1 DUP4 SLOAD DIV MUL DUP4 MSTORE SWAP2 PUSH1 0x20 ADD SWAP2 PUSH2 0x923 JUMP JUMPDEST DUP3 ADD SWAP2 SWAP1 PUSH1 0x0 MSTORE PUSH1 0x20 PUSH1 0x0 KECCAK256 SWAP1 JUMPDEST DUP2 SLOAD DUP2 MSTORE SWAP1 PUSH1 0x1 ADD SWAP1 PUSH1 0x20 ADD DUP1 DUP4 GT PUSH2 0x906 JUMPI DUP3 SWAP1 SUB PUSH1 0x1F AND DUP3 ADD SWAP2 JUMPDEST POP POP POP POP POP DUP3 DUP5 DUP1 PUSH2 0x934 SWAP1 PUSH2 0x205B JUMP JUMPDEST SWAP6 POP DUP2 MLOAD DUP2 LT PUSH2 0x947 JUMPI PUSH2 0x946 PUSH2 0x1F1D JUMP JUMPDEST JUMPDEST PUSH1 0x20 MUL PUSH1 0x20 ADD ADD DUP2 SWAP1 MSTORE POP JUMPDEST DUP1 DUP1 PUSH2 0x95E SWAP1 PUSH2 0x205B JUMP JUMPDEST SWAP2 POP POP PUSH2 0x7CB JUMP JUMPDEST POP DUP1 PUSH1 0x8 DUP8 PUSH1 0x40 MLOAD PUSH2 0x978 SWAP2 SWAP1 PUSH2 0x1DCB JUMP JUMPDEST SWAP1 DUP2 MSTORE PUSH1 0x20 ADD PUSH1 0x40 MLOAD DUP1 SWAP2 SUB SWAP1 KECCAK256 PUSH1 0x2 ADD SWAP1 DUP1 MLOAD SWAP1 PUSH1 0x20 ADD SWAP1 PUSH2 0x99C SWAP3 SWAP2 SWAP1 PUSH2 0x15F7 JUMP JUMPDEST POP POP POP POP POP PUSH2 0x9A9 PUSH2 0x15ED JUMP JUMPDEST POP POP JUMP JUMPDEST PUSH2 0x9B5 PUSH2 0x159E JUMP JUMPDEST PUSH1 0x2 PUSH1 0x0 DUP2 SLOAD DUP1 SWAP3 SWAP2 SWAP1 PUSH2 0x9C8 SWAP1 PUSH2 0x205B JUMP JUMPDEST SWAP2 SWAP1 POP SSTORE POP PUSH1 0x60 DUP1 PUSH1 0x40 MLOAD DUP1 PUSH1 0x80 ADD PUSH1 0x40 MSTORE DUP1 PUSH1 0x2 SLOAD DUP2 MSTORE PUSH1 0x20 ADD DUP5 DUP2 MSTORE PUSH1 0x20 ADD DUP4 DUP2 MSTORE PUSH1 0x20 ADD DUP3 DUP2 MSTORE POP PUSH1 0x6 DUP5 PUSH1 0x40 MLOAD PUSH2 0xA03 SWAP2 SWAP1 PUSH2 0x1DCB JUMP JUMPDEST SWAP1 DUP2 MSTORE PUSH1 0x20 ADD PUSH1 0x40 MLOAD DUP1 SWAP2 SUB SWAP1 KECCAK256 PUSH1 0x0 DUP3 ADD MLOAD DUP2 PUSH1 0x0 ADD SSTORE PUSH1 0x20 DUP3 ADD MLOAD DUP2 PUSH1 0x1 ADD SWAP1 DUP2 PUSH2 0xA30 SWAP2 SWAP1 PUSH2 0x223A JUMP JUMPDEST POP PUSH1 0x40 DUP3 ADD MLOAD DUP2 PUSH1 0x2 ADD SWAP1 DUP1 MLOAD SWAP1 PUSH1 0x20 ADD SWAP1 PUSH2 0xA4D SWAP3 SWAP2 SWAP1 PUSH2 0x15F7 JUMP JUMPDEST POP PUSH1 0x60 DUP3 ADD MLOAD DUP2 PUSH1 0x3 ADD SWAP1 DUP1 MLOAD SWAP1 PUSH1 0x20 ADD SWAP1 PUSH2 0xA6A SWAP3 SWAP2 SWAP1 PUSH2 0x1650 JUMP JUMPDEST POP SWAP1 POP POP DUP3 PUSH1 0x40 MLOAD PUSH2 0xA7C SWAP2 SWAP1 PUSH2 0x1DCB JUMP JUMPDEST PUSH1 0x40 MLOAD DUP1 SWAP2 SUB SWAP1 KECCAK256 PUSH1 0x2 SLOAD PUSH32 0x134FDA0AE4FAFCA781B872311CCA14CCBFAF969FD15C52F58E9A93DE5D231807 PUSH1 0x40 MLOAD PUSH1 0x40 MLOAD DUP1 SWAP2 SUB SWAP1 LOG3 POP POP PUSH2 0xABD PUSH2 0x15ED JUMP JUMPDEST POP JUMP JUMPDEST PUSH1 0x60 PUSH1 0x8 DUP3 PUSH1 0x40 MLOAD PUSH2 0xAD2 SWAP2 SWAP1 PUSH2 0x1DCB JUMP JUMPDEST SWAP1 DUP2 MSTORE PUSH1 0x20 ADD PUSH1 0x40 MLOAD DUP1 SWAP2 SUB SWAP1 KECCAK256 PUSH1 0x2 ADD DUP1 SLOAD DUP1 PUSH1 0x20 MUL PUSH1 0x20 ADD PUSH1 0x40 MLOAD SWAP1 DUP2 ADD PUSH1 0x40 MSTORE DUP1 SWAP3 SWAP2 SWAP1 DUP2 DUP2 MSTORE PUSH1 0x20 ADD PUSH1 0x0 SWAP1 JUMPDEST DUP3 DUP3 LT ISZERO PUSH2 0xBAF JUMPI DUP4 DUP3 SWAP1 PUSH1 0x0 MSTORE PUSH1 0x20 PUSH1 0x0 KECCAK256 ADD DUP1 SLOAD PUSH2 0xB22 SWAP1 PUSH2 0x1F7B JUMP JUMPDEST DUP1 PUSH1 0x1F ADD PUSH1 0x20 DUP1 SWAP2 DIV MUL PUSH1 0x20 ADD PUSH1 0x40 MLOAD SWAP1 DUP2 ADD PUSH1 0x40 MSTORE DUP1 SWAP3 SWAP2 SWAP1 DUP2 DUP2 MSTORE PUSH1 0x20 ADD DUP3 DUP1 SLOAD PUSH2 0xB4E SWAP1 PUSH2 0x1F7B JUMP JUMPDEST DUP1 ISZERO PUSH2 0xB9B JUMPI DUP1 PUSH1 0x1F LT PUSH2 0xB70 JUMPI PUSH2 0x100 DUP1 DUP4 SLOAD DIV MUL DUP4 MSTORE SWAP2 PUSH1 0x20 ADD SWAP2 PUSH2 0xB9B JUMP JUMPDEST DUP3 ADD SWAP2 SWAP1 PUSH1 0x0 MSTORE PUSH1 0x20 PUSH1 0x0 KECCAK256 SWAP1 JUMPDEST DUP2 SLOAD DUP2 MSTORE SWAP1 PUSH1 0x1 ADD SWAP1 PUSH1 0x20 ADD DUP1 DUP4 GT PUSH2 0xB7E JUMPI DUP3 SWAP1 SUB PUSH1 0x1F AND DUP3 ADD SWAP2 JUMPDEST POP POP POP POP POP DUP2 MSTORE PUSH1 0x20 ADD SWAP1 PUSH1 0x1 ADD SWAP1 PUSH2 0xB03 JUMP JUMPDEST POP POP POP POP SWAP1 POP SWAP2 SWAP1 POP JUMP JUMPDEST PUSH2 0xBC2 PUSH2 0x159E JUMP JUMPDEST PUSH1 0x1 PUSH1 0x0 DUP2 SLOAD DUP1 SWAP3 SWAP2 SWAP1 PUSH2 0xBD5 SWAP1 PUSH2 0x205B JUMP JUMPDEST SWAP2 SWAP1 POP SSTORE POP PUSH1 0x60 PUSH1 0x40 MLOAD DUP1 PUSH1 0x60 ADD PUSH1 0x40 MSTORE DUP1 PUSH1 0x1 SLOAD DUP2 MSTORE PUSH1 0x20 ADD DUP4 DUP2 MSTORE PUSH1 0x20 ADD DUP3 DUP2 MSTORE POP PUSH1 0x8 DUP4 PUSH1 0x40 MLOAD PUSH2 0xC09 SWAP2 SWAP1 PUSH2 0x1DCB JUMP JUMPDEST SWAP1 DUP2 MSTORE PUSH1 0x20 ADD PUSH1 0x40 MLOAD DUP1 SWAP2 SUB SWAP1 KECCAK256 PUSH1 0x0 DUP3 ADD MLOAD DUP2 PUSH1 0x0 ADD SSTORE PUSH1 0x20 DUP3 ADD MLOAD DUP2 PUSH1 0x1 ADD SWAP1 DUP2 PUSH2 0xC36 SWAP2 SWAP1 PUSH2 0x223A JUMP JUMPDEST POP PUSH1 0x40 DUP3 ADD MLOAD DUP2 PUSH1 0x2 ADD SWAP1 DUP1 MLOAD SWAP1 PUSH1 0x20 ADD SWAP1 PUSH2 0xC53 SWAP3 SWAP2 SWAP1 PUSH2 0x15F7 JUMP JUMPDEST POP SWAP1 POP POP DUP2 PUSH1 0x40 MLOAD PUSH2 0xC65 SWAP2 SWAP1 PUSH2 0x1DCB JUMP JUMPDEST PUSH1 0x40 MLOAD DUP1 SWAP2 SUB SWAP1 KECCAK256 PUSH1 0x1 SLOAD PUSH32 0xEA156934655CE49EB3A326E33CD7089B144169217BA22211032479B6B4293725 PUSH1 0x40 MLOAD PUSH1 0x40 MLOAD DUP1 SWAP2 SUB SWAP1 LOG3 POP PUSH2 0xCA5 PUSH2 0x15ED JUMP JUMPDEST POP JUMP JUMPDEST PUSH1 0x60 PUSH1 0x5 PUSH1 0x0 DUP4 DUP2 MSTORE PUSH1 0x20 ADD SWAP1 DUP2 MSTORE PUSH1 0x20 ADD PUSH1 0x0 KECCAK256 DUP1 SLOAD PUSH2 0xCC8 SWAP1 PUSH2 0x1F7B JUMP JUMPDEST DUP1 PUSH1 0x1F ADD PUSH1 0x20 DUP1 SWAP2 DIV MUL PUSH1 0x20 ADD PUSH1 0x40 MLOAD SWAP1 DUP2 ADD PUSH1 0x40 MSTORE DUP1 SWAP3 SWAP2 SWAP1 DUP2 DUP2 MSTORE PUSH1 0x20 ADD DUP3 DUP1 SLOAD PUSH2 0xCF4 SWAP1 PUSH2 0x1F7B JUMP JUMPDEST DUP1 ISZERO PUSH2 0xD41 JUMPI DUP1 PUSH1 0x1F LT PUSH2 0xD16 JUMPI PUSH2 0x100 DUP1 DUP4 SLOAD DIV MUL DUP4 MSTORE SWAP2 PUSH1 0x20 ADD SWAP2 PUSH2 0xD41 JUMP JUMPDEST DUP3 ADD SWAP2 SWAP1 PUSH1 0x0 MSTORE PUSH1 0x20 PUSH1 0x0 KECCAK256 SWAP1 JUMPDEST DUP2 SLOAD DUP2 MSTORE SWAP1 PUSH1 0x1 ADD SWAP1 PUSH1 0x20 ADD DUP1 DUP4 GT PUSH2 0xD24 JUMPI DUP3 SWAP1 SUB PUSH1 0x1F AND DUP3 ADD SWAP2 JUMPDEST POP POP POP POP POP SWAP1 POP SWAP2 SWAP1 POP JUMP JUMPDEST PUSH1 0x0 PUSH2 0xD57 PUSH2 0x159E JUMP JUMPDEST PUSH1 0x0 CALLVALUE GT PUSH2 0xD9A JUMPI PUSH1 0x40 MLOAD PUSH32 0x8C379A000000000000000000000000000000000000000000000000000000000 DUP2 MSTORE PUSH1 0x4 ADD PUSH2 0xD91 SWAP1 PUSH2 0x2358 JUMP JUMPDEST PUSH1 0x40 MLOAD DUP1 SWAP2 SUB SWAP1 REVERT JUMPDEST DUP2 PUSH2 0xDED JUMPI DUP3 PUSH1 0x40 MLOAD PUSH2 0xDAD SWAP2 SWAP1 PUSH2 0x1DCB JUMP JUMPDEST PUSH1 0x40 MLOAD DUP1 SWAP2 SUB SWAP1 KECCAK256 PUSH32 0xD76F471A6CFD25FFCDA8864CD32F43F578933212DAD6AFFAA5AC113086C5C546 CALLVALUE PUSH1 0x40 MLOAD PUSH2 0xDE4 SWAP2 SWAP1 PUSH2 0x1D18 JUMP JUMPDEST PUSH1 0x40 MLOAD DUP1 SWAP2 SUB SWAP1 LOG2 JUMPDEST PUSH1 0x1 SWAP1 POP PUSH2 0xDF9 PUSH2 0x15ED JUMP JUMPDEST SWAP3 SWAP2 POP POP JUMP JUMPDEST PUSH2 0xE07 PUSH2 0x159E JUMP JUMPDEST PUSH1 0x3 PUSH1 0x0 DUP2 SLOAD DUP1 SWAP3 SWAP2 SWAP1 PUSH2 0xE1A SWAP1 PUSH2 0x205B JUMP JUMPDEST SWAP2 SWAP1 POP SSTORE POP DUP1 PUSH1 0x5 PUSH1 0x0 PUSH1 0x3 SLOAD DUP2 MSTORE PUSH1 0x20 ADD SWAP1 DUP2 MSTORE PUSH1 0x20 ADD PUSH1 0x0 KECCAK256 SWAP1 DUP2 PUSH2 0xE41 SWAP2 SWAP1 PUSH2 0x223A JUMP JUMPDEST POP PUSH1 0x3 SLOAD PUSH32 0xC01E484CC8325EFF46E7CFC59A0995A96E6C979AAA3B2000BD9E1AB6E813A45 PUSH1 0x40 MLOAD PUSH1 0x40 MLOAD DUP1 SWAP2 SUB SWAP1 LOG2 PUSH2 0xE79 PUSH2 0x15ED JUMP JUMPDEST POP JUMP JUMPDEST PUSH1 0x0 PUSH1 0x3 SLOAD SWAP1 POP SWAP1 JUMP JUMPDEST PUSH2 0xE8E PUSH2 0x159E JUMP JUMPDEST PUSH1 0x0 ISZERO ISZERO PUSH1 0x7 DUP4 PUSH1 0x40 MLOAD PUSH2 0xEA2 SWAP2 SWAP1 PUSH2 0x1DCB JUMP JUMPDEST SWAP1 DUP2 MSTORE PUSH1 0x20 ADD PUSH1 0x40 MLOAD DUP1 SWAP2 SUB SWAP1 KECCAK256 DUP3 PUSH1 0x40 MLOAD PUSH2 0xEBE SWAP2 SWAP1 PUSH2 0x1DCB JUMP JUMPDEST SWAP1 DUP2 MSTORE PUSH1 0x20 ADD PUSH1 0x40 MLOAD DUP1 SWAP2 SUB SWAP1 KECCAK256 PUSH1 0x0 SWAP1 SLOAD SWAP1 PUSH2 0x100 EXP SWAP1 DIV PUSH1 0xFF AND ISZERO ISZERO EQ PUSH2 0xF1C JUMPI PUSH1 0x40 MLOAD PUSH32 0x8C379A000000000000000000000000000000000000000000000000000000000 DUP2 MSTORE PUSH1 0x4 ADD PUSH2 0xF13 SWAP1 PUSH2 0x23C4 JUMP JUMPDEST PUSH1 0x40 MLOAD DUP1 SWAP2 SUB SWAP1 REVERT JUMPDEST PUSH1 0x1 PUSH1 0x7 DUP4 PUSH1 0x40 MLOAD PUSH2 0xF2E SWAP2 SWAP1 PUSH2 0x1DCB JUMP JUMPDEST SWAP1 DUP2 MSTORE PUSH1 0x20 ADD PUSH1 0x40 MLOAD DUP1 SWAP2 SUB SWAP1 KECCAK256 DUP3 PUSH1 0x40 MLOAD PUSH2 0xF4A SWAP2 SWAP1 PUSH2 0x1DCB JUMP JUMPDEST SWAP1 DUP2 MSTORE PUSH1 0x20 ADD PUSH1 0x40 MLOAD DUP1 SWAP2 SUB SWAP1 KECCAK256 PUSH1 0x0 PUSH2 0x100 EXP DUP2 SLOAD DUP2 PUSH1 0xFF MUL NOT AND SWAP1 DUP4 ISZERO ISZERO MUL OR SWAP1 SSTORE POP PUSH1 0x0 PUSH1 0x6 DUP3 PUSH1 0x40 MLOAD PUSH2 0xF81 SWAP2 SWAP1 PUSH2 0x1DCB JUMP JUMPDEST SWAP1 DUP2 MSTORE PUSH1 0x20 ADD PUSH1 0x40 MLOAD DUP1 SWAP2 SUB SWAP1 KECCAK256 PUSH1 0x2 ADD DUP1 SLOAD SWAP1 POP SWAP1 POP PUSH1 0x0 PUSH1 0x1 DUP3 PUSH2 0xFA7 SWAP2 SWAP1 PUSH2 0x23E4 JUMP JUMPDEST PUSH8 0xFFFFFFFFFFFFFFFF DUP2 GT ISZERO PUSH2 0xFC0 JUMPI PUSH2 0xFBF PUSH2 0x174D JUMP JUMPDEST JUMPDEST PUSH1 0x40 MLOAD SWAP1 DUP1 DUP3 MSTORE DUP1 PUSH1 0x20 MUL PUSH1 0x20 ADD DUP3 ADD PUSH1 0x40 MSTORE DUP1 ISZERO PUSH2 0xFF3 JUMPI DUP2 PUSH1 0x20 ADD JUMPDEST PUSH1 0x60 DUP2 MSTORE PUSH1 0x20 ADD SWAP1 PUSH1 0x1 SWAP1 SUB SWAP1 DUP2 PUSH2 0xFDE JUMPI SWAP1 POP JUMPDEST POP SWAP1 POP DUP4 DUP2 DUP4 DUP2 MLOAD DUP2 LT PUSH2 0x100A JUMPI PUSH2 0x1009 PUSH2 0x1F1D JUMP JUMPDEST JUMPDEST PUSH1 0x20 MUL PUSH1 0x20 ADD ADD DUP2 SWAP1 MSTORE POP PUSH1 0x0 JUMPDEST DUP3 DUP2 LT ISZERO PUSH2 0x1117 JUMPI PUSH1 0x6 DUP5 PUSH1 0x40 MLOAD PUSH2 0x1030 SWAP2 SWAP1 PUSH2 0x1DCB JUMP JUMPDEST SWAP1 DUP2 MSTORE PUSH1 0x20 ADD PUSH1 0x40 MLOAD DUP1 SWAP2 SUB SWAP1 KECCAK256 PUSH1 0x2 ADD DUP2 DUP2 SLOAD DUP2 LT PUSH2 0x1053 JUMPI PUSH2 0x1052 PUSH2 0x1F1D JUMP JUMPDEST JUMPDEST SWAP1 PUSH1 0x0 MSTORE PUSH1 0x20 PUSH1 0x0 KECCAK256 ADD DUP1 SLOAD PUSH2 0x1068 SWAP1 PUSH2 0x1F7B JUMP JUMPDEST DUP1 PUSH1 0x1F ADD PUSH1 0x20 DUP1 SWAP2 DIV MUL PUSH1 0x20 ADD PUSH1 0x40 MLOAD SWAP1 DUP2 ADD PUSH1 0x40 MSTORE DUP1 SWAP3 SWAP2 SWAP1 DUP2 DUP2 MSTORE PUSH1 0x20 ADD DUP3 DUP1 SLOAD PUSH2 0x1094 SWAP1 PUSH2 0x1F7B JUMP JUMPDEST DUP1 ISZERO PUSH2 0x10E1 JUMPI DUP1 PUSH1 0x1F LT PUSH2 0x10B6 JUMPI PUSH2 0x100 DUP1 DUP4 SLOAD DIV MUL DUP4 MSTORE SWAP2 PUSH1 0x20 ADD SWAP2 PUSH2 0x10E1 JUMP JUMPDEST DUP3 ADD SWAP2 SWAP1 PUSH1 0x0 MSTORE PUSH1 0x20 PUSH1 0x0 KECCAK256 SWAP1 JUMPDEST DUP2 SLOAD DUP2 MSTORE SWAP1 PUSH1 0x1 ADD SWAP1 PUSH1 0x20 ADD DUP1 DUP4 GT PUSH2 0x10C4 JUMPI DUP3 SWAP1 SUB PUSH1 0x1F AND DUP3 ADD SWAP2 JUMPDEST POP POP POP POP POP DUP3 DUP3 DUP2 MLOAD DUP2 LT PUSH2 0x10F9 JUMPI PUSH2 0x10F8 PUSH2 0x1F1D JUMP JUMPDEST JUMPDEST PUSH1 0x20 MUL PUSH1 0x20 ADD ADD DUP2 SWAP1 MSTORE POP DUP1 DUP1 PUSH2 0x110F SWAP1 PUSH2 0x205B JUMP JUMPDEST SWAP2 POP POP PUSH2 0x1018 JUMP JUMPDEST POP DUP1 PUSH1 0x6 DUP5 PUSH1 0x40 MLOAD PUSH2 0x1129 SWAP2 SWAP1 PUSH2 0x1DCB JUMP JUMPDEST SWAP1 DUP2 MSTORE PUSH1 0x20 ADD PUSH1 0x40 MLOAD DUP1 SWAP2 SUB SWAP1 KECCAK256 PUSH1 0x2 ADD SWAP1 DUP1 MLOAD SWAP1 PUSH1 0x20 ADD SWAP1 PUSH2 0x114D SWAP3 SWAP2 SWAP1 PUSH2 0x15F7 JUMP JUMPDEST POP PUSH1 0x8 DUP5 PUSH1 0x40 MLOAD PUSH2 0x115E SWAP2 SWAP1 PUSH2 0x1DCB JUMP JUMPDEST SWAP1 DUP2 MSTORE PUSH1 0x20 ADD PUSH1 0x40 MLOAD DUP1 SWAP2 SUB SWAP1 KECCAK256 PUSH1 0x2 ADD DUP1 SLOAD SWAP1 POP SWAP2 POP PUSH1 0x0 PUSH1 0x1 DUP4 PUSH2 0x1184 SWAP2 SWAP1 PUSH2 0x23E4 JUMP JUMPDEST PUSH8 0xFFFFFFFFFFFFFFFF DUP2 GT ISZERO PUSH2 0x119D JUMPI PUSH2 0x119C PUSH2 0x174D JUMP JUMPDEST JUMPDEST PUSH1 0x40 MLOAD SWAP1 DUP1 DUP3 MSTORE DUP1 PUSH1 0x20 MUL PUSH1 0x20 ADD DUP3 ADD PUSH1 0x40 MSTORE DUP1 ISZERO PUSH2 0x11D0 JUMPI DUP2 PUSH1 0x20 ADD JUMPDEST PUSH1 0x60 DUP2 MSTORE PUSH1 0x20 ADD SWAP1 PUSH1 0x1 SWAP1 SUB SWAP1 DUP2 PUSH2 0x11BB JUMPI SWAP1 POP JUMPDEST POP SWAP1 POP DUP4 DUP2 DUP5 DUP2 MLOAD DUP2 LT PUSH2 0x11E7 JUMPI PUSH2 0x11E6 PUSH2 0x1F1D JUMP JUMPDEST JUMPDEST PUSH1 0x20 MUL PUSH1 0x20 ADD ADD DUP2 SWAP1 MSTORE POP PUSH1 0x0 JUMPDEST DUP4 DUP2 LT ISZERO PUSH2 0x12F4 JUMPI PUSH1 0x8 DUP7 PUSH1 0x40 MLOAD PUSH2 0x120D SWAP2 SWAP1 PUSH2 0x1DCB JUMP JUMPDEST SWAP1 DUP2 MSTORE PUSH1 0x20 ADD PUSH1 0x40 MLOAD DUP1 SWAP2 SUB SWAP1 KECCAK256 PUSH1 0x2 ADD DUP2 DUP2 SLOAD DUP2 LT PUSH2 0x1230 JUMPI PUSH2 0x122F PUSH2 0x1F1D JUMP JUMPDEST JUMPDEST SWAP1 PUSH1 0x0 MSTORE PUSH1 0x20 PUSH1 0x0 KECCAK256 ADD DUP1 SLOAD PUSH2 0x1245 SWAP1 PUSH2 0x1F7B JUMP JUMPDEST DUP1 PUSH1 0x1F ADD PUSH1 0x20 DUP1 SWAP2 DIV MUL PUSH1 0x20 ADD PUSH1 0x40 MLOAD SWAP1 DUP2 ADD PUSH1 0x40 MSTORE DUP1 SWAP3 SWAP2 SWAP1 DUP2 DUP2 MSTORE PUSH1 0x20 ADD DUP3 DUP1 SLOAD PUSH2 0x1271 SWAP1 PUSH2 0x1F7B JUMP JUMPDEST DUP1 ISZERO PUSH2 0x12BE JUMPI DUP1 PUSH1 0x1F LT PUSH2 0x1293 JUMPI PUSH2 0x100 DUP1 DUP4 SLOAD DIV MUL DUP4 MSTORE SWAP2 PUSH1 0x20 ADD SWAP2 PUSH2 0x12BE JUMP JUMPDEST DUP3 ADD SWAP2 SWAP1 PUSH1 0x0 MSTORE PUSH1 0x20 PUSH1 0x0 KECCAK256 SWAP1 JUMPDEST DUP2 SLOAD DUP2 MSTORE SWAP1 PUSH1 0x1 ADD SWAP1 PUSH1 0x20 ADD DUP1 DUP4 GT PUSH2 0x12A1 JUMPI DUP3 SWAP1 SUB PUSH1 0x1F AND DUP3 ADD SWAP2 JUMPDEST POP POP POP POP POP DUP3 DUP3 DUP2 MLOAD DUP2 LT PUSH2 0x12D6 JUMPI PUSH2 0x12D5 PUSH2 0x1F1D JUMP JUMPDEST JUMPDEST PUSH1 0x20 MUL PUSH1 0x20 ADD ADD DUP2 SWAP1 MSTORE POP DUP1 DUP1 PUSH2 0x12EC SWAP1 PUSH2 0x205B JUMP JUMPDEST SWAP2 POP POP PUSH2 0x11F5 JUMP JUMPDEST POP DUP1 PUSH1 0x8 DUP7 PUSH1 0x40 MLOAD PUSH2 0x1306 SWAP2 SWAP1 PUSH2 0x1DCB JUMP JUMPDEST SWAP1 DUP2 MSTORE PUSH1 0x20 ADD PUSH1 0x40 MLOAD DUP1 SWAP2 SUB SWAP1 KECCAK256 PUSH1 0x2 ADD SWAP1 DUP1 MLOAD SWAP1 PUSH1 0x20 ADD SWAP1 PUSH2 0x132A SWAP3 SWAP2 SWAP1 PUSH2 0x15F7 JUMP JUMPDEST POP POP POP POP PUSH2 0x1336 PUSH2 0x15ED JUMP JUMPDEST POP POP JUMP JUMPDEST PUSH2 0x1342 PUSH2 0x159E JUMP JUMPDEST PUSH1 0x0 PUSH1 0x6 DUP4 PUSH1 0x40 MLOAD PUSH2 0x1354 SWAP2 SWAP1 PUSH2 0x1DCB JUMP JUMPDEST SWAP1 DUP2 MSTORE PUSH1 0x20 ADD PUSH1 0x40 MLOAD DUP1 SWAP2 SUB SWAP1 KECCAK256 PUSH1 0x3 ADD DUP1 SLOAD SWAP1 POP SWAP1 POP PUSH1 0x0 PUSH1 0x1 DUP3 PUSH2 0x137A SWAP2 SWAP1 PUSH2 0x23E4 JUMP JUMPDEST PUSH8 0xFFFFFFFFFFFFFFFF DUP2 GT ISZERO PUSH2 0x1393 JUMPI PUSH2 0x1392 PUSH2 0x174D JUMP JUMPDEST JUMPDEST PUSH1 0x40 MLOAD SWAP1 DUP1 DUP3 MSTORE DUP1 PUSH1 0x20 MUL PUSH1 0x20 ADD DUP3 ADD PUSH1 0x40 MSTORE DUP1 ISZERO PUSH2 0x13C1 JUMPI DUP2 PUSH1 0x20 ADD PUSH1 0x20 DUP3 MUL DUP1 CALLDATASIZE DUP4 CALLDATACOPY DUP1 DUP3 ADD SWAP2 POP POP SWAP1 POP JUMPDEST POP SWAP1 POP DUP3 DUP2 DUP4 DUP2 MLOAD DUP2 LT PUSH2 0x13D8 JUMPI PUSH2 0x13D7 PUSH2 0x1F1D JUMP JUMPDEST JUMPDEST PUSH1 0x20 MUL PUSH1 0x20 ADD ADD DUP2 DUP2 MSTORE POP POP PUSH1 0x0 JUMPDEST DUP3 DUP2 LT ISZERO PUSH2 0x145F JUMPI PUSH1 0x6 DUP6 PUSH1 0x40 MLOAD PUSH2 0x13FF SWAP2 SWAP1 PUSH2 0x1DCB JUMP JUMPDEST SWAP1 DUP2 MSTORE PUSH1 0x20 ADD PUSH1 0x40 MLOAD DUP1 SWAP2 SUB SWAP1 KECCAK256 PUSH1 0x3 ADD DUP2 DUP2 SLOAD DUP2 LT PUSH2 0x1422 JUMPI PUSH2 0x1421 PUSH2 0x1F1D JUMP JUMPDEST JUMPDEST SWAP1 PUSH1 0x0 MSTORE PUSH1 0x20 PUSH1 0x0 KECCAK256 ADD SLOAD DUP3 DUP3 DUP2 MLOAD DUP2 LT PUSH2 0x1440 JUMPI PUSH2 0x143F PUSH2 0x1F1D JUMP JUMPDEST JUMPDEST PUSH1 0x20 MUL PUSH1 0x20 ADD ADD DUP2 DUP2 MSTORE POP POP DUP1 DUP1 PUSH2 0x1457 SWAP1 PUSH2 0x205B JUMP JUMPDEST SWAP2 POP POP PUSH2 0x13E7 JUMP JUMPDEST POP DUP1 PUSH1 0x6 DUP6 PUSH1 0x40 MLOAD PUSH2 0x1471 SWAP2 SWAP1 PUSH2 0x1DCB JUMP JUMPDEST SWAP1 DUP2 MSTORE PUSH1 0x20 ADD PUSH1 0x40 MLOAD DUP1 SWAP2 SUB SWAP1 KECCAK256 PUSH1 0x3 ADD SWAP1 DUP1 MLOAD SWAP1 PUSH1 0x20 ADD SWAP1 PUSH2 0x1495 SWAP3 SWAP2 SWAP1 PUSH2 0x1650 JUMP JUMPDEST POP POP POP PUSH2 0x14A0 PUSH2 0x15ED JUMP JUMPDEST POP POP JUMP JUMPDEST PUSH1 0x60 PUSH1 0x6 DUP3 PUSH1 0x40 MLOAD PUSH2 0x14B6 SWAP2 SWAP1 PUSH2 0x1DCB JUMP JUMPDEST SWAP1 DUP2 MSTORE PUSH1 0x20 ADD PUSH1 0x40 MLOAD DUP1 SWAP2 SUB SWAP1 KECCAK256 PUSH1 0x2 ADD DUP1 SLOAD DUP1 PUSH1 0x20 MUL PUSH1 0x20 ADD PUSH1 0x40 MLOAD SWAP1 DUP2 ADD PUSH1 0x40 MSTORE DUP1 SWAP3 SWAP2 SWAP1 DUP2 DUP2 MSTORE PUSH1 0x20 ADD PUSH1 0x0 SWAP1 JUMPDEST DUP3 DUP3 LT ISZERO PUSH2 0x1593 JUMPI DUP4 DUP3 SWAP1 PUSH1 0x0 MSTORE PUSH1 0x20 PUSH1 0x0 KECCAK256 ADD DUP1 SLOAD PUSH2 0x1506 SWAP1 PUSH2 0x1F7B JUMP JUMPDEST DUP1 PUSH1 0x1F ADD PUSH1 0x20 DUP1 SWAP2 DIV MUL PUSH1 0x20 ADD PUSH1 0x40 MLOAD SWAP1 DUP2 ADD PUSH1 0x40 MSTORE DUP1 SWAP3 SWAP2 SWAP1 DUP2 DUP2 MSTORE PUSH1 0x20 ADD DUP3 DUP1 SLOAD PUSH2 0x1532 SWAP1 PUSH2 0x1F7B JUMP JUMPDEST DUP1 ISZERO PUSH2 0x157F JUMPI DUP1 PUSH1 0x1F LT PUSH2 0x1554 JUMPI PUSH2 0x100 DUP1 DUP4 SLOAD DIV MUL DUP4 MSTORE SWAP2 PUSH1 0x20 ADD SWAP2 PUSH2 0x157F JUMP JUMPDEST DUP3 ADD SWAP2 SWAP1 PUSH1 0x0 MSTORE PUSH1 0x20 PUSH1 0x0 KECCAK256 SWAP1 JUMPDEST DUP2 SLOAD DUP2 MSTORE SWAP1 PUSH1 0x1 ADD SWAP1 PUSH1 0x20 ADD DUP1 DUP4 GT PUSH2 0x1562 JUMPI DUP3 SWAP1 SUB PUSH1 0x1F AND DUP3 ADD SWAP2 JUMPDEST POP POP POP POP POP DUP2 MSTORE PUSH1 0x20 ADD SWAP1 PUSH1 0x1 ADD SWAP1 PUSH2 0x14E7 JUMP JUMPDEST POP POP POP POP SWAP1 POP SWAP2 SWAP1 POP JUMP JUMPDEST PUSH1 0x2 PUSH1 0x0 SLOAD SUB PUSH2 0x15E3 JUMPI PUSH1 0x40 MLOAD PUSH32 0x8C379A000000000000000000000000000000000000000000000000000000000 DUP2 MSTORE PUSH1 0x4 ADD PUSH2 0x15DA SWAP1 PUSH2 0x2464 JUMP JUMPDEST PUSH1 0x40 MLOAD DUP1 SWAP2 SUB SWAP1 REVERT JUMPDEST PUSH1 0x2 PUSH1 0x0 DUP2 SWAP1 SSTORE POP JUMP JUMPDEST PUSH1 0x1 PUSH1 0x0 DUP2 SWAP1 SSTORE POP JUMP JUMPDEST DUP3 DUP1 SLOAD DUP3 DUP3 SSTORE SWAP1 PUSH1 0x0 MSTORE PUSH1 0x20 PUSH1 0x0 KECCAK256 SWAP1 DUP2 ADD SWAP3 DUP3 ISZERO PUSH2 0x163F JUMPI SWAP2 PUSH1 0x20 MUL DUP3 ADD JUMPDEST DUP3 DUP2 GT ISZERO PUSH2 0x163E JUMPI DUP3 MLOAD DUP3 SWAP1 DUP2 PUSH2 0x162E SWAP2 SWAP1 PUSH2 0x223A JUMP JUMPDEST POP SWAP2 PUSH1 0x20 ADD SWAP2 SWAP1 PUSH1 0x1 ADD SWAP1 PUSH2 0x1617 JUMP JUMPDEST JUMPDEST POP SWAP1 POP PUSH2 0x164C SWAP2 SWAP1 PUSH2 0x169D JUMP JUMPDEST POP SWAP1 JUMP JUMPDEST DUP3 DUP1 SLOAD DUP3 DUP3 SSTORE SWAP1 PUSH1 0x0 MSTORE PUSH1 0x20 PUSH1 0x0 KECCAK256 SWAP1 DUP2 ADD SWAP3 DUP3 ISZERO PUSH2 0x168C JUMPI SWAP2 PUSH1 0x20 MUL DUP3 ADD JUMPDEST DUP3 DUP2 GT ISZERO PUSH2 0x168B JUMPI DUP3 MLOAD DUP3 SSTORE SWAP2 PUSH1 0x20 ADD SWAP2 SWAP1 PUSH1 0x1 ADD SWAP1 PUSH2 0x1670 JUMP JUMPDEST JUMPDEST POP SWAP1 POP PUSH2 0x1699 SWAP2 SWAP1 PUSH2 0x16C1 JUMP JUMPDEST POP SWAP1 JUMP JUMPDEST JUMPDEST DUP1 DUP3 GT ISZERO PUSH2 0x16BD JUMPI PUSH1 0x0 DUP2 DUP2 PUSH2 0x16B4 SWAP2 SWAP1 PUSH2 0x16DE JUMP JUMPDEST POP PUSH1 0x1 ADD PUSH2 0x169E JUMP JUMPDEST POP SWAP1 JUMP JUMPDEST JUMPDEST DUP1 DUP3 GT ISZERO PUSH2 0x16DA JUMPI PUSH1 0x0 DUP2 PUSH1 0x0 SWAP1 SSTORE POP PUSH1 0x1 ADD PUSH2 0x16C2 JUMP JUMPDEST POP SWAP1 JUMP JUMPDEST POP DUP1 SLOAD PUSH2 0x16EA SWAP1 PUSH2 0x1F7B JUMP JUMPDEST PUSH1 0x0 DUP3 SSTORE DUP1 PUSH1 0x1F LT PUSH2 0x16FC JUMPI POP PUSH2 0x171B JUMP JUMPDEST PUSH1 0x1F ADD PUSH1 0x20 SWAP1 DIV SWAP1 PUSH1 0x0 MSTORE PUSH1 0x20 PUSH1 0x0 KECCAK256 SWAP1 DUP2 ADD SWAP1 PUSH2 0x171A SWAP2 SWAP1 PUSH2 0x16C1 JUMP JUMPDEST JUMPDEST POP JUMP JUMPDEST PUSH1 0x0 PUSH1 0x40 MLOAD SWAP1 POP SWAP1 JUMP JUMPDEST PUSH1 0x0 DUP1 REVERT JUMPDEST PUSH1 0x0 DUP1 REVERT JUMPDEST PUSH1 0x0 DUP1 REVERT JUMPDEST PUSH1 0x0 DUP1 REVERT JUMPDEST PUSH1 0x0 PUSH1 0x1F NOT PUSH1 0x1F DUP4 ADD AND SWAP1 POP SWAP2 SWAP1 POP JUMP JUMPDEST PUSH32 0x4E487B7100000000000000000000000000000000000000000000000000000000 PUSH1 0x0 MSTORE PUSH1 0x41 PUSH1 0x4 MSTORE PUSH1 0x24 PUSH1 0x0 REVERT JUMPDEST PUSH2 0x1785 DUP3 PUSH2 0x173C JUMP JUMPDEST DUP2 ADD DUP2 DUP2 LT PUSH8 0xFFFFFFFFFFFFFFFF DUP3 GT OR ISZERO PUSH2 0x17A4 JUMPI PUSH2 0x17A3 PUSH2 0x174D JUMP JUMPDEST JUMPDEST DUP1 PUSH1 0x40 MSTORE POP POP POP JUMP JUMPDEST PUSH1 0x0 PUSH2 0x17B7 PUSH2 0x171E JUMP JUMPDEST SWAP1 POP PUSH2 0x17C3 DUP3 DUP3 PUSH2 0x177C JUMP JUMPDEST SWAP2 SWAP1 POP JUMP JUMPDEST PUSH1 0x0 PUSH8 0xFFFFFFFFFFFFFFFF DUP3 GT ISZERO PUSH2 0x17E3 JUMPI PUSH2 0x17E2 PUSH2 0x174D JUMP JUMPDEST JUMPDEST PUSH2 0x17EC DUP3 PUSH2 0x173C JUMP JUMPDEST SWAP1 POP PUSH1 0x20 DUP2 ADD SWAP1 POP SWAP2 SWAP1 POP JUMP JUMPDEST DUP3 DUP2 DUP4 CALLDATACOPY PUSH1 0x0 DUP4 DUP4 ADD MSTORE POP POP POP JUMP JUMPDEST PUSH1 0x0 PUSH2 0x181B PUSH2 0x1816 DUP5 PUSH2 0x17C8 JUMP JUMPDEST PUSH2 0x17AD JUMP JUMPDEST SWAP1 POP DUP3 DUP2 MSTORE PUSH1 0x20 DUP2 ADD DUP5 DUP5 DUP5 ADD GT ISZERO PUSH2 0x1837 JUMPI PUSH2 0x1836 PUSH2 0x1737 JUMP JUMPDEST JUMPDEST PUSH2 0x1842 DUP5 DUP3 DUP6 PUSH2 0x17F9 JUMP JUMPDEST POP SWAP4 SWAP3 POP POP POP JUMP JUMPDEST PUSH1 0x0 DUP3 PUSH1 0x1F DUP4 ADD SLT PUSH2 0x185F JUMPI PUSH2 0x185E PUSH2 0x1732 JUMP JUMPDEST JUMPDEST DUP2 CALLDATALOAD PUSH2 0x186F DUP5 DUP3 PUSH1 0x20 DUP7 ADD PUSH2 0x1808 JUMP JUMPDEST SWAP2 POP POP SWAP3 SWAP2 POP POP JUMP JUMPDEST PUSH1 0x0 DUP1 PUSH1 0x40 DUP4 DUP6 SUB SLT ISZERO PUSH2 0x188F JUMPI PUSH2 0x188E PUSH2 0x1728 JUMP JUMPDEST JUMPDEST PUSH1 0x0 DUP4 ADD CALLDATALOAD PUSH8 0xFFFFFFFFFFFFFFFF DUP2 GT ISZERO PUSH2 0x18AD JUMPI PUSH2 0x18AC PUSH2 0x172D JUMP JUMPDEST JUMPDEST PUSH2 0x18B9 DUP6 DUP3 DUP7 ADD PUSH2 0x184A JUMP JUMPDEST SWAP3 POP POP PUSH1 0x20 DUP4 ADD CALLDATALOAD PUSH8 0xFFFFFFFFFFFFFFFF DUP2 GT ISZERO PUSH2 0x18DA JUMPI PUSH2 0x18D9 PUSH2 0x172D JUMP JUMPDEST JUMPDEST PUSH2 0x18E6 DUP6 DUP3 DUP7 ADD PUSH2 0x184A JUMP JUMPDEST SWAP2 POP POP SWAP3 POP SWAP3 SWAP1 POP JUMP JUMPDEST PUSH1 0x0 DUP2 MLOAD SWAP1 POP SWAP2 SWAP1 POP JUMP JUMPDEST PUSH1 0x0 DUP3 DUP3 MSTORE PUSH1 0x20 DUP3 ADD SWAP1 POP SWAP3 SWAP2 POP POP JUMP JUMPDEST PUSH1 0x0 DUP2 SWAP1 POP PUSH1 0x20 DUP3 ADD SWAP1 POP SWAP2 SWAP1 POP JUMP JUMPDEST PUSH1 0x0 DUP2 SWAP1 POP SWAP2 SWAP1 POP JUMP JUMPDEST PUSH2 0x192F DUP2 PUSH2 0x191C JUMP JUMPDEST DUP3 MSTORE POP POP JUMP JUMPDEST PUSH1 0x0 PUSH2 0x1941 DUP4 DUP4 PUSH2 0x1926 JUMP JUMPDEST PUSH1 0x20 DUP4 ADD SWAP1 POP SWAP3 SWAP2 POP POP JUMP JUMPDEST PUSH1 0x0 PUSH1 0x20 DUP3 ADD SWAP1 POP SWAP2 SWAP1 POP JUMP JUMPDEST PUSH1 0x0 PUSH2 0x1965 DUP3 PUSH2 0x18F0 JUMP JUMPDEST PUSH2 0x196F DUP2 DUP6 PUSH2 0x18FB JUMP JUMPDEST SWAP4 POP PUSH2 0x197A DUP4 PUSH2 0x190C JUMP JUMPDEST DUP1 PUSH1 0x0 JUMPDEST DUP4 DUP2 LT ISZERO PUSH2 0x19AB JUMPI DUP2 MLOAD PUSH2 0x1992 DUP9 DUP3 PUSH2 0x1935 JUMP JUMPDEST SWAP8 POP PUSH2 0x199D DUP4 PUSH2 0x194D JUMP JUMPDEST SWAP3 POP POP PUSH1 0x1 DUP2 ADD SWAP1 POP PUSH2 0x197E JUMP JUMPDEST POP DUP6 SWAP4 POP POP POP POP SWAP3 SWAP2 POP POP JUMP JUMPDEST PUSH1 0x0 PUSH1 0x20 DUP3 ADD SWAP1 POP DUP2 DUP2 SUB PUSH1 0x0 DUP4 ADD MSTORE PUSH2 0x19D2 DUP2 DUP5 PUSH2 0x195A JUMP JUMPDEST SWAP1 POP SWAP3 SWAP2 POP POP JUMP JUMPDEST PUSH1 0x0 PUSH1 0x20 DUP3 DUP5 SUB SLT ISZERO PUSH2 0x19F0 JUMPI PUSH2 0x19EF PUSH2 0x1728 JUMP JUMPDEST JUMPDEST PUSH1 0x0 DUP3 ADD CALLDATALOAD PUSH8 0xFFFFFFFFFFFFFFFF DUP2 GT ISZERO PUSH2 0x1A0E JUMPI PUSH2 0x1A0D PUSH2 0x172D JUMP JUMPDEST JUMPDEST PUSH2 0x1A1A DUP5 DUP3 DUP6 ADD PUSH2 0x184A JUMP JUMPDEST SWAP2 POP POP SWAP3 SWAP2 POP POP JUMP JUMPDEST PUSH1 0x0 DUP2 MLOAD SWAP1 POP SWAP2 SWAP1 POP JUMP JUMPDEST PUSH1 0x0 DUP3 DUP3 MSTORE PUSH1 0x20 DUP3 ADD SWAP1 POP SWAP3 SWAP2 POP POP JUMP JUMPDEST PUSH1 0x0 DUP2 SWAP1 POP PUSH1 0x20 DUP3 ADD SWAP1 POP SWAP2 SWAP1 POP JUMP JUMPDEST PUSH1 0x0 DUP2 MLOAD SWAP1 POP SWAP2 SWAP1 POP JUMP JUMPDEST PUSH1 0x0 DUP3 DUP3 MSTORE PUSH1 0x20 DUP3 ADD SWAP1 POP SWAP3 SWAP2 POP POP JUMP JUMPDEST PUSH1 0x0 JUMPDEST DUP4 DUP2 LT ISZERO PUSH2 0x1A89 JUMPI DUP1 DUP3 ADD MLOAD DUP2 DUP5 ADD MSTORE PUSH1 0x20 DUP2 ADD SWAP1 POP PUSH2 0x1A6E JUMP JUMPDEST PUSH1 0x0 DUP5 DUP5 ADD MSTORE POP POP POP POP JUMP JUMPDEST PUSH1 0x0 PUSH2 0x1AA0 DUP3 PUSH2 0x1A4F JUMP JUMPDEST PUSH2 0x1AAA DUP2 DUP6 PUSH2 0x1A5A JUMP JUMPDEST SWAP4 POP PUSH2 0x1ABA DUP2 DUP6 PUSH1 0x20 DUP7 ADD PUSH2 0x1A6B JUMP JUMPDEST PUSH2 0x1AC3 DUP2 PUSH2 0x173C JUMP JUMPDEST DUP5 ADD SWAP2 POP POP SWAP3 SWAP2 POP POP JUMP JUMPDEST PUSH1 0x0 PUSH2 0x1ADA DUP4 DUP4 PUSH2 0x1A95 JUMP JUMPDEST SWAP1 POP SWAP3 SWAP2 POP POP JUMP JUMPDEST PUSH1 0x0 PUSH1 0x20 DUP3 ADD SWAP1 POP SWAP2 SWAP1 POP JUMP JUMPDEST PUSH1 0x0 PUSH2 0x1AFA DUP3 PUSH2 0x1A23 JUMP JUMPDEST PUSH2 0x1B04 DUP2 DUP6 PUSH2 0x1A2E JUMP JUMPDEST SWAP4 POP DUP4 PUSH1 0x20 DUP3 MUL DUP6 ADD PUSH2 0x1B16 DUP6 PUSH2 0x1A3F JUMP JUMPDEST DUP1 PUSH1 0x0 JUMPDEST DUP6 DUP2 LT ISZERO PUSH2 0x1B52 JUMPI DUP5 DUP5 SUB DUP10 MSTORE DUP2 MLOAD PUSH2 0x1B33 DUP6 DUP3 PUSH2 0x1ACE JUMP JUMPDEST SWAP5 POP PUSH2 0x1B3E DUP4 PUSH2 0x1AE2 JUMP JUMPDEST SWAP3 POP PUSH1 0x20 DUP11 ADD SWAP10 POP POP PUSH1 0x1 DUP2 ADD SWAP1 POP PUSH2 0x1B1A JUMP JUMPDEST POP DUP3 SWAP8 POP DUP8 SWAP6 POP POP POP POP POP POP SWAP3 SWAP2 POP POP JUMP JUMPDEST PUSH1 0x0 PUSH1 0x20 DUP3 ADD SWAP1 POP DUP2 DUP2 SUB PUSH1 0x0 DUP4 ADD MSTORE PUSH2 0x1B7E DUP2 DUP5 PUSH2 0x1AEF JUMP JUMPDEST SWAP1 POP SWAP3 SWAP2 POP POP JUMP JUMPDEST PUSH2 0x1B8F DUP2 PUSH2 0x191C JUMP JUMPDEST DUP2 EQ PUSH2 0x1B9A JUMPI PUSH1 0x0 DUP1 REVERT JUMPDEST POP JUMP JUMPDEST PUSH1 0x0 DUP2 CALLDATALOAD SWAP1 POP PUSH2 0x1BAC DUP2 PUSH2 0x1B86 JUMP JUMPDEST SWAP3 SWAP2 POP POP JUMP JUMPDEST PUSH1 0x0 PUSH1 0x20 DUP3 DUP5 SUB SLT ISZERO PUSH2 0x1BC8 JUMPI PUSH2 0x1BC7 PUSH2 0x1728 JUMP JUMPDEST JUMPDEST PUSH1 0x0 PUSH2 0x1BD6 DUP5 DUP3 DUP6 ADD PUSH2 0x1B9D JUMP JUMPDEST SWAP2 POP POP SWAP3 SWAP2 POP POP JUMP JUMPDEST PUSH1 0x0 DUP3 DUP3 MSTORE PUSH1 0x20 DUP3 ADD SWAP1 POP SWAP3 SWAP2 POP POP JUMP JUMPDEST PUSH1 0x0 PUSH2 0x1BFB DUP3 PUSH2 0x1A4F JUMP JUMPDEST PUSH2 0x1C05 DUP2 DUP6 PUSH2 0x1BDF JUMP JUMPDEST SWAP4 POP PUSH2 0x1C15 DUP2 DUP6 PUSH1 0x20 DUP7 ADD PUSH2 0x1A6B JUMP JUMPDEST PUSH2 0x1C1E DUP2 PUSH2 0x173C JUMP JUMPDEST DUP5 ADD SWAP2 POP POP SWAP3 SWAP2 POP POP JUMP JUMPDEST PUSH1 0x0 PUSH1 0x20 DUP3 ADD SWAP1 POP DUP2 DUP2 SUB PUSH1 0x0 DUP4 ADD MSTORE PUSH2 0x1C43 DUP2 DUP5 PUSH2 0x1BF0 JUMP JUMPDEST SWAP1 POP SWAP3 SWAP2 POP POP JUMP JUMPDEST PUSH1 0x0 DUP2 ISZERO ISZERO SWAP1 POP SWAP2 SWAP1 POP JUMP JUMPDEST PUSH2 0x1C60 DUP2 PUSH2 0x1C4B JUMP JUMPDEST DUP2 EQ PUSH2 0x1C6B JUMPI PUSH1 0x0 DUP1 REVERT JUMPDEST POP JUMP JUMPDEST PUSH1 0x0 DUP2 CALLDATALOAD SWAP1 POP PUSH2 0x1C7D DUP2 PUSH2 0x1C57 JUMP JUMPDEST SWAP3 SWAP2 POP POP JUMP JUMPDEST PUSH1 0x0 DUP1 PUSH1 0x40 DUP4 DUP6 SUB SLT ISZERO PUSH2 0x1C9A JUMPI PUSH2 0x1C99 PUSH2 0x1728 JUMP JUMPDEST JUMPDEST PUSH1 0x0 DUP4 ADD CALLDATALOAD PUSH8 0xFFFFFFFFFFFFFFFF DUP2 GT ISZERO PUSH2 0x1CB8 JUMPI PUSH2 0x1CB7 PUSH2 0x172D JUMP JUMPDEST JUMPDEST PUSH2 0x1CC4 DUP6 DUP3 DUP7 ADD PUSH2 0x184A JUMP JUMPDEST SWAP3 POP POP PUSH1 0x20 PUSH2 0x1CD5 DUP6 DUP3 DUP7 ADD PUSH2 0x1C6E JUMP JUMPDEST SWAP2 POP POP SWAP3 POP SWAP3 SWAP1 POP JUMP JUMPDEST PUSH2 0x1CE8 DUP2 PUSH2 0x1C4B JUMP JUMPDEST DUP3 MSTORE POP POP JUMP JUMPDEST PUSH1 0x0 PUSH1 0x20 DUP3 ADD SWAP1 POP PUSH2 0x1D03 PUSH1 0x0 DUP4 ADD DUP5 PUSH2 0x1CDF JUMP JUMPDEST SWAP3 SWAP2 POP POP JUMP JUMPDEST PUSH2 0x1D12 DUP2 PUSH2 0x191C JUMP JUMPDEST DUP3 MSTORE POP POP JUMP JUMPDEST PUSH1 0x0 PUSH1 0x20 DUP3 ADD SWAP1 POP PUSH2 0x1D2D PUSH1 0x0 DUP4 ADD DUP5 PUSH2 0x1D09 JUMP JUMPDEST SWAP3 SWAP2 POP POP JUMP JUMPDEST PUSH1 0x0 DUP1 PUSH1 0x40 DUP4 DUP6 SUB SLT ISZERO PUSH2 0x1D4A JUMPI PUSH2 0x1D49 PUSH2 0x1728 JUMP JUMPDEST JUMPDEST PUSH1 0x0 DUP4 ADD CALLDATALOAD PUSH8 0xFFFFFFFFFFFFFFFF DUP2 GT ISZERO PUSH2 0x1D68 JUMPI PUSH2 0x1D67 PUSH2 0x172D JUMP JUMPDEST JUMPDEST PUSH2 0x1D74 DUP6 DUP3 DUP7 ADD PUSH2 0x184A JUMP JUMPDEST SWAP3 POP POP PUSH1 0x20 PUSH2 0x1D85 DUP6 DUP3 DUP7 ADD PUSH2 0x1B9D JUMP JUMPDEST SWAP2 POP POP SWAP3 POP SWAP3 SWAP1 POP JUMP JUMPDEST PUSH1 0x0 DUP2 SWAP1 POP SWAP3 SWAP2 POP POP JUMP JUMPDEST PUSH1 0x0 PUSH2 0x1DA5 DUP3 PUSH2 0x1A4F JUMP JUMPDEST PUSH2 0x1DAF DUP2 DUP6 PUSH2 0x1D8F JUMP JUMPDEST SWAP4 POP PUSH2 0x1DBF DUP2 DUP6 PUSH1 0x20 DUP7 ADD PUSH2 0x1A6B JUMP JUMPDEST DUP1 DUP5 ADD SWAP2 POP POP SWAP3 SWAP2 POP POP JUMP JUMPDEST PUSH1 0x0 PUSH2 0x1DD7 DUP3 DUP5 PUSH2 0x1D9A JUMP JUMPDEST SWAP2 POP DUP2 SWAP1 POP SWAP3 SWAP2 POP POP JUMP JUMPDEST PUSH32 0x4163636573732044656E69656400000000000000000000000000000000000000 PUSH1 0x0 DUP3 ADD MSTORE POP JUMP JUMPDEST PUSH1 0x0 PUSH2 0x1E18 PUSH1 0xD DUP4 PUSH2 0x1BDF JUMP JUMPDEST SWAP2 POP PUSH2 0x1E23 DUP3 PUSH2 0x1DE2 JUMP JUMPDEST PUSH1 0x20 DUP3 ADD SWAP1 POP SWAP2 SWAP1 POP JUMP JUMPDEST PUSH1 0x0 PUSH1 0x20 DUP3 ADD SWAP1 POP DUP2 DUP2 SUB PUSH1 0x0 DUP4 ADD MSTORE PUSH2 0x1E47 DUP2 PUSH2 0x1E0B JUMP JUMPDEST SWAP1 POP SWAP2 SWAP1 POP JUMP JUMPDEST PUSH32 0x416C72656164792044656E696564000000000000000000000000000000000000 PUSH1 0x0 DUP3 ADD MSTORE POP JUMP JUMPDEST PUSH1 0x0 PUSH2 0x1E84 PUSH1 0xE DUP4 PUSH2 0x1BDF JUMP JUMPDEST SWAP2 POP PUSH2 0x1E8F DUP3 PUSH2 0x1E4E JUMP JUMPDEST PUSH1 0x20 DUP3 ADD SWAP1 POP SWAP2 SWAP1 POP JUMP JUMPDEST PUSH1 0x0 PUSH1 0x20 DUP3 ADD SWAP1 POP DUP2 DUP2 SUB PUSH1 0x0 DUP4 ADD MSTORE PUSH2 0x1EB3 DUP2 PUSH2 0x1E77 JUMP JUMPDEST SWAP1 POP SWAP2 SWAP1 POP JUMP JUMPDEST PUSH32 0x4E487B7100000000000000000000000000000000000000000000000000000000 PUSH1 0x0 MSTORE PUSH1 0x11 PUSH1 0x4 MSTORE PUSH1 0x24 PUSH1 0x0 REVERT JUMPDEST PUSH1 0x0 PUSH2 0x1EF4 DUP3 PUSH2 0x191C JUMP JUMPDEST SWAP2 POP PUSH2 0x1EFF DUP4 PUSH2 0x191C JUMP JUMPDEST SWAP3 POP DUP3 DUP3 SUB SWAP1 POP DUP2 DUP2 GT ISZERO PUSH2 0x1F17 JUMPI PUSH2 0x1F16 PUSH2 0x1EBA JUMP JUMPDEST JUMPDEST SWAP3 SWAP2 POP POP JUMP JUMPDEST PUSH32 0x4E487B7100000000000000000000000000000000000000000000000000000000 PUSH1 0x0 MSTORE PUSH1 0x32 PUSH1 0x4 MSTORE PUSH1 0x24 PUSH1 0x0 REVERT JUMPDEST PUSH32 0x4E487B7100000000000000000000000000000000000000000000000000000000 PUSH1 0x0 MSTORE PUSH1 0x22 PUSH1 0x4 MSTORE PUSH1 0x24 PUSH1 0x0 REVERT JUMPDEST PUSH1 0x0 PUSH1 0x2 DUP3 DIV SWAP1 POP PUSH1 0x1 DUP3 AND DUP1 PUSH2 0x1F93 JUMPI PUSH1 0x7F DUP3 AND SWAP2 POP JUMPDEST PUSH1 0x20 DUP3 LT DUP2 SUB PUSH2 0x1FA6 JUMPI PUSH2 0x1FA5 PUSH2 0x1F4C JUMP JUMPDEST JUMPDEST POP SWAP2 SWAP1 POP JUMP JUMPDEST PUSH1 0x0 DUP2 SWAP1 POP DUP2 PUSH1 0x0 MSTORE PUSH1 0x20 PUSH1 0x0 KECCAK256 SWAP1 POP SWAP2 SWAP1 POP JUMP JUMPDEST PUSH1 0x0 DUP2 SLOAD PUSH2 0x1FCE DUP2 PUSH2 0x1F7B JUMP JUMPDEST PUSH2 0x1FD8 DUP2 DUP7 PUSH2 0x1D8F JUMP JUMPDEST SWAP5 POP PUSH1 0x1 DUP3 AND PUSH1 0x0 DUP2 EQ PUSH2 0x1FF3 JUMPI PUSH1 0x1 DUP2 EQ PUSH2 0x2008 JUMPI PUSH2 0x203B JUMP JUMPDEST PUSH1 0xFF NOT DUP4 AND DUP7 MSTORE DUP2 ISZERO ISZERO DUP3 MUL DUP7 ADD SWAP4 POP PUSH2 0x203B JUMP JUMPDEST PUSH2 0x2011 DUP6 PUSH2 0x1FAC JUMP JUMPDEST PUSH1 0x0 JUMPDEST DUP4 DUP2 LT ISZERO PUSH2 0x2033 JUMPI DUP2 SLOAD DUP2 DUP10 ADD MSTORE PUSH1 0x1 DUP3 ADD SWAP2 POP PUSH1 0x20 DUP2 ADD SWAP1 POP PUSH2 0x2014 JUMP JUMPDEST DUP4 DUP9 ADD SWAP6 POP POP POP JUMPDEST POP POP POP SWAP3 SWAP2 POP POP JUMP JUMPDEST PUSH1 0x0 PUSH2 0x2050 DUP3 DUP5 PUSH2 0x1FC1 JUMP JUMPDEST SWAP2 POP DUP2 SWAP1 POP SWAP3 SWAP2 POP POP JUMP JUMPDEST PUSH1 0x0 PUSH2 0x2066 DUP3 PUSH2 0x191C JUMP JUMPDEST SWAP2 POP PUSH32 0xFFFFFFFFFFFFFFFFFFFFFFFFFFFFFFFFFFFFFFFFFFFFFFFFFFFFFFFFFFFFFFFF DUP3 SUB PUSH2 0x2098 JUMPI PUSH2 0x2097 PUSH2 0x1EBA JUMP JUMPDEST JUMPDEST PUSH1 0x1 DUP3 ADD SWAP1 POP SWAP2 SWAP1 POP JUMP JUMPDEST PUSH1 0x0 PUSH1 0x20 PUSH1 0x1F DUP4 ADD DIV SWAP1 POP SWAP2 SWAP1 POP JUMP JUMPDEST PUSH1 0x0 DUP3 DUP3 SHL SWAP1 POP SWAP3 SWAP2 POP POP JUMP JUMPDEST PUSH1 0x0 PUSH1 0x8 DUP4 MUL PUSH2 0x20F0 PUSH32 0xFFFFFFFFFFFFFFFFFFFFFFFFFFFFFFFFFFFFFFFFFFFFFFFFFFFFFFFFFFFFFFFF DUP3 PUSH2 0x20B3 JUMP JUMPDEST PUSH2 0x20FA DUP7 DUP4 PUSH2 0x20B3 JUMP JUMPDEST SWAP6 POP DUP1 NOT DUP5 AND SWAP4 POP DUP1 DUP7 AND DUP5 OR SWAP3 POP POP POP SWAP4 SWAP3 POP POP POP JUMP JUMPDEST PUSH1 0x0 DUP2 SWAP1 POP SWAP2 SWAP1 POP JUMP JUMPDEST PUSH1 0x0 PUSH2 0x2137 PUSH2 0x2132 PUSH2 0x212D DUP5 PUSH2 0x191C JUMP JUMPDEST PUSH2 0x2112 JUMP JUMPDEST PUSH2 0x191C JUMP JUMPDEST SWAP1 POP SWAP2 SWAP1 POP JUMP JUMPDEST PUSH1 0x0 DUP2 SWAP1 POP SWAP2 SWAP1 POP JUMP JUMPDEST PUSH2 0x2151 DUP4 PUSH2 0x211C JUMP JUMPDEST PUSH2 0x2165 PUSH2 0x215D DUP3 PUSH2 0x213E JUMP JUMPDEST DUP5 DUP5 SLOAD PUSH2 0x20C0 JUMP JUMPDEST DUP3 SSTORE POP POP POP POP JUMP JUMPDEST PUSH1 0x0 SWAP1 JUMP JUMPDEST PUSH2 0x217A PUSH2 0x216D JUMP JUMPDEST PUSH2 0x2185 DUP2 DUP5 DUP5 PUSH2 0x2148 JUMP JUMPDEST POP POP POP JUMP JUMPDEST JUMPDEST DUP2 DUP2 LT ISZERO PUSH2 0x21A9 JUMPI PUSH2 0x219E PUSH1 0x0 DUP3 PUSH2 0x2172 JUMP JUMPDEST PUSH1 0x1 DUP2 ADD SWAP1 POP PUSH2 0x218B JUMP JUMPDEST POP POP JUMP JUMPDEST PUSH1 0x1F DUP3 GT ISZERO PUSH2 0x21EE JUMPI PUSH2 0x21BF DUP2 PUSH2 0x1FAC JUMP JUMPDEST PUSH2 0x21C8 DUP5 PUSH2 0x20A3 JUMP JUMPDEST DUP2 ADD PUSH1 0x20 DUP6 LT ISZERO PUSH2 0x21D7 JUMPI DUP2 SWAP1 POP JUMPDEST PUSH2 0x21EB PUSH2 0x21E3 DUP6 PUSH2 0x20A3 JUMP JUMPDEST DUP4 ADD DUP3 PUSH2 0x218A JUMP JUMPDEST POP POP JUMPDEST POP POP POP JUMP JUMPDEST PUSH1 0x0 DUP3 DUP3 SHR SWAP1 POP SWAP3 SWAP2 POP POP JUMP JUMPDEST PUSH1 0x0 PUSH2 0x2211 PUSH1 0x0 NOT DUP5 PUSH1 0x8 MUL PUSH2 0x21F3 JUMP JUMPDEST NOT DUP1 DUP4 AND SWAP2 POP POP SWAP3 SWAP2 POP POP JUMP JUMPDEST PUSH1 0x0 PUSH2 0x222A DUP4 DUP4 PUSH2 0x2200 JUMP JUMPDEST SWAP2 POP DUP3 PUSH1 0x2 MUL DUP3 OR SWAP1 POP SWAP3 SWAP2 POP POP JUMP JUMPDEST PUSH2 0x2243 DUP3 PUSH2 0x1A4F JUMP JUMPDEST PUSH8 0xFFFFFFFFFFFFFFFF DUP2 GT ISZERO PUSH2 0x225C JUMPI PUSH2 0x225B PUSH2 0x174D JUMP JUMPDEST JUMPDEST PUSH2 0x2266 DUP3 SLOAD PUSH2 0x1F7B JUMP JUMPDEST PUSH2 0x2271 DUP3 DUP3 DUP6 PUSH2 0x21AD JUMP JUMPDEST PUSH1 0x0 PUSH1 0x20 SWAP1 POP PUSH1 0x1F DUP4 GT PUSH1 0x1 DUP2 EQ PUSH2 0x22A4 JUMPI PUSH1 0x0 DUP5 ISZERO PUSH2 0x2292 JUMPI DUP3 DUP8 ADD MLOAD SWAP1 POP JUMPDEST PUSH2 0x229C DUP6 DUP3 PUSH2 0x221E JUMP JUMPDEST DUP7 SSTORE POP PUSH2 0x2304 JUMP JUMPDEST PUSH1 0x1F NOT DUP5 AND PUSH2 0x22B2 DUP7 PUSH2 0x1FAC JUMP JUMPDEST PUSH1 0x0 JUMPDEST DUP3 DUP2 LT ISZERO PUSH2 0x22DA JUMPI DUP5 DUP10 ADD MLOAD DUP3 SSTORE PUSH1 0x1 DUP3 ADD SWAP2 POP PUSH1 0x20 DUP6 ADD SWAP5 POP PUSH1 0x20 DUP2 ADD SWAP1 POP PUSH2 0x22B5 JUMP JUMPDEST DUP7 DUP4 LT ISZERO PUSH2 0x22F7 JUMPI DUP5 DUP10 ADD MLOAD PUSH2 0x22F3 PUSH1 0x1F DUP10 AND DUP3 PUSH2 0x2200 JUMP JUMPDEST DUP4 SSTORE POP JUMPDEST PUSH1 0x1 PUSH1 0x2 DUP9 MUL ADD DUP9 SSTORE POP POP POP JUMPDEST POP POP POP POP POP POP JUMP JUMPDEST PUSH32 0x4769766520612076616C696420616D6F756E7400000000000000000000000000 PUSH1 0x0 DUP3 ADD MSTORE POP JUMP JUMPDEST PUSH1 0x0 PUSH2 0x2342 PUSH1 0x13 DUP4 PUSH2 0x1BDF JUMP JUMPDEST SWAP2 POP PUSH2 0x234D DUP3 PUSH2 0x230C JUMP JUMPDEST PUSH1 0x20 DUP3 ADD SWAP1 POP SWAP2 SWAP1 POP JUMP JUMPDEST PUSH1 0x0 PUSH1 0x20 DUP3 ADD SWAP1 POP DUP2 DUP2 SUB PUSH1 0x0 DUP4 ADD MSTORE PUSH2 0x2371 DUP2 PUSH2 0x2335 JUMP JUMPDEST SWAP1 POP SWAP2 SWAP1 POP JUMP JUMPDEST PUSH32 0x416C726561647920417070726F76656400000000000000000000000000000000 PUSH1 0x0 DUP3 ADD MSTORE POP JUMP JUMPDEST PUSH1 0x0 PUSH2 0x23AE PUSH1 0x10 DUP4 PUSH2 0x1BDF JUMP JUMPDEST SWAP2 POP PUSH2 0x23B9 DUP3 PUSH2 0x2378 JUMP JUMPDEST PUSH1 0x20 DUP3 ADD SWAP1 POP SWAP2 SWAP1 POP JUMP JUMPDEST PUSH1 0x0 PUSH1 0x20 DUP3 ADD SWAP1 POP DUP2 DUP2 SUB PUSH1 0x0 DUP4 ADD MSTORE PUSH2 0x23DD DUP2 PUSH2 0x23A1 JUMP JUMPDEST SWAP1 POP SWAP2 SWAP1 POP JUMP JUMPDEST PUSH1 0x0 PUSH2 0x23EF DUP3 PUSH2 0x191C JUMP JUMPDEST SWAP2 POP PUSH2 0x23FA DUP4 PUSH2 0x191C JUMP JUMPDEST SWAP3 POP DUP3 DUP3 ADD SWAP1 POP DUP1 DUP3 GT ISZERO PUSH2 0x2412 JUMPI PUSH2 0x2411 PUSH2 0x1EBA JUMP JUMPDEST JUMPDEST SWAP3 SWAP2 POP POP JUMP JUMPDEST PUSH32 0x5265656E7472616E637947756172643A207265656E7472616E742063616C6C00 PUSH1 0x0 DUP3 ADD MSTORE POP JUMP JUMPDEST PUSH1 0x0 PUSH2 0x244E PUSH1 0x1F DUP4 PUSH2 0x1BDF JUMP JUMPDEST SWAP2 POP PUSH2 0x2459 DUP3 PUSH2 0x2418 JUMP JUMPDEST PUSH1 0x20 DUP3 ADD SWAP1 POP SWAP2 SWAP1 POP JUMP JUMPDEST PUSH1 0x0 PUSH1 0x20 DUP3 ADD SWAP1 POP DUP2 DUP2 SUB PUSH1 0x0 DUP4 ADD MSTORE PUSH2 0x247D DUP2 PUSH2 0x2441 JUMP JUMPDEST SWAP1 POP SWAP2 SWAP1 POP JUMP INVALID LOG2 PUSH5 0x6970667358 0x22 SLT KECCAK256 KECCAK256 SDIV 0xC SELFDESTRUCT 0xDA 0xD2 AND 0xBF GASLIMIT 0xDB 0xBF 0xE1 0xC2 LOG4 0x5E SUB DUP10 0x5E NOT 0xBD 0x2E PUSH30 0x39DFFC9ADB406B61E68664736F6C63430008140033000000000000000000 "},"methodIdentifiers":{"addDocuments(string,uint256)":"ac96b8aa","approve(string,string)":"778f3de0","createDocter(string)":"26bf0a38","createPatient(string)":"2383c44e","createToken(string)":"45576f94","donateMoney(string,bool)":"3fd9d184","getDocters(string)":"e1c83bdc","getPatientDetails(string,string)":"09d1fc33","getPatients(string)":"24a8fd34","getTokenIds()":"67f718a9","getTokenURI(uint256)":"3bb3a24d","revoke(string,string)":"10b40f85"}}}}}