{"contracts/accessrights.sol":{"RolesAndRights":{"abi":[{"inputs":[],"stateMutability":"nonpayable","type":"constructor"},{"anonymous":false,"inputs":[{"indexed":true,"internalType":"uint256","name":"docterId","type":"uint256"},{"indexed":true,"internalType":"string","name":"email","type":"string"}],"name":"DocterCreated","type":"event"},{"anonymous":false,"inputs":[{"indexed":true,"internalType":"uint256","name":"patientId","type":"uint256"},{"indexed":true,"internalType":"string","name":"email","type":"string"}],"name":"PatientCreated","type":"event"},{"anonymous":false,"inputs":[{"indexed":true,"internalType":"string","name":"email","type":"string"},{"indexed":false,"internalType":"uint256","name":"money","type":"uint256"}],"name":"moneyReceived","type":"event"},{"anonymous":false,"inputs":[{"indexed":true,"internalType":"uint256","name":"tokenId","type":"uint256"}],"name":"tokenIdCreated","type":"event"},{"inputs":[{"internalType":"string","name":"email","type":"string"},{"internalType":"uint256","name":"tokenId","type":"uint256"}],"name":"addDocuments","outputs":[],"stateMutability":"nonpayable","type":"function"},{"inputs":[{"internalType":"string","name":"emailD","type":"string"},{"internalType":"string","name":"emailP","type":"string"}],"name":"approve","outputs":[],"stateMutability":"nonpayable","type":"function"},{"inputs":[{"internalType":"string","name":"email","type":"string"}],"name":"createDocter","outputs":[],"stateMutability":"nonpayable","type":"function"},{"inputs":[{"internalType":"string","name":"email","type":"string"}],"name":"createPatient","outputs":[],"stateMutability":"nonpayable","type":"function"},{"inputs":[{"internalType":"string","name":"tokenURI","type":"string"}],"name":"createToken","outputs":[],"stateMutability":"nonpayable","type":"function"},{"inputs":[{"internalType":"string","name":"email","type":"string"},{"internalType":"bool","name":"anon","type":"bool"}],"name":"donateMoney","outputs":[{"internalType":"bool","name":"","type":"bool"}],"stateMutability":"payable","type":"function"},{"inputs":[{"internalType":"string","name":"email","type":"string"}],"name":"getDocters","outputs":[{"internalType":"string[]","name":"","type":"string[]"}],"stateMutability":"view","type":"function"},{"inputs":[{"internalType":"string","name":"emailP","type":"string"},{"internalType":"string","name":"emailD","type":"string"}],"name":"getPatientDetails","outputs":[{"internalType":"uint256[]","name":"","type":"uint256[]"}],"stateMutability":"view","type":"function"},{"inputs":[{"internalType":"string","name":"email","type":"string"}],"name":"getPatients","outputs":[{"internalType":"string[]","name":"","type":"string[]"}],"stateMutability":"view","type":"function"},{"inputs":[],"name":"getTokenIds","outputs":[{"internalType":"uint256","name":"","type":"uint256"}],"stateMutability":"view","type":"function"},{"inputs":[{"internalType":"uint256","name":"tokenId","type":"uint256"}],"name":"getTokenURI","outputs":[{"internalType":"string","name":"","type":"string"}],"stateMutability":"view","type":"function"},{"inputs":[{"internalType":"string","name":"emailD","type":"string"},{"internalType":"string","name":"emailP","type":"string"}],"name":"revoke","outputs":[],"stateMutability":"nonpayable","type":"function"}],"evm":{"bytecode":{"linkReferences":{},"object":"608060405234801561001057600080fd5b50600160008190555033600460006101000a81548173ffffffffffffffffffffffffffffffffffffffff021916908373ffffffffffffffffffffffffffffffffffffffff16021790555060006001819055506000600281905550600060038190555061250d806100816000396000f3fe6080604052600436106100a75760003560e01c80633fd9d184116100645780633fd9d184146101de57806345576f941461020e57806367f718a914610237578063778f3de014610262578063ac96b8aa1461028b578063e1c83bdc146102b4576100a7565b806309d1fc33146100ac57806310b40f85146100e95780632383c44e1461011257806324a8fd341461013b57806326bf0a38146101785780633bb3a24d146101a1575b600080fd5b3480156100b857600080fd5b506100d360048036038101906100ce91906118cb565b6102f1565b6040516100e09190611a0b565b60405180910390f35b3480156100f557600080fd5b50610110600480360381019061010b91906118cb565b6103f9565b005b34801561011e57600080fd5b5061013960048036038101906101349190611a2d565b6109ad565b005b34801561014757600080fd5b50610162600480360381019061015d9190611a2d565b610b13565b60405161016f9190611bb7565b60405180910390f35b34801561018457600080fd5b5061019f600480360381019061019a9190611a2d565b610c0d565b005b3480156101ad57600080fd5b506101c860048036038101906101c39190611c05565b610cfb565b6040516101d59190611c7c565b60405180910390f35b6101f860048036038101906101f39190611cd6565b610da0565b6040516102059190611d41565b60405180910390f35b34801561021a57600080fd5b5061023560048036038101906102309190611a2d565b610e52565b005b34801561024357600080fd5b5061024c610ecf565b6040516102599190611d6b565b60405180910390f35b34801561026e57600080fd5b50610289600480360381019061028491906118cb565b610ed9565b005b34801561029757600080fd5b506102b260048036038101906102ad9190611d86565b61138d565b005b3480156102c057600080fd5b506102db60048036038101906102d69190611a2d565b6114f7565b6040516102e89190611bb7565b60405180910390f35b6060600115156007836040516103079190611e1e565b9081526020016040518091039020846040516103239190611e1e565b908152602001604051809103902060009054906101000a900460ff16151514610381576040517f08c379a000000000000000000000000000000000000000000000000000000000815260040161037890611e81565b60405180910390fd5b6006836040516103919190611e1e565b90815260200160405180910390206003018054806020026020016040519081016040528092919081815260200182805480156103ec57602002820191906000526020600020905b8154815260200190600101908083116103d8575b5050505050905092915050565b6104016115f1565b600115156007836040516104159190611e1e565b9081526020016040518091039020826040516104319190611e1e565b908152602001604051809103902060009054906101000a900460ff1615151461048f576040517f08c379a000000000000000000000000000000000000000000000000000000000815260040161048690611eed565b60405180910390fd5b60006007836040516104a19190611e1e565b9081526020016040518091039020826040516104bd9190611e1e565b908152602001604051809103902060006101000a81548160ff02191690831515021790555060006006826040516104f49190611e1e565b9081526020016040518091039020600201805490509050600060018261051a9190611f3c565b67ffffffffffffffff811115610533576105326117a0565b5b60405190808252806020026020018201604052801561056657816020015b60608152602001906001900390816105515790505b5090506000805b8381101561070857856040516020016105869190611e1e565b604051602081830303815290604052805190602001206006866040516105ac9190611e1e565b908152602001604051809103902060020182815481106105cf576105ce611f70565b5b906000526020600020016040516020016105e99190612097565b60405160208183030381529060405280519060200120146106f5576006856040516106149190611e1e565b9081526020016040518091039020600201818154811061063757610636611f70565b5b90600052602060002001805461064c90611fce565b80601f016020809104026020016040519081016040528092919081815260200182805461067890611fce565b80156106c55780601f1061069a576101008083540402835291602001916106c5565b820191906000526020600020905b8154815290600101906020018083116106a857829003601f168201915b50505050508383806106d6906120ae565b9450815181106106e9576106e8611f70565b5b60200260200101819052505b8080610700906120ae565b91505061056d565b508160068560405161071a9190611e1e565b9081526020016040518091039020600201908051906020019061073e92919061164a565b5060088560405161074f9190611e1e565b908152602001604051809103902060020180549050925060006001846107759190611f3c565b67ffffffffffffffff81111561078e5761078d6117a0565b5b6040519080825280602002602001820160405280156107c157816020015b60608152602001906001900390816107ac5790505b5090506000915060005b8481101561096657856040516020016107e49190611e1e565b6040516020818303038152906040528051906020012060088860405161080a9190611e1e565b9081526020016040518091039020600201828154811061082d5761082c611f70565b5b906000526020600020016040516020016108479190612097565b6040516020818303038152906040528051906020012014610953576008876040516108729190611e1e565b9081526020016040518091039020600201818154811061089557610894611f70565b5b9060005260206000200180546108aa90611fce565b80601f01602080910402602001604051908101604052809291908181526020018280546108d690611fce565b80156109235780601f106108f857610100808354040283529160200191610923565b820191906000526020600020905b81548152906001019060200180831161090657829003601f168201915b5050505050828480610934906120ae565b95508151811061094757610946611f70565b5b60200260200101819052505b808061095e906120ae565b9150506107cb565b50806008876040516109789190611e1e565b9081526020016040518091039020600201908051906020019061099c92919061164a565b50505050506109a9611640565b5050565b6109b56115f1565b600260008154809291906109c8906120ae565b91905055506060806040518060800160405280600254815260200184815260200183815260200182815250600684604051610a039190611e1e565b9081526020016040518091039020600082015181600001556020820151816001019081610a30919061228d565b506040820151816002019080519060200190610a4d92919061164a565b506060820151816003019080519060200190610a6a9291906116a3565b509050506001600784604051610a809190611e1e565b908152602001604051809103902084604051610a9c9190611e1e565b908152602001604051809103902060006101000a81548160ff02191690831515021790555082604051610acf9190611e1e565b60405180910390206002547f134fda0ae4fafca781b872311cca14ccbfaf969fd15c52f58e9a93de5d23180760405160405180910390a35050610b10611640565b50565b6060600882604051610b259190611e1e565b9081526020016040518091039020600201805480602002602001604051908101604052809291908181526020016000905b82821015610c02578382906000526020600020018054610b7590611fce565b80601f0160208091040260200160405190810160405280929190818152602001828054610ba190611fce565b8015610bee5780601f10610bc357610100808354040283529160200191610bee565b820191906000526020600020905b815481529060010190602001808311610bd157829003601f168201915b505050505081526020019060010190610b56565b505050509050919050565b610c156115f1565b60016000815480929190610c28906120ae565b919050555060606040518060600160405280600154815260200183815260200182815250600883604051610c5c9190611e1e565b9081526020016040518091039020600082015181600001556020820151816001019081610c89919061228d565b506040820151816002019080519060200190610ca692919061164a565b5090505081604051610cb89190611e1e565b60405180910390206001547fea156934655ce49eb3a326e33cd7089b144169217ba22211032479b6b429372560405160405180910390a350610cf8611640565b50565b6060600560008381526020019081526020016000208054610d1b90611fce565b80601f0160208091040260200160405190810160405280929190818152602001828054610d4790611fce565b8015610d945780601f10610d6957610100808354040283529160200191610d94565b820191906000526020600020905b815481529060010190602001808311610d7757829003601f168201915b50505050509050919050565b6000610daa6115f1565b60003411610ded576040517f08c379a0000000000000000000000000000000000000000000000000000000008152600401610de4906123ab565b60405180910390fd5b81610e405782604051610e009190611e1e565b60405180910390207fd76f471a6cfd25ffcda8864cd32f43f578933212dad6affaa5ac113086c5c54634604051610e379190611d6b565b60405180910390a25b60019050610e4c611640565b92915050565b610e5a6115f1565b60036000815480929190610e6d906120ae565b9190505550806005600060035481526020019081526020016000209081610e94919061228d565b506003547f0c01e484cc8325eff46e7cfc59a0995a96e6c979aaa3b2000bd9e1ab6e813a4560405160405180910390a2610ecc611640565b50565b6000600354905090565b610ee16115f1565b60001515600783604051610ef59190611e1e565b908152602001604051809103902082604051610f119190611e1e565b908152602001604051809103902060009054906101000a900460ff16151514610f6f576040517f08c379a0000000000000000000000000000000000000000000000000000000008152600401610f6690612417565b60405180910390fd5b6001600783604051610f819190611e1e565b908152602001604051809103902082604051610f9d9190611e1e565b908152602001604051809103902060006101000a81548160ff0219169083151502179055506000600682604051610fd49190611e1e565b90815260200160405180910390206002018054905090506000600182610ffa9190612437565b67ffffffffffffffff811115611013576110126117a0565b5b60405190808252806020026020018201604052801561104657816020015b60608152602001906001900390816110315790505b5090508381838151811061105d5761105c611f70565b5b602002602001018190525060005b8281101561116a576006846040516110839190611e1e565b908152602001604051809103902060020181815481106110a6576110a5611f70565b5b9060005260206000200180546110bb90611fce565b80601f01602080910402602001604051908101604052809291908181526020018280546110e790611fce565b80156111345780601f1061110957610100808354040283529160200191611134565b820191906000526020600020905b81548152906001019060200180831161111757829003601f168201915b505050505082828151811061114c5761114b611f70565b5b60200260200101819052508080611162906120ae565b91505061106b565b508060068460405161117c9190611e1e565b908152602001604051809103902060020190805190602001906111a092919061164a565b506008846040516111b19190611e1e565b908152602001604051809103902060020180549050915060006001836111d79190612437565b67ffffffffffffffff8111156111f0576111ef6117a0565b5b60405190808252806020026020018201604052801561122357816020015b606081526020019060019003908161120e5790505b5090508381848151811061123a57611239611f70565b5b602002602001018190525060005b83811015611347576008866040516112609190611e1e565b9081526020016040518091039020600201818154811061128357611282611f70565b5b90600052602060002001805461129890611fce565b80601f01602080910402602001604051908101604052809291908181526020018280546112c490611fce565b80156113115780601f106112e657610100808354040283529160200191611311565b820191906000526020600020905b8154815290600101906020018083116112f457829003601f168201915b505050505082828151811061132957611328611f70565b5b6020026020010181905250808061133f906120ae565b915050611248565b50806008866040516113599190611e1e565b9081526020016040518091039020600201908051906020019061137d92919061164a565b50505050611389611640565b5050565b6113956115f1565b60006006836040516113a79190611e1e565b908152602001604051809103902060030180549050905060006001826113cd9190612437565b67ffffffffffffffff8111156113e6576113e56117a0565b5b6040519080825280602002602001820160405280156114145781602001602082028036833780820191505090505b5090508281838151811061142b5761142a611f70565b5b60200260200101818152505060005b828110156114b2576006856040516114529190611e1e565b9081526020016040518091039020600301818154811061147557611474611f70565b5b906000526020600020015482828151811061149357611492611f70565b5b60200260200101818152505080806114aa906120ae565b91505061143a565b50806006856040516114c49190611e1e565b908152602001604051809103902060030190805190602001906114e89291906116a3565b5050506114f3611640565b5050565b60606006826040516115099190611e1e565b9081526020016040518091039020600201805480602002602001604051908101604052809291908181526020016000905b828210156115e657838290600052602060002001805461155990611fce565b80601f016020809104026020016040519081016040528092919081815260200182805461158590611fce565b80156115d25780601f106115a7576101008083540402835291602001916115d2565b820191906000526020600020905b8154815290600101906020018083116115b557829003601f168201915b50505050508152602001906001019061153a565b505050509050919050565b600260005403611636576040517f08c379a000000000000000000000000000000000000000000000000000000000815260040161162d906124b7565b60405180910390fd5b6002600081905550565b6001600081905550565b828054828255906000526020600020908101928215611692579160200282015b82811115611691578251829081611681919061228d565b509160200191906001019061166a565b5b50905061169f91906116f0565b5090565b8280548282559060005260206000209081019282156116df579160200282015b828111156116de5782518255916020019190600101906116c3565b5b5090506116ec9190611714565b5090565b5b8082111561171057600081816117079190611731565b506001016116f1565b5090565b5b8082111561172d576000816000905550600101611715565b5090565b50805461173d90611fce565b6000825580601f1061174f575061176e565b601f01602090049060005260206000209081019061176d9190611714565b5b50565b6000604051905090565b600080fd5b600080fd5b600080fd5b600080fd5b6000601f19601f8301169050919050565b7f4e487b7100000000000000000000000000000000000000000000000000000000600052604160045260246000fd5b6117d88261178f565b810181811067ffffffffffffffff821117156117f7576117f66117a0565b5b80604052505050565b600061180a611771565b905061181682826117cf565b919050565b600067ffffffffffffffff821115611836576118356117a0565b5b61183f8261178f565b9050602081019050919050565b82818337600083830152505050565b600061186e6118698461181b565b611800565b90508281526020810184848401111561188a5761188961178a565b5b61189584828561184c565b509392505050565b600082601f8301126118b2576118b1611785565b5b81356118c284826020860161185b565b91505092915050565b600080604083850312156118e2576118e161177b565b5b600083013567ffffffffffffffff811115611900576118ff611780565b5b61190c8582860161189d565b925050602083013567ffffffffffffffff81111561192d5761192c611780565b5b6119398582860161189d565b9150509250929050565b600081519050919050565b600082825260208201905092915050565b6000819050602082019050919050565b6000819050919050565b6119828161196f565b82525050565b60006119948383611979565b60208301905092915050565b6000602082019050919050565b60006119b882611943565b6119c2818561194e565b93506119cd8361195f565b8060005b838110156119fe5781516119e58882611988565b97506119f0836119a0565b9250506001810190506119d1565b5085935050505092915050565b60006020820190508181036000830152611a2581846119ad565b905092915050565b600060208284031215611a4357611a4261177b565b5b600082013567ffffffffffffffff811115611a6157611a60611780565b5b611a6d8482850161189d565b91505092915050565b600081519050919050565b600082825260208201905092915050565b6000819050602082019050919050565b600081519050919050565b600082825260208201905092915050565b60005b83811015611adc578082015181840152602081019050611ac1565b60008484015250505050565b6000611af382611aa2565b611afd8185611aad565b9350611b0d818560208601611abe565b611b168161178f565b840191505092915050565b6000611b2d8383611ae8565b905092915050565b6000602082019050919050565b6000611b4d82611a76565b611b578185611a81565b935083602082028501611b6985611a92565b8060005b85811015611ba55784840389528151611b868582611b21565b9450611b9183611b35565b925060208a01995050600181019050611b6d565b50829750879550505050505092915050565b60006020820190508181036000830152611bd18184611b42565b905092915050565b611be28161196f565b8114611bed57600080fd5b50565b600081359050611bff81611bd9565b92915050565b600060208284031215611c1b57611c1a61177b565b5b6000611c2984828501611bf0565b91505092915050565b600082825260208201905092915050565b6000611c4e82611aa2565b611c588185611c32565b9350611c68818560208601611abe565b611c718161178f565b840191505092915050565b60006020820190508181036000830152611c968184611c43565b905092915050565b60008115159050919050565b611cb381611c9e565b8114611cbe57600080fd5b50565b600081359050611cd081611caa565b92915050565b60008060408385031215611ced57611cec61177b565b5b600083013567ffffffffffffffff811115611d0b57611d0a611780565b5b611d178582860161189d565b9250506020611d2885828601611cc1565b9150509250929050565b611d3b81611c9e565b82525050565b6000602082019050611d566000830184611d32565b92915050565b611d658161196f565b82525050565b6000602082019050611d806000830184611d5c565b92915050565b60008060408385031215611d9d57611d9c61177b565b5b600083013567ffffffffffffffff811115611dbb57611dba611780565b5b611dc78582860161189d565b9250506020611dd885828601611bf0565b9150509250929050565b600081905092915050565b6000611df882611aa2565b611e028185611de2565b9350611e12818560208601611abe565b80840191505092915050565b6000611e2a8284611ded565b915081905092915050565b7f4163636573732044656e69656400000000000000000000000000000000000000600082015250565b6000611e6b600d83611c32565b9150611e7682611e35565b602082019050919050565b60006020820190508181036000830152611e9a81611e5e565b9050919050565b7f416c72656164792044656e696564000000000000000000000000000000000000600082015250565b6000611ed7600e83611c32565b9150611ee282611ea1565b602082019050919050565b60006020820190508181036000830152611f0681611eca565b9050919050565b7f4e487b7100000000000000000000000000000000000000000000000000000000600052601160045260246000fd5b6000611f478261196f565b9150611f528361196f565b9250828203905081811115611f6a57611f69611f0d565b5b92915050565b7f4e487b7100000000000000000000000000000000000000000000000000000000600052603260045260246000fd5b7f4e487b7100000000000000000000000000000000000000000000000000000000600052602260045260246000fd5b60006002820490506001821680611fe657607f821691505b602082108103611ff957611ff8611f9f565b5b50919050565b60008190508160005260206000209050919050565b6000815461202181611fce565b61202b8186611de2565b94506001821660008114612046576001811461205b5761208e565b60ff198316865281151582028601935061208e565b61206485611fff565b60005b8381101561208657815481890152600182019150602081019050612067565b838801955050505b50505092915050565b60006120a38284612014565b915081905092915050565b60006120b98261196f565b91507fffffffffffffffffffffffffffffffffffffffffffffffffffffffffffffffff82036120eb576120ea611f0d565b5b600182019050919050565b60006020601f8301049050919050565b600082821b905092915050565b6000600883026121437fffffffffffffffffffffffffffffffffffffffffffffffffffffffffffffffff82612106565b61214d8683612106565b95508019841693508086168417925050509392505050565b6000819050919050565b600061218a6121856121808461196f565b612165565b61196f565b9050919050565b6000819050919050565b6121a48361216f565b6121b86121b082612191565b848454612113565b825550505050565b600090565b6121cd6121c0565b6121d881848461219b565b505050565b5b818110156121fc576121f16000826121c5565b6001810190506121de565b5050565b601f8211156122415761221281611fff565b61221b846120f6565b8101602085101561222a578190505b61223e612236856120f6565b8301826121dd565b50505b505050565b600082821c905092915050565b600061226460001984600802612246565b1980831691505092915050565b600061227d8383612253565b9150826002028217905092915050565b61229682611aa2565b67ffffffffffffffff8111156122af576122ae6117a0565b5b6122b98254611fce565b6122c4828285612200565b600060209050601f8311600181146122f757600084156122e5578287015190505b6122ef8582612271565b865550612357565b601f19841661230586611fff565b60005b8281101561232d57848901518255600182019150602085019450602081019050612308565b8683101561234a5784890151612346601f891682612253565b8355505b6001600288020188555050505b505050505050565b7f4769766520612076616c696420616d6f756e7400000000000000000000000000600082015250565b6000612395601383611c32565b91506123a08261235f565b602082019050919050565b600060208201905081810360008301526123c481612388565b9050919050565b7f416c726561647920417070726f76656400000000000000000000000000000000600082015250565b6000612401601083611c32565b915061240c826123cb565b602082019050919050565b60006020820190508181036000830152612430816123f4565b9050919050565b60006124428261196f565b915061244d8361196f565b925082820190508082111561246557612464611f0d565b5b92915050565b7f5265656e7472616e637947756172643a207265656e7472616e742063616c6c00600082015250565b60006124a1601f83611c32565b91506124ac8261246b565b602082019050919050565b600060208201905081810360008301526124d081612494565b905091905056fea2646970667358221220aa0a7bb5528e8038367d2f2ec5de8f459f27d5aded767d2c6f2527df72f9f46b64736f6c63430008140033","opcodes":"PUSH1 0x80 PUSH1 0x40 MSTORE CALLVALUE DUP1 ISZERO PUSH2 0x10 JUMPI PUSH1 0x0 DUP1 REVERT JUMPDEST POP PUSH1 0x1 PUSH1 0x0 DUP2 SWAP1 SSTORE POP CALLER PUSH1 0x4 PUSH1 0x0 PUSH2 0x100 EXP DUP2 SLOAD DUP2 PUSH20 0xFFFFFFFFFFFFFFFFFFFFFFFFFFFFFFFFFFFFFFFF MUL NOT AND SWAP1 DUP4 PUSH20 0xFFFFFFFFFFFFFFFFFFFFFFFFFFFFFFFFFFFFFFFF AND MUL OR SWAP1 SSTORE POP PUSH1 0x0 PUSH1 0x1 DUP2 SWAP1 SSTORE POP PUSH1 0x0 PUSH1 0x2 DUP2 SWAP1 SSTORE POP PUSH1 0x0 PUSH1 0x3 DUP2 SWAP1 SSTORE POP PUSH2 0x250D DUP1 PUSH2 0x81 PUSH1 0x0 CODECOPY PUSH1 0x0 RETURN INVALID PUSH1 0x80 PUSH1 0x40 MSTORE PUSH1 0x4 CALLDATASIZE LT PUSH2 0xA7 JUMPI PUSH1 0x0 CALLDATALOAD PUSH1 0xE0 SHR DUP1 PUSH4 0x3FD9D184 GT PUSH2 0x64 JUMPI DUP1 PUSH4 0x3FD9D184 EQ PUSH2 0x1DE JUMPI DUP1 PUSH4 0x45576F94 EQ PUSH2 0x20E JUMPI DUP1 PUSH4 0x67F718A9 EQ PUSH2 0x237 JUMPI DUP1 PUSH4 0x778F3DE0 EQ PUSH2 0x262 JUMPI DUP1 PUSH4 0xAC96B8AA EQ PUSH2 0x28B JUMPI DUP1 PUSH4 0xE1C83BDC EQ PUSH2 0x2B4 JUMPI PUSH2 0xA7 JUMP JUMPDEST DUP1 PUSH4 0x9D1FC33 EQ PUSH2 0xAC JUMPI DUP1 PUSH4 0x10B40F85 EQ PUSH2 0xE9 JUMPI DUP1 PUSH4 0x2383C44E EQ PUSH2 0x112 JUMPI DUP1 PUSH4 0x24A8FD34 EQ PUSH2 0x13B JUMPI DUP1 PUSH4 0x26BF0A38 EQ PUSH2 0x178 JUMPI DUP1 PUSH4 0x3BB3A24D EQ PUSH2 0x1A1 JUMPI JUMPDEST PUSH1 0x0 DUP1 REVERT JUMPDEST CALLVALUE DUP1 ISZERO PUSH2 0xB8 JUMPI PUSH1 0x0 DUP1 REVERT JUMPDEST POP PUSH2 0xD3 PUSH1 0x4 DUP1 CALLDATASIZE SUB DUP2 ADD SWAP1 PUSH2 0xCE SWAP2 SWAP1 PUSH2 0x18CB JUMP JUMPDEST PUSH2 0x2F1 JUMP JUMPDEST PUSH1 0x40 MLOAD PUSH2 0xE0 SWAP2 SWAP1 PUSH2 0x1A0B JUMP JUMPDEST PUSH1 0x40 MLOAD DUP1 SWAP2 SUB SWAP1 RETURN JUMPDEST CALLVALUE DUP1 ISZERO PUSH2 0xF5 JUMPI PUSH1 0x0 DUP1 REVERT JUMPDEST POP PUSH2 0x110 PUSH1 0x4 DUP1 CALLDATASIZE SUB DUP2 ADD SWAP1 PUSH2 0x10B SWAP2 SWAP1 PUSH2 0x18CB JUMP JUMPDEST PUSH2 0x3F9 JUMP JUMPDEST STOP JUMPDEST CALLVALUE DUP1 ISZERO PUSH2 0x11E JUMPI PUSH1 0x0 DUP1 REVERT JUMPDEST POP PUSH2 0x139 PUSH1 0x4 DUP1 CALLDATASIZE SUB DUP2 ADD SWAP1 PUSH2 0x134 SWAP2 SWAP1 PUSH2 0x1A2D JUMP JUMPDEST PUSH2 0x9AD JUMP JUMPDEST STOP JUMPDEST CALLVALUE DUP1 ISZERO PUSH2 0x147 JUMPI PUSH1 0x0 DUP1 REVERT JUMPDEST POP PUSH2 0x162 PUSH1 0x4 DUP1 CALLDATASIZE SUB DUP2 ADD SWAP1 PUSH2 0x15D SWAP2 SWAP1 PUSH2 0x1A2D JUMP JUMPDEST PUSH2 0xB13 JUMP JUMPDEST PUSH1 0x40 MLOAD PUSH2 0x16F SWAP2 SWAP1 PUSH2 0x1BB7 JUMP JUMPDEST PUSH1 0x40 MLOAD DUP1 SWAP2 SUB SWAP1 RETURN JUMPDEST CALLVALUE DUP1 ISZERO PUSH2 0x184 JUMPI PUSH1 0x0 DUP1 REVERT JUMPDEST POP PUSH2 0x19F PUSH1 0x4 DUP1 CALLDATASIZE SUB DUP2 ADD SWAP1 PUSH2 0x19A SWAP2 SWAP1 PUSH2 0x1A2D JUMP JUMPDEST PUSH2 0xC0D JUMP JUMPDEST STOP JUMPDEST CALLVALUE DUP1 ISZERO PUSH2 0x1AD JUMPI PUSH1 0x0 DUP1 REVERT JUMPDEST POP PUSH2 0x1C8 PUSH1 0x4 DUP1 CALLDATASIZE SUB DUP2 ADD SWAP1 PUSH2 0x1C3 SWAP2 SWAP1 PUSH2 0x1C05 JUMP JUMPDEST PUSH2 0xCFB JUMP JUMPDEST PUSH1 0x40 MLOAD PUSH2 0x1D5 SWAP2 SWAP1 PUSH2 0x1C7C JUMP JUMPDEST PUSH1 0x40 MLOAD DUP1 SWAP2 SUB SWAP1 RETURN JUMPDEST PUSH2 0x1F8 PUSH1 0x4 DUP1 CALLDATASIZE SUB DUP2 ADD SWAP1 PUSH2 0x1F3 SWAP2 SWAP1 PUSH2 0x1CD6 JUMP JUMPDEST PUSH2 0xDA0 JUMP JUMPDEST PUSH1 0x40 MLOAD PUSH2 0x205 SWAP2 SWAP1 PUSH2 0x1D41 JUMP JUMPDEST PUSH1 0x40 MLOAD DUP1 SWAP2 SUB SWAP1 RETURN JUMPDEST CALLVALUE DUP1 ISZERO PUSH2 0x21A JUMPI PUSH1 0x0 DUP1 REVERT JUMPDEST POP PUSH2 0x235 PUSH1 0x4 DUP1 CALLDATASIZE SUB DUP2 ADD SWAP1 PUSH2 0x230 SWAP2 SWAP1 PUSH2 0x1A2D JUMP JUMPDEST PUSH2 0xE52 JUMP JUMPDEST STOP JUMPDEST CALLVALUE DUP1 ISZERO PUSH2 0x243 JUMPI PUSH1 0x0 DUP1 REVERT JUMPDEST POP PUSH2 0x24C PUSH2 0xECF JUMP JUMPDEST PUSH1 0x40 MLOAD PUSH2 0x259 SWAP2 SWAP1 PUSH2 0x1D6B JUMP JUMPDEST PUSH1 0x40 MLOAD DUP1 SWAP2 SUB SWAP1 RETURN JUMPDEST CALLVALUE DUP1 ISZERO PUSH2 0x26E JUMPI PUSH1 0x0 DUP1 REVERT JUMPDEST POP PUSH2 0x289 PUSH1 0x4 DUP1 CALLDATASIZE SUB DUP2 ADD SWAP1 PUSH2 0x284 SWAP2 SWAP1 PUSH2 0x18CB JUMP JUMPDEST PUSH2 0xED9 JUMP JUMPDEST STOP JUMPDEST CALLVALUE DUP1 ISZERO PUSH2 0x297 JUMPI PUSH1 0x0 DUP1 REVERT JUMPDEST POP PUSH2 0x2B2 PUSH1 0x4 DUP1 CALLDATASIZE SUB DUP2 ADD SWAP1 PUSH2 0x2AD SWAP2 SWAP1 PUSH2 0x1D86 JUMP JUMPDEST PUSH2 0x138D JUMP JUMPDEST STOP JUMPDEST CALLVALUE DUP1 ISZERO PUSH2 0x2C0 JUMPI PUSH1 0x0 DUP1 REVERT JUMPDEST POP PUSH2 0x2DB PUSH1 0x4 DUP1 CALLDATASIZE SUB DUP2 ADD SWAP1 PUSH2 0x2D6 SWAP2 SWAP1 PUSH2 0x1A2D JUMP JUMPDEST PUSH2 0x14F7 JUMP JUMPDEST PUSH1 0x40 MLOAD PUSH2 0x2E8 SWAP2 SWAP1 PUSH2 0x1BB7 JUMP JUMPDEST PUSH1 0x40 MLOAD DUP1 SWAP2 SUB SWAP1 RETURN JUMPDEST PUSH1 0x60 PUSH1 0x1 ISZERO ISZERO PUSH1 0x7 DUP4 PUSH1 0x40 MLOAD PUSH2 0x307 SWAP2 SWAP1 PUSH2 0x1E1E JUMP JUMPDEST SWAP1 DUP2 MSTORE PUSH1 0x20 ADD PUSH1 0x40 MLOAD DUP1 SWAP2 SUB SWAP1 KECCAK256 DUP5 PUSH1 0x40 MLOAD PUSH2 0x323 SWAP2 SWAP1 PUSH2 0x1E1E JUMP JUMPDEST SWAP1 DUP2 MSTORE PUSH1 0x20 ADD PUSH1 0x40 MLOAD DUP1 SWAP2 SUB SWAP1 KECCAK256 PUSH1 0x0 SWAP1 SLOAD SWAP1 PUSH2 0x100 EXP SWAP1 DIV PUSH1 0xFF AND ISZERO ISZERO EQ PUSH2 0x381 JUMPI PUSH1 0x40 MLOAD PUSH32 0x8C379A000000000000000000000000000000000000000000000000000000000 DUP2 MSTORE PUSH1 0x4 ADD PUSH2 0x378 SWAP1 PUSH2 0x1E81 JUMP JUMPDEST PUSH1 0x40 MLOAD DUP1 SWAP2 SUB SWAP1 REVERT JUMPDEST PUSH1 0x6 DUP4 PUSH1 0x40 MLOAD PUSH2 0x391 SWAP2 SWAP1 PUSH2 0x1E1E JUMP JUMPDEST SWAP1 DUP2 MSTORE PUSH1 0x20 ADD PUSH1 0x40 MLOAD DUP1 SWAP2 SUB SWAP1 KECCAK256 PUSH1 0x3 ADD DUP1 SLOAD DUP1 PUSH1 0x20 MUL PUSH1 0x20 ADD PUSH1 0x40 MLOAD SWAP1 DUP2 ADD PUSH1 0x40 MSTORE DUP1 SWAP3 SWAP2 SWAP1 DUP2 DUP2 MSTORE PUSH1 0x20 ADD DUP3 DUP1 SLOAD DUP1 ISZERO PUSH2 0x3EC JUMPI PUSH1 0x20 MUL DUP3 ADD SWAP2 SWAP1 PUSH1 0x0 MSTORE PUSH1 0x20 PUSH1 0x0 KECCAK256 SWAP1 JUMPDEST DUP2 SLOAD DUP2 MSTORE PUSH1 0x20 ADD SWAP1 PUSH1 0x1 ADD SWAP1 DUP1 DUP4 GT PUSH2 0x3D8 JUMPI JUMPDEST POP POP POP POP POP SWAP1 POP SWAP3 SWAP2 POP POP JUMP JUMPDEST PUSH2 0x401 PUSH2 0x15F1 JUMP JUMPDEST PUSH1 0x1 ISZERO ISZERO PUSH1 0x7 DUP4 PUSH1 0x40 MLOAD PUSH2 0x415 SWAP2 SWAP1 PUSH2 0x1E1E JUMP JUMPDEST SWAP1 DUP2 MSTORE PUSH1 0x20 ADD PUSH1 0x40 MLOAD DUP1 SWAP2 SUB SWAP1 KECCAK256 DUP3 PUSH1 0x40 MLOAD PUSH2 0x431 SWAP2 SWAP1 PUSH2 0x1E1E JUMP JUMPDEST SWAP1 DUP2 MSTORE PUSH1 0x20 ADD PUSH1 0x40 MLOAD DUP1 SWAP2 SUB SWAP1 KECCAK256 PUSH1 0x0 SWAP1 SLOAD SWAP1 PUSH2 0x100 EXP SWAP1 DIV PUSH1 0xFF AND ISZERO ISZERO EQ PUSH2 0x48F JUMPI PUSH1 0x40 MLOAD PUSH32 0x8C379A000000000000000000000000000000000000000000000000000000000 DUP2 MSTORE PUSH1 0x4 ADD PUSH2 0x486 SWAP1 PUSH2 0x1EED JUMP JUMPDEST PUSH1 0x40 MLOAD DUP1 SWAP2 SUB SWAP1 REVERT JUMPDEST PUSH1 0x0 PUSH1 0x7 DUP4 PUSH1 0x40 MLOAD PUSH2 0x4A1 SWAP2 SWAP1 PUSH2 0x1E1E JUMP JUMPDEST SWAP1 DUP2 MSTORE PUSH1 0x20 ADD PUSH1 0x40 MLOAD DUP1 SWAP2 SUB SWAP1 KECCAK256 DUP3 PUSH1 0x40 MLOAD PUSH2 0x4BD SWAP2 SWAP1 PUSH2 0x1E1E JUMP JUMPDEST SWAP1 DUP2 MSTORE PUSH1 0x20 ADD PUSH1 0x40 MLOAD DUP1 SWAP2 SUB SWAP1 KECCAK256 PUSH1 0x0 PUSH2 0x100 EXP DUP2 SLOAD DUP2 PUSH1 0xFF MUL NOT AND SWAP1 DUP4 ISZERO ISZERO MUL OR SWAP1 SSTORE POP PUSH1 0x0 PUSH1 0x6 DUP3 PUSH1 0x40 MLOAD PUSH2 0x4F4 SWAP2 SWAP1 PUSH2 0x1E1E JUMP JUMPDEST SWAP1 DUP2 MSTORE PUSH1 0x20 ADD PUSH1 0x40 MLOAD DUP1 SWAP2 SUB SWAP1 KECCAK256 PUSH1 0x2 ADD DUP1 SLOAD SWAP1 POP SWAP1 POP PUSH1 0x0 PUSH1 0x1 DUP3 PUSH2 0x51A SWAP2 SWAP1 PUSH2 0x1F3C JUMP JUMPDEST PUSH8 0xFFFFFFFFFFFFFFFF DUP2 GT ISZERO PUSH2 0x533 JUMPI PUSH2 0x532 PUSH2 0x17A0 JUMP JUMPDEST JUMPDEST PUSH1 0x40 MLOAD SWAP1 DUP1 DUP3 MSTORE DUP1 PUSH1 0x20 MUL PUSH1 0x20 ADD DUP3 ADD PUSH1 0x40 MSTORE DUP1 ISZERO PUSH2 0x566 JUMPI DUP2 PUSH1 0x20 ADD JUMPDEST PUSH1 0x60 DUP2 MSTORE PUSH1 0x20 ADD SWAP1 PUSH1 0x1 SWAP1 SUB SWAP1 DUP2 PUSH2 0x551 JUMPI SWAP1 POP JUMPDEST POP SWAP1 POP PUSH1 0x0 DUP1 JUMPDEST DUP4 DUP2 LT ISZERO PUSH2 0x708 JUMPI DUP6 PUSH1 0x40 MLOAD PUSH1 0x20 ADD PUSH2 0x586 SWAP2 SWAP1 PUSH2 0x1E1E JUMP JUMPDEST PUSH1 0x40 MLOAD PUSH1 0x20 DUP2 DUP4 SUB SUB DUP2 MSTORE SWAP1 PUSH1 0x40 MSTORE DUP1 MLOAD SWAP1 PUSH1 0x20 ADD KECCAK256 PUSH1 0x6 DUP7 PUSH1 0x40 MLOAD PUSH2 0x5AC SWAP2 SWAP1 PUSH2 0x1E1E JUMP JUMPDEST SWAP1 DUP2 MSTORE PUSH1 0x20 ADD PUSH1 0x40 MLOAD DUP1 SWAP2 SUB SWAP1 KECCAK256 PUSH1 0x2 ADD DUP3 DUP2 SLOAD DUP2 LT PUSH2 0x5CF JUMPI PUSH2 0x5CE PUSH2 0x1F70 JUMP JUMPDEST JUMPDEST SWAP1 PUSH1 0x0 MSTORE PUSH1 0x20 PUSH1 0x0 KECCAK256 ADD PUSH1 0x40 MLOAD PUSH1 0x20 ADD PUSH2 0x5E9 SWAP2 SWAP1 PUSH2 0x2097 JUMP JUMPDEST PUSH1 0x40 MLOAD PUSH1 0x20 DUP2 DUP4 SUB SUB DUP2 MSTORE SWAP1 PUSH1 0x40 MSTORE DUP1 MLOAD SWAP1 PUSH1 0x20 ADD KECCAK256 EQ PUSH2 0x6F5 JUMPI PUSH1 0x6 DUP6 PUSH1 0x40 MLOAD PUSH2 0x614 SWAP2 SWAP1 PUSH2 0x1E1E JUMP JUMPDEST SWAP1 DUP2 MSTORE PUSH1 0x20 ADD PUSH1 0x40 MLOAD DUP1 SWAP2 SUB SWAP1 KECCAK256 PUSH1 0x2 ADD DUP2 DUP2 SLOAD DUP2 LT PUSH2 0x637 JUMPI PUSH2 0x636 PUSH2 0x1F70 JUMP JUMPDEST JUMPDEST SWAP1 PUSH1 0x0 MSTORE PUSH1 0x20 PUSH1 0x0 KECCAK256 ADD DUP1 SLOAD PUSH2 0x64C SWAP1 PUSH2 0x1FCE JUMP JUMPDEST DUP1 PUSH1 0x1F ADD PUSH1 0x20 DUP1 SWAP2 DIV MUL PUSH1 0x20 ADD PUSH1 0x40 MLOAD SWAP1 DUP2 ADD PUSH1 0x40 MSTORE DUP1 SWAP3 SWAP2 SWAP1 DUP2 DUP2 MSTORE PUSH1 0x20 ADD DUP3 DUP1 SLOAD PUSH2 0x678 SWAP1 PUSH2 0x1FCE JUMP JUMPDEST DUP1 ISZERO PUSH2 0x6C5 JUMPI DUP1 PUSH1 0x1F LT PUSH2 0x69A JUMPI PUSH2 0x100 DUP1 DUP4 SLOAD DIV MUL DUP4 MSTORE SWAP2 PUSH1 0x20 ADD SWAP2 PUSH2 0x6C5 JUMP JUMPDEST DUP3 ADD SWAP2 SWAP1 PUSH1 0x0 MSTORE PUSH1 0x20 PUSH1 0x0 KECCAK256 SWAP1 JUMPDEST DUP2 SLOAD DUP2 MSTORE SWAP1 PUSH1 0x1 ADD SWAP1 PUSH1 0x20 ADD DUP1 DUP4 GT PUSH2 0x6A8 JUMPI DUP3 SWAP1 SUB PUSH1 0x1F AND DUP3 ADD SWAP2 JUMPDEST POP POP POP POP POP DUP4 DUP4 DUP1 PUSH2 0x6D6 SWAP1 PUSH2 0x20AE JUMP JUMPDEST SWAP5 POP DUP2 MLOAD DUP2 LT PUSH2 0x6E9 JUMPI PUSH2 0x6E8 PUSH2 0x1F70 JUMP JUMPDEST JUMPDEST PUSH1 0x20 MUL PUSH1 0x20 ADD ADD DUP2 SWAP1 MSTORE POP JUMPDEST DUP1 DUP1 PUSH2 0x700 SWAP1 PUSH2 0x20AE JUMP JUMPDEST SWAP2 POP POP PUSH2 0x56D JUMP JUMPDEST POP DUP2 PUSH1 0x6 DUP6 PUSH1 0x40 MLOAD PUSH2 0x71A SWAP2 SWAP1 PUSH2 0x1E1E JUMP JUMPDEST SWAP1 DUP2 MSTORE PUSH1 0x20 ADD PUSH1 0x40 MLOAD DUP1 SWAP2 SUB SWAP1 KECCAK256 PUSH1 0x2 ADD SWAP1 DUP1 MLOAD SWAP1 PUSH1 0x20 ADD SWAP1 PUSH2 0x73E SWAP3 SWAP2 SWAP1 PUSH2 0x164A JUMP JUMPDEST POP PUSH1 0x8 DUP6 PUSH1 0x40 MLOAD PUSH2 0x74F SWAP2 SWAP1 PUSH2 0x1E1E JUMP JUMPDEST SWAP1 DUP2 MSTORE PUSH1 0x20 ADD PUSH1 0x40 MLOAD DUP1 SWAP2 SUB SWAP1 KECCAK256 PUSH1 0x2 ADD DUP1 SLOAD SWAP1 POP SWAP3 POP PUSH1 0x0 PUSH1 0x1 DUP5 PUSH2 0x775 SWAP2 SWAP1 PUSH2 0x1F3C JUMP JUMPDEST PUSH8 0xFFFFFFFFFFFFFFFF DUP2 GT ISZERO PUSH2 0x78E JUMPI PUSH2 0x78D PUSH2 0x17A0 JUMP JUMPDEST JUMPDEST PUSH1 0x40 MLOAD SWAP1 DUP1 DUP3 MSTORE DUP1 PUSH1 0x20 MUL PUSH1 0x20 ADD DUP3 ADD PUSH1 0x40 MSTORE DUP1 ISZERO PUSH2 0x7C1 JUMPI DUP2 PUSH1 0x20 ADD JUMPDEST PUSH1 0x60 DUP2 MSTORE PUSH1 0x20 ADD SWAP1 PUSH1 0x1 SWAP1 SUB SWAP1 DUP2 PUSH2 0x7AC JUMPI SWAP1 POP JUMPDEST POP SWAP1 POP PUSH1 0x0 SWAP2 POP PUSH1 0x0 JUMPDEST DUP5 DUP2 LT ISZERO PUSH2 0x966 JUMPI DUP6 PUSH1 0x40 MLOAD PUSH1 0x20 ADD PUSH2 0x7E4 SWAP2 SWAP1 PUSH2 0x1E1E JUMP JUMPDEST PUSH1 0x40 MLOAD PUSH1 0x20 DUP2 DUP4 SUB SUB DUP2 MSTORE SWAP1 PUSH1 0x40 MSTORE DUP1 MLOAD SWAP1 PUSH1 0x20 ADD KECCAK256 PUSH1 0x8 DUP9 PUSH1 0x40 MLOAD PUSH2 0x80A SWAP2 SWAP1 PUSH2 0x1E1E JUMP JUMPDEST SWAP1 DUP2 MSTORE PUSH1 0x20 ADD PUSH1 0x40 MLOAD DUP1 SWAP2 SUB SWAP1 KECCAK256 PUSH1 0x2 ADD DUP3 DUP2 SLOAD DUP2 LT PUSH2 0x82D JUMPI PUSH2 0x82C PUSH2 0x1F70 JUMP JUMPDEST JUMPDEST SWAP1 PUSH1 0x0 MSTORE PUSH1 0x20 PUSH1 0x0 KECCAK256 ADD PUSH1 0x40 MLOAD PUSH1 0x20 ADD PUSH2 0x847 SWAP2 SWAP1 PUSH2 0x2097 JUMP JUMPDEST PUSH1 0x40 MLOAD PUSH1 0x20 DUP2 DUP4 SUB SUB DUP2 MSTORE SWAP1 PUSH1 0x40 MSTORE DUP1 MLOAD SWAP1 PUSH1 0x20 ADD KECCAK256 EQ PUSH2 0x953 JUMPI PUSH1 0x8 DUP8 PUSH1 0x40 MLOAD PUSH2 0x872 SWAP2 SWAP1 PUSH2 0x1E1E JUMP JUMPDEST SWAP1 DUP2 MSTORE PUSH1 0x20 ADD PUSH1 0x40 MLOAD DUP1 SWAP2 SUB SWAP1 KECCAK256 PUSH1 0x2 ADD DUP2 DUP2 SLOAD DUP2 LT PUSH2 0x895 JUMPI PUSH2 0x894 PUSH2 0x1F70 JUMP JUMPDEST JUMPDEST SWAP1 PUSH1 0x0 MSTORE PUSH1 0x20 PUSH1 0x0 KECCAK256 ADD DUP1 SLOAD PUSH2 0x8AA SWAP1 PUSH2 0x1FCE JUMP JUMPDEST DUP1 PUSH1 0x1F ADD PUSH1 0x20 DUP1 SWAP2 DIV MUL PUSH1 0x20 ADD PUSH1 0x40 MLOAD SWAP1 DUP2 ADD PUSH1 0x40 MSTORE DUP1 SWAP3 SWAP2 SWAP1 DUP2 DUP2 MSTORE PUSH1 0x20 ADD DUP3 DUP1 SLOAD PUSH2 0x8D6 SWAP1 PUSH2 0x1FCE JUMP JUMPDEST DUP1 ISZERO PUSH2 0x923 JUMPI DUP1 PUSH1 0x1F LT PUSH2 0x8F8 JUMPI PUSH2 0x100 DUP1 DUP4 SLOAD DIV MUL DUP4 MSTORE SWAP2 PUSH1 0x20 ADD SWAP2 PUSH2 0x923 JUMP JUMPDEST DUP3 ADD SWAP2 SWAP1 PUSH1 0x0 MSTORE PUSH1 0x20 PUSH1 0x0 KECCAK256 SWAP1 JUMPDEST DUP2 SLOAD DUP2 MSTORE SWAP1 PUSH1 0x1 ADD SWAP1 PUSH1 0x20 ADD DUP1 DUP4 GT PUSH2 0x906 JUMPI DUP3 SWAP1 SUB PUSH1 0x1F AND DUP3 ADD SWAP2 JUMPDEST POP POP POP POP POP DUP3 DUP5 DUP1 PUSH2 0x934 SWAP1 PUSH2 0x20AE JUMP JUMPDEST SWAP6 POP DUP2 MLOAD DUP2 LT PUSH2 0x947 JUMPI PUSH2 0x946 PUSH2 0x1F70 JUMP JUMPDEST JUMPDEST PUSH1 0x20 MUL PUSH1 0x20 ADD ADD DUP2 SWAP1 MSTORE POP JUMPDEST DUP1 DUP1 PUSH2 0x95E SWAP1 PUSH2 0x20AE JUMP JUMPDEST SWAP2 POP POP PUSH2 0x7CB JUMP JUMPDEST POP DUP1 PUSH1 0x8 DUP8 PUSH1 0x40 MLOAD PUSH2 0x978 SWAP2 SWAP1 PUSH2 0x1E1E JUMP JUMPDEST SWAP1 DUP2 MSTORE PUSH1 0x20 ADD PUSH1 0x40 MLOAD DUP1 SWAP2 SUB SWAP1 KECCAK256 PUSH1 0x2 ADD SWAP1 DUP1 MLOAD SWAP1 PUSH1 0x20 ADD SWAP1 PUSH2 0x99C SWAP3 SWAP2 SWAP1 PUSH2 0x164A JUMP JUMPDEST POP POP POP POP POP PUSH2 0x9A9 PUSH2 0x1640 JUMP JUMPDEST POP POP JUMP JUMPDEST PUSH2 0x9B5 PUSH2 0x15F1 JUMP JUMPDEST PUSH1 0x2 PUSH1 0x0 DUP2 SLOAD DUP1 SWAP3 SWAP2 SWAP1 PUSH2 0x9C8 SWAP1 PUSH2 0x20AE JUMP JUMPDEST SWAP2 SWAP1 POP SSTORE POP PUSH1 0x60 DUP1 PUSH1 0x40 MLOAD DUP1 PUSH1 0x80 ADD PUSH1 0x40 MSTORE DUP1 PUSH1 0x2 SLOAD DUP2 MSTORE PUSH1 0x20 ADD DUP5 DUP2 MSTORE PUSH1 0x20 ADD DUP4 DUP2 MSTORE PUSH1 0x20 ADD DUP3 DUP2 MSTORE POP PUSH1 0x6 DUP5 PUSH1 0x40 MLOAD PUSH2 0xA03 SWAP2 SWAP1 PUSH2 0x1E1E JUMP JUMPDEST SWAP1 DUP2 MSTORE PUSH1 0x20 ADD PUSH1 0x40 MLOAD DUP1 SWAP2 SUB SWAP1 KECCAK256 PUSH1 0x0 DUP3 ADD MLOAD DUP2 PUSH1 0x0 ADD SSTORE PUSH1 0x20 DUP3 ADD MLOAD DUP2 PUSH1 0x1 ADD SWAP1 DUP2 PUSH2 0xA30 SWAP2 SWAP1 PUSH2 0x228D JUMP JUMPDEST POP PUSH1 0x40 DUP3 ADD MLOAD DUP2 PUSH1 0x2 ADD SWAP1 DUP1 MLOAD SWAP1 PUSH1 0x20 ADD SWAP1 PUSH2 0xA4D SWAP3 SWAP2 SWAP1 PUSH2 0x164A JUMP JUMPDEST POP PUSH1 0x60 DUP3 ADD MLOAD DUP2 PUSH1 0x3 ADD SWAP1 DUP1 MLOAD SWAP1 PUSH1 0x20 ADD SWAP1 PUSH2 0xA6A SWAP3 SWAP2 SWAP1 PUSH2 0x16A3 JUMP JUMPDEST POP SWAP1 POP POP PUSH1 0x1 PUSH1 0x7 DUP5 PUSH1 0x40 MLOAD PUSH2 0xA80 SWAP2 SWAP1 PUSH2 0x1E1E JUMP JUMPDEST SWAP1 DUP2 MSTORE PUSH1 0x20 ADD PUSH1 0x40 MLOAD DUP1 SWAP2 SUB SWAP1 KECCAK256 DUP5 PUSH1 0x40 MLOAD PUSH2 0xA9C SWAP2 SWAP1 PUSH2 0x1E1E JUMP JUMPDEST SWAP1 DUP2 MSTORE PUSH1 0x20 ADD PUSH1 0x40 MLOAD DUP1 SWAP2 SUB SWAP1 KECCAK256 PUSH1 0x0 PUSH2 0x100 EXP DUP2 SLOAD DUP2 PUSH1 0xFF MUL NOT AND SWAP1 DUP4 ISZERO ISZERO MUL OR SWAP1 SSTORE POP DUP3 PUSH1 0x40 MLOAD PUSH2 0xACF SWAP2 SWAP1 PUSH2 0x1E1E JUMP JUMPDEST PUSH1 0x40 MLOAD DUP1 SWAP2 SUB SWAP1 KECCAK256 PUSH1 0x2 SLOAD PUSH32 0x134FDA0AE4FAFCA781B872311CCA14CCBFAF969FD15C52F58E9A93DE5D231807 PUSH1 0x40 MLOAD PUSH1 0x40 MLOAD DUP1 SWAP2 SUB SWAP1 LOG3 POP POP PUSH2 0xB10 PUSH2 0x1640 JUMP JUMPDEST POP JUMP JUMPDEST PUSH1 0x60 PUSH1 0x8 DUP3 PUSH1 0x40 MLOAD PUSH2 0xB25 SWAP2 SWAP1 PUSH2 0x1E1E JUMP JUMPDEST SWAP1 DUP2 MSTORE PUSH1 0x20 ADD PUSH1 0x40 MLOAD DUP1 SWAP2 SUB SWAP1 KECCAK256 PUSH1 0x2 ADD DUP1 SLOAD DUP1 PUSH1 0x20 MUL PUSH1 0x20 ADD PUSH1 0x40 MLOAD SWAP1 DUP2 ADD PUSH1 0x40 MSTORE DUP1 SWAP3 SWAP2 SWAP1 DUP2 DUP2 MSTORE PUSH1 0x20 ADD PUSH1 0x0 SWAP1 JUMPDEST DUP3 DUP3 LT ISZERO PUSH2 0xC02 JUMPI DUP4 DUP3 SWAP1 PUSH1 0x0 MSTORE PUSH1 0x20 PUSH1 0x0 KECCAK256 ADD DUP1 SLOAD PUSH2 0xB75 SWAP1 PUSH2 0x1FCE JUMP JUMPDEST DUP1 PUSH1 0x1F ADD PUSH1 0x20 DUP1 SWAP2 DIV MUL PUSH1 0x20 ADD PUSH1 0x40 MLOAD SWAP1 DUP2 ADD PUSH1 0x40 MSTORE DUP1 SWAP3 SWAP2 SWAP1 DUP2 DUP2 MSTORE PUSH1 0x20 ADD DUP3 DUP1 SLOAD PUSH2 0xBA1 SWAP1 PUSH2 0x1FCE JUMP JUMPDEST DUP1 ISZERO PUSH2 0xBEE JUMPI DUP1 PUSH1 0x1F LT PUSH2 0xBC3 JUMPI PUSH2 0x100 DUP1 DUP4 SLOAD DIV MUL DUP4 MSTORE SWAP2 PUSH1 0x20 ADD SWAP2 PUSH2 0xBEE JUMP JUMPDEST DUP3 ADD SWAP2 SWAP1 PUSH1 0x0 MSTORE PUSH1 0x20 PUSH1 0x0 KECCAK256 SWAP1 JUMPDEST DUP2 SLOAD DUP2 MSTORE SWAP1 PUSH1 0x1 ADD SWAP1 PUSH1 0x20 ADD DUP1 DUP4 GT PUSH2 0xBD1 JUMPI DUP3 SWAP1 SUB PUSH1 0x1F AND DUP3 ADD SWAP2 JUMPDEST POP POP POP POP POP DUP2 MSTORE PUSH1 0x20 ADD SWAP1 PUSH1 0x1 ADD SWAP1 PUSH2 0xB56 JUMP JUMPDEST POP POP POP POP SWAP1 POP SWAP2 SWAP1 POP JUMP JUMPDEST PUSH2 0xC15 PUSH2 0x15F1 JUMP JUMPDEST PUSH1 0x1 PUSH1 0x0 DUP2 SLOAD DUP1 SWAP3 SWAP2 SWAP1 PUSH2 0xC28 SWAP1 PUSH2 0x20AE JUMP JUMPDEST SWAP2 SWAP1 POP SSTORE POP PUSH1 0x60 PUSH1 0x40 MLOAD DUP1 PUSH1 0x60 ADD PUSH1 0x40 MSTORE DUP1 PUSH1 0x1 SLOAD DUP2 MSTORE PUSH1 0x20 ADD DUP4 DUP2 MSTORE PUSH1 0x20 ADD DUP3 DUP2 MSTORE POP PUSH1 0x8 DUP4 PUSH1 0x40 MLOAD PUSH2 0xC5C SWAP2 SWAP1 PUSH2 0x1E1E JUMP JUMPDEST SWAP1 DUP2 MSTORE PUSH1 0x20 ADD PUSH1 0x40 MLOAD DUP1 SWAP2 SUB SWAP1 KECCAK256 PUSH1 0x0 DUP3 ADD MLOAD DUP2 PUSH1 0x0 ADD SSTORE PUSH1 0x20 DUP3 ADD MLOAD DUP2 PUSH1 0x1 ADD SWAP1 DUP2 PUSH2 0xC89 SWAP2 SWAP1 PUSH2 0x228D JUMP JUMPDEST POP PUSH1 0x40 DUP3 ADD MLOAD DUP2 PUSH1 0x2 ADD SWAP1 DUP1 MLOAD SWAP1 PUSH1 0x20 ADD SWAP1 PUSH2 0xCA6 SWAP3 SWAP2 SWAP1 PUSH2 0x164A JUMP JUMPDEST POP SWAP1 POP POP DUP2 PUSH1 0x40 MLOAD PUSH2 0xCB8 SWAP2 SWAP1 PUSH2 0x1E1E JUMP JUMPDEST PUSH1 0x40 MLOAD DUP1 SWAP2 SUB SWAP1 KECCAK256 PUSH1 0x1 SLOAD PUSH32 0xEA156934655CE49EB3A326E33CD7089B144169217BA22211032479B6B4293725 PUSH1 0x40 MLOAD PUSH1 0x40 MLOAD DUP1 SWAP2 SUB SWAP1 LOG3 POP PUSH2 0xCF8 PUSH2 0x1640 JUMP JUMPDEST POP JUMP JUMPDEST PUSH1 0x60 PUSH1 0x5 PUSH1 0x0 DUP4 DUP2 MSTORE PUSH1 0x20 ADD SWAP1 DUP2 MSTORE PUSH1 0x20 ADD PUSH1 0x0 KECCAK256 DUP1 SLOAD PUSH2 0xD1B SWAP1 PUSH2 0x1FCE JUMP JUMPDEST DUP1 PUSH1 0x1F ADD PUSH1 0x20 DUP1 SWAP2 DIV MUL PUSH1 0x20 ADD PUSH1 0x40 MLOAD SWAP1 DUP2 ADD PUSH1 0x40 MSTORE DUP1 SWAP3 SWAP2 SWAP1 DUP2 DUP2 MSTORE PUSH1 0x20 ADD DUP3 DUP1 SLOAD PUSH2 0xD47 SWAP1 PUSH2 0x1FCE JUMP JUMPDEST DUP1 ISZERO PUSH2 0xD94 JUMPI DUP1 PUSH1 0x1F LT PUSH2 0xD69 JUMPI PUSH2 0x100 DUP1 DUP4 SLOAD DIV MUL DUP4 MSTORE SWAP2 PUSH1 0x20 ADD SWAP2 PUSH2 0xD94 JUMP JUMPDEST DUP3 ADD SWAP2 SWAP1 PUSH1 0x0 MSTORE PUSH1 0x20 PUSH1 0x0 KECCAK256 SWAP1 JUMPDEST DUP2 SLOAD DUP2 MSTORE SWAP1 PUSH1 0x1 ADD SWAP1 PUSH1 0x20 ADD DUP1 DUP4 GT PUSH2 0xD77 JUMPI DUP3 SWAP1 SUB PUSH1 0x1F AND DUP3 ADD SWAP2 JUMPDEST POP POP POP POP POP SWAP1 POP SWAP2 SWAP1 POP JUMP JUMPDEST PUSH1 0x0 PUSH2 0xDAA PUSH2 0x15F1 JUMP JUMPDEST PUSH1 0x0 CALLVALUE GT PUSH2 0xDED JUMPI PUSH1 0x40 MLOAD PUSH32 0x8C379A000000000000000000000000000000000000000000000000000000000 DUP2 MSTORE PUSH1 0x4 ADD PUSH2 0xDE4 SWAP1 PUSH2 0x23AB JUMP JUMPDEST PUSH1 0x40 MLOAD DUP1 SWAP2 SUB SWAP1 REVERT JUMPDEST DUP2 PUSH2 0xE40 JUMPI DUP3 PUSH1 0x40 MLOAD PUSH2 0xE00 SWAP2 SWAP1 PUSH2 0x1E1E JUMP JUMPDEST PUSH1 0x40 MLOAD DUP1 SWAP2 SUB SWAP1 KECCAK256 PUSH32 0xD76F471A6CFD25FFCDA8864CD32F43F578933212DAD6AFFAA5AC113086C5C546 CALLVALUE PUSH1 0x40 MLOAD PUSH2 0xE37 SWAP2 SWAP1 PUSH2 0x1D6B JUMP JUMPDEST PUSH1 0x40 MLOAD DUP1 SWAP2 SUB SWAP1 LOG2 JUMPDEST PUSH1 0x1 SWAP1 POP PUSH2 0xE4C PUSH2 0x1640 JUMP JUMPDEST SWAP3 SWAP2 POP POP JUMP JUMPDEST PUSH2 0xE5A PUSH2 0x15F1 JUMP JUMPDEST PUSH1 0x3 PUSH1 0x0 DUP2 SLOAD DUP1 SWAP3 SWAP2 SWAP1 PUSH2 0xE6D SWAP1 PUSH2 0x20AE JUMP JUMPDEST SWAP2 SWAP1 POP SSTORE POP DUP1 PUSH1 0x5 PUSH1 0x0 PUSH1 0x3 SLOAD DUP2 MSTORE PUSH1 0x20 ADD SWAP1 DUP2 MSTORE PUSH1 0x20 ADD PUSH1 0x0 KECCAK256 SWAP1 DUP2 PUSH2 0xE94 SWAP2 SWAP1 PUSH2 0x228D JUMP JUMPDEST POP PUSH1 0x3 SLOAD PUSH32 0xC01E484CC8325EFF46E7CFC59A0995A96E6C979AAA3B2000BD9E1AB6E813A45 PUSH1 0x40 MLOAD PUSH1 0x40 MLOAD DUP1 SWAP2 SUB SWAP1 LOG2 PUSH2 0xECC PUSH2 0x1640 JUMP JUMPDEST POP JUMP JUMPDEST PUSH1 0x0 PUSH1 0x3 SLOAD SWAP1 POP SWAP1 JUMP JUMPDEST PUSH2 0xEE1 PUSH2 0x15F1 JUMP JUMPDEST PUSH1 0x0 ISZERO ISZERO PUSH1 0x7 DUP4 PUSH1 0x40 MLOAD PUSH2 0xEF5 SWAP2 SWAP1 PUSH2 0x1E1E JUMP JUMPDEST SWAP1 DUP2 MSTORE PUSH1 0x20 ADD PUSH1 0x40 MLOAD DUP1 SWAP2 SUB SWAP1 KECCAK256 DUP3 PUSH1 0x40 MLOAD PUSH2 0xF11 SWAP2 SWAP1 PUSH2 0x1E1E JUMP JUMPDEST SWAP1 DUP2 MSTORE PUSH1 0x20 ADD PUSH1 0x40 MLOAD DUP1 SWAP2 SUB SWAP1 KECCAK256 PUSH1 0x0 SWAP1 SLOAD SWAP1 PUSH2 0x100 EXP SWAP1 DIV PUSH1 0xFF AND ISZERO ISZERO EQ PUSH2 0xF6F JUMPI PUSH1 0x40 MLOAD PUSH32 0x8C379A000000000000000000000000000000000000000000000000000000000 DUP2 MSTORE PUSH1 0x4 ADD PUSH2 0xF66 SWAP1 PUSH2 0x2417 JUMP JUMPDEST PUSH1 0x40 MLOAD DUP1 SWAP2 SUB SWAP1 REVERT JUMPDEST PUSH1 0x1 PUSH1 0x7 DUP4 PUSH1 0x40 MLOAD PUSH2 0xF81 SWAP2 SWAP1 PUSH2 0x1E1E JUMP JUMPDEST SWAP1 DUP2 MSTORE PUSH1 0x20 ADD PUSH1 0x40 MLOAD DUP1 SWAP2 SUB SWAP1 KECCAK256 DUP3 PUSH1 0x40 MLOAD PUSH2 0xF9D SWAP2 SWAP1 PUSH2 0x1E1E JUMP JUMPDEST SWAP1 DUP2 MSTORE PUSH1 0x20 ADD PUSH1 0x40 MLOAD DUP1 SWAP2 SUB SWAP1 KECCAK256 PUSH1 0x0 PUSH2 0x100 EXP DUP2 SLOAD DUP2 PUSH1 0xFF MUL NOT AND SWAP1 DUP4 ISZERO ISZERO MUL OR SWAP1 SSTORE POP PUSH1 0x0 PUSH1 0x6 DUP3 PUSH1 0x40 MLOAD PUSH2 0xFD4 SWAP2 SWAP1 PUSH2 0x1E1E JUMP JUMPDEST SWAP1 DUP2 MSTORE PUSH1 0x20 ADD PUSH1 0x40 MLOAD DUP1 SWAP2 SUB SWAP1 KECCAK256 PUSH1 0x2 ADD DUP1 SLOAD SWAP1 POP SWAP1 POP PUSH1 0x0 PUSH1 0x1 DUP3 PUSH2 0xFFA SWAP2 SWAP1 PUSH2 0x2437 JUMP JUMPDEST PUSH8 0xFFFFFFFFFFFFFFFF DUP2 GT ISZERO PUSH2 0x1013 JUMPI PUSH2 0x1012 PUSH2 0x17A0 JUMP JUMPDEST JUMPDEST PUSH1 0x40 MLOAD SWAP1 DUP1 DUP3 MSTORE DUP1 PUSH1 0x20 MUL PUSH1 0x20 ADD DUP3 ADD PUSH1 0x40 MSTORE DUP1 ISZERO PUSH2 0x1046 JUMPI DUP2 PUSH1 0x20 ADD JUMPDEST PUSH1 0x60 DUP2 MSTORE PUSH1 0x20 ADD SWAP1 PUSH1 0x1 SWAP1 SUB SWAP1 DUP2 PUSH2 0x1031 JUMPI SWAP1 POP JUMPDEST POP SWAP1 POP DUP4 DUP2 DUP4 DUP2 MLOAD DUP2 LT PUSH2 0x105D JUMPI PUSH2 0x105C PUSH2 0x1F70 JUMP JUMPDEST JUMPDEST PUSH1 0x20 MUL PUSH1 0x20 ADD ADD DUP2 SWAP1 MSTORE POP PUSH1 0x0 JUMPDEST DUP3 DUP2 LT ISZERO PUSH2 0x116A JUMPI PUSH1 0x6 DUP5 PUSH1 0x40 MLOAD PUSH2 0x1083 SWAP2 SWAP1 PUSH2 0x1E1E JUMP JUMPDEST SWAP1 DUP2 MSTORE PUSH1 0x20 ADD PUSH1 0x40 MLOAD DUP1 SWAP2 SUB SWAP1 KECCAK256 PUSH1 0x2 ADD DUP2 DUP2 SLOAD DUP2 LT PUSH2 0x10A6 JUMPI PUSH2 0x10A5 PUSH2 0x1F70 JUMP JUMPDEST JUMPDEST SWAP1 PUSH1 0x0 MSTORE PUSH1 0x20 PUSH1 0x0 KECCAK256 ADD DUP1 SLOAD PUSH2 0x10BB SWAP1 PUSH2 0x1FCE JUMP JUMPDEST DUP1 PUSH1 0x1F ADD PUSH1 0x20 DUP1 SWAP2 DIV MUL PUSH1 0x20 ADD PUSH1 0x40 MLOAD SWAP1 DUP2 ADD PUSH1 0x40 MSTORE DUP1 SWAP3 SWAP2 SWAP1 DUP2 DUP2 MSTORE PUSH1 0x20 ADD DUP3 DUP1 SLOAD PUSH2 0x10E7 SWAP1 PUSH2 0x1FCE JUMP JUMPDEST DUP1 ISZERO PUSH2 0x1134 JUMPI DUP1 PUSH1 0x1F LT PUSH2 0x1109 JUMPI PUSH2 0x100 DUP1 DUP4 SLOAD DIV MUL DUP4 MSTORE SWAP2 PUSH1 0x20 ADD SWAP2 PUSH2 0x1134 JUMP JUMPDEST DUP3 ADD SWAP2 SWAP1 PUSH1 0x0 MSTORE PUSH1 0x20 PUSH1 0x0 KECCAK256 SWAP1 JUMPDEST DUP2 SLOAD DUP2 MSTORE SWAP1 PUSH1 0x1 ADD SWAP1 PUSH1 0x20 ADD DUP1 DUP4 GT PUSH2 0x1117 JUMPI DUP3 SWAP1 SUB PUSH1 0x1F AND DUP3 ADD SWAP2 JUMPDEST POP POP POP POP POP DUP3 DUP3 DUP2 MLOAD DUP2 LT PUSH2 0x114C JUMPI PUSH2 0x114B PUSH2 0x1F70 JUMP JUMPDEST JUMPDEST PUSH1 0x20 MUL PUSH1 0x20 ADD ADD DUP2 SWAP1 MSTORE POP DUP1 DUP1 PUSH2 0x1162 SWAP1 PUSH2 0x20AE JUMP JUMPDEST SWAP2 POP POP PUSH2 0x106B JUMP JUMPDEST POP DUP1 PUSH1 0x6 DUP5 PUSH1 0x40 MLOAD PUSH2 0x117C SWAP2 SWAP1 PUSH2 0x1E1E JUMP JUMPDEST SWAP1 DUP2 MSTORE PUSH1 0x20 ADD PUSH1 0x40 MLOAD DUP1 SWAP2 SUB SWAP1 KECCAK256 PUSH1 0x2 ADD SWAP1 DUP1 MLOAD SWAP1 PUSH1 0x20 ADD SWAP1 PUSH2 0x11A0 SWAP3 SWAP2 SWAP1 PUSH2 0x164A JUMP JUMPDEST POP PUSH1 0x8 DUP5 PUSH1 0x40 MLOAD PUSH2 0x11B1 SWAP2 SWAP1 PUSH2 0x1E1E JUMP JUMPDEST SWAP1 DUP2 MSTORE PUSH1 0x20 ADD PUSH1 0x40 MLOAD DUP1 SWAP2 SUB SWAP1 KECCAK256 PUSH1 0x2 ADD DUP1 SLOAD SWAP1 POP SWAP2 POP PUSH1 0x0 PUSH1 0x1 DUP4 PUSH2 0x11D7 SWAP2 SWAP1 PUSH2 0x2437 JUMP JUMPDEST PUSH8 0xFFFFFFFFFFFFFFFF DUP2 GT ISZERO PUSH2 0x11F0 JUMPI PUSH2 0x11EF PUSH2 0x17A0 JUMP JUMPDEST JUMPDEST PUSH1 0x40 MLOAD SWAP1 DUP1 DUP3 MSTORE DUP1 PUSH1 0x20 MUL PUSH1 0x20 ADD DUP3 ADD PUSH1 0x40 MSTORE DUP1 ISZERO PUSH2 0x1223 JUMPI DUP2 PUSH1 0x20 ADD JUMPDEST PUSH1 0x60 DUP2 MSTORE PUSH1 0x20 ADD SWAP1 PUSH1 0x1 SWAP1 SUB SWAP1 DUP2 PUSH2 0x120E JUMPI SWAP1 POP JUMPDEST POP SWAP1 POP DUP4 DUP2 DUP5 DUP2 MLOAD DUP2 LT PUSH2 0x123A JUMPI PUSH2 0x1239 PUSH2 0x1F70 JUMP JUMPDEST JUMPDEST PUSH1 0x20 MUL PUSH1 0x20 ADD ADD DUP2 SWAP1 MSTORE POP PUSH1 0x0 JUMPDEST DUP4 DUP2 LT ISZERO PUSH2 0x1347 JUMPI PUSH1 0x8 DUP7 PUSH1 0x40 MLOAD PUSH2 0x1260 SWAP2 SWAP1 PUSH2 0x1E1E JUMP JUMPDEST SWAP1 DUP2 MSTORE PUSH1 0x20 ADD PUSH1 0x40 MLOAD DUP1 SWAP2 SUB SWAP1 KECCAK256 PUSH1 0x2 ADD DUP2 DUP2 SLOAD DUP2 LT PUSH2 0x1283 JUMPI PUSH2 0x1282 PUSH2 0x1F70 JUMP JUMPDEST JUMPDEST SWAP1 PUSH1 0x0 MSTORE PUSH1 0x20 PUSH1 0x0 KECCAK256 ADD DUP1 SLOAD PUSH2 0x1298 SWAP1 PUSH2 0x1FCE JUMP JUMPDEST DUP1 PUSH1 0x1F ADD PUSH1 0x20 DUP1 SWAP2 DIV MUL PUSH1 0x20 ADD PUSH1 0x40 MLOAD SWAP1 DUP2 ADD PUSH1 0x40 MSTORE DUP1 SWAP3 SWAP2 SWAP1 DUP2 DUP2 MSTORE PUSH1 0x20 ADD DUP3 DUP1 SLOAD PUSH2 0x12C4 SWAP1 PUSH2 0x1FCE JUMP JUMPDEST DUP1 ISZERO PUSH2 0x1311 JUMPI DUP1 PUSH1 0x1F LT PUSH2 0x12E6 JUMPI PUSH2 0x100 DUP1 DUP4 SLOAD DIV MUL DUP4 MSTORE SWAP2 PUSH1 0x20 ADD SWAP2 PUSH2 0x1311 JUMP JUMPDEST DUP3 ADD SWAP2 SWAP1 PUSH1 0x0 MSTORE PUSH1 0x20 PUSH1 0x0 KECCAK256 SWAP1 JUMPDEST DUP2 SLOAD DUP2 MSTORE SWAP1 PUSH1 0x1 ADD SWAP1 PUSH1 0x20 ADD DUP1 DUP4 GT PUSH2 0x12F4 JUMPI DUP3 SWAP1 SUB PUSH1 0x1F AND DUP3 ADD SWAP2 JUMPDEST POP POP POP POP POP DUP3 DUP3 DUP2 MLOAD DUP2 LT PUSH2 0x1329 JUMPI PUSH2 0x1328 PUSH2 0x1F70 JUMP JUMPDEST JUMPDEST PUSH1 0x20 MUL PUSH1 0x20 ADD ADD DUP2 SWAP1 MSTORE POP DUP1 DUP1 PUSH2 0x133F SWAP1 PUSH2 0x20AE JUMP JUMPDEST SWAP2 POP POP PUSH2 0x1248 JUMP JUMPDEST POP DUP1 PUSH1 0x8 DUP7 PUSH1 0x40 MLOAD PUSH2 0x1359 SWAP2 SWAP1 PUSH2 0x1E1E JUMP JUMPDEST SWAP1 DUP2 MSTORE PUSH1 0x20 ADD PUSH1 0x40 MLOAD DUP1 SWAP2 SUB SWAP1 KECCAK256 PUSH1 0x2 ADD SWAP1 DUP1 MLOAD SWAP1 PUSH1 0x20 ADD SWAP1 PUSH2 0x137D SWAP3 SWAP2 SWAP1 PUSH2 0x164A JUMP JUMPDEST POP POP POP POP PUSH2 0x1389 PUSH2 0x1640 JUMP JUMPDEST POP POP JUMP JUMPDEST PUSH2 0x1395 PUSH2 0x15F1 JUMP JUMPDEST PUSH1 0x0 PUSH1 0x6 DUP4 PUSH1 0x40 MLOAD PUSH2 0x13A7 SWAP2 SWAP1 PUSH2 0x1E1E JUMP JUMPDEST SWAP1 DUP2 MSTORE PUSH1 0x20 ADD PUSH1 0x40 MLOAD DUP1 SWAP2 SUB SWAP1 KECCAK256 PUSH1 0x3 ADD DUP1 SLOAD SWAP1 POP SWAP1 POP PUSH1 0x0 PUSH1 0x1 DUP3 PUSH2 0x13CD SWAP2 SWAP1 PUSH2 0x2437 JUMP JUMPDEST PUSH8 0xFFFFFFFFFFFFFFFF DUP2 GT ISZERO PUSH2 0x13E6 JUMPI PUSH2 0x13E5 PUSH2 0x17A0 JUMP JUMPDEST JUMPDEST PUSH1 0x40 MLOAD SWAP1 DUP1 DUP3 MSTORE DUP1 PUSH1 0x20 MUL PUSH1 0x20 ADD DUP3 ADD PUSH1 0x40 MSTORE DUP1 ISZERO PUSH2 0x1414 JUMPI DUP2 PUSH1 0x20 ADD PUSH1 0x20 DUP3 MUL DUP1 CALLDATASIZE DUP4 CALLDATACOPY DUP1 DUP3 ADD SWAP2 POP POP SWAP1 POP JUMPDEST POP SWAP1 POP DUP3 DUP2 DUP4 DUP2 MLOAD DUP2 LT PUSH2 0x142B JUMPI PUSH2 0x142A PUSH2 0x1F70 JUMP JUMPDEST JUMPDEST PUSH1 0x20 MUL PUSH1 0x20 ADD ADD DUP2 DUP2 MSTORE POP POP PUSH1 0x0 JUMPDEST DUP3 DUP2 LT ISZERO PUSH2 0x14B2 JUMPI PUSH1 0x6 DUP6 PUSH1 0x40 MLOAD PUSH2 0x1452 SWAP2 SWAP1 PUSH2 0x1E1E JUMP JUMPDEST SWAP1 DUP2 MSTORE PUSH1 0x20 ADD PUSH1 0x40 MLOAD DUP1 SWAP2 SUB SWAP1 KECCAK256 PUSH1 0x3 ADD DUP2 DUP2 SLOAD DUP2 LT PUSH2 0x1475 JUMPI PUSH2 0x1474 PUSH2 0x1F70 JUMP JUMPDEST JUMPDEST SWAP1 PUSH1 0x0 MSTORE PUSH1 0x20 PUSH1 0x0 KECCAK256 ADD SLOAD DUP3 DUP3 DUP2 MLOAD DUP2 LT PUSH2 0x1493 JUMPI PUSH2 0x1492 PUSH2 0x1F70 JUMP JUMPDEST JUMPDEST PUSH1 0x20 MUL PUSH1 0x20 ADD ADD DUP2 DUP2 MSTORE POP POP DUP1 DUP1 PUSH2 0x14AA SWAP1 PUSH2 0x20AE JUMP JUMPDEST SWAP2 POP POP PUSH2 0x143A JUMP JUMPDEST POP DUP1 PUSH1 0x6 DUP6 PUSH1 0x40 MLOAD PUSH2 0x14C4 SWAP2 SWAP1 PUSH2 0x1E1E JUMP JUMPDEST SWAP1 DUP2 MSTORE PUSH1 0x20 ADD PUSH1 0x40 MLOAD DUP1 SWAP2 SUB SWAP1 KECCAK256 PUSH1 0x3 ADD SWAP1 DUP1 MLOAD SWAP1 PUSH1 0x20 ADD SWAP1 PUSH2 0x14E8 SWAP3 SWAP2 SWAP1 PUSH2 0x16A3 JUMP JUMPDEST POP POP POP PUSH2 0x14F3 PUSH2 0x1640 JUMP JUMPDEST POP POP JUMP JUMPDEST PUSH1 0x60 PUSH1 0x6 DUP3 PUSH1 0x40 MLOAD PUSH2 0x1509 SWAP2 SWAP1 PUSH2 0x1E1E JUMP JUMPDEST SWAP1 DUP2 MSTORE PUSH1 0x20 ADD PUSH1 0x40 MLOAD DUP1 SWAP2 SUB SWAP1 KECCAK256 PUSH1 0x2 ADD DUP1 SLOAD DUP1 PUSH1 0x20 MUL PUSH1 0x20 ADD PUSH1 0x40 MLOAD SWAP1 DUP2 ADD PUSH1 0x40 MSTORE DUP1 SWAP3 SWAP2 SWAP1 DUP2 DUP2 MSTORE PUSH1 0x20 ADD PUSH1 0x0 SWAP1 JUMPDEST DUP3 DUP3 LT ISZERO PUSH2 0x15E6 JUMPI DUP4 DUP3 SWAP1 PUSH1 0x0 MSTORE PUSH1 0x20 PUSH1 0x0 KECCAK256 ADD DUP1 SLOAD PUSH2 0x1559 SWAP1 PUSH2 0x1FCE JUMP JUMPDEST DUP1 PUSH1 0x1F ADD PUSH1 0x20 DUP1 SWAP2 DIV MUL PUSH1 0x20 ADD PUSH1 0x40 MLOAD SWAP1 DUP2 ADD PUSH1 0x40 MSTORE DUP1 SWAP3 SWAP2 SWAP1 DUP2 DUP2 MSTORE PUSH1 0x20 ADD DUP3 DUP1 SLOAD PUSH2 0x1585 SWAP1 PUSH2 0x1FCE JUMP JUMPDEST DUP1 ISZERO PUSH2 0x15D2 JUMPI DUP1 PUSH1 0x1F LT PUSH2 0x15A7 JUMPI PUSH2 0x100 DUP1 DUP4 SLOAD DIV MUL DUP4 MSTORE SWAP2 PUSH1 0x20 ADD SWAP2 PUSH2 0x15D2 JUMP JUMPDEST DUP3 ADD SWAP2 SWAP1 PUSH1 0x0 MSTORE PUSH1 0x20 PUSH1 0x0 KECCAK256 SWAP1 JUMPDEST DUP2 SLOAD DUP2 MSTORE SWAP1 PUSH1 0x1 ADD SWAP1 PUSH1 0x20 ADD DUP1 DUP4 GT PUSH2 0x15B5 JUMPI DUP3 SWAP1 SUB PUSH1 0x1F AND DUP3 ADD SWAP2 JUMPDEST POP POP POP POP POP DUP2 MSTORE PUSH1 0x20 ADD SWAP1 PUSH1 0x1 ADD SWAP1 PUSH2 0x153A JUMP JUMPDEST POP POP POP POP SWAP1 POP SWAP2 SWAP1 POP JUMP JUMPDEST PUSH1 0x2 PUSH1 0x0 SLOAD SUB PUSH2 0x1636 JUMPI PUSH1 0x40 MLOAD PUSH32 0x8C379A000000000000000000000000000000000000000000000000000000000 DUP2 MSTORE PUSH1 0x4 ADD PUSH2 0x162D SWAP1 PUSH2 0x24B7 JUMP JUMPDEST PUSH1 0x40 MLOAD DUP1 SWAP2 SUB SWAP1 REVERT JUMPDEST PUSH1 0x2 PUSH1 0x0 DUP2 SWAP1 SSTORE POP JUMP JUMPDEST PUSH1 0x1 PUSH1 0x0 DUP2 SWAP1 SSTORE POP JUMP JUMPDEST DUP3 DUP1 SLOAD DUP3 DUP3 SSTORE SWAP1 PUSH1 0x0 MSTORE PUSH1 0x20 PUSH1 0x0 KECCAK256 SWAP1 DUP2 ADD SWAP3 DUP3 ISZERO PUSH2 0x1692 JUMPI SWAP2 PUSH1 0x20 MUL DUP3 ADD JUMPDEST DUP3 DUP2 GT ISZERO PUSH2 0x1691 JUMPI DUP3 MLOAD DUP3 SWAP1 DUP2 PUSH2 0x1681 SWAP2 SWAP1 PUSH2 0x228D JUMP JUMPDEST POP SWAP2 PUSH1 0x20 ADD SWAP2 SWAP1 PUSH1 0x1 ADD SWAP1 PUSH2 0x166A JUMP JUMPDEST JUMPDEST POP SWAP1 POP PUSH2 0x169F SWAP2 SWAP1 PUSH2 0x16F0 JUMP JUMPDEST POP SWAP1 JUMP JUMPDEST DUP3 DUP1 SLOAD DUP3 DUP3 SSTORE SWAP1 PUSH1 0x0 MSTORE PUSH1 0x20 PUSH1 0x0 KECCAK256 SWAP1 DUP2 ADD SWAP3 DUP3 ISZERO PUSH2 0x16DF JUMPI SWAP2 PUSH1 0x20 MUL DUP3 ADD JUMPDEST DUP3 DUP2 GT ISZERO PUSH2 0x16DE JUMPI DUP3 MLOAD DUP3 SSTORE SWAP2 PUSH1 0x20 ADD SWAP2 SWAP1 PUSH1 0x1 ADD SWAP1 PUSH2 0x16C3 JUMP JUMPDEST JUMPDEST POP SWAP1 POP PUSH2 0x16EC SWAP2 SWAP1 PUSH2 0x1714 JUMP JUMPDEST POP SWAP1 JUMP JUMPDEST JUMPDEST DUP1 DUP3 GT ISZERO PUSH2 0x1710 JUMPI PUSH1 0x0 DUP2 DUP2 PUSH2 0x1707 SWAP2 SWAP1 PUSH2 0x1731 JUMP JUMPDEST POP PUSH1 0x1 ADD PUSH2 0x16F1 JUMP JUMPDEST POP SWAP1 JUMP JUMPDEST JUMPDEST DUP1 DUP3 GT ISZERO PUSH2 0x172D JUMPI PUSH1 0x0 DUP2 PUSH1 0x0 SWAP1 SSTORE POP PUSH1 0x1 ADD PUSH2 0x1715 JUMP JUMPDEST POP SWAP1 JUMP JUMPDEST POP DUP1 SLOAD PUSH2 0x173D SWAP1 PUSH2 0x1FCE JUMP JUMPDEST PUSH1 0x0 DUP3 SSTORE DUP1 PUSH1 0x1F LT PUSH2 0x174F JUMPI POP PUSH2 0x176E JUMP JUMPDEST PUSH1 0x1F ADD PUSH1 0x20 SWAP1 DIV SWAP1 PUSH1 0x0 MSTORE PUSH1 0x20 PUSH1 0x0 KECCAK256 SWAP1 DUP2 ADD SWAP1 PUSH2 0x176D SWAP2 SWAP1 PUSH2 0x1714 JUMP JUMPDEST JUMPDEST POP JUMP JUMPDEST PUSH1 0x0 PUSH1 0x40 MLOAD SWAP1 POP SWAP1 JUMP JUMPDEST PUSH1 0x0 DUP1 REVERT JUMPDEST PUSH1 0x0 DUP1 REVERT JUMPDEST PUSH1 0x0 DUP1 REVERT JUMPDEST PUSH1 0x0 DUP1 REVERT JUMPDEST PUSH1 0x0 PUSH1 0x1F NOT PUSH1 0x1F DUP4 ADD AND SWAP1 POP SWAP2 SWAP1 POP JUMP JUMPDEST PUSH32 0x4E487B7100000000000000000000000000000000000000000000000000000000 PUSH1 0x0 MSTORE PUSH1 0x41 PUSH1 0x4 MSTORE PUSH1 0x24 PUSH1 0x0 REVERT JUMPDEST PUSH2 0x17D8 DUP3 PUSH2 0x178F JUMP JUMPDEST DUP2 ADD DUP2 DUP2 LT PUSH8 0xFFFFFFFFFFFFFFFF DUP3 GT OR ISZERO PUSH2 0x17F7 JUMPI PUSH2 0x17F6 PUSH2 0x17A0 JUMP JUMPDEST JUMPDEST DUP1 PUSH1 0x40 MSTORE POP POP POP JUMP JUMPDEST PUSH1 0x0 PUSH2 0x180A PUSH2 0x1771 JUMP JUMPDEST SWAP1 POP PUSH2 0x1816 DUP3 DUP3 PUSH2 0x17CF JUMP JUMPDEST SWAP2 SWAP1 POP JUMP JUMPDEST PUSH1 0x0 PUSH8 0xFFFFFFFFFFFFFFFF DUP3 GT ISZERO PUSH2 0x1836 JUMPI PUSH2 0x1835 PUSH2 0x17A0 JUMP JUMPDEST JUMPDEST PUSH2 0x183F DUP3 PUSH2 0x178F JUMP JUMPDEST SWAP1 POP PUSH1 0x20 DUP2 ADD SWAP1 POP SWAP2 SWAP1 POP JUMP JUMPDEST DUP3 DUP2 DUP4 CALLDATACOPY PUSH1 0x0 DUP4 DUP4 ADD MSTORE POP POP POP JUMP JUMPDEST PUSH1 0x0 PUSH2 0x186E PUSH2 0x1869 DUP5 PUSH2 0x181B JUMP JUMPDEST PUSH2 0x1800 JUMP JUMPDEST SWAP1 POP DUP3 DUP2 MSTORE PUSH1 0x20 DUP2 ADD DUP5 DUP5 DUP5 ADD GT ISZERO PUSH2 0x188A JUMPI PUSH2 0x1889 PUSH2 0x178A JUMP JUMPDEST JUMPDEST PUSH2 0x1895 DUP5 DUP3 DUP6 PUSH2 0x184C JUMP JUMPDEST POP SWAP4 SWAP3 POP POP POP JUMP JUMPDEST PUSH1 0x0 DUP3 PUSH1 0x1F DUP4 ADD SLT PUSH2 0x18B2 JUMPI PUSH2 0x18B1 PUSH2 0x1785 JUMP JUMPDEST JUMPDEST DUP2 CALLDATALOAD PUSH2 0x18C2 DUP5 DUP3 PUSH1 0x20 DUP7 ADD PUSH2 0x185B JUMP JUMPDEST SWAP2 POP POP SWAP3 SWAP2 POP POP JUMP JUMPDEST PUSH1 0x0 DUP1 PUSH1 0x40 DUP4 DUP6 SUB SLT ISZERO PUSH2 0x18E2 JUMPI PUSH2 0x18E1 PUSH2 0x177B JUMP JUMPDEST JUMPDEST PUSH1 0x0 DUP4 ADD CALLDATALOAD PUSH8 0xFFFFFFFFFFFFFFFF DUP2 GT ISZERO PUSH2 0x1900 JUMPI PUSH2 0x18FF PUSH2 0x1780 JUMP JUMPDEST JUMPDEST PUSH2 0x190C DUP6 DUP3 DUP7 ADD PUSH2 0x189D JUMP JUMPDEST SWAP3 POP POP PUSH1 0x20 DUP4 ADD CALLDATALOAD PUSH8 0xFFFFFFFFFFFFFFFF DUP2 GT ISZERO PUSH2 0x192D JUMPI PUSH2 0x192C PUSH2 0x1780 JUMP JUMPDEST JUMPDEST PUSH2 0x1939 DUP6 DUP3 DUP7 ADD PUSH2 0x189D JUMP JUMPDEST SWAP2 POP POP SWAP3 POP SWAP3 SWAP1 POP JUMP JUMPDEST PUSH1 0x0 DUP2 MLOAD SWAP1 POP SWAP2 SWAP1 POP JUMP JUMPDEST PUSH1 0x0 DUP3 DUP3 MSTORE PUSH1 0x20 DUP3 ADD SWAP1 POP SWAP3 SWAP2 POP POP JUMP JUMPDEST PUSH1 0x0 DUP2 SWAP1 POP PUSH1 0x20 DUP3 ADD SWAP1 POP SWAP2 SWAP1 POP JUMP JUMPDEST PUSH1 0x0 DUP2 SWAP1 POP SWAP2 SWAP1 POP JUMP JUMPDEST PUSH2 0x1982 DUP2 PUSH2 0x196F JUMP JUMPDEST DUP3 MSTORE POP POP JUMP JUMPDEST PUSH1 0x0 PUSH2 0x1994 DUP4 DUP4 PUSH2 0x1979 JUMP JUMPDEST PUSH1 0x20 DUP4 ADD SWAP1 POP SWAP3 SWAP2 POP POP JUMP JUMPDEST PUSH1 0x0 PUSH1 0x20 DUP3 ADD SWAP1 POP SWAP2 SWAP1 POP JUMP JUMPDEST PUSH1 0x0 PUSH2 0x19B8 DUP3 PUSH2 0x1943 JUMP JUMPDEST PUSH2 0x19C2 DUP2 DUP6 PUSH2 0x194E JUMP JUMPDEST SWAP4 POP PUSH2 0x19CD DUP4 PUSH2 0x195F JUMP JUMPDEST DUP1 PUSH1 0x0 JUMPDEST DUP4 DUP2 LT ISZERO PUSH2 0x19FE JUMPI DUP2 MLOAD PUSH2 0x19E5 DUP9 DUP3 PUSH2 0x1988 JUMP JUMPDEST SWAP8 POP PUSH2 0x19F0 DUP4 PUSH2 0x19A0 JUMP JUMPDEST SWAP3 POP POP PUSH1 0x1 DUP2 ADD SWAP1 POP PUSH2 0x19D1 JUMP JUMPDEST POP DUP6 SWAP4 POP POP POP POP SWAP3 SWAP2 POP POP JUMP JUMPDEST PUSH1 0x0 PUSH1 0x20 DUP3 ADD SWAP1 POP DUP2 DUP2 SUB PUSH1 0x0 DUP4 ADD MSTORE PUSH2 0x1A25 DUP2 DUP5 PUSH2 0x19AD JUMP JUMPDEST SWAP1 POP SWAP3 SWAP2 POP POP JUMP JUMPDEST PUSH1 0x0 PUSH1 0x20 DUP3 DUP5 SUB SLT ISZERO PUSH2 0x1A43 JUMPI PUSH2 0x1A42 PUSH2 0x177B JUMP JUMPDEST JUMPDEST PUSH1 0x0 DUP3 ADD CALLDATALOAD PUSH8 0xFFFFFFFFFFFFFFFF DUP2 GT ISZERO PUSH2 0x1A61 JUMPI PUSH2 0x1A60 PUSH2 0x1780 JUMP JUMPDEST JUMPDEST PUSH2 0x1A6D DUP5 DUP3 DUP6 ADD PUSH2 0x189D JUMP JUMPDEST SWAP2 POP POP SWAP3 SWAP2 POP POP JUMP JUMPDEST PUSH1 0x0 DUP2 MLOAD SWAP1 POP SWAP2 SWAP1 POP JUMP JUMPDEST PUSH1 0x0 DUP3 DUP3 MSTORE PUSH1 0x20 DUP3 ADD SWAP1 POP SWAP3 SWAP2 POP POP JUMP JUMPDEST PUSH1 0x0 DUP2 SWAP1 POP PUSH1 0x20 DUP3 ADD SWAP1 POP SWAP2 SWAP1 POP JUMP JUMPDEST PUSH1 0x0 DUP2 MLOAD SWAP1 POP SWAP2 SWAP1 POP JUMP JUMPDEST PUSH1 0x0 DUP3 DUP3 MSTORE PUSH1 0x20 DUP3 ADD SWAP1 POP SWAP3 SWAP2 POP POP JUMP JUMPDEST PUSH1 0x0 JUMPDEST DUP4 DUP2 LT ISZERO PUSH2 0x1ADC JUMPI DUP1 DUP3 ADD MLOAD DUP2 DUP5 ADD MSTORE PUSH1 0x20 DUP2 ADD SWAP1 POP PUSH2 0x1AC1 JUMP JUMPDEST PUSH1 0x0 DUP5 DUP5 ADD MSTORE POP POP POP POP JUMP JUMPDEST PUSH1 0x0 PUSH2 0x1AF3 DUP3 PUSH2 0x1AA2 JUMP JUMPDEST PUSH2 0x1AFD DUP2 DUP6 PUSH2 0x1AAD JUMP JUMPDEST SWAP4 POP PUSH2 0x1B0D DUP2 DUP6 PUSH1 0x20 DUP7 ADD PUSH2 0x1ABE JUMP JUMPDEST PUSH2 0x1B16 DUP2 PUSH2 0x178F JUMP JUMPDEST DUP5 ADD SWAP2 POP POP SWAP3 SWAP2 POP POP JUMP JUMPDEST PUSH1 0x0 PUSH2 0x1B2D DUP4 DUP4 PUSH2 0x1AE8 JUMP JUMPDEST SWAP1 POP SWAP3 SWAP2 POP POP JUMP JUMPDEST PUSH1 0x0 PUSH1 0x20 DUP3 ADD SWAP1 POP SWAP2 SWAP1 POP JUMP JUMPDEST PUSH1 0x0 PUSH2 0x1B4D DUP3 PUSH2 0x1A76 JUMP JUMPDEST PUSH2 0x1B57 DUP2 DUP6 PUSH2 0x1A81 JUMP JUMPDEST SWAP4 POP DUP4 PUSH1 0x20 DUP3 MUL DUP6 ADD PUSH2 0x1B69 DUP6 PUSH2 0x1A92 JUMP JUMPDEST DUP1 PUSH1 0x0 JUMPDEST DUP6 DUP2 LT ISZERO PUSH2 0x1BA5 JUMPI DUP5 DUP5 SUB DUP10 MSTORE DUP2 MLOAD PUSH2 0x1B86 DUP6 DUP3 PUSH2 0x1B21 JUMP JUMPDEST SWAP5 POP PUSH2 0x1B91 DUP4 PUSH2 0x1B35 JUMP JUMPDEST SWAP3 POP PUSH1 0x20 DUP11 ADD SWAP10 POP POP PUSH1 0x1 DUP2 ADD SWAP1 POP PUSH2 0x1B6D JUMP JUMPDEST POP DUP3 SWAP8 POP DUP8 SWAP6 POP POP POP POP POP POP SWAP3 SWAP2 POP POP JUMP JUMPDEST PUSH1 0x0 PUSH1 0x20 DUP3 ADD SWAP1 POP DUP2 DUP2 SUB PUSH1 0x0 DUP4 ADD MSTORE PUSH2 0x1BD1 DUP2 DUP5 PUSH2 0x1B42 JUMP JUMPDEST SWAP1 POP SWAP3 SWAP2 POP POP JUMP JUMPDEST PUSH2 0x1BE2 DUP2 PUSH2 0x196F JUMP JUMPDEST DUP2 EQ PUSH2 0x1BED JUMPI PUSH1 0x0 DUP1 REVERT JUMPDEST POP JUMP JUMPDEST PUSH1 0x0 DUP2 CALLDATALOAD SWAP1 POP PUSH2 0x1BFF DUP2 PUSH2 0x1BD9 JUMP JUMPDEST SWAP3 SWAP2 POP POP JUMP JUMPDEST PUSH1 0x0 PUSH1 0x20 DUP3 DUP5 SUB SLT ISZERO PUSH2 0x1C1B JUMPI PUSH2 0x1C1A PUSH2 0x177B JUMP JUMPDEST JUMPDEST PUSH1 0x0 PUSH2 0x1C29 DUP5 DUP3 DUP6 ADD PUSH2 0x1BF0 JUMP JUMPDEST SWAP2 POP POP SWAP3 SWAP2 POP POP JUMP JUMPDEST PUSH1 0x0 DUP3 DUP3 MSTORE PUSH1 0x20 DUP3 ADD SWAP1 POP SWAP3 SWAP2 POP POP JUMP JUMPDEST PUSH1 0x0 PUSH2 0x1C4E DUP3 PUSH2 0x1AA2 JUMP JUMPDEST PUSH2 0x1C58 DUP2 DUP6 PUSH2 0x1C32 JUMP JUMPDEST SWAP4 POP PUSH2 0x1C68 DUP2 DUP6 PUSH1 0x20 DUP7 ADD PUSH2 0x1ABE JUMP JUMPDEST PUSH2 0x1C71 DUP2 PUSH2 0x178F JUMP JUMPDEST DUP5 ADD SWAP2 POP POP SWAP3 SWAP2 POP POP JUMP JUMPDEST PUSH1 0x0 PUSH1 0x20 DUP3 ADD SWAP1 POP DUP2 DUP2 SUB PUSH1 0x0 DUP4 ADD MSTORE PUSH2 0x1C96 DUP2 DUP5 PUSH2 0x1C43 JUMP JUMPDEST SWAP1 POP SWAP3 SWAP2 POP POP JUMP JUMPDEST PUSH1 0x0 DUP2 ISZERO ISZERO SWAP1 POP SWAP2 SWAP1 POP JUMP JUMPDEST PUSH2 0x1CB3 DUP2 PUSH2 0x1C9E JUMP JUMPDEST DUP2 EQ PUSH2 0x1CBE JUMPI PUSH1 0x0 DUP1 REVERT JUMPDEST POP JUMP JUMPDEST PUSH1 0x0 DUP2 CALLDATALOAD SWAP1 POP PUSH2 0x1CD0 DUP2 PUSH2 0x1CAA JUMP JUMPDEST SWAP3 SWAP2 POP POP JUMP JUMPDEST PUSH1 0x0 DUP1 PUSH1 0x40 DUP4 DUP6 SUB SLT ISZERO PUSH2 0x1CED JUMPI PUSH2 0x1CEC PUSH2 0x177B JUMP JUMPDEST JUMPDEST PUSH1 0x0 DUP4 ADD CALLDATALOAD PUSH8 0xFFFFFFFFFFFFFFFF DUP2 GT ISZERO PUSH2 0x1D0B JUMPI PUSH2 0x1D0A PUSH2 0x1780 JUMP JUMPDEST JUMPDEST PUSH2 0x1D17 DUP6 DUP3 DUP7 ADD PUSH2 0x189D JUMP JUMPDEST SWAP3 POP POP PUSH1 0x20 PUSH2 0x1D28 DUP6 DUP3 DUP7 ADD PUSH2 0x1CC1 JUMP JUMPDEST SWAP2 POP POP SWAP3 POP SWAP3 SWAP1 POP JUMP JUMPDEST PUSH2 0x1D3B DUP2 PUSH2 0x1C9E JUMP JUMPDEST DUP3 MSTORE POP POP JUMP JUMPDEST PUSH1 0x0 PUSH1 0x20 DUP3 ADD SWAP1 POP PUSH2 0x1D56 PUSH1 0x0 DUP4 ADD DUP5 PUSH2 0x1D32 JUMP JUMPDEST SWAP3 SWAP2 POP POP JUMP JUMPDEST PUSH2 0x1D65 DUP2 PUSH2 0x196F JUMP JUMPDEST DUP3 MSTORE POP POP JUMP JUMPDEST PUSH1 0x0 PUSH1 0x20 DUP3 ADD SWAP1 POP PUSH2 0x1D80 PUSH1 0x0 DUP4 ADD DUP5 PUSH2 0x1D5C JUMP JUMPDEST SWAP3 SWAP2 POP POP JUMP JUMPDEST PUSH1 0x0 DUP1 PUSH1 0x40 DUP4 DUP6 SUB SLT ISZERO PUSH2 0x1D9D JUMPI PUSH2 0x1D9C PUSH2 0x177B JUMP JUMPDEST JUMPDEST PUSH1 0x0 DUP4 ADD CALLDATALOAD PUSH8 0xFFFFFFFFFFFFFFFF DUP2 GT ISZERO PUSH2 0x1DBB JUMPI PUSH2 0x1DBA PUSH2 0x1780 JUMP JUMPDEST JUMPDEST PUSH2 0x1DC7 DUP6 DUP3 DUP7 ADD PUSH2 0x189D JUMP JUMPDEST SWAP3 POP POP PUSH1 0x20 PUSH2 0x1DD8 DUP6 DUP3 DUP7 ADD PUSH2 0x1BF0 JUMP JUMPDEST SWAP2 POP POP SWAP3 POP SWAP3 SWAP1 POP JUMP JUMPDEST PUSH1 0x0 DUP2 SWAP1 POP SWAP3 SWAP2 POP POP JUMP JUMPDEST PUSH1 0x0 PUSH2 0x1DF8 DUP3 PUSH2 0x1AA2 JUMP JUMPDEST PUSH2 0x1E02 DUP2 DUP6 PUSH2 0x1DE2 JUMP JUMPDEST SWAP4 POP PUSH2 0x1E12 DUP2 DUP6 PUSH1 0x20 DUP7 ADD PUSH2 0x1ABE JUMP JUMPDEST DUP1 DUP5 ADD SWAP2 POP POP SWAP3 SWAP2 POP POP JUMP JUMPDEST PUSH1 0x0 PUSH2 0x1E2A DUP3 DUP5 PUSH2 0x1DED JUMP JUMPDEST SWAP2 POP DUP2 SWAP1 POP SWAP3 SWAP2 POP POP JUMP JUMPDEST PUSH32 0x4163636573732044656E69656400000000000000000000000000000000000000 PUSH1 0x0 DUP3 ADD MSTORE POP JUMP JUMPDEST PUSH1 0x0 PUSH2 0x1E6B PUSH1 0xD DUP4 PUSH2 0x1C32 JUMP JUMPDEST SWAP2 POP PUSH2 0x1E76 DUP3 PUSH2 0x1E35 JUMP JUMPDEST PUSH1 0x20 DUP3 ADD SWAP1 POP SWAP2 SWAP1 POP JUMP JUMPDEST PUSH1 0x0 PUSH1 0x20 DUP3 ADD SWAP1 POP DUP2 DUP2 SUB PUSH1 0x0 DUP4 ADD MSTORE PUSH2 0x1E9A DUP2 PUSH2 0x1E5E JUMP JUMPDEST SWAP1 POP SWAP2 SWAP1 POP JUMP JUMPDEST PUSH32 0x416C72656164792044656E696564000000000000000000000000000000000000 PUSH1 0x0 DUP3 ADD MSTORE POP JUMP JUMPDEST PUSH1 0x0 PUSH2 0x1ED7 PUSH1 0xE DUP4 PUSH2 0x1C32 JUMP JUMPDEST SWAP2 POP PUSH2 0x1EE2 DUP3 PUSH2 0x1EA1 JUMP JUMPDEST PUSH1 0x20 DUP3 ADD SWAP1 POP SWAP2 SWAP1 POP JUMP JUMPDEST PUSH1 0x0 PUSH1 0x20 DUP3 ADD SWAP1 POP DUP2 DUP2 SUB PUSH1 0x0 DUP4 ADD MSTORE PUSH2 0x1F06 DUP2 PUSH2 0x1ECA JUMP JUMPDEST SWAP1 POP SWAP2 SWAP1 POP JUMP JUMPDEST PUSH32 0x4E487B7100000000000000000000000000000000000000000000000000000000 PUSH1 0x0 MSTORE PUSH1 0x11 PUSH1 0x4 MSTORE PUSH1 0x24 PUSH1 0x0 REVERT JUMPDEST PUSH1 0x0 PUSH2 0x1F47 DUP3 PUSH2 0x196F JUMP JUMPDEST SWAP2 POP PUSH2 0x1F52 DUP4 PUSH2 0x196F JUMP JUMPDEST SWAP3 POP DUP3 DUP3 SUB SWAP1 POP DUP2 DUP2 GT ISZERO PUSH2 0x1F6A JUMPI PUSH2 0x1F69 PUSH2 0x1F0D JUMP JUMPDEST JUMPDEST SWAP3 SWAP2 POP POP JUMP JUMPDEST PUSH32 0x4E487B7100000000000000000000000000000000000000000000000000000000 PUSH1 0x0 MSTORE PUSH1 0x32 PUSH1 0x4 MSTORE PUSH1 0x24 PUSH1 0x0 REVERT JUMPDEST PUSH32 0x4E487B7100000000000000000000000000000000000000000000000000000000 PUSH1 0x0 MSTORE PUSH1 0x22 PUSH1 0x4 MSTORE PUSH1 0x24 PUSH1 0x0 REVERT JUMPDEST PUSH1 0x0 PUSH1 0x2 DUP3 DIV SWAP1 POP PUSH1 0x1 DUP3 AND DUP1 PUSH2 0x1FE6 JUMPI PUSH1 0x7F DUP3 AND SWAP2 POP JUMPDEST PUSH1 0x20 DUP3 LT DUP2 SUB PUSH2 0x1FF9 JUMPI PUSH2 0x1FF8 PUSH2 0x1F9F JUMP JUMPDEST JUMPDEST POP SWAP2 SWAP1 POP JUMP JUMPDEST PUSH1 0x0 DUP2 SWAP1 POP DUP2 PUSH1 0x0 MSTORE PUSH1 0x20 PUSH1 0x0 KECCAK256 SWAP1 POP SWAP2 SWAP1 POP JUMP JUMPDEST PUSH1 0x0 DUP2 SLOAD PUSH2 0x2021 DUP2 PUSH2 0x1FCE JUMP JUMPDEST PUSH2 0x202B DUP2 DUP7 PUSH2 0x1DE2 JUMP JUMPDEST SWAP5 POP PUSH1 0x1 DUP3 AND PUSH1 0x0 DUP2 EQ PUSH2 0x2046 JUMPI PUSH1 0x1 DUP2 EQ PUSH2 0x205B JUMPI PUSH2 0x208E JUMP JUMPDEST PUSH1 0xFF NOT DUP4 AND DUP7 MSTORE DUP2 ISZERO ISZERO DUP3 MUL DUP7 ADD SWAP4 POP PUSH2 0x208E JUMP JUMPDEST PUSH2 0x2064 DUP6 PUSH2 0x1FFF JUMP JUMPDEST PUSH1 0x0 JUMPDEST DUP4 DUP2 LT ISZERO PUSH2 0x2086 JUMPI DUP2 SLOAD DUP2 DUP10 ADD MSTORE PUSH1 0x1 DUP3 ADD SWAP2 POP PUSH1 0x20 DUP2 ADD SWAP1 POP PUSH2 0x2067 JUMP JUMPDEST DUP4 DUP9 ADD SWAP6 POP POP POP JUMPDEST POP POP POP SWAP3 SWAP2 POP POP JUMP JUMPDEST PUSH1 0x0 PUSH2 0x20A3 DUP3 DUP5 PUSH2 0x2014 JUMP JUMPDEST SWAP2 POP DUP2 SWAP1 POP SWAP3 SWAP2 POP POP JUMP JUMPDEST PUSH1 0x0 PUSH2 0x20B9 DUP3 PUSH2 0x196F JUMP JUMPDEST SWAP2 POP PUSH32 0xFFFFFFFFFFFFFFFFFFFFFFFFFFFFFFFFFFFFFFFFFFFFFFFFFFFFFFFFFFFFFFFF DUP3 SUB PUSH2 0x20EB JUMPI PUSH2 0x20EA PUSH2 0x1F0D JUMP JUMPDEST JUMPDEST PUSH1 0x1 DUP3 ADD SWAP1 POP SWAP2 SWAP1 POP JUMP JUMPDEST PUSH1 0x0 PUSH1 0x20 PUSH1 0x1F DUP4 ADD DIV SWAP1 POP SWAP2 SWAP1 POP JUMP JUMPDEST PUSH1 0x0 DUP3 DUP3 SHL SWAP1 POP SWAP3 SWAP2 POP POP JUMP JUMPDEST PUSH1 0x0 PUSH1 0x8 DUP4 MUL PUSH2 0x2143 PUSH32 0xFFFFFFFFFFFFFFFFFFFFFFFFFFFFFFFFFFFFFFFFFFFFFFFFFFFFFFFFFFFFFFFF DUP3 PUSH2 0x2106 JUMP JUMPDEST PUSH2 0x214D DUP7 DUP4 PUSH2 0x2106 JUMP JUMPDEST SWAP6 POP DUP1 NOT DUP5 AND SWAP4 POP DUP1 DUP7 AND DUP5 OR SWAP3 POP POP POP SWAP4 SWAP3 POP POP POP JUMP JUMPDEST PUSH1 0x0 DUP2 SWAP1 POP SWAP2 SWAP1 POP JUMP JUMPDEST PUSH1 0x0 PUSH2 0x218A PUSH2 0x2185 PUSH2 0x2180 DUP5 PUSH2 0x196F JUMP JUMPDEST PUSH2 0x2165 JUMP JUMPDEST PUSH2 0x196F JUMP JUMPDEST SWAP1 POP SWAP2 SWAP1 POP JUMP JUMPDEST PUSH1 0x0 DUP2 SWAP1 POP SWAP2 SWAP1 POP JUMP JUMPDEST PUSH2 0x21A4 DUP4 PUSH2 0x216F JUMP JUMPDEST PUSH2 0x21B8 PUSH2 0x21B0 DUP3 PUSH2 0x2191 JUMP JUMPDEST DUP5 DUP5 SLOAD PUSH2 0x2113 JUMP JUMPDEST DUP3 SSTORE POP POP POP POP JUMP JUMPDEST PUSH1 0x0 SWAP1 JUMP JUMPDEST PUSH2 0x21CD PUSH2 0x21C0 JUMP JUMPDEST PUSH2 0x21D8 DUP2 DUP5 DUP5 PUSH2 0x219B JUMP JUMPDEST POP POP POP JUMP JUMPDEST JUMPDEST DUP2 DUP2 LT ISZERO PUSH2 0x21FC JUMPI PUSH2 0x21F1 PUSH1 0x0 DUP3 PUSH2 0x21C5 JUMP JUMPDEST PUSH1 0x1 DUP2 ADD SWAP1 POP PUSH2 0x21DE JUMP JUMPDEST POP POP JUMP JUMPDEST PUSH1 0x1F DUP3 GT ISZERO PUSH2 0x2241 JUMPI PUSH2 0x2212 DUP2 PUSH2 0x1FFF JUMP JUMPDEST PUSH2 0x221B DUP5 PUSH2 0x20F6 JUMP JUMPDEST DUP2 ADD PUSH1 0x20 DUP6 LT ISZERO PUSH2 0x222A JUMPI DUP2 SWAP1 POP JUMPDEST PUSH2 0x223E PUSH2 0x2236 DUP6 PUSH2 0x20F6 JUMP JUMPDEST DUP4 ADD DUP3 PUSH2 0x21DD JUMP JUMPDEST POP POP JUMPDEST POP POP POP JUMP JUMPDEST PUSH1 0x0 DUP3 DUP3 SHR SWAP1 POP SWAP3 SWAP2 POP POP JUMP JUMPDEST PUSH1 0x0 PUSH2 0x2264 PUSH1 0x0 NOT DUP5 PUSH1 0x8 MUL PUSH2 0x2246 JUMP JUMPDEST NOT DUP1 DUP4 AND SWAP2 POP POP SWAP3 SWAP2 POP POP JUMP JUMPDEST PUSH1 0x0 PUSH2 0x227D DUP4 DUP4 PUSH2 0x2253 JUMP JUMPDEST SWAP2 POP DUP3 PUSH1 0x2 MUL DUP3 OR SWAP1 POP SWAP3 SWAP2 POP POP JUMP JUMPDEST PUSH2 0x2296 DUP3 PUSH2 0x1AA2 JUMP JUMPDEST PUSH8 0xFFFFFFFFFFFFFFFF DUP2 GT ISZERO PUSH2 0x22AF JUMPI PUSH2 0x22AE PUSH2 0x17A0 JUMP JUMPDEST JUMPDEST PUSH2 0x22B9 DUP3 SLOAD PUSH2 0x1FCE JUMP JUMPDEST PUSH2 0x22C4 DUP3 DUP3 DUP6 PUSH2 0x2200 JUMP JUMPDEST PUSH1 0x0 PUSH1 0x20 SWAP1 POP PUSH1 0x1F DUP4 GT PUSH1 0x1 DUP2 EQ PUSH2 0x22F7 JUMPI PUSH1 0x0 DUP5 ISZERO PUSH2 0x22E5 JUMPI DUP3 DUP8 ADD MLOAD SWAP1 POP JUMPDEST PUSH2 0x22EF DUP6 DUP3 PUSH2 0x2271 JUMP JUMPDEST DUP7 SSTORE POP PUSH2 0x2357 JUMP JUMPDEST PUSH1 0x1F NOT DUP5 AND PUSH2 0x2305 DUP7 PUSH2 0x1FFF JUMP JUMPDEST PUSH1 0x0 JUMPDEST DUP3 DUP2 LT ISZERO PUSH2 0x232D JUMPI DUP5 DUP10 ADD MLOAD DUP3 SSTORE PUSH1 0x1 DUP3 ADD SWAP2 POP PUSH1 0x20 DUP6 ADD SWAP5 POP PUSH1 0x20 DUP2 ADD SWAP1 POP PUSH2 0x2308 JUMP JUMPDEST DUP7 DUP4 LT ISZERO PUSH2 0x234A JUMPI DUP5 DUP10 ADD MLOAD PUSH2 0x2346 PUSH1 0x1F DUP10 AND DUP3 PUSH2 0x2253 JUMP JUMPDEST DUP4 SSTORE POP JUMPDEST PUSH1 0x1 PUSH1 0x2 DUP9 MUL ADD DUP9 SSTORE POP POP POP JUMPDEST POP POP POP POP POP POP JUMP JUMPDEST PUSH32 0x4769766520612076616C696420616D6F756E7400000000000000000000000000 PUSH1 0x0 DUP3 ADD MSTORE POP JUMP JUMPDEST PUSH1 0x0 PUSH2 0x2395 PUSH1 0x13 DUP4 PUSH2 0x1C32 JUMP JUMPDEST SWAP2 POP PUSH2 0x23A0 DUP3 PUSH2 0x235F JUMP JUMPDEST PUSH1 0x20 DUP3 ADD SWAP1 POP SWAP2 SWAP1 POP JUMP JUMPDEST PUSH1 0x0 PUSH1 0x20 DUP3 ADD SWAP1 POP DUP2 DUP2 SUB PUSH1 0x0 DUP4 ADD MSTORE PUSH2 0x23C4 DUP2 PUSH2 0x2388 JUMP JUMPDEST SWAP1 POP SWAP2 SWAP1 POP JUMP JUMPDEST PUSH32 0x416C726561647920417070726F76656400000000000000000000000000000000 PUSH1 0x0 DUP3 ADD MSTORE POP JUMP JUMPDEST PUSH1 0x0 PUSH2 0x2401 PUSH1 0x10 DUP4 PUSH2 0x1C32 JUMP JUMPDEST SWAP2 POP PUSH2 0x240C DUP3 PUSH2 0x23CB JUMP JUMPDEST PUSH1 0x20 DUP3 ADD SWAP1 POP SWAP2 SWAP1 POP JUMP JUMPDEST PUSH1 0x0 PUSH1 0x20 DUP3 ADD SWAP1 POP DUP2 DUP2 SUB PUSH1 0x0 DUP4 ADD MSTORE PUSH2 0x2430 DUP2 PUSH2 0x23F4 JUMP JUMPDEST SWAP1 POP SWAP2 SWAP1 POP JUMP JUMPDEST PUSH1 0x0 PUSH2 0x2442 DUP3 PUSH2 0x196F JUMP JUMPDEST SWAP2 POP PUSH2 0x244D DUP4 PUSH2 0x196F JUMP JUMPDEST SWAP3 POP DUP3 DUP3 ADD SWAP1 POP DUP1 DUP3 GT ISZERO PUSH2 0x2465 JUMPI PUSH2 0x2464 PUSH2 0x1F0D JUMP JUMPDEST JUMPDEST SWAP3 SWAP2 POP POP JUMP JUMPDEST PUSH32 0x5265656E7472616E637947756172643A207265656E7472616E742063616C6C00 PUSH1 0x0 DUP3 ADD MSTORE POP JUMP JUMPDEST PUSH1 0x0 PUSH2 0x24A1 PUSH1 0x1F DUP4 PUSH2 0x1C32 JUMP JUMPDEST SWAP2 POP PUSH2 0x24AC DUP3 PUSH2 0x246B JUMP JUMPDEST PUSH1 0x20 DUP3 ADD SWAP1 POP SWAP2 SWAP1 POP JUMP JUMPDEST PUSH1 0x0 PUSH1 0x20 DUP3 ADD SWAP1 POP DUP2 DUP2 SUB PUSH1 0x0 DUP4 ADD MSTORE PUSH2 0x24D0 DUP2 PUSH2 0x2494 JUMP JUMPDEST SWAP1 POP SWAP2 SWAP1 POP JUMP INVALID LOG2 PUSH5 0x6970667358 0x22 SLT KECCAK256 0xAA EXP PUSH28 0xB5528E8038367D2F2EC5DE8F459F27D5ADED767D2C6F2527DF72F9F4 PUSH12 0x64736F6C6343000814003300 "},"methodIdentifiers":{"addDocuments(string,uint256)":"ac96b8aa","approve(string,string)":"778f3de0","createDocter(string)":"26bf0a38","createPatient(string)":"2383c44e","createToken(string)":"45576f94","donateMoney(string,bool)":"3fd9d184","getDocters(string)":"e1c83bdc","getPatientDetails(string,string)":"09d1fc33","getPatients(string)":"24a8fd34","getTokenIds()":"67f718a9","getTokenURI(uint256)":"3bb3a24d","revoke(string,string)":"10b40f85"}}}}}